{"abi":[{"type":"function","name":"computeRanking","inputs":[{"name":"","type":"address","internalType":"address"}],"outputs":[],"stateMutability":"nonpayable"},{"type":"function","name":"depositWithdrawFee","inputs":[],"outputs":[{"name":"","type":"uint256","internalType":"uint256"}],"stateMutability":"view"},{"type":"function","name":"getFinalPortfolio","inputs":[],"outputs":[{"name":"","type":"address[]","internalType":"address[]"},{"name":"","type":"uint256[]","internalType":"uint256[]"}],"stateMutability":"view"},{"type":"function","name":"getRankingList","inputs":[],"outputs":[{"name":"","type":"address[]","internalType":"address[]"}],"stateMutability":"view"},{"type":"function","name":"getTraderScore","inputs":[{"name":"trader","type":"address","internalType":"address"}],"outputs":[{"name":"","type":"uint256","internalType":"uint256"}],"stateMutability":"view"},{"type":"function","name":"minPercIndexAllowance","inputs":[],"outputs":[{"name":"","type":"uint256","internalType":"uint256"}],"stateMutability":"view"},{"type":"function","name":"rebalanceActor","inputs":[],"outputs":[{"name":"","type":"address","internalType":"address"}],"stateMutability":"view"},{"type":"function","name":"rebalanceActorFee","inputs":[],"outputs":[{"name":"","type":"uint256","internalType":"uint256"}],"stateMutability":"view"},{"type":"function","name":"rewardsFee","inputs":[],"outputs":[{"name":"","type":"uint256","internalType":"uint256"}],"stateMutability":"view"},{"type":"function","name":"setRebalanceActor","inputs":[{"name":"actor","type":"address","internalType":"address"}],"outputs":[],"stateMutability":"nonpayable"},{"type":"function","name":"setRebalanceActorFee","inputs":[{"name":"fee","type":"uint256","internalType":"uint256"}],"outputs":[],"stateMutability":"nonpayable"},{"type":"function","name":"setTraderScore","inputs":[{"name":"trader","type":"address","internalType":"address"},{"name":"score","type":"uint256","internalType":"uint256"}],"outputs":[],"stateMutability":"nonpayable"},{"type":"function","name":"totalRankSum","inputs":[],"outputs":[{"name":"","type":"uint256","internalType":"uint256"}],"stateMutability":"view"},{"type":"function","name":"transactionsFee","inputs":[],"outputs":[{"name":"","type":"uint256","internalType":"uint256"}],"stateMutability":"view"},{"type":"function","name":"updateTraderData","inputs":[{"name":"","type":"address","internalType":"address"},{"name":"","type":"uint256[]","internalType":"uint256[]"},{"name":"","type":"address[]","internalType":"address[]"}],"outputs":[],"stateMutability":"nonpayable"}],"bytecode":{"object":"0x6080604052348015600f57600080fd5b50610bc38061001f6000396000f3fe608060405234801561001057600080fd5b50600436106100f55760003560e01c8063405ed0ef11610097578063b8ce367211610066578063b8ce367214610253578063c780b0511461026f578063d49674fc1461028d578063f4bd260b146102a9576100f5565b8063405ed0ef146101dd5780634b97333e146101fb5780634ef5e7f414610217578063a786ab7514610235576100f5565b80631fdf6755116100d35780631fdf675514610164578063242331a8146101825780632bb14e1d146101a05780633224da32146101be576100f5565b80630622fd17146100fa57806308ad90a5146101165780631ef867dd14610146575b600080fd5b610114600480360381019061010f91906105c0565b6102c5565b005b610130600480360381019061012b9190610600565b610388565b60405161013d919061063c565b60405180910390f35b61014e6103d0565b60405161015b9190610666565b60405180910390f35b61016c6103fa565b604051610179919061073f565b60405180910390f35b61018a610488565b604051610197919061063c565b60405180910390f35b6101a861048d565b6040516101b5919061063c565b60405180910390f35b6101c6610492565b6040516101d492919061081f565b60405180910390f35b6101e56104a4565b6040516101f2919061063c565b60405180910390f35b61021560048036038101906102109190610856565b6104a9565b005b61021f6104b3565b60405161022c919061063c565b60405180910390f35b61023d6104bd565b60405161024a919061063c565b60405180910390f35b61026d60048036038101906102689190610600565b6104c2565b005b610277610506565b604051610284919061063c565b60405180910390f35b6102a760048036038101906102a29190610a9f565b610510565b005b6102c360048036038101906102be9190610600565b610515565b005b806000808473ffffffffffffffffffffffffffffffffffffffff1673ffffffffffffffffffffffffffffffffffffffff168152602001908152602001600020819055506001829080600181540180825580915050600190039060005260206000200160009091909190916101000a81548173ffffffffffffffffffffffffffffffffffffffff021916908373ffffffffffffffffffffffffffffffffffffffff160217905550806004600082825461037d9190610b59565b925050819055505050565b60008060008373ffffffffffffffffffffffffffffffffffffffff1673ffffffffffffffffffffffffffffffffffffffff168152602001908152602001600020549050919050565b6000600260009054906101000a900473ffffffffffffffffffffffffffffffffffffffff16905090565b6060600180548060200260200160405190810160405280929190818152602001828054801561047e57602002820191906000526020600020905b8160009054906101000a900473ffffffffffffffffffffffffffffffffffffffff1673ffffffffffffffffffffffffffffffffffffffff1681526020019060010190808311610434575b5050505050905090565b600090565b600090565b60608060608081819350935050509091565b600090565b8060038190555050565b6000600454905090565b600090565b80600260006101000a81548173ffffffffffffffffffffffffffffffffffffffff021916908373ffffffffffffffffffffffffffffffffffffffff16021790555050565b6000600354905090565b505050565b50565b6000604051905090565b600080fd5b600080fd5b600073ffffffffffffffffffffffffffffffffffffffff82169050919050565b60006105578261052c565b9050919050565b6105678161054c565b811461057257600080fd5b50565b6000813590506105848161055e565b92915050565b6000819050919050565b61059d8161058a565b81146105a857600080fd5b50565b6000813590506105ba81610594565b92915050565b600080604083850312156105d7576105d6610522565b5b60006105e585828601610575565b92505060206105f6858286016105ab565b9150509250929050565b60006020828403121561061657610615610522565b5b600061062484828501610575565b91505092915050565b6106368161058a565b82525050565b6000602082019050610651600083018461062d565b92915050565b6106608161054c565b82525050565b600060208201905061067b6000830184610657565b92915050565b600081519050919050565b600082825260208201905092915050565b6000819050602082019050919050565b6106b68161054c565b82525050565b60006106c883836106ad565b60208301905092915050565b6000602082019050919050565b60006106ec82610681565b6106f6818561068c565b93506107018361069d565b8060005b8381101561073257815161071988826106bc565b9750610724836106d4565b925050600181019050610705565b5085935050505092915050565b6000602082019050818103600083015261075981846106e1565b905092915050565b600081519050919050565b600082825260208201905092915050565b6000819050602082019050919050565b6107968161058a565b82525050565b60006107a8838361078d565b60208301905092915050565b6000602082019050919050565b60006107cc82610761565b6107d6818561076c565b93506107e18361077d565b8060005b838110156108125781516107f9888261079c565b9750610804836107b4565b9250506001810190506107e5565b5085935050505092915050565b6000604082019050818103600083015261083981856106e1565b9050818103602083015261084d81846107c1565b90509392505050565b60006020828403121561086c5761086b610522565b5b600061087a848285016105ab565b91505092915050565b600080fd5b6000601f19601f8301169050919050565b7f4e487b7100000000000000000000000000000000000000000000000000000000600052604160045260246000fd5b6108d182610888565b810181811067ffffffffffffffff821117156108f0576108ef610899565b5b80604052505050565b6000610903610518565b905061090f82826108c8565b919050565b600067ffffffffffffffff82111561092f5761092e610899565b5b602082029050602081019050919050565b600080fd5b600061095861095384610914565b6108f9565b9050808382526020820190506020840283018581111561097b5761097a610940565b5b835b818110156109a4578061099088826105ab565b84526020840193505060208101905061097d565b5050509392505050565b600082601f8301126109c3576109c2610883565b5b81356109d3848260208601610945565b91505092915050565b600067ffffffffffffffff8211156109f7576109f6610899565b5b602082029050602081019050919050565b6000610a1b610a16846109dc565b6108f9565b90508083825260208201905060208402830185811115610a3e57610a3d610940565b5b835b81811015610a675780610a538882610575565b845260208401935050602081019050610a40565b5050509392505050565b600082601f830112610a8657610a85610883565b5b8135610a96848260208601610a08565b91505092915050565b600080600060608486031215610ab857610ab7610522565b5b6000610ac686828701610575565b935050602084013567ffffffffffffffff811115610ae757610ae6610527565b5b610af3868287016109ae565b925050604084013567ffffffffffffffff811115610b1457610b13610527565b5b610b2086828701610a71565b9150509250925092565b7f4e487b7100000000000000000000000000000000000000000000000000000000600052601160045260246000fd5b6000610b648261058a565b9150610b6f8361058a565b9250828201905080821115610b8757610b86610b2a565b5b9291505056fea2646970667358221220e1583eb3cf3bd483c1e3b9aad2b7c163ae669283a4a4800d9e24d78a58840fd864736f6c63430008190033","linkReferences":{}},"methodIdentifiers":{"computeRanking(address)":"f4bd260b","depositWithdrawFee()":"a786ab75","getFinalPortfolio()":"3224da32","getRankingList()":"1fdf6755","getTraderScore(address)":"08ad90a5","minPercIndexAllowance()":"405ed0ef","rebalanceActor()":"1ef867dd","rebalanceActorFee()":"c780b051","rewardsFee()":"2bb14e1d","setRebalanceActor(address)":"b8ce3672","setRebalanceActorFee(uint256)":"4b97333e","setTraderScore(address,uint256)":"0622fd17","totalRankSum()":"4ef5e7f4","transactionsFee()":"242331a8","updateTraderData(address,uint256[],address[])":"d49674fc"},"storageLayout":{"storage":[{"astId":63807,"contract":"test/mocks/MockWEDXManager.sol:MockWEDXManager","label":"_traderScores","offset":0,"slot":"0","type":"t_mapping(t_address,t_uint256)"},{"astId":63810,"contract":"test/mocks/MockWEDXManager.sol:MockWEDXManager","label":"_rankingList","offset":0,"slot":"1","type":"t_array(t_address)dyn_storage"},{"astId":63812,"contract":"test/mocks/MockWEDXManager.sol:MockWEDXManager","label":"_rebalanceActor","offset":0,"slot":"2","type":"t_address"},{"astId":63814,"contract":"test/mocks/MockWEDXManager.sol:MockWEDXManager","label":"_rebalanceActorFee","offset":0,"slot":"3","type":"t_uint256"},{"astId":63816,"contract":"test/mocks/MockWEDXManager.sol:MockWEDXManager","label":"_totalRankSum","offset":0,"slot":"4","type":"t_uint256"}],"types":{"t_address":{"encoding":"inplace","label":"address","numberOfBytes":"20"},"t_array(t_address)dyn_storage":{"encoding":"dynamic_array","label":"address[]","numberOfBytes":"32","base":"t_address"},"t_mapping(t_address,t_uint256)":{"encoding":"mapping","key":"t_address","label":"mapping(address => uint256)","numberOfBytes":"32","value":"t_uint256"},"t_uint256":{"encoding":"inplace","label":"uint256","numberOfBytes":"32"}}},"id":70}