{"abi":[{"type":"function","name":"computeRanking","inputs":[{"name":"","type":"address","internalType":"address"}],"outputs":[],"stateMutability":"nonpayable"},{"type":"function","name":"depositWithdrawFee","inputs":[],"outputs":[{"name":"","type":"uint256","internalType":"uint256"}],"stateMutability":"view"},{"type":"function","name":"getFinalPortfolio","inputs":[],"outputs":[{"name":"","type":"address[]","internalType":"address[]"},{"name":"","type":"uint256[]","internalType":"uint256[]"}],"stateMutability":"view"},{"type":"function","name":"getRankingList","inputs":[],"outputs":[{"name":"","type":"address[]","internalType":"address[]"}],"stateMutability":"view"},{"type":"function","name":"getTraderScore","inputs":[{"name":"trader","type":"address","internalType":"address"}],"outputs":[{"name":"","type":"uint256","internalType":"uint256"}],"stateMutability":"view"},{"type":"function","name":"minPercIndexAllowance","inputs":[],"outputs":[{"name":"","type":"uint256","internalType":"uint256"}],"stateMutability":"view"},{"type":"function","name":"rebalanceActor","inputs":[],"outputs":[{"name":"","type":"address","internalType":"address"}],"stateMutability":"view"},{"type":"function","name":"rebalanceActorFee","inputs":[],"outputs":[{"name":"","type":"uint256","internalType":"uint256"}],"stateMutability":"view"},{"type":"function","name":"rewardsFee","inputs":[],"outputs":[{"name":"","type":"uint256","internalType":"uint256"}],"stateMutability":"view"},{"type":"function","name":"setRebalanceActor","inputs":[{"name":"actor","type":"address","internalType":"address"}],"outputs":[],"stateMutability":"nonpayable"},{"type":"function","name":"setRebalanceActorFee","inputs":[{"name":"fee","type":"uint256","internalType":"uint256"}],"outputs":[],"stateMutability":"nonpayable"},{"type":"function","name":"setTraderScore","inputs":[{"name":"trader","type":"address","internalType":"address"},{"name":"score","type":"uint256","internalType":"uint256"}],"outputs":[],"stateMutability":"nonpayable"},{"type":"function","name":"totalRankSum","inputs":[],"outputs":[{"name":"","type":"uint256","internalType":"uint256"}],"stateMutability":"view"},{"type":"function","name":"transactionsFee","inputs":[],"outputs":[{"name":"","type":"uint256","internalType":"uint256"}],"stateMutability":"view"},{"type":"function","name":"updateTraderData","inputs":[{"name":"","type":"address","internalType":"address"},{"name":"","type":"uint256[]","internalType":"uint256[]"},{"name":"","type":"address[]","internalType":"address[]"}],"outputs":[],"stateMutability":"nonpayable"}],"bytecode":{"object":"0x6080604052348015600f57600080fd5b5061061b8061001f6000396000f3fe608060405234801561001057600080fd5b50600436106100f55760003560e01c8063405ed0ef11610097578063b8ce367211610066578063b8ce3672146101ae578063c780b051146101de578063d49674fc146101e6578063f4bd260b146101f957600080fd5b8063405ed0ef1461017b5780634b97333e146101935780634ef5e7f4146101a6578063a786ab751461017b57600080fd5b80631fdf6755116100d35780631fdf675514610166578063242331a81461017b5780632bb14e1d1461017b5780633224da321461018257600080fd5b80630622fd17146100fa57806308ad90a51461010f5780631ef867dd1461014b575b600080fd5b61010d6101083660046102fe565b61020a565b005b61013861011d366004610328565b6001600160a01b031660009081526020819052604090205490565b6040519081526020015b60405180910390f35b6002546040516001600160a01b039091168152602001610142565b61016e610280565b604051610142919061038f565b6000610138565b6060806040516101429291906103a2565b61010d6101a13660046103f9565b600355565b600454610138565b61010d6101bc366004610328565b600280546001600160a01b0319166001600160a01b0392909216919091179055565b600354610138565b61010d6101f43660046104f3565b505050565b61010d610207366004610328565b50565b6001600160a01b03821660008181526020819052604081208390556001805480820182559082527fb10e2d527612073b26eecdfd717e6a320cf44b4afac2b0732d9fcbe2b7fa0cf60180546001600160a01b031916909217909155600480548392906102779084906105be565b90915550505050565b606060018054806020026020016040519081016040528092919081815260200182805480156102d857602002820191906000526020600020905b81546001600160a01b031681526001909101906020018083116102ba575b5050505050905090565b80356001600160a01b03811681146102f957600080fd5b919050565b6000806040838503121561031157600080fd5b61031a836102e2565b946020939093013593505050565b60006020828403121561033a57600080fd5b610343826102e2565b9392505050565b60008151808452602080850194506020840160005b838110156103845781516001600160a01b03168752958201959082019060010161035f565b509495945050505050565b602081526000610343602083018461034a565b6040815260006103b5604083018561034a565b82810360208481019190915284518083528582019282019060005b818110156103ec578451835293830193918301916001016103d0565b5090979650505050505050565b60006020828403121561040b57600080fd5b5035919050565b634e487b7160e01b600052604160045260246000fd5b604051601f8201601f1916810167ffffffffffffffff8111828210171561045157610451610412565b604052919050565b600067ffffffffffffffff82111561047357610473610412565b5060051b60200190565b600082601f83011261048e57600080fd5b813560206104a361049e83610459565b610428565b8083825260208201915060208460051b8701019350868411156104c557600080fd5b602086015b848110156104e8576104db816102e2565b83529183019183016104ca565b509695505050505050565b60008060006060848603121561050857600080fd5b610511846102e2565b925060208085013567ffffffffffffffff8082111561052f57600080fd5b818701915087601f83011261054357600080fd5b813561055161049e82610459565b81815260059190911b8301840190848101908a83111561057057600080fd5b938501935b8285101561058e57843582529385019390850190610575565b9650505060408701359250808311156105a657600080fd5b50506105b48682870161047d565b9150509250925092565b808201808211156105df57634e487b7160e01b600052601160045260246000fd5b9291505056fea2646970667358221220522c2d51d6b4fcb157f2cc27394c87028a132886a9a682d171146222611395b664736f6c63430008190033","linkReferences":{}},"methodIdentifiers":{"computeRanking(address)":"f4bd260b","depositWithdrawFee()":"a786ab75","getFinalPortfolio()":"3224da32","getRankingList()":"1fdf6755","getTraderScore(address)":"08ad90a5","minPercIndexAllowance()":"405ed0ef","rebalanceActor()":"1ef867dd","rebalanceActorFee()":"c780b051","rewardsFee()":"2bb14e1d","setRebalanceActor(address)":"b8ce3672","setRebalanceActorFee(uint256)":"4b97333e","setTraderScore(address,uint256)":"0622fd17","totalRankSum()":"4ef5e7f4","transactionsFee()":"242331a8","updateTraderData(address,uint256[],address[])":"d49674fc"},"storageLayout":{"storage":[{"astId":72134,"contract":"test/mocks/MockWEDXManager.sol:MockWEDXManager","label":"_traderScores","offset":0,"slot":"0","type":"t_mapping(t_address,t_uint256)"},{"astId":72137,"contract":"test/mocks/MockWEDXManager.sol:MockWEDXManager","label":"_rankingList","offset":0,"slot":"1","type":"t_array(t_address)dyn_storage"},{"astId":72139,"contract":"test/mocks/MockWEDXManager.sol:MockWEDXManager","label":"_rebalanceActor","offset":0,"slot":"2","type":"t_address"},{"astId":72141,"contract":"test/mocks/MockWEDXManager.sol:MockWEDXManager","label":"_rebalanceActorFee","offset":0,"slot":"3","type":"t_uint256"},{"astId":72143,"contract":"test/mocks/MockWEDXManager.sol:MockWEDXManager","label":"_totalRankSum","offset":0,"slot":"4","type":"t_uint256"}],"types":{"t_address":{"encoding":"inplace","label":"address","numberOfBytes":"20"},"t_array(t_address)dyn_storage":{"encoding":"dynamic_array","label":"address[]","numberOfBytes":"32","base":"t_address"},"t_mapping(t_address,t_uint256)":{"encoding":"mapping","key":"t_address","label":"mapping(address => uint256)","numberOfBytes":"32","value":"t_uint256"},"t_uint256":{"encoding":"inplace","label":"uint256","numberOfBytes":"32"}}},"id":79}