{"abi":[{"type":"constructor","inputs":[{"name":"managerAddress","type":"address","internalType":"address"}],"stateMutability":"nonpayable"},{"type":"function","name":"getAssetManagerAddress","inputs":[],"outputs":[{"name":"","type":"address","internalType":"address"}],"stateMutability":"view"},{"type":"function","name":"getDeployerProAddress","inputs":[],"outputs":[{"name":"","type":"address","internalType":"address"}],"stateMutability":"view"},{"type":"function","name":"getLenderContractAddress","inputs":[],"outputs":[{"name":"","type":"address","internalType":"address"}],"stateMutability":"view"},{"type":"function","name":"getRankAddress","inputs":[],"outputs":[{"name":"","type":"address","internalType":"address"}],"stateMutability":"view"},{"type":"function","name":"getSwapContractAddress","inputs":[],"outputs":[{"name":"","type":"address","internalType":"address"}],"stateMutability":"view"},{"type":"function","name":"getTreasuryAddress","inputs":[],"outputs":[{"name":"","type":"address","internalType":"address"}],"stateMutability":"view"},{"type":"function","name":"owner","inputs":[],"outputs":[{"name":"","type":"address","internalType":"address"}],"stateMutability":"view"}],"bytecode":{"object":"0x6080604052348015600f57600080fd5b50604051610187380380610187833981016040819052602c91605e565b60008054336001600160a01b031991821617909155600180549091166001600160a01b0392909216919091179055608c565b600060208284031215606f57600080fd5b81516001600160a01b0381168114608557600080fd5b9392505050565b60ed8061009a6000396000f3fe6080604052348015600f57600080fd5b506004361060735760003560e01c80635ca8cc7c1160545780635ca8cc7c1460a15780638da5cb5b1460a7578063daabffe91460a1578063e00246041460a157600080fd5b80630c17c6291460785780634a06d0b31460a1578063588c2f141460a1575b600080fd5b6001546001600160a01b03165b6040516001600160a01b03909116815260200160405180910390f35b60006085565b6000546001600160a01b0316608556fea2646970667358221220f7e6638e65e5da8a3ccc7035510b2bb8a7ace69a3e9c10db7e04d38ace7d5ba464736f6c63430008190033","linkReferences":{}},"methodIdentifiers":{"getAssetManagerAddress()":"0c17c629","getDeployerProAddress()":"4a06d0b3","getLenderContractAddress()":"daabffe9","getRankAddress()":"5ca8cc7c","getSwapContractAddress()":"588c2f14","getTreasuryAddress()":"e0024604","owner()":"8da5cb5b"},"storageLayout":{"storage":[{"astId":69348,"contract":"test/mocks/MockWEDXGroup.sol:MockWEDXGroup","label":"_ownerAddress","offset":0,"slot":"0","type":"t_address"},{"astId":69350,"contract":"test/mocks/MockWEDXGroup.sol:MockWEDXGroup","label":"_assetManagerAddress","offset":0,"slot":"1","type":"t_address"}],"types":{"t_address":{"encoding":"inplace","label":"address","numberOfBytes":"20"}}},"id":76}