{"abi":[{"type":"constructor","inputs":[],"stateMutability":"nonpayable"},{"type":"receive","stateMutability":"payable"},{"type":"function","name":"_uniswapPoolFactoryAddress","inputs":[{"name":"","type":"uint256","internalType":"uint256"}],"outputs":[{"name":"","type":"address","internalType":"address"}],"stateMutability":"view"},{"type":"function","name":"_uniswapRouterAddress","inputs":[{"name":"","type":"uint256","internalType":"uint256"}],"outputs":[{"name":"","type":"address","internalType":"address"}],"stateMutability":"view"},{"type":"function","name":"getAssetPoolLiquidity","inputs":[{"name":"tokenAddress","type":"address","internalType":"address"}],"outputs":[{"name":"","type":"uint128","internalType":"uint128"}],"stateMutability":"view"},{"type":"function","name":"getTokenAmount","inputs":[{"name":"tokenIn","type":"address","internalType":"address"},{"name":"tokenOut","type":"address","internalType":"address"},{"name":"amountIn","type":"uint256","internalType":"uint256"}],"outputs":[{"name":"","type":"uint256","internalType":"uint256"}],"stateMutability":"view"},{"type":"function","name":"swapERC20","inputs":[{"name":"tokenIn","type":"address","internalType":"address"},{"name":"tokenOut","type":"address","internalType":"address"},{"name":"amountIn","type":"uint256","internalType":"uint256"},{"name":"maxSlippage","type":"uint256","internalType":"uint256"}],"outputs":[{"name":"","type":"uint256","internalType":"uint256"}],"stateMutability":"nonpayable"},{"type":"function","name":"swapNative","inputs":[{"name":"tokenOut","type":"address","internalType":"address"},{"name":"maxSlippage","type":"uint256","internalType":"uint256"}],"outputs":[{"name":"","type":"uint256","internalType":"uint256"}],"stateMutability":"payable"},{"type":"function","name":"validatePool","inputs":[{"name":"tokenIn","type":"address","internalType":"address"},{"name":"tokenOut","type":"address","internalType":"address"}],"outputs":[{"name":"","type":"tuple","internalType":"struct exInfo","components":[{"name":"exId","type":"uint16","internalType":"uint16"},{"name":"feeUniswap","type":"uint24","internalType":"uint24"},{"name":"liquidity","type":"uint128","internalType":"uint128"}]}],"stateMutability":"view"},{"type":"error","name":"MathOverflowedMulDiv","inputs":[]}],"bytecode":{"object":"0x60c060405273e592427a0aece92de3edee1f18e0157c058615646080908152738a21f6768c1f8075791d08546dadf6daa0be820c60a0526100449060009060026101a5565b5060408051808201909152731f98431c8ad98523631ae4a59f267346ea31f9848152731af415a1eba07a4986a52b6f2e7de7003d82231e602082015261008e9060019060026101a5565b5060408051608081018252606481526101f46020820152610bb89181019190915261271060608201526100c4906004908161020a565b503480156100d157600080fd5b5060005b60005461ffff8216101561019f57600260008261ffff16815481106100fc576100fc6102c1565b6000918252602080832090910154835460018181018655948452919092200180546001600160a01b0319166001600160a01b0390921691909117905580546003919061ffff8416908110610152576101526102c1565b60009182526020808320909101548354600181018555938352912090910180546001600160a01b0319166001600160a01b0390921691909117905580610197816102d7565b9150506100d5565b50610306565b8280548282559060005260206000209081019282156101fa579160200282015b828111156101fa57825182546001600160a01b0319166001600160a01b039091161782556020909201916001909101906101c5565b506102069291506102ac565b5090565b82805482825590600052602060002090600901600a900481019282156101fa5791602002820160005b8382111561027457835183826101000a81548162ffffff021916908361ffff1602179055509260200192600301602081600201049283019260010302610233565b80156102a35782816101000a81549062ffffff0219169055600301602081600201049283019260010302610274565b50506102069291505b5b8082111561020657600081556001016102ad565b634e487b7160e01b600052603260045260246000fd5b600061ffff8083168181036102fc57634e487b7160e01b600052601160045260246000fd5b6001019392505050565b6114d7806103156000396000f3fe6080604052600436106100745760003560e01c8063ae22ff661161004e578063ae22ff661461013f578063d485d51214610177578063da04a2b314610197578063e8204d2c146101b757600080fd5b806345849be01461008057806384be3304146100bd578063a3fcf6f6146100eb57600080fd5b3661007b57005b600080fd5b34801561008c57600080fd5b506100a061009b366004611090565b6101ca565b6040516001600160a01b0390911681526020015b60405180910390f35b3480156100c957600080fd5b506100dd6100d83660046110c1565b6101f4565b6040519081526020016100b4565b3480156100f757600080fd5b5061010b610106366004611102565b6104a3565b60408051825161ffff16815260208084015162ffffff1690820152918101516001600160801b0316908201526060016100b4565b34801561014b57600080fd5b5061015f61015a36600461113b565b6107bd565b6040516001600160801b0390911681526020016100b4565b34801561018357600080fd5b506100dd610192366004611158565b6107e9565b3480156101a357600080fd5b506100a06101b2366004611090565b610abe565b6100dd6101c536600461119e565b610ace565b600081815481106101da57600080fd5b6000918252602090912001546001600160a01b0316905081565b60008061020185856104a3565b9050600081604001516001600160801b0316116102795760405162461bcd60e51b815260206004820152602b60248201527f4e6f2076616c696420706f6f6c20746f20706572666f726d2074686520636f6d60448201526a1c1d5d1948185b5bdd5b9d60aa1b60648201526084015b60405180910390fd5b600083156104985760006003836000015161ffff168154811061029e5761029e6111ca565b6000918252602091829020015490840151604051630b4c774160e11b81526001600160a01b038a81166004830152898116602483015262ffffff9092166044820152911690631698ee8290606401602060405180830381865afa158015610309573d6000803e3d6000fd5b505050506040513d601f19601f8201168201806040525081019061032d91906111e0565b905060008190506000816001600160a01b0316633850c7bd6040518163ffffffff1660e01b815260040160e060405180830381865afa158015610374573d6000803e3d6000fd5b505050506040513d601f19601f820116820180604052508101906103989190611224565b50505050505090506000826001600160a01b0316630dfe16816040518163ffffffff1660e01b8152600401602060405180830381865afa1580156103e0573d6000803e3d6000fd5b505050506040513d601f19601f8201168201806040525081019061040491906111e0565b9050886001600160a01b0316816001600160a01b03160361045b57600061043989600160601b856001600160a01b0316610cc9565b905061045381600160601b856001600160a01b0316610cc9565b955050610493565b600061047589846001600160a01b0316600160601b610cc9565b905061048f81846001600160a01b0316600160601b610cc9565b9550505b505050505b9150505b9392505050565b6040805160608082018352600080835260208084018290528385018290528451928301855281835282018190529281018390529091805b60035461ffff821610156107b15760005b60045461ffff8216101561079e57600060038361ffff1681548110610512576105126111ca565b9060005260206000200160009054906101000a90046001600160a01b03166001600160a01b0316631698ee82898960048661ffff1681548110610557576105576111ca565b60009182526020909120600a8083049091015460405160e087901b6001600160e01b03191681526001600160a01b03958616600482015293909416602484015290066003026101000a90910462ffffff166044820152606401602060405180830381865afa1580156105cd573d6000803e3d6000fd5b505050506040513d601f19601f820116820180604052508101906105f191906111e0565b90506001600160a01b0381161561078b5760008190506000816001600160a01b0316631a6865026040518163ffffffff1660e01b8152600401602060405180830381865afa158015610647573d6000803e3d6000fd5b505050506040513d601f19601f8201168201806040525081019061066b91906112be565b9050856001600160801b0316816001600160801b03161115610788579450846001600160a01b038a167382af49447d8a07e3bd95bd0d56f35241523fbab11461071d5760405180606001604052808661ffff16815260200160048661ffff16815481106106da576106da6111ca565b90600052602060002090600a91828204019190066003029054906101000a900462ffffff1662ffffff168152602001876001600160801b03168152509650610788565b60405180606001604052808661ffff16815260200160048661ffff1681548110610749576107496111ca565b90600052602060002090600a91828204019190066003029054906101000a900462ffffff1662ffffff168152602001876001600160801b031681525096505b50505b5080610796816112fd565b9150506104eb565b50806107a9816112fd565b9150506104da565b50909150505b92915050565b6000806107de837382af49447d8a07e3bd95bd0d56f35241523fbab16104a3565b604001519392505050565b604051636eb1769f60e11b815233600482015230602482015260009083906001600160a01b0387169063dd62ed3e90604401602060405180830381865afa158015610838573d6000803e3d6000fd5b505050506040513d601f19601f8201168201806040525081019061085c919061131e565b10156108b95760405162461bcd60e51b815260206004820152602660248201527f4e6f7420656e6f75676820616c6c6f77616e636520746f20736d61727420636f6044820152651b9d1c9858dd60d21b6064820152608401610270565b60006108c586866104a3565b9050600081604001516001600160801b0316116108f45760405162461bcd60e51b815260040161027090611337565b602081015181516000620f424061091062ffffff851682611378565b61091a908961138b565b61092491906113b8565b90506000620f42406109368882611378565b6109418c8c866101f4565b61094b919061138b565b61095591906113b8565b90506000811180156109675750600088115b15610aac576109788a33308b610d8d565b6109ae8a60028561ffff1681548110610993576109936111ca565b6000918252602090912001546001600160a01b03168a610e97565b60408051610100810182526001600160a01b03808d1682528b16602082015262ffffff86169181019190915230606082015242608082015260a0810189905260c08101829052600060e082018190526002805461ffff8716908110610a1557610a156111ca565b60009182526020909120015460405163414bf38960e01b81526001600160a01b039091169063414bf38990610a4e9085906004016113da565b6020604051808303816000875af1158015610a6d573d6000803e3d6000fd5b505050506040513d601f19601f82011682018060405250810190610a91919061131e565b9050610a9e8b3383610f97565b9650610ab695505050505050565b6000955050505050505b949350505050565b600181815481106101da57600080fd5b600080610aef7382af49447d8a07e3bd95bd0d56f35241523fbab1856104a3565b9050600081604001516001600160801b031611610b1e5760405162461bcd60e51b815260040161027090611337565b602081015181516000620f4240610b3a62ffffff851682611378565b610b44903461138b565b610b4e91906113b8565b90506000620f4240610b608882611378565b610b7f7382af49447d8a07e3bd95bd0d56f35241523fbab18b866101f4565b610b89919061138b565b610b9391906113b8565b9050600081118015610ba55750600034115b15610cbb5760408051610100810182527382af49447d8a07e3bd95bd0d56f35241523fbab181526001600160a01b038a16602082015262ffffff8616918101919091523060608201524260808201523460a082015260c08101829052600060e082018190526002805461ffff8716908110610c2257610c226111ca565b60009182526020909120015460405163414bf38960e01b81526001600160a01b039091169063414bf389903490610c5d9086906004016113da565b60206040518083038185885af1158015610c7b573d6000803e3d6000fd5b50505050506040513d601f19601f82011682018060405250810190610ca0919061131e565b9050610cad8a3383610f97565b96506107b795505050505050565b6000955050505050506107b7565b6000838302816000198587098281108382030391505080600003610d0057838281610cf657610cf66113a2565b049250505061049c565b808411610d205760405163227bc15360e01b815260040160405180910390fd5b6000848688096000868103871696879004966002600389028118808a02820302808a02820302808a02820302808a02820302808a02820302808a02909103029181900381900460010186841190950394909402919094039290920491909117919091029150509392505050565b604080516001600160a01b0385811660248301528481166044830152606480830185905283518084039091018152608490920183526020820180516001600160e01b03166323b872dd60e01b1790529151600092839290881691610df19190611457565b6000604051808303816000865af19150503d8060008114610e2e576040519150601f19603f3d011682016040523d82523d6000602084013e610e33565b606091505b5091509150818015610e5d575080511580610e5d575080806020019051810190610e5d9190611486565b610e8f5760405162461bcd60e51b815260206004820152600360248201526229aa2360e91b6044820152606401610270565b505050505050565b604080516001600160a01b038481166024830152604480830185905283518084039091018152606490920183526020820180516001600160e01b031663095ea7b360e01b1790529151600092839290871691610ef39190611457565b6000604051808303816000865af19150503d8060008114610f30576040519150601f19603f3d011682016040523d82523d6000602084013e610f35565b606091505b5091509150818015610f5f575080511580610f5f575080806020019051810190610f5f9190611486565b610f905760405162461bcd60e51b8152602060048201526002602482015261534160f01b6044820152606401610270565b5050505050565b604080516001600160a01b038481166024830152604480830185905283518084039091018152606490920183526020820180516001600160e01b031663a9059cbb60e01b1790529151600092839290871691610ff39190611457565b6000604051808303816000865af19150503d8060008114611030576040519150601f19603f3d011682016040523d82523d6000602084013e611035565b606091505b509150915081801561105f57508051158061105f57508080602001905181019061105f9190611486565b610f905760405162461bcd60e51b815260206004820152600260248201526114d560f21b6044820152606401610270565b6000602082840312156110a257600080fd5b5035919050565b6001600160a01b03811681146110be57600080fd5b50565b6000806000606084860312156110d657600080fd5b83356110e1816110a9565b925060208401356110f1816110a9565b929592945050506040919091013590565b6000806040838503121561111557600080fd5b8235611120816110a9565b91506020830135611130816110a9565b809150509250929050565b60006020828403121561114d57600080fd5b813561049c816110a9565b6000806000806080858703121561116e57600080fd5b8435611179816110a9565b93506020850135611189816110a9565b93969395505050506040820135916060013590565b600080604083850312156111b157600080fd5b82356111bc816110a9565b946020939093013593505050565b634e487b7160e01b600052603260045260246000fd5b6000602082840312156111f257600080fd5b815161049c816110a9565b805161ffff8116811461120f57600080fd5b919050565b8051801515811461120f57600080fd5b600080600080600080600060e0888a03121561123f57600080fd5b875161124a816110a9565b8097505060208801518060020b811461126257600080fd5b9550611270604089016111fd565b945061127e606089016111fd565b935061128c608089016111fd565b925060a088015160ff811681146112a257600080fd5b91506112b060c08901611214565b905092959891949750929550565b6000602082840312156112d057600080fd5b81516001600160801b038116811461049c57600080fd5b634e487b7160e01b600052601160045260246000fd5b600061ffff808316818103611314576113146112e7565b6001019392505050565b60006020828403121561133057600080fd5b5051919050565b60208082526021908201527f4e6f2076616c696420706f6f6c20746f20706572666f726d20746865207377616040820152600760fc1b606082015260800190565b818103818111156107b7576107b76112e7565b80820281158282048414176107b7576107b76112e7565b634e487b7160e01b600052601260045260246000fd5b6000826113d557634e487b7160e01b600052601260045260246000fd5b500490565b60006101008201905060018060a01b0380845116835280602085015116602084015262ffffff6040850151166040840152806060850151166060840152506080830151608083015260a083015160a083015260c083015160c083015260e083015161145060e08401826001600160a01b03169052565b5092915050565b6000825160005b81811015611478576020818601810151858301520161145e565b506000920191825250919050565b60006020828403121561149857600080fd5b61049c8261121456fea2646970667358221220e6f4783cc78f15c887c6b5c0e55222cdef3d89ad43ced61b29f018c9ca1269b164736f6c63430008190033","linkReferences":{}},"methodIdentifiers":{"_uniswapPoolFactoryAddress(uint256)":"da04a2b3","_uniswapRouterAddress(uint256)":"45849be0","getAssetPoolLiquidity(address)":"ae22ff66","getTokenAmount(address,address,uint256)":"84be3304","swapERC20(address,address,uint256,uint256)":"d485d512","swapNative(address,uint256)":"e8204d2c","validatePool(address,address)":"a3fcf6f6"},"id":13}