{"abi":[{"type":"constructor","inputs":[],"stateMutability":"nonpayable"},{"type":"receive","stateMutability":"payable"},{"type":"function","name":"_uniswapPoolFactoryAddress","inputs":[{"name":"","type":"uint256","internalType":"uint256"}],"outputs":[{"name":"","type":"address","internalType":"address"}],"stateMutability":"view"},{"type":"function","name":"_uniswapRouterAddress","inputs":[{"name":"","type":"uint256","internalType":"uint256"}],"outputs":[{"name":"","type":"address","internalType":"address"}],"stateMutability":"view"},{"type":"function","name":"getAssetPoolLiquidity","inputs":[{"name":"tokenAddress","type":"address","internalType":"address"}],"outputs":[{"name":"","type":"uint128","internalType":"uint128"}],"stateMutability":"view"},{"type":"function","name":"getTokenAmount","inputs":[{"name":"tokenIn","type":"address","internalType":"address"},{"name":"tokenOut","type":"address","internalType":"address"},{"name":"amountIn","type":"uint256","internalType":"uint256"}],"outputs":[{"name":"","type":"uint256","internalType":"uint256"}],"stateMutability":"view"},{"type":"function","name":"swapERC20","inputs":[{"name":"tokenIn","type":"address","internalType":"address"},{"name":"tokenOut","type":"address","internalType":"address"},{"name":"amountIn","type":"uint256","internalType":"uint256"},{"name":"maxSlippage","type":"uint256","internalType":"uint256"}],"outputs":[{"name":"","type":"uint256","internalType":"uint256"}],"stateMutability":"nonpayable"},{"type":"function","name":"swapNative","inputs":[{"name":"tokenOut","type":"address","internalType":"address"},{"name":"maxSlippage","type":"uint256","internalType":"uint256"}],"outputs":[{"name":"","type":"uint256","internalType":"uint256"}],"stateMutability":"payable"},{"type":"function","name":"validatePool","inputs":[{"name":"tokenIn","type":"address","internalType":"address"},{"name":"tokenOut","type":"address","internalType":"address"}],"outputs":[{"name":"","type":"tuple","internalType":"struct exInfo","components":[{"name":"exId","type":"uint16","internalType":"uint16"},{"name":"feeUniswap","type":"uint24","internalType":"uint24"},{"name":"liquidity","type":"uint128","internalType":"uint128"}]}],"stateMutability":"view"},{"type":"error","name":"MathOverflowedMulDiv","inputs":[]}],"bytecode":{"object":"0x60c060405273e592427a0aece92de3edee1f18e0157c058615646080908152738a21f6768c1f8075791d08546dadf6daa0be820c60a0526100449060009060026101a5565b5060408051808201909152731f98431c8ad98523631ae4a59f267346ea31f9848152731af415a1eba07a4986a52b6f2e7de7003d82231e602082015261008e9060019060026101a5565b5060408051608081018252606481526101f46020820152610bb89181019190915261271060608201526100c4906004908161020a565b503480156100d157600080fd5b5060005b60005461ffff8216101561019f57600260008261ffff16815481106100fc576100fc6102c1565b6000918252602080832090910154835460018181018655948452919092200180546001600160a01b0319166001600160a01b0390921691909117905580546003919061ffff8416908110610152576101526102c1565b60009182526020808320909101548354600181018555938352912090910180546001600160a01b0319166001600160a01b0390921691909117905580610197816102d7565b9150506100d5565b50610306565b8280548282559060005260206000209081019282156101fa579160200282015b828111156101fa57825182546001600160a01b0319166001600160a01b039091161782556020909201916001909101906101c5565b506102069291506102ac565b5090565b82805482825590600052602060002090600901600a900481019282156101fa5791602002820160005b8382111561027457835183826101000a81548162ffffff021916908361ffff1602179055509260200192600301602081600201049283019260010302610233565b80156102a35782816101000a81549062ffffff0219169055600301602081600201049283019260010302610274565b50506102069291505b5b8082111561020657600081556001016102ad565b634e487b7160e01b600052603260045260246000fd5b600061ffff8083168181036102fc57634e487b7160e01b600052601160045260246000fd5b6001019392505050565b6117fb806103156000396000f3fe6080604052600436106100745760003560e01c8063ae22ff661161004e578063ae22ff661461013f578063d485d51214610177578063da04a2b314610197578063e8204d2c146101b757600080fd5b806345849be01461008057806384be3304146100bd578063a3fcf6f6146100eb57600080fd5b3661007b57005b600080fd5b34801561008c57600080fd5b506100a061009b36600461128d565b6101ca565b6040516001600160a01b0390911681526020015b60405180910390f35b3480156100c957600080fd5b506100dd6100d83660046112be565b6101f4565b6040519081526020016100b4565b3480156100f757600080fd5b5061010b6101063660046112ff565b6104a3565b60408051825161ffff16815260208084015162ffffff1690820152918101516001600160801b0316908201526060016100b4565b34801561014b57600080fd5b5061015f61015a366004611338565b6108bf565b6040516001600160801b0390911681526020016100b4565b34801561018357600080fd5b506100dd610192366004611355565b6108eb565b3480156101a357600080fd5b506100a06101b236600461128d565b610bc0565b6100dd6101c536600461139b565b610bd0565b600081815481106101da57600080fd5b6000918252602090912001546001600160a01b0316905081565b60008061020185856104a3565b9050600081604001516001600160801b0316116102795760405162461bcd60e51b815260206004820152602b60248201527f4e6f2076616c696420706f6f6c20746f20706572666f726d2074686520636f6d60448201526a1c1d5d1948185b5bdd5b9d60aa1b60648201526084015b60405180910390fd5b600083156104985760006003836000015161ffff168154811061029e5761029e6113c7565b6000918252602091829020015490840151604051630b4c774160e11b81526001600160a01b038a81166004830152898116602483015262ffffff9092166044820152911690631698ee8290606401602060405180830381865afa158015610309573d6000803e3d6000fd5b505050506040513d601f19601f8201168201806040525081019061032d91906113dd565b905060008190506000816001600160a01b0316633850c7bd6040518163ffffffff1660e01b815260040160e060405180830381865afa158015610374573d6000803e3d6000fd5b505050506040513d601f19601f820116820180604052508101906103989190611421565b50505050505090506000826001600160a01b0316630dfe16816040518163ffffffff1660e01b8152600401602060405180830381865afa1580156103e0573d6000803e3d6000fd5b505050506040513d601f19601f8201168201806040525081019061040491906113dd565b9050886001600160a01b0316816001600160a01b03160361045b57600061043989600160601b856001600160a01b0316610dcb565b905061045381600160601b856001600160a01b0316610dcb565b955050610493565b600061047589846001600160a01b0316600160601b610dcb565b905061048f81846001600160a01b0316600160601b610dcb565b9550505b505050505b9150505b9392505050565b6040805160608101825260008082526020820181905291810191909152816001600160a01b0316836001600160a01b0316036105215760405162461bcd60e51b815260206004820152601860248201527f546f6b656e73206d75737420626520646966666572656e7400000000000000006044820152606401610270565b6040805160608101825260008082526020820181905291810182905290805b60035461ffff821610156108615760005b60045461ffff8216101561084e5761058a6040518060600160405280602f8152602001611739602f91398361ffff168361ffff16610e8f565b600060038361ffff16815481106105a3576105a36113c7565b9060005260206000200160009054906101000a90046001600160a01b03166001600160a01b0316631698ee82898960048661ffff16815481106105e8576105e86113c7565b60009182526020909120600a8083049091015460405160e087901b6001600160e01b03191681526001600160a01b03958616600482015293909416602484015290066003026101000a90910462ffffff166044820152606401602060405180830381865afa15801561065e573d6000803e3d6000fd5b505050506040513d601f19601f8201168201806040525081019061068291906113dd565b90506106b66040518060400160405280601081526020016f506f6f6c20616464726573733a20257360801b81525082610edb565b6001600160a01b0381161561081057806001600160a01b0316631a6865026040518163ffffffff1660e01b8152600401602060405180830381865afa92505050801561071f575060408051601f3d908101601f1916820190925261071c918101906114bb565b60015b61074a576107456040518060600160405280602681526020016117686026913982610edb565b61083b565b6107826040518060400160405280600d81526020016c4c69717569646974793a20257360981b815250826001600160801b0316610f24565b846001600160801b0316816001600160801b0316111561080a5780945060405180606001604052808561ffff16815260200160048561ffff16815481106107cb576107cb6113c7565b90600052602060002090600a91828204019190066003029054906101000a900462ffffff1662ffffff168152602001866001600160801b031681525095505b5061083b565b61083b60405180606001604052806038815260200161178e603891398461ffff168461ffff16610e8f565b5080610846816114fa565b915050610551565b5080610859816114fa565b915050610540565b50600082604001516001600160801b0316116108b55760405162461bcd60e51b8152602060048201526013602482015272139bc81d985b1a59081c1bdbdb08199bdd5b99606a1b6044820152606401610270565b5090505b92915050565b6000806108e0837382af49447d8a07e3bd95bd0d56f35241523fbab16104a3565b604001519392505050565b604051636eb1769f60e11b815233600482015230602482015260009083906001600160a01b0387169063dd62ed3e90604401602060405180830381865afa15801561093a573d6000803e3d6000fd5b505050506040513d601f19601f8201168201806040525081019061095e919061151b565b10156109bb5760405162461bcd60e51b815260206004820152602660248201527f4e6f7420656e6f75676820616c6c6f77616e636520746f20736d61727420636f6044820152651b9d1c9858dd60d21b6064820152608401610270565b60006109c786866104a3565b9050600081604001516001600160801b0316116109f65760405162461bcd60e51b815260040161027090611534565b602081015181516000620f4240610a1262ffffff851682611575565b610a1c9089611588565b610a2691906115b5565b90506000620f4240610a388882611575565b610a438c8c866101f4565b610a4d9190611588565b610a5791906115b5565b9050600081118015610a695750600088115b15610bae57610a7a8a33308b610f69565b610ab08a60028561ffff1681548110610a9557610a956113c7565b6000918252602090912001546001600160a01b03168a611073565b60408051610100810182526001600160a01b03808d1682528b16602082015262ffffff86169181019190915230606082015242608082015260a0810189905260c08101829052600060e082018190526002805461ffff8716908110610b1757610b176113c7565b60009182526020909120015460405163414bf38960e01b81526001600160a01b039091169063414bf38990610b509085906004016115d7565b6020604051808303816000875af1158015610b6f573d6000803e3d6000fd5b505050506040513d601f19601f82011682018060405250810190610b93919061151b565b9050610ba08b3383611173565b9650610bb895505050505050565b6000955050505050505b949350505050565b600181815481106101da57600080fd5b600080610bf17382af49447d8a07e3bd95bd0d56f35241523fbab1856104a3565b9050600081604001516001600160801b031611610c205760405162461bcd60e51b815260040161027090611534565b602081015181516000620f4240610c3c62ffffff851682611575565b610c469034611588565b610c5091906115b5565b90506000620f4240610c628882611575565b610c817382af49447d8a07e3bd95bd0d56f35241523fbab18b866101f4565b610c8b9190611588565b610c9591906115b5565b9050600081118015610ca75750600034115b15610dbd5760408051610100810182527382af49447d8a07e3bd95bd0d56f35241523fbab181526001600160a01b038a16602082015262ffffff8616918101919091523060608201524260808201523460a082015260c08101829052600060e082018190526002805461ffff8716908110610d2457610d246113c7565b60009182526020909120015460405163414bf38960e01b81526001600160a01b039091169063414bf389903490610d5f9086906004016115d7565b60206040518083038185885af1158015610d7d573d6000803e3d6000fd5b50505050506040513d601f19601f82011682018060405250810190610da2919061151b565b9050610daf8a3383611173565b96506108b995505050505050565b6000955050505050506108b9565b6000838302816000198587098281108382030391505080600003610e0257838281610df857610df861159f565b049250505061049c565b808411610e225760405163227bc15360e01b815260040160405180910390fd5b6000848688096000868103871696879004966002600389028118808a02820302808a02820302808a02820302808a02820302808a02820302808a02909103029181900381900460010186841190950394909402919094039290920491909117919091029150509392505050565b610ed6838383604051602401610ea793929190611690565b60408051601f198184030181529190526020810180516001600160e01b031663969cdd0360e01b17905261126c565b505050565b610f208282604051602401610ef19291906116b5565b60408051601f198184030181529190526020810180516001600160e01b031663319af33360e01b17905261126c565b5050565b610f208282604051602401610f3a9291906116df565b60408051601f198184030181529190526020810180516001600160e01b03166309710a9d60e41b17905261126c565b604080516001600160a01b0385811660248301528481166044830152606480830185905283518084039091018152608490920183526020820180516001600160e01b03166323b872dd60e01b1790529151600092839290881691610fcd9190611701565b6000604051808303816000865af19150503d806000811461100a576040519150601f19603f3d011682016040523d82523d6000602084013e61100f565b606091505b5091509150818015611039575080511580611039575080806020019051810190611039919061171d565b61106b5760405162461bcd60e51b815260206004820152600360248201526229aa2360e91b6044820152606401610270565b505050505050565b604080516001600160a01b038481166024830152604480830185905283518084039091018152606490920183526020820180516001600160e01b031663095ea7b360e01b17905291516000928392908716916110cf9190611701565b6000604051808303816000865af19150503d806000811461110c576040519150601f19603f3d011682016040523d82523d6000602084013e611111565b606091505b509150915081801561113b57508051158061113b57508080602001905181019061113b919061171d565b61116c5760405162461bcd60e51b8152602060048201526002602482015261534160f01b6044820152606401610270565b5050505050565b604080516001600160a01b038481166024830152604480830185905283518084039091018152606490920183526020820180516001600160e01b031663a9059cbb60e01b17905291516000928392908716916111cf9190611701565b6000604051808303816000865af19150503d806000811461120c576040519150601f19603f3d011682016040523d82523d6000602084013e611211565b606091505b509150915081801561123b57508051158061123b57508080602001905181019061123b919061171d565b61116c5760405162461bcd60e51b815260206004820152600260248201526114d560f21b6044820152606401610270565b80516a636f6e736f6c652e6c6f67602083016000808483855afa5050505050565b60006020828403121561129f57600080fd5b5035919050565b6001600160a01b03811681146112bb57600080fd5b50565b6000806000606084860312156112d357600080fd5b83356112de816112a6565b925060208401356112ee816112a6565b929592945050506040919091013590565b6000806040838503121561131257600080fd5b823561131d816112a6565b9150602083013561132d816112a6565b809150509250929050565b60006020828403121561134a57600080fd5b813561049c816112a6565b6000806000806080858703121561136b57600080fd5b8435611376816112a6565b93506020850135611386816112a6565b93969395505050506040820135916060013590565b600080604083850312156113ae57600080fd5b82356113b9816112a6565b946020939093013593505050565b634e487b7160e01b600052603260045260246000fd5b6000602082840312156113ef57600080fd5b815161049c816112a6565b805161ffff8116811461140c57600080fd5b919050565b8051801515811461140c57600080fd5b600080600080600080600060e0888a03121561143c57600080fd5b8751611447816112a6565b8097505060208801518060020b811461145f57600080fd5b955061146d604089016113fa565b945061147b606089016113fa565b9350611489608089016113fa565b925060a088015160ff8116811461149f57600080fd5b91506114ad60c08901611411565b905092959891949750929550565b6000602082840312156114cd57600080fd5b81516001600160801b038116811461049c57600080fd5b634e487b7160e01b600052601160045260246000fd5b600061ffff808316818103611511576115116114e4565b6001019392505050565b60006020828403121561152d57600080fd5b5051919050565b60208082526021908201527f4e6f2076616c696420706f6f6c20746f20706572666f726d20746865207377616040820152600760fc1b606082015260800190565b818103818111156108b9576108b96114e4565b80820281158282048414176108b9576108b96114e4565b634e487b7160e01b600052601260045260246000fd5b6000826115d257634e487b7160e01b600052601260045260246000fd5b500490565b81516001600160a01b03908116825260208084015182169083015260408084015162ffffff16908301526060808401518216908301526080808401519083015260a0838101519083015260c0808401519083015260e09283015116918101919091526101000190565b60005b8381101561165b578181015183820152602001611643565b50506000910152565b6000815180845261167c816020860160208601611640565b601f01601f19169290920160200192915050565b6060815260006116a36060830186611664565b60208301949094525060400152919050565b6040815260006116c86040830185611664565b905060018060a01b03831660208301529392505050565b6040815260006116f26040830185611664565b90508260208301529392505050565b60008251611713818460208701611640565b9190910192915050565b60006020828403121561172f57600080fd5b61049c8261141156fe436865636b696e6720706f6f6c466163746f72795b25735d20616e6420756e69416c6c6f776564466565735b25735d4572726f7220616363657373696e67206c697175696469747920666f7220706f6f6c3a2025734e6f20706f6f6c20666f756e6420666f7220706f6f6c466163746f72795b25735d20616e6420756e69416c6c6f776564466565735b25735da264697066735822122042eaa3f921162622cc47ce5824f4b8d1a6790763fbd98bbfca4d8d3a27a9362b64736f6c63430008190033","linkReferences":{}},"methodIdentifiers":{"_uniswapPoolFactoryAddress(uint256)":"da04a2b3","_uniswapRouterAddress(uint256)":"45849be0","getAssetPoolLiquidity(address)":"ae22ff66","getTokenAmount(address,address,uint256)":"84be3304","swapERC20(address,address,uint256,uint256)":"d485d512","swapNative(address,uint256)":"e8204d2c","validatePool(address,address)":"a3fcf6f6"},"id":13}