{"abi":[{"type":"constructor","inputs":[{"name":"initialOwner","type":"address","internalType":"address"}],"stateMutability":"nonpayable"},{"type":"receive","stateMutability":"payable"},{"type":"function","name":"changeDelegatedAddress","inputs":[{"name":"newAddress","type":"address","internalType":"address"}],"outputs":[],"stateMutability":"nonpayable"},{"type":"function","name":"changeMaxSlippage","inputs":[{"name":"newValue","type":"uint256","internalType":"uint256"}],"outputs":[],"stateMutability":"nonpayable"},{"type":"function","name":"deposit","inputs":[],"outputs":[{"name":"","type":"uint256","internalType":"uint256"}],"stateMutability":"payable"},{"type":"function","name":"getActualDistribution","inputs":[],"outputs":[{"name":"","type":"uint256[]","internalType":"uint256[]"}],"stateMutability":"view"},{"type":"function","name":"getAddresses","inputs":[],"outputs":[{"name":"","type":"address[]","internalType":"address[]"}],"stateMutability":"view"},{"type":"function","name":"getAssets","inputs":[],"outputs":[{"name":"","type":"uint256[]","internalType":"uint256[]"}],"stateMutability":"view"},{"type":"function","name":"getAssetsExtended","inputs":[],"outputs":[{"name":"","type":"uint256[]","internalType":"uint256[]"}],"stateMutability":"view"},{"type":"function","name":"getDelegatedAddress","inputs":[],"outputs":[{"name":"","type":"address","internalType":"address"}],"stateMutability":"view"},{"type":"function","name":"getLastTimestamp","inputs":[],"outputs":[{"name":"","type":"uint256","internalType":"uint256"}],"stateMutability":"view"},{"type":"function","name":"getMinPercAllowance","inputs":[],"outputs":[{"name":"","type":"uint256","internalType":"uint256"}],"stateMutability":"view"},{"type":"function","name":"getSupply","inputs":[],"outputs":[{"name":"","type":"uint256","internalType":"uint256"}],"stateMutability":"view"},{"type":"function","name":"maxSlippage","inputs":[],"outputs":[{"name":"","type":"uint256","internalType":"uint256"}],"stateMutability":"view"},{"type":"function","name":"owner","inputs":[],"outputs":[{"name":"","type":"address","internalType":"address"}],"stateMutability":"view"},{"type":"function","name":"renounceOwnership","inputs":[],"outputs":[],"stateMutability":"nonpayable"},{"type":"function","name":"tokenAddressesInit","inputs":[{"name":"","type":"uint256","internalType":"uint256"}],"outputs":[{"name":"","type":"address","internalType":"address"}],"stateMutability":"view"},{"type":"function","name":"transferOwnership","inputs":[{"name":"newOwner","type":"address","internalType":"address"}],"outputs":[],"stateMutability":"nonpayable"},{"type":"function","name":"withdraw","inputs":[{"name":"amount","type":"uint256","internalType":"uint256"}],"outputs":[],"stateMutability":"nonpayable"},{"type":"function","name":"withdrawBruteForced","inputs":[],"outputs":[],"stateMutability":"nonpayable"},{"type":"event","name":"OwnershipTransferred","inputs":[{"name":"previousOwner","type":"address","indexed":true,"internalType":"address"},{"name":"newOwner","type":"address","indexed":true,"internalType":"address"}],"anonymous":false},{"type":"error","name":"MathOverflowedMulDiv","inputs":[]},{"type":"error","name":"OwnableInvalidOwner","inputs":[{"name":"owner","type":"address","internalType":"address"}]},{"type":"error","name":"OwnableUnauthorizedAccount","inputs":[{"name":"account","type":"address","internalType":"address"}]}],"bytecode":{"object":"0x60a06040527382af49447d8a07e3bd95bd0d56f35241523fbab1608090815261002c906000906001610147565b50614e20600455600580546001600160a01b031916905561138860065560008054610059916007916101ac565b50620f424060095534801561006d57600080fd5b506040516123f83803806123f883398101604081905261008c91610201565b806001600160a01b0381166100bb57604051631e4fbdf760e01b81526000600482015260240160405180910390fd5b6100c4816100f5565b5050600280546001600160a01b0319167382af49447d8a07e3bd95bd0d56f35241523fbab117905542600355610231565b600180546001600160a01b038381166001600160a01b0319831681179093556040519116919082907f8be0079c531659141344cd1fd0a4f28419497f9722a3daafe3b4186f6b6457e090600090a35050565b82805482825590600052602060002090810192821561019c579160200282015b8281111561019c57825182546001600160a01b0319166001600160a01b03909116178255602090920191600190910190610167565b506101a89291506101ec565b5090565b82805482825590600052602060002090810192821561019c5760005260206000209182015b8281111561019c5782548255916001019190600101906101d1565b5b808211156101a857600081556001016101ed565b60006020828403121561021357600080fd5b81516001600160a01b038116811461022a57600080fd5b9392505050565b6121b8806102406000396000f3fe60806040526004361061010d5760003560e01c80638c04166f11610095578063ce96952c11610064578063ce96952c14610292578063d0e30db0146102a7578063d60f3fd5146102af578063dca30f15146102cf578063f2fde38b146102ef57600080fd5b80638c04166f146102275780638da5cb5b1461023d57806398b6cb441461025b578063a39fac121461027057600080fd5b806366774663116100dc57806366774663146101b157806367e4ac2c146101d35780636c9c2faf146101e857806370d4d730146101fd578063715018a61461021257600080fd5b80632e1a7d4d1461011957806336bd00681461013b578063378997701461015b5780634e0ebe631461017f57600080fd5b3661011457005b600080fd5b34801561012557600080fd5b50610139610134366004611f52565b61030f565b005b34801561014757600080fd5b50610139610156366004611f52565b610b3d565b34801561016757600080fd5b506003545b6040519081526020015b60405180910390f35b34801561018b57600080fd5b506005546001600160a01b03165b6040516001600160a01b039091168152602001610176565b3480156101bd57600080fd5b506101c6610b94565b6040516101769190611f6b565b3480156101df57600080fd5b506101c6610ba3565b3480156101f457600080fd5b5060095461016c565b34801561020957600080fd5b50610139610c66565b34801561021e57600080fd5b50610139610f30565b34801561023357600080fd5b5061016c60065481565b34801561024957600080fd5b506001546001600160a01b0316610199565b34801561026757600080fd5b506101c6610f44565b34801561027c57600080fd5b506102856111ab565b6040516101769190611faf565b34801561029e57600080fd5b5060045461016c565b61016c61120d565b3480156102bb57600080fd5b506101996102ca366004611f52565b6118f0565b3480156102db57600080fd5b506101396102ea366004612005565b61191a565b3480156102fb57600080fd5b5061013961030a366004612005565b611944565b61031761197f565b600081116103775760405162461bcd60e51b815260206004820152602260248201527f596f75206d7573742070726f76696465206120706f73697469766520616d6f756044820152611b9d60f21b60648201526084015b60405180910390fd5b600061038260095490565b9050600081116103d45760405162461bcd60e51b815260206004820152601760248201527f537570706c79207661726961626c65206973207a65726f000000000000000000604482015260640161036e565b6000805b60075481101561073257600061042a60086000600785815481106103fe576103fe612022565b60009182526020808320909101546001600160a01b0316835282019290925260400190205486866119ac565b90508015610729577382af49447d8a07e3bd95bd0d56f35241523fbab16001600160a01b03166007838154811061046357610463612022565b6000918252602090912001546001600160a01b0316146106cb5761052d6007838154811061049357610493612022565b9060005260206000200160009054906101000a90046001600160a01b0316735615deb798bb3e4dfa0139dfa1b3d433cc23b72f6001600160a01b031663588c2f146040518163ffffffff1660e01b8152600401602060405180830381865afa158015610503573d6000803e3d6000fd5b505050506040513d601f19601f820116820180604052508101906105279190612038565b83611a71565b6000735615deb798bb3e4dfa0139dfa1b3d433cc23b72f6001600160a01b031663588c2f146040518163ffffffff1660e01b8152600401602060405180830381865afa158015610581573d6000803e3d6000fd5b505050506040513d601f19601f820116820180604052508101906105a59190612038565b6001600160a01b031663d485d512600785815481106105c6576105c6612022565b60009182526020909120015460065460405160e084901b6001600160e01b03191681526001600160a01b0390921660048301527382af49447d8a07e3bd95bd0d56f35241523fbab160248301526044820186905260648201526084016020604051808303816000875af1158015610641573d6000803e3d6000fd5b505050506040513d601f19601f820116820180604052508101906106659190612055565b905081600860006007868154811061067f5761067f612022565b60009182526020808320909101546001600160a01b03168352820192909252604001812080549091906106b3908490612084565b909155506106c390508185612097565b935050610729565b6106d58184612097565b92508060086000600785815481106106ef576106ef612022565b60009182526020808320909101546001600160a01b0316835282019290925260400181208054909190610723908490612084565b90915550505b506001016103d8565b506002546040516370a0823160e01b815230600482015282916001600160a01b0316906370a0823190602401602060405180830381865afa15801561077b573d6000803e3d6000fd5b505050506040513d601f19601f8201168201806040525081019061079f9190612055565b10156108005760405162461bcd60e51b815260206004820152602a60248201527f536d61727420636f6e747261637420646f6573206e6f74206861766520656e6f60448201526975676820746f6b656e7360b01b606482015260840161036e565b801561086557600254604051632e1a7d4d60e01b8152600481018390526001600160a01b0390911690632e1a7d4d90602401600060405180830381600087803b15801561084c57600080fd5b505af1158015610860573d6000803e3d6000fd5b505050505b804710156108c75760405162461bcd60e51b815260206004820152602960248201527f536d61727420636f6e747261637420646f6573206e6f74206861766520656e6f6044820152687567682066756e647360b81b606482015260840161036e565b6000620f4240735615deb798bb3e4dfa0139dfa1b3d433cc23b72f6001600160a01b0316630c17c6296040518163ffffffff1660e01b8152600401602060405180830381865afa15801561091f573d6000803e3d6000fd5b505050506040513d601f19601f820116820180604052508101906109439190612038565b6001600160a01b031663a786ab756040518163ffffffff1660e01b8152600401602060405180830381865afa158015610980573d6000803e3d6000fd5b505050506040513d601f19601f820116820180604052508101906109a49190612055565b6109ae90846120aa565b6109b891906120d7565b9050735615deb798bb3e4dfa0139dfa1b3d433cc23b72f6001600160a01b031663e00246046040518163ffffffff1660e01b8152600401602060405180830381865afa158015610a0c573d6000803e3d6000fd5b505050506040513d601f19601f82011682018060405250810190610a309190612038565b6001600160a01b031663ed2dd19b826040518263ffffffff1660e01b81526004016000604051808303818588803b158015610a6a57600080fd5b505af1158015610a7e573d6000803e3d6000fd5b50505050508082610a8f9190612084565b9150600082118015610aa15750814710155b15610b37576040513390600090829085908381818185875af1925050503d8060008114610aea576040519150601f19603f3d011682016040523d82523d6000602084013e610aef565b606091505b5050905080610b345760405162461bcd60e51b815260206004820152601160248201527015da5d1a191c985dd85b0819985a5b1959607a1b604482015260640161036e565b50505b50505050565b610b4561197f565b620f4240811115610b8f5760405162461bcd60e51b8152602060048201526014602482015273496e76616c6964206d617820736c69707061676560601b604482015260640161036e565b600655565b6060610b9e610ba3565b905090565b60075460609060009067ffffffffffffffff811115610bc457610bc46120f9565b604051908082528060200260200182016040528015610bed578160200160208202803683370190505b50905060005b600754811015610c60576008600060078381548110610c1457610c14612022565b60009182526020808320909101546001600160a01b031683528201929092526040019020548251839083908110610c4d57610c4d612022565b6020908102919091010152600101610bf3565b50919050565b610c6e61197f565b60005b600754811015610f2d57600060078281548110610c9057610c90612022565b6000918252602090912001546040516370a0823160e01b81523060048201526001600160a01b03909116906370a0823190602401602060405180830381865afa158015610ce1573d6000803e3d6000fd5b505050506040513d601f19601f82011682018060405250810190610d059190612055565b90508015610f24577382af49447d8a07e3bd95bd0d56f35241523fbab16001600160a01b031660078381548110610d3e57610d3e612022565b6000918252602090912001546001600160a01b031614610de157610d8a60078381548110610d6e57610d6e612022565b6000918252602090912001546001600160a01b03163383611b71565b806008600060078581548110610da257610da2612022565b60009182526020808320909101546001600160a01b0316835282019290925260400181208054909190610dd6908490612084565b90915550610f249050565b600254604051632e1a7d4d60e01b8152600481018390526001600160a01b0390911690632e1a7d4d90602401600060405180830381600087803b158015610e2757600080fd5b505af1158015610e3b573d6000803e3d6000fd5b50505050806008600060078581548110610e5757610e57612022565b60009182526020808320909101546001600160a01b0316835282019290925260400181208054909190610e8b908490612084565b909155505060405147903390600090829084908381818185875af1925050503d8060008114610ed6576040519150601f19603f3d011682016040523d82523d6000602084013e610edb565b606091505b5050905080610f205760405162461bcd60e51b815260206004820152601160248201527015da5d1a191c985dd85b0819985a5b1959607a1b604482015260640161036e565b5050505b50600101610c71565b50565b610f3861197f565b610f426000611c6a565b565b60075460609060009067ffffffffffffffff811115610f6557610f656120f9565b604051908082528060200260200182016040528015610f8e578160200160208202803683370190505b50905060005b60075481101561119b5760006008600060078481548110610fb757610fb7612022565b60009182526020808320909101546001600160a01b03168352820192909252604001902054600780549192507382af49447d8a07e3bd95bd0d56f35241523fbab1918490811061100957611009612022565b6000918252602090912001546001600160a01b03161461117257735615deb798bb3e4dfa0139dfa1b3d433cc23b72f6001600160a01b031663588c2f146040518163ffffffff1660e01b8152600401602060405180830381865afa158015611075573d6000803e3d6000fd5b505050506040513d601f19601f820116820180604052508101906110999190612038565b6001600160a01b03166384be3304600784815481106110ba576110ba612022565b60009182526020909120015460405160e083901b6001600160e01b03191681526001600160a01b0390911660048201527382af49447d8a07e3bd95bd0d56f35241523fbab1602482015260448101849052606401602060405180830381865afa15801561112b573d6000803e3d6000fd5b505050506040513d601f19601f8201168201806040525081019061114f9190612055565b83838151811061116157611161612022565b602002602001018181525050611192565b8083838151811061118557611185612022565b6020026020010181815250505b50600101610f94565b506111a581611cbc565b92915050565b6060600780548060200260200160405190810160405280929190818152602001828054801561120357602002820191906000526020600020905b81546001600160a01b031681526001909101906020018083116111e5575b5050505050905090565b600061121761197f565b600034116112675760405162461bcd60e51b815260206004820152601a60248201527f4e617469766520617373657473206d7573742062652070616964000000000000604482015260640161036e565b6000620f4240735615deb798bb3e4dfa0139dfa1b3d433cc23b72f6001600160a01b0316630c17c6296040518163ffffffff1660e01b8152600401602060405180830381865afa1580156112bf573d6000803e3d6000fd5b505050506040513d601f19601f820116820180604052508101906112e39190612038565b6001600160a01b031663a786ab756040518163ffffffff1660e01b8152600401602060405180830381865afa158015611320573d6000803e3d6000fd5b505050506040513d601f19601f820116820180604052508101906113449190612055565b61134e90346120aa565b61135891906120d7565b9050735615deb798bb3e4dfa0139dfa1b3d433cc23b72f6001600160a01b031663e00246046040518163ffffffff1660e01b8152600401602060405180830381865afa1580156113ac573d6000803e3d6000fd5b505050506040513d601f19601f820116820180604052508101906113d09190612038565b6001600160a01b031663ed2dd19b826040518263ffffffff1660e01b81526004016000604051808303818588803b15801561140a57600080fd5b505af115801561141e573d6000803e3d6000fd5b5050505050600081346114319190612084565b905060008061143f60095490565b9050600061144b610f44565b90506000805b82518110156114895782818151811061146c5761146c612022565b60200260200101518261147f9190612097565b9150600101611451565b50801580611495575082155b15611542577382af49447d8a07e3bd95bd0d56f35241523fbab1600090815260086020527fce09d406285d0d98f8d7856cf5337fcbd8f91b9d4e3f0ab0ea2741da37b2c6fb86905560025460408051630d0e30db60e41b815290518897506001600160a01b039092169263d0e30db0928892600480820193929182900301818588803b15801561152457600080fd5b505af1158015611538573d6000803e3d6000fd5b50505050506118e5565b600061154c610b94565b905060005b83518110156118e257600084828151811061156e5761156e612022565b602002602001015111156118da576000620f424085838151811061159457611594612022565b6020026020010151896115a791906120aa565b6115b191906120d7565b90507382af49447d8a07e3bd95bd0d56f35241523fbab16001600160a01b0316600783815481106115e4576115e4612022565b6000918252602090912001546001600160a01b0316146117d2576000735615deb798bb3e4dfa0139dfa1b3d433cc23b72f6001600160a01b031663588c2f146040518163ffffffff1660e01b8152600401602060405180830381865afa158015611652573d6000803e3d6000fd5b505050506040513d601f19601f820116820180604052508101906116769190612038565b6001600160a01b031663e8204d2c836007868154811061169857611698612022565b60009182526020909120015460065460405160e085901b6001600160e01b03191681526001600160a01b039092166004830152602482015260440160206040518083038185885af11580156116f1573d6000803e3d6000fd5b50505050506040513d601f19601f820116820180604052508101906117169190612055565b905061176e8187858151811061172e5761172e612022565b60200260200101518961174191906120aa565b620f424087878151811061175757611757612022565b602002602001015161176991906120aa565b6119ac565b6117789089612097565b975080600860006007868154811061179257611792612022565b60009182526020808320909101546001600160a01b03168352820192909252604001812080549091906117c6908490612097565b909155506118d8915050565b600260009054906101000a90046001600160a01b03166001600160a01b031663d0e30db0826040518263ffffffff1660e01b81526004016000604051808303818588803b15801561182257600080fd5b505af1158015611836573d6000803e3d6000fd5b505050505061187a8186848151811061185157611851612022565b60200260200101518861186491906120aa565b620f424086868151811061175757611757612022565b6118849088612097565b965080600860006007858154811061189e5761189e612022565b60009182526020808320909101546001600160a01b03168352820192909252604001812080549091906118d2908490612097565b90915550505b505b600101611551565b50505b509194505050505090565b6000818154811061190057600080fd5b6000918252602090912001546001600160a01b0316905081565b61192261197f565b600580546001600160a01b0319166001600160a01b0392909216919091179055565b61194c61197f565b6001600160a01b03811661197657604051631e4fbdf760e01b81526000600482015260240161036e565b610f2d81611c6a565b6001546001600160a01b03163314610f425760405163118cdaa760e01b815233600482015260240161036e565b60008383028160001985870982811083820303915050806000036119e3578382816119d9576119d96120c1565b0492505050611a6a565b808411611a035760405163227bc15360e01b815260040160405180910390fd5b6000848688096000868103871696879004966002600389028118808a02820302808a02820302808a02820302808a02820302808a02820302808a02909103029181900381900460010186841190950394909402919094039290920491909117919091029150505b9392505050565b604080516001600160a01b038481166024830152604480830185905283518084039091018152606490920183526020820180516001600160e01b031663095ea7b360e01b1790529151600092839290871691611acd919061210f565b6000604051808303816000865af19150503d8060008114611b0a576040519150601f19603f3d011682016040523d82523d6000602084013e611b0f565b606091505b5091509150818015611b39575080511580611b39575080806020019051810190611b39919061213e565b611b6a5760405162461bcd60e51b8152602060048201526002602482015261534160f01b604482015260640161036e565b5050505050565b604080516001600160a01b038481166024830152604480830185905283518084039091018152606490920183526020820180516001600160e01b031663a9059cbb60e01b1790529151600092839290871691611bcd919061210f565b6000604051808303816000865af19150503d8060008114611c0a576040519150601f19603f3d011682016040523d82523d6000602084013e611c0f565b606091505b5091509150818015611c39575080511580611c39575080806020019051810190611c39919061213e565b611b6a5760405162461bcd60e51b815260206004820152600260248201526114d560f21b604482015260640161036e565b600180546001600160a01b038381166001600160a01b0319831681179093556040519116919082907f8be0079c531659141344cd1fd0a4f28419497f9722a3daafe3b4186f6b6457e090600090a35050565b60606000805b8351811015611cfa57838181518110611cdd57611cdd612022565b602002602001015182611cf09190612097565b9150600101611cc2565b5080600003611d0a575090919050565b60005b8351811015611d6257611d3d848281518110611d2b57611d2b612022565b6020026020010151620f4240846119ac565b848281518110611d4f57611d4f612022565b6020908102919091010152600101611d0d565b506000905080808080611d79620f424060026120aa565b905060005b87518162ffffff161015611ebe57878162ffffff1681518110611da357611da3612022565b602002602001015186611db69190612097565b955082888262ffffff1681518110611dd057611dd0612022565b6020026020010151118015611e0357506000888262ffffff1681518110611df957611df9612022565b6020026020010151115b15611e3257878162ffffff1681518110611e1f57611e1f612022565b602002602001015192508062ffffff1694505b81888262ffffff1681518110611e4a57611e4a612022565b6020026020010151108015611e7d57506000888262ffffff1681518110611e7357611e73612022565b6020026020010151115b15611eac57878162ffffff1681518110611e9957611e99612022565b602002602001015191508062ffffff1693505b80611eb681612160565b915050611d7e565b50620f4240851015611f0557611ed785620f4240612084565b878481518110611ee957611ee9612022565b60200260200101818151611efd9190612097565b905250611f47565b620f4240851115611f4757611f1d620f424086612084565b878581518110611f2f57611f2f612022565b60200260200101818151611f439190612084565b9052505b505050505090919050565b600060208284031215611f6457600080fd5b5035919050565b6020808252825182820181905260009190848201906040850190845b81811015611fa357835183529284019291840191600101611f87565b50909695505050505050565b6020808252825182820181905260009190848201906040850190845b81811015611fa35783516001600160a01b031683529284019291840191600101611fcb565b6001600160a01b0381168114610f2d57600080fd5b60006020828403121561201757600080fd5b8135611a6a81611ff0565b634e487b7160e01b600052603260045260246000fd5b60006020828403121561204a57600080fd5b8151611a6a81611ff0565b60006020828403121561206757600080fd5b5051919050565b634e487b7160e01b600052601160045260246000fd5b818103818111156111a5576111a561206e565b808201808211156111a5576111a561206e565b80820281158282048414176111a5576111a561206e565b634e487b7160e01b600052601260045260246000fd5b6000826120f457634e487b7160e01b600052601260045260246000fd5b500490565b634e487b7160e01b600052604160045260246000fd5b6000825160005b818110156121305760208186018101518583015201612116565b506000920191825250919050565b60006020828403121561215057600080fd5b81518015158114611a6a57600080fd5b600062ffffff8083168181036121785761217861206e565b600101939250505056fea26469706673582212201a696ef0b3035a01e4cd0031d0b08be47149bb665e1c3646d8274ea2320546ab64736f6c63430008190033","linkReferences":{}},"methodIdentifiers":{"changeDelegatedAddress(address)":"dca30f15","changeMaxSlippage(uint256)":"36bd0068","deposit()":"d0e30db0","getActualDistribution()":"98b6cb44","getAddresses()":"a39fac12","getAssets()":"67e4ac2c","getAssetsExtended()":"66774663","getDelegatedAddress()":"4e0ebe63","getLastTimestamp()":"37899770","getMinPercAllowance()":"ce96952c","getSupply()":"6c9c2faf","maxSlippage()":"8c04166f","owner()":"8da5cb5b","renounceOwnership()":"715018a6","tokenAddressesInit(uint256)":"d60f3fd5","transferOwnership(address)":"f2fde38b","withdraw(uint256)":"2e1a7d4d","withdrawBruteForced()":"70d4d730"},"id":1}