{"abi":[{"type":"constructor","inputs":[{"name":"initialOwner","type":"address","internalType":"address"}],"stateMutability":"nonpayable"},{"type":"receive","stateMutability":"payable"},{"type":"function","name":"changeDelegatedAddress","inputs":[{"name":"newAddress","type":"address","internalType":"address"}],"outputs":[],"stateMutability":"nonpayable"},{"type":"function","name":"changeMaxSlippage","inputs":[{"name":"newValue","type":"uint256","internalType":"uint256"}],"outputs":[],"stateMutability":"nonpayable"},{"type":"function","name":"deposit","inputs":[],"outputs":[{"name":"","type":"uint256","internalType":"uint256"}],"stateMutability":"payable"},{"type":"function","name":"getActualDistribution","inputs":[],"outputs":[{"name":"","type":"uint256[]","internalType":"uint256[]"}],"stateMutability":"view"},{"type":"function","name":"getAddresses","inputs":[],"outputs":[{"name":"","type":"address[]","internalType":"address[]"}],"stateMutability":"view"},{"type":"function","name":"getAmountLendToken","inputs":[{"name":"tokenAddress","type":"address","internalType":"address"}],"outputs":[{"name":"","type":"uint256","internalType":"uint256"}],"stateMutability":"view"},{"type":"function","name":"getAssets","inputs":[],"outputs":[{"name":"","type":"uint256[]","internalType":"uint256[]"}],"stateMutability":"view"},{"type":"function","name":"getAssetsExtended","inputs":[],"outputs":[{"name":"","type":"uint256[]","internalType":"uint256[]"}],"stateMutability":"view"},{"type":"function","name":"getDelegatedAddress","inputs":[],"outputs":[{"name":"","type":"address","internalType":"address"}],"stateMutability":"view"},{"type":"function","name":"getLastTimestamp","inputs":[],"outputs":[{"name":"","type":"uint256","internalType":"uint256"}],"stateMutability":"view"},{"type":"function","name":"getMinPercAllowance","inputs":[],"outputs":[{"name":"","type":"uint256","internalType":"uint256"}],"stateMutability":"view"},{"type":"function","name":"getSupply","inputs":[],"outputs":[{"name":"","type":"uint256","internalType":"uint256"}],"stateMutability":"view"},{"type":"function","name":"maxSlippage","inputs":[],"outputs":[{"name":"","type":"uint256","internalType":"uint256"}],"stateMutability":"view"},{"type":"function","name":"owner","inputs":[],"outputs":[{"name":"","type":"address","internalType":"address"}],"stateMutability":"view"},{"type":"function","name":"rankMe","inputs":[],"outputs":[],"stateMutability":"nonpayable"},{"type":"function","name":"renounceOwnership","inputs":[],"outputs":[],"stateMutability":"nonpayable"},{"type":"function","name":"setMinPercAllowance","inputs":[{"name":"newPerc","type":"uint256","internalType":"uint256"}],"outputs":[],"stateMutability":"nonpayable"},{"type":"function","name":"setPortfolio","inputs":[{"name":"newAssets","type":"address[]","internalType":"address[]"},{"name":"newDistribution","type":"uint256[]","internalType":"uint256[]"}],"outputs":[{"name":"","type":"uint256","internalType":"uint256"}],"stateMutability":"nonpayable"},{"type":"function","name":"supplyLendToken","inputs":[{"name":"tokenAddress","type":"address","internalType":"address"}],"outputs":[],"stateMutability":"nonpayable"},{"type":"function","name":"tokenAddressesInit","inputs":[{"name":"","type":"uint256","internalType":"uint256"}],"outputs":[{"name":"","type":"address","internalType":"address"}],"stateMutability":"view"},{"type":"function","name":"transferOwnership","inputs":[{"name":"newOwner","type":"address","internalType":"address"}],"outputs":[],"stateMutability":"nonpayable"},{"type":"function","name":"withdraw","inputs":[{"name":"amount","type":"uint256","internalType":"uint256"}],"outputs":[],"stateMutability":"nonpayable"},{"type":"function","name":"withdrawBruteForced","inputs":[],"outputs":[],"stateMutability":"nonpayable"},{"type":"function","name":"withdrawLendToken","inputs":[{"name":"tokenAddress","type":"address","internalType":"address"}],"outputs":[],"stateMutability":"nonpayable"},{"type":"event","name":"OwnershipTransferred","inputs":[{"name":"previousOwner","type":"address","indexed":true,"internalType":"address"},{"name":"newOwner","type":"address","indexed":true,"internalType":"address"}],"anonymous":false},{"type":"error","name":"MathOverflowedMulDiv","inputs":[]},{"type":"error","name":"OwnableInvalidOwner","inputs":[{"name":"owner","type":"address","internalType":"address"}]},{"type":"error","name":"OwnableUnauthorizedAccount","inputs":[{"name":"account","type":"address","internalType":"address"}]}],"bytecode":{"object":"0x60a06040527382af49447d8a07e3bd95bd0d56f35241523fbab1608090815261002c906000906001610149565b50614e20600455600580546001600160a01b031916905561138860065560008054610059916007916101ae565b50620f424060095534801561006d57600080fd5b506040516155aa3803806155aa83398101604081905261008c91610203565b80806001600160a01b0381166100bc57604051631e4fbdf760e01b81526000600482015260240160405180910390fd5b6100c5816100f7565b5050600280546001600160a01b0319167382af49447d8a07e3bd95bd0d56f35241523fbab11790555042600355610233565b600180546001600160a01b038381166001600160a01b0319831681179093556040519116919082907f8be0079c531659141344cd1fd0a4f28419497f9722a3daafe3b4186f6b6457e090600090a35050565b82805482825590600052602060002090810192821561019e579160200282015b8281111561019e57825182546001600160a01b0319166001600160a01b03909116178255602090920191600190910190610169565b506101aa9291506101ee565b5090565b82805482825590600052602060002090810192821561019e5760005260206000209182015b8281111561019e5782548255916001019190600101906101d3565b5b808211156101aa57600081556001016101ef565b60006020828403121561021557600080fd5b81516001600160a01b038116811461022c57600080fd5b9392505050565b615368806102426000396000f3fe60806040526004361061014f5760003560e01c80638c04166f116100b6578063a39fac121161006f578063a39fac1214610367578063ce96952c14610389578063d0e30db01461039e578063d60f3fd5146103a6578063dca30f15146103c6578063f2fde38b146103e657600080fd5b80638c04166f146102be5780638da5cb5b146102d457806397c75631146102f2578063989a144c1461031257806398b6cb44146103325780639d9b10cb1461034757600080fd5b80636677466311610108578063667746631461022857806367e4ac2c1461024a5780636c9c2faf1461025f57806370d4d73014610274578063715018a6146102895780637e8b217e1461029e57600080fd5b80631a51e02e1461015b5780632e1a7d4d1461017d57806336bd00681461019d57806337899770146101bd5780634e0ebe63146101e157806363fd03d11461021357600080fd5b3661015657005b600080fd5b34801561016757600080fd5b5061017b610176366004614d74565b610406565b005b34801561018957600080fd5b5061017b610198366004614d91565b610755565b3480156101a957600080fd5b5061017b6101b8366004614d91565b6109cf565b3480156101c957600080fd5b506003545b6040519081526020015b60405180910390f35b3480156101ed57600080fd5b506005546001600160a01b03165b6040516001600160a01b0390911681526020016101d8565b34801561021f57600080fd5b5061017b610a26565b34801561023457600080fd5b5061023d610b47565b6040516101d89190614de6565b34801561025657600080fd5b5061023d610e33565b34801561026b57600080fd5b506009546101ce565b34801561028057600080fd5b5061017b610ef0565b34801561029557600080fd5b5061017b61105a565b3480156102aa57600080fd5b506101ce6102b9366004614d74565b61106c565b3480156102ca57600080fd5b506101ce60065481565b3480156102e057600080fd5b506001546001600160a01b03166101fb565b3480156102fe57600080fd5b5061017b61030d366004614d74565b611152565b34801561031e57600080fd5b5061017b61032d366004614d91565b6115a9565b34801561033e57600080fd5b5061023d611609565b34801561035357600080fd5b506101ce610362366004614ed3565b611a83565b34801561037357600080fd5b5061037c611e49565b6040516101d89190614fcf565b34801561039557600080fd5b506004546101ce565b6101ce611eab565b3480156103b257600080fd5b506101fb6103c1366004614d91565b611fa6565b3480156103d257600080fd5b5061017b6103e1366004614d74565b611fd0565b3480156103f257600080fd5b5061017b610401366004614d74565b611ffa565b6001546001600160a01b031633148061043e57506005546001600160a01b03163314801561043e57506005546001600160a01b031615155b6104635760405162461bcd60e51b815260040161045a90614fe2565b60405180910390fd5b6001600160a01b0381166000908152600860205260409020546104c85760405162461bcd60e51b815260206004820152601d60248201527f5573657220646f6573206e6f742068617665207468697320746f6b656e000000604482015260640161045a565b6001600160a01b03811660009081526008602090815260409182902054825163daabffe960e01b8152925190926000805160206152f38339815191529263daabffe9926004808401938290030181865afa15801561052a573d6000803e3d6000fd5b505050506040513d601f19601f8201168201806040525081019061054e9190615036565b60405163e96da40360e01b81526001600160a01b038481166004830152919091169063e96da40390602401602060405180830381865afa158015610596573d6000803e3d6000fd5b505050506040513d601f19601f820116820180604052508101906105ba9190615053565b6105d65760405162461bcd60e51b815260040161045a90615075565b610650826000805160206152f38339815191526001600160a01b031663daabffe96040518163ffffffff1660e01b8152600401602060405180830381865afa158015610626573d6000803e3d6000fd5b505050506040513d601f19601f8201168201806040525081019061064a9190615036565b83612035565b6000805160206152f38339815191526001600160a01b031663daabffe96040518163ffffffff1660e01b8152600401602060405180830381865afa15801561069c573d6000803e3d6000fd5b505050506040513d601f19601f820116820180604052508101906106c09190615036565b604051632547035560e01b81526001600160a01b038481166004830152602482018490529190911690632547035590604401600060405180830381600087803b15801561070c57600080fd5b505af1158015610720573d6000803e3d6000fd5b505050506001600160a01b0382166000908152600860205260408120805483929061074c9084906150cd565b90915550505050565b61075d61212e565b60005b6007548110156108e3576000805160206152f38339815191526001600160a01b031663daabffe96040518163ffffffff1660e01b8152600401602060405180830381865afa1580156107b6573d6000803e3d6000fd5b505050506040513d601f19601f820116820180604052508101906107da9190615036565b6001600160a01b031663c489744b600783815481106107fb576107fb6150e0565b6000918252602090912001546040516001600160e01b031960e084901b168152610833916001600160a01b03169030906004016150f6565b602060405180830381865afa158015610850573d6000803e3d6000fd5b505050506040513d601f19601f820116820180604052508101906108749190615110565b156108db5760405162461bcd60e51b815260206004820152603160248201527f546f2077697468647261772c20616c6c206c6f616e73206e65656420746f206260448201527019481dda5d1a191c985ddb88199a5c9cdd607a1b606482015260840161045a565b600101610760565b506108ed8161215b565b6000805160206152f38339815191526001600160a01b0316630c17c6296040518163ffffffff1660e01b8152600401602060405180830381865afa158015610939573d6000803e3d6000fd5b505050506040513d601f19601f8201168201806040525081019061095d9190615036565b6001600160a01b031663d49674fc33610974611609565b61097c611e49565b6040518463ffffffff1660e01b815260040161099a93929190615129565b600060405180830381600087803b1580156109b457600080fd5b505af11580156109c8573d6000803e3d6000fd5b5050505050565b6109d761212e565b620f4240811115610a215760405162461bcd60e51b8152602060048201526014602482015273496e76616c6964206d617820736c69707061676560601b604482015260640161045a565b600655565b6001546001600160a01b0316331480610a5e57506005546001600160a01b031633148015610a5e57506005546001600160a01b031615155b610a7a5760405162461bcd60e51b815260040161045a90614fe2565b6000805160206152f38339815191526001600160a01b0316630c17c6296040518163ffffffff1660e01b8152600401602060405180830381865afa158015610ac6573d6000803e3d6000fd5b505050506040513d601f19601f82011682018060405250810190610aea9190615036565b60405163f4bd260b60e01b81523360048201526001600160a01b03919091169063f4bd260b90602401600060405180830381600087803b158015610b2d57600080fd5b505af1158015610b41573d6000803e3d6000fd5b50505050565b60075460609060009067ffffffffffffffff811115610b6857610b68614df9565b604051908082528060200260200182016040528015610b91578160200160208202803683370190505b50905060005b600754811015610e2d5760006008600060078481548110610bba57610bba6150e0565b60009182526020808320909101546001600160a01b03168352828101939093526040918201812054825163daabffe960e01b8152925190945090926000805160206152f38339815191529263daabffe992600480830193928290030181865afa158015610c2b573d6000803e3d6000fd5b505050506040513d601f19601f82011682018060405250810190610c4f9190615036565b6001600160a01b031663c489744b60078581548110610c7057610c706150e0565b6000918252602090912001546040516001600160e01b031960e084901b168152610ca8916001600160a01b03169030906004016150f6565b602060405180830381865afa158015610cc5573d6000803e3d6000fd5b505050506040513d601f19601f82011682018060405250810190610ce99190615110565b1115610e06576000805160206152f38339815191526001600160a01b031663daabffe96040518163ffffffff1660e01b8152600401602060405180830381865afa158015610d3b573d6000803e3d6000fd5b505050506040513d601f19601f82011682018060405250810190610d5f9190615036565b6001600160a01b031663c489744b60078481548110610d8057610d806150e0565b6000918252602090912001546040516001600160e01b031960e084901b168152610db8916001600160a01b03169030906004016150f6565b602060405180830381865afa158015610dd5573d6000803e3d6000fd5b505050506040513d601f19601f82011682018060405250810190610df99190615110565b610e039082615169565b90505b80838381518110610e1957610e196150e0565b602090810291909101015250600101610b97565b50919050565b60075460609060009067ffffffffffffffff811115610e5457610e54614df9565b604051908082528060200260200182016040528015610e7d578160200160208202803683370190505b50905060005b600754811015610e2d576008600060078381548110610ea457610ea46150e0565b60009182526020808320909101546001600160a01b031683528201929092526040019020548251839083908110610edd57610edd6150e0565b6020908102919091010152600101610e83565b610ef861212e565b60005b60075481101561104f5760006000805160206152f38339815191526001600160a01b031663daabffe96040518163ffffffff1660e01b8152600401602060405180830381865afa158015610f53573d6000803e3d6000fd5b505050506040513d601f19601f82011682018060405250810190610f779190615036565b6001600160a01b031663c489744b60078481548110610f9857610f986150e0565b6000918252602090912001546040516001600160e01b031960e084901b168152610fd0916001600160a01b03169030906004016150f6565b602060405180830381865afa158015610fed573d6000803e3d6000fd5b505050506040513d601f19601f820116820180604052508101906110119190615110565b1115611047576110476007828154811061102d5761102d6150e0565b6000918252602090912001546001600160a01b0316611152565b600101610efb565b5061105861292b565b565b61106261212e565b6110586000612bec565b60006000805160206152f38339815191526001600160a01b031663daabffe96040518163ffffffff1660e01b8152600401602060405180830381865afa1580156110ba573d6000803e3d6000fd5b505050506040513d601f19601f820116820180604052508101906110de9190615036565b6001600160a01b031663c489744b83306040518363ffffffff1660e01b815260040161110b9291906150f6565b602060405180830381865afa158015611128573d6000803e3d6000fd5b505050506040513d601f19601f8201168201806040525081019061114c9190615110565b92915050565b6001546001600160a01b031633148061118a57506005546001600160a01b03163314801561118a57506005546001600160a01b031615155b6111a65760405162461bcd60e51b815260040161045a90614fe2565b6000805160206152f38339815191526001600160a01b031663daabffe96040518163ffffffff1660e01b8152600401602060405180830381865afa1580156111f2573d6000803e3d6000fd5b505050506040513d601f19601f820116820180604052508101906112169190615036565b60405163e96da40360e01b81526001600160a01b038381166004830152919091169063e96da40390602401602060405180830381865afa15801561125e573d6000803e3d6000fd5b505050506040513d601f19601f820116820180604052508101906112829190615053565b61129e5760405162461bcd60e51b815260040161045a90615075565b60006000805160206152f38339815191526001600160a01b031663daabffe96040518163ffffffff1660e01b8152600401602060405180830381865afa1580156112ec573d6000803e3d6000fd5b505050506040513d601f19601f820116820180604052508101906113109190615036565b6001600160a01b031663c489744b83306040518363ffffffff1660e01b815260040161133d9291906150f6565b602060405180830381865afa15801561135a573d6000803e3d6000fd5b505050506040513d601f19601f8201168201806040525081019061137e9190615110565b116113cb5760405162461bcd60e51b815260206004820152601760248201527f546f6b656e20686173206e6f74206265656e206c656e74000000000000000000604482015260640161045a565b60006000805160206152f38339815191526001600160a01b031663daabffe96040518163ffffffff1660e01b8152600401602060405180830381865afa158015611419573d6000803e3d6000fd5b505050506040513d601f19601f8201168201806040525081019061143d9190615036565b6001600160a01b031663c489744b83306040518363ffffffff1660e01b815260040161146a9291906150f6565b602060405180830381865afa158015611487573d6000803e3d6000fd5b505050506040513d601f19601f820116820180604052508101906114ab9190615110565b90506000805160206152f38339815191526001600160a01b031663daabffe96040518163ffffffff1660e01b8152600401602060405180830381865afa1580156114f9573d6000803e3d6000fd5b505050506040513d601f19601f8201168201806040525081019061151d9190615036565b6040516326969b5f60e01b81526001600160a01b0384811660048301526024820184905291909116906326969b5f90604401600060405180830381600087803b15801561156957600080fd5b505af115801561157d573d6000803e3d6000fd5b505050506001600160a01b0382166000908152600860205260408120805483929061074c908490615169565b6001546001600160a01b03163314806115e157506005546001600160a01b0316331480156115e157506005546001600160a01b031615155b6115fd5760405162461bcd60e51b815260040161045a90614fe2565b61160681600455565b50565b60075460609060009067ffffffffffffffff81111561162a5761162a614df9565b604051908082528060200260200182016040528015611653578160200160208202803683370190505b50905060005b600754811015611a79576000600860006007848154811061167c5761167c6150e0565b60009182526020808320909101546001600160a01b03168352828101939093526040918201812054825163daabffe960e01b8152925190945090926000805160206152f38339815191529263daabffe992600480830193928290030181865afa1580156116ed573d6000803e3d6000fd5b505050506040513d601f19601f820116820180604052508101906117119190615036565b6001600160a01b031663c489744b60078581548110611732576117326150e0565b6000918252602090912001546040516001600160e01b031960e084901b16815261176a916001600160a01b03169030906004016150f6565b602060405180830381865afa158015611787573d6000803e3d6000fd5b505050506040513d601f19601f820116820180604052508101906117ab9190615110565b11156118c8576000805160206152f38339815191526001600160a01b031663daabffe96040518163ffffffff1660e01b8152600401602060405180830381865afa1580156117fd573d6000803e3d6000fd5b505050506040513d601f19601f820116820180604052508101906118219190615036565b6001600160a01b031663c489744b60078481548110611842576118426150e0565b6000918252602090912001546040516001600160e01b031960e084901b16815261187a916001600160a01b03169030906004016150f6565b602060405180830381865afa158015611897573d6000803e3d6000fd5b505050506040513d601f19601f820116820180604052508101906118bb9190615110565b6118c59082615169565b90505b6000805160206152d38339815191526001600160a01b0316600783815481106118f3576118f36150e0565b6000918252602090912001546001600160a01b031614611a50576000805160206152f38339815191526001600160a01b031663588c2f146040518163ffffffff1660e01b8152600401602060405180830381865afa158015611959573d6000803e3d6000fd5b505050506040513d601f19601f8201168201806040525081019061197d9190615036565b6001600160a01b03166384be33046007848154811061199e5761199e6150e0565b60009182526020909120015460405160e083901b6001600160e01b03191681526001600160a01b0390911660048201526000805160206152d3833981519152602482015260448101849052606401602060405180830381865afa158015611a09573d6000803e3d6000fd5b505050506040513d601f19601f82011682018060405250810190611a2d9190615110565b838381518110611a3f57611a3f6150e0565b602002602001018181525050611a70565b80838381518110611a6357611a636150e0565b6020026020010181815250505b50600101611659565b5061114c81612c3e565b6000611a976001546001600160a01b031690565b6001600160a01b0316336001600160a01b03161480611ad557506005546001600160a01b031633148015611ad557506005546001600160a01b031615155b611af15760405162461bcd60e51b815260040161045a90614fe2565b60005b600754811015611c7c576000805160206152f38339815191526001600160a01b031663daabffe96040518163ffffffff1660e01b8152600401602060405180830381865afa158015611b4a573d6000803e3d6000fd5b505050506040513d601f19601f82011682018060405250810190611b6e9190615036565b6001600160a01b031663c489744b60078381548110611b8f57611b8f6150e0565b6000918252602090912001546040516001600160e01b031960e084901b168152611bc7916001600160a01b03169030906004016150f6565b602060405180830381865afa158015611be4573d6000803e3d6000fd5b505050506040513d601f19601f82011682018060405250810190611c089190615110565b15611c745760405162461bcd60e51b815260206004820152603660248201527f546f2073657420706f7274666f6c696f2c20616c6c206c6f616e73206e656564604482015275081d1bc81899481dda5d1a191c985ddb88199a5c9cdd60521b606482015260840161045a565b600101611af4565b5060006000805160206152f38339815191526001600160a01b0316630c17c6296040518163ffffffff1660e01b8152600401602060405180830381865afa158015611ccb573d6000803e3d6000fd5b505050506040513d601f19601f82011682018060405250810190611cef9190615036565b6001600160a01b031663242331a86040518163ffffffff1660e01b8152600401602060405180830381865afa158015611d2c573d6000803e3d6000fd5b505050506040513d601f19601f82011682018060405250810190611d509190615110565b90506000611d5f858584612ed4565b90506000805160206152f38339815191526001600160a01b0316630c17c6296040518163ffffffff1660e01b8152600401602060405180830381865afa158015611dad573d6000803e3d6000fd5b505050506040513d601f19601f82011682018060405250810190611dd19190615036565b6001600160a01b031663d49674fc33611de8611609565b611df0611e49565b6040518463ffffffff1660e01b8152600401611e0e93929190615129565b600060405180830381600087803b158015611e2857600080fd5b505af1158015611e3c573d6000803e3d6000fd5b5092979650505050505050565b60606007805480602002602001604051908101604052809291908181526020018280548015611ea157602002820191906000526020600020905b81546001600160a01b03168152600190910190602001808311611e83575b5050505050905090565b6000611eb561212e565b6000611ebf6136b1565b90506000805160206152f38339815191526001600160a01b0316630c17c6296040518163ffffffff1660e01b8152600401602060405180830381865afa158015611f0d573d6000803e3d6000fd5b505050506040513d601f19601f82011682018060405250810190611f319190615036565b6001600160a01b031663d49674fc33611f48611609565b611f50611e49565b6040518463ffffffff1660e01b8152600401611f6e93929190615129565b600060405180830381600087803b158015611f8857600080fd5b505af1158015611f9c573d6000803e3d6000fd5b5092935050505090565b60008181548110611fb657600080fd5b6000918252602090912001546001600160a01b0316905081565b611fd861212e565b600580546001600160a01b0319166001600160a01b0392909216919091179055565b61200261212e565b6001600160a01b03811661202c57604051631e4fbdf760e01b81526000600482015260240161045a565b61160681612bec565b604080516001600160a01b038481166024830152604480830185905283518084039091018152606490920183526020820180516001600160e01b031663095ea7b360e01b1790529151600092839290871691612091919061517c565b6000604051808303816000865af19150503d80600081146120ce576040519150601f19603f3d011682016040523d82523d6000602084013e6120d3565b606091505b50915091508180156120fd5750805115806120fd5750808060200190518101906120fd9190615053565b6109c85760405162461bcd60e51b8152602060048201526002602482015261534160f01b604482015260640161045a565b6001546001600160a01b031633146110585760405163118cdaa760e01b815233600482015260240161045a565b61216361212e565b600081116121be5760405162461bcd60e51b815260206004820152602260248201527f596f75206d7573742070726f76696465206120706f73697469766520616d6f756044820152611b9d60f21b606482015260840161045a565b60006121c960095490565b90506000811161221b5760405162461bcd60e51b815260206004820152601760248201527f537570706c79207661726961626c65206973207a65726f000000000000000000604482015260640161045a565b6000805b60075481101561252d5760006122716008600060078581548110612245576122456150e0565b60009182526020808320909101546001600160a01b031683528201929092526040019020548686613d64565b90508015612524576000805160206152d38339815191526001600160a01b0316600783815481106122a4576122a46150e0565b6000918252602090912001546001600160a01b0316146124c65761233e600783815481106122d4576122d46150e0565b9060005260206000200160009054906101000a90046001600160a01b03166000805160206152f38339815191526001600160a01b031663588c2f146040518163ffffffff1660e01b8152600401602060405180830381865afa158015610626573d6000803e3d6000fd5b60006000805160206152f38339815191526001600160a01b031663588c2f146040518163ffffffff1660e01b8152600401602060405180830381865afa15801561238c573d6000803e3d6000fd5b505050506040513d601f19601f820116820180604052508101906123b09190615036565b6001600160a01b031663d485d512600785815481106123d1576123d16150e0565b6000918252602090912001546006546040516001600160e01b031960e085901b16815261241d926001600160a01b0316916000805160206152d3833981519152918891906004016151ab565b6020604051808303816000875af115801561243c573d6000803e3d6000fd5b505050506040513d601f19601f820116820180604052508101906124609190615110565b905081600860006007868154811061247a5761247a6150e0565b60009182526020808320909101546001600160a01b03168352820192909252604001812080549091906124ae9084906150cd565b909155506124be90508185615169565b935050612524565b6124d08184615169565b92508060086000600785815481106124ea576124ea6150e0565b60009182526020808320909101546001600160a01b031683528201929092526040018120805490919061251e9084906150cd565b90915550505b5060010161221f565b506002546040516370a0823160e01b815230600482015282916001600160a01b0316906370a0823190602401602060405180830381865afa158015612576573d6000803e3d6000fd5b505050506040513d601f19601f8201168201806040525081019061259a9190615110565b10156125fb5760405162461bcd60e51b815260206004820152602a60248201527f536d61727420636f6e747261637420646f6573206e6f74206861766520656e6f60448201526975676820746f6b656e7360b01b606482015260840161045a565b801561266057600254604051632e1a7d4d60e01b8152600481018390526001600160a01b0390911690632e1a7d4d90602401600060405180830381600087803b15801561264757600080fd5b505af115801561265b573d6000803e3d6000fd5b505050505b804710156126c25760405162461bcd60e51b815260206004820152602960248201527f536d61727420636f6e747261637420646f6573206e6f74206861766520656e6f6044820152687567682066756e647360b81b606482015260840161045a565b6000620f42406000805160206152f38339815191526001600160a01b0316630c17c6296040518163ffffffff1660e01b8152600401602060405180830381865afa158015612714573d6000803e3d6000fd5b505050506040513d601f19601f820116820180604052508101906127389190615036565b6001600160a01b031663a786ab756040518163ffffffff1660e01b8152600401602060405180830381865afa158015612775573d6000803e3d6000fd5b505050506040513d601f19601f820116820180604052508101906127999190615110565b6127a390846151d4565b6127ad9190615201565b90506000805160206152f38339815191526001600160a01b031663e00246046040518163ffffffff1660e01b8152600401602060405180830381865afa1580156127fb573d6000803e3d6000fd5b505050506040513d601f19601f8201168201806040525081019061281f9190615036565b6001600160a01b031663ed2dd19b826040518263ffffffff1660e01b81526004016000604051808303818588803b15801561285957600080fd5b505af115801561286d573d6000803e3d6000fd5b5050505050808261287e91906150cd565b91506000821180156128905750814710155b15610b41576040513390600090829085908381818185875af1925050503d80600081146128d9576040519150601f19603f3d011682016040523d82523d6000602084013e6128de565b606091505b50509050806129235760405162461bcd60e51b815260206004820152601160248201527015da5d1a191c985dd85b0819985a5b1959607a1b604482015260640161045a565b505050505050565b61293361212e565b60005b60075481101561160657600060078281548110612955576129556150e0565b6000918252602090912001546040516370a0823160e01b81523060048201526001600160a01b03909116906370a0823190602401602060405180830381865afa1580156129a6573d6000803e3d6000fd5b505050506040513d601f19601f820116820180604052508101906129ca9190615110565b90508015612be3576000805160206152d38339815191526001600160a01b0316600783815481106129fd576129fd6150e0565b6000918252602090912001546001600160a01b031614612aa057612a4960078381548110612a2d57612a2d6150e0565b6000918252602090912001546001600160a01b03163383613e28565b806008600060078581548110612a6157612a616150e0565b60009182526020808320909101546001600160a01b0316835282019290925260400181208054909190612a959084906150cd565b90915550612be39050565b600254604051632e1a7d4d60e01b8152600481018390526001600160a01b0390911690632e1a7d4d90602401600060405180830381600087803b158015612ae657600080fd5b505af1158015612afa573d6000803e3d6000fd5b50505050806008600060078581548110612b1657612b166150e0565b60009182526020808320909101546001600160a01b0316835282019290925260400181208054909190612b4a9084906150cd565b909155505060405147903390600090829084908381818185875af1925050503d8060008114612b95576040519150601f19603f3d011682016040523d82523d6000602084013e612b9a565b606091505b5050905080612bdf5760405162461bcd60e51b815260206004820152601160248201527015da5d1a191c985dd85b0819985a5b1959607a1b604482015260640161045a565b5050505b50600101612936565b600180546001600160a01b038381166001600160a01b0319831681179093556040519116919082907f8be0079c531659141344cd1fd0a4f28419497f9722a3daafe3b4186f6b6457e090600090a35050565b60606000805b8351811015612c7c57838181518110612c5f57612c5f6150e0565b602002602001015182612c729190615169565b9150600101612c44565b5080600003612c8c575090919050565b60005b8351811015612ce457612cbf848281518110612cad57612cad6150e0565b6020026020010151620f424084613d64565b848281518110612cd157612cd16150e0565b6020908102919091010152600101612c8f565b506000905080808080612cfb620f424060026151d4565b905060005b87518162ffffff161015612e4057878162ffffff1681518110612d2557612d256150e0565b602002602001015186612d389190615169565b955082888262ffffff1681518110612d5257612d526150e0565b6020026020010151118015612d8557506000888262ffffff1681518110612d7b57612d7b6150e0565b6020026020010151115b15612db457878162ffffff1681518110612da157612da16150e0565b602002602001015192508062ffffff1694505b81888262ffffff1681518110612dcc57612dcc6150e0565b6020026020010151108015612dff57506000888262ffffff1681518110612df557612df56150e0565b6020026020010151115b15612e2e57878162ffffff1681518110612e1b57612e1b6150e0565b602002602001015191508062ffffff1693505b80612e3881615223565b915050612d00565b50620f4240851015612e8757612e5985620f42406150cd565b878481518110612e6b57612e6b6150e0565b60200260200101818151612e7f9190615169565b905250612ec9565b620f4240851115612ec957612e9f620f4240866150cd565b878581518110612eb157612eb16150e0565b60200260200101818151612ec591906150cd565b9052505b505050505090919050565b600083516001612ee49190615169565b835114612f725760405162461bcd60e51b815260206004820152605060248201527f54686520646973747269627574696f6e206172726179206c656e677468206d7560448201527f737420657175616c20746865206e756d626572206f66206e657720617373657460648201526f1cc80ac81b985d1a5d9948185cdcd95d60821b608482015260a40161045a565b6000805b8451811015612fae57848181518110612f9157612f916150e0565b602002602001015182612fa49190615169565b9150600101612f76565b50620f424081146130015760405162461bcd60e51b815260206004820152601f60248201527f446973747269627574696f6e206d757374206265206e6f726d616c697a656400604482015260640161045a565b600160005b865181101561317957868181518110613021576130216150e0565b60200260200101516001600160a01b03166000805160206152d38339815191526001600160a01b0316148061316757506000805160206152f38339815191526001600160a01b031663588c2f146040518163ffffffff1660e01b8152600401602060405180830381865afa15801561309d573d6000803e3d6000fd5b505050506040513d601f19601f820116820180604052508101906130c19190615036565b6001600160a01b031663a3fcf6f68883815181106130e1576130e16150e0565b60200260200101516000805160206152d38339815191526040518363ffffffff1660e01b81526004016131159291906150f6565b6060604051808303816000875af1158015613134573d6000803e3d6000fd5b505050506040513d601f19601f820116820180604052508101906131589190615245565b604001516001600160801b0316155b1561317157600091505b600101613006565b50806131c75760405162461bcd60e51b815260206004820152601d60248201527f41727261797320616e64204665657320617265206e6f742076616c6964000000604482015260640161045a565b6007541561357b5760005b6007548110156135795761320d600782815481106131f2576131f26150e0565b6000918252602090912001546001600160a01b031688613f21565b15801561325557506000600860006007848154811061322e5761322e6150e0565b60009182526020808320909101546001600160a01b03168352820192909252604001902054115b801561329f57506000805160206152d38339815191526001600160a01b031660078281548110613287576132876150e0565b6000918252602090912001546001600160a01b031614155b1561357157613389600782815481106132ba576132ba6150e0565b9060005260206000200160009054906101000a90046001600160a01b03166000805160206152f38339815191526001600160a01b031663588c2f146040518163ffffffff1660e01b8152600401602060405180830381865afa158015613324573d6000803e3d6000fd5b505050506040513d601f19601f820116820180604052508101906133489190615036565b600860006007868154811061335f5761335f6150e0565b60009182526020808320909101546001600160a01b03168352820192909252604001902054612035565b60006000805160206152f38339815191526001600160a01b031663588c2f146040518163ffffffff1660e01b8152600401602060405180830381865afa1580156133d7573d6000803e3d6000fd5b505050506040513d601f19601f820116820180604052508101906133fb9190615036565b6001600160a01b031663d485d5126007848154811061341c5761341c6150e0565b9060005260206000200160009054906101000a90046001600160a01b03166000805160206152d38339815191526008600060078881548110613460576134606150e0565b60009182526020808320909101546001600160a01b0316835282019290925260409081019091205460065491516001600160e01b031960e087901b1681526134ad949392906004016151ab565b6020604051808303816000875af11580156134cc573d6000803e3d6000fd5b505050506040513d601f19601f820116820180604052508101906134f09190615110565b90506000600860006007858154811061350b5761350b6150e0565b60009182526020808320909101546001600160a01b031683528281019390935260409091018120929092556000805160206152d3833981519152825260089052600080516020615313833981519152805483929061356a908490615169565b9091555050505b6001016131d2565b505b8551613588906001615169565b67ffffffffffffffff8111156135a0576135a0614df9565b6040519080825280602002602001820160405280156135c9578160200160208202803683370190505b5080516135de91600791602090910190614ce5565b5060005b8651811015613649578681815181106135fd576135fd6150e0565b602002602001015160078281548110613618576136186150e0565b600091825260209091200180546001600160a01b0319166001600160a01b03929092169190911790556001016135e2565b506000805160206152d3833981519152600787518154811061366d5761366d6150e0565b6000918252602082200180546001600160a01b0319166001600160a01b0393909316929092179091556136a08686613f7c565b4260035593505050505b9392505050565b60006136bb61212e565b6000341161370b5760405162461bcd60e51b815260206004820152601a60248201527f4e617469766520617373657473206d7573742062652070616964000000000000604482015260640161045a565b6000620f42406000805160206152f38339815191526001600160a01b0316630c17c6296040518163ffffffff1660e01b8152600401602060405180830381865afa15801561375d573d6000803e3d6000fd5b505050506040513d601f19601f820116820180604052508101906137819190615036565b6001600160a01b031663a786ab756040518163ffffffff1660e01b8152600401602060405180830381865afa1580156137be573d6000803e3d6000fd5b505050506040513d601f19601f820116820180604052508101906137e29190615110565b6137ec90346151d4565b6137f69190615201565b90506000805160206152f38339815191526001600160a01b031663e00246046040518163ffffffff1660e01b8152600401602060405180830381865afa158015613844573d6000803e3d6000fd5b505050506040513d601f19601f820116820180604052508101906138689190615036565b6001600160a01b031663ed2dd19b826040518263ffffffff1660e01b81526004016000604051808303818588803b1580156138a257600080fd5b505af11580156138b6573d6000803e3d6000fd5b5050505050600081346138c991906150cd565b90506000806138d760095490565b905060006138e3611609565b90506000805b825181101561392157828181518110613904576139046150e0565b6020026020010151826139179190615169565b91506001016138e9565b5080158061392d575082155b156139c2576000805160206152d38339815191526000908152600860205260008051602061531383398151915286905560025460408051630d0e30db60e41b815290518897506001600160a01b039092169263d0e30db0928892600480820193929182900301818588803b1580156139a457600080fd5b505af11580156139b8573d6000803e3d6000fd5b5050505050613d59565b60006139cc610b47565b905060005b8351811015613d565760008482815181106139ee576139ee6150e0565b60200260200101511115613d4e576000620f4240858381518110613a1457613a146150e0565b602002602001015189613a2791906151d4565b613a319190615201565b90506000805160206152d38339815191526001600160a01b031660078381548110613a5e57613a5e6150e0565b6000918252602090912001546001600160a01b031614613c465760006000805160206152f38339815191526001600160a01b031663588c2f146040518163ffffffff1660e01b8152600401602060405180830381865afa158015613ac6573d6000803e3d6000fd5b505050506040513d601f19601f82011682018060405250810190613aea9190615036565b6001600160a01b031663e8204d2c8360078681548110613b0c57613b0c6150e0565b60009182526020909120015460065460405160e085901b6001600160e01b03191681526001600160a01b039092166004830152602482015260440160206040518083038185885af1158015613b65573d6000803e3d6000fd5b50505050506040513d601f19601f82011682018060405250810190613b8a9190615110565b9050613be281878581518110613ba257613ba26150e0565b602002602001015189613bb591906151d4565b620f4240878781518110613bcb57613bcb6150e0565b6020026020010151613bdd91906151d4565b613d64565b613bec9089615169565b9750806008600060078681548110613c0657613c066150e0565b60009182526020808320909101546001600160a01b0316835282019290925260400181208054909190613c3a908490615169565b90915550613d4c915050565b600260009054906101000a90046001600160a01b03166001600160a01b031663d0e30db0826040518263ffffffff1660e01b81526004016000604051808303818588803b158015613c9657600080fd5b505af1158015613caa573d6000803e3d6000fd5b5050505050613cee81868481518110613cc557613cc56150e0565b602002602001015188613cd891906151d4565b620f4240868681518110613bcb57613bcb6150e0565b613cf89088615169565b9650806008600060078581548110613d1257613d126150e0565b60009182526020808320909101546001600160a01b0316835282019290925260400181208054909190613d46908490615169565b90915550505b505b6001016139d1565b50505b509194505050505090565b6000838302816000198587098281108382030391505080600003613d9b57838281613d9157613d916151eb565b04925050506136aa565b808411613dbb5760405163227bc15360e01b815260040160405180910390fd5b6000848688096000868103871696879004966002600389028118808a02820302808a02820302808a02820302808a02820302808a02820302808a02909103029181900381900460010186841190950394909402919094039290920491909117919091029150509392505050565b604080516001600160a01b038481166024830152604480830185905283518084039091018152606490920183526020820180516001600160e01b031663a9059cbb60e01b1790529151600092839290871691613e84919061517c565b6000604051808303816000865af19150503d8060008114613ec1576040519150601f19603f3d011682016040523d82523d6000602084013e613ec6565b606091505b5091509150818015613ef0575080511580613ef0575080806020019051810190613ef09190615053565b6109c85760405162461bcd60e51b815260206004820152600260248201526114d560f21b604482015260640161045a565b6000805b8251811015613f7257836001600160a01b0316838281518110613f4a57613f4a6150e0565b60200260200101516001600160a01b031603613f6a57600191505061114c565b600101613f25565b5060009392505050565b600080613f87611609565b90506000805b8251811015613fc557828181518110613fa857613fa86150e0565b602002602001015182613fbb9190615169565b9150600101613f8d565b5080600003613fd95760009250505061114c565b6000805b86518110156140c257868181518110613ff857613ff86150e0565b6020026020010151848281518110614012576140126150e0565b6020026020010151111561406f57868181518110614032576140326150e0565b602002602001015184828151811061404c5761404c6150e0565b602002602001015161405e91906150cd565b6140689083615169565b91506140ba565b838181518110614081576140816150e0565b602002602001015187828151811061409b5761409b6150e0565b60200260200101516140ad91906150cd565b6140b79083615169565b91505b600101613fdd565b506004546140d19060026151d4565b8110156140e4576000935050505061114c565b600083600185516140f591906150cd565b81518110614105576141056150e0565b6020908102919091018101516000805160206152d3833981519152600090815260089092526000805160206153138339815191525490925061414b9088620f4240613d64565b905060005b6007548110156145a15788818151811061416c5761416c6150e0565b6020026020010151868281518110614186576141866150e0565b60200260200101511180156141d957506000805160206152d38339815191526001600160a01b0316600782815481106141c1576141c16150e0565b6000918252602090912001546001600160a01b031614155b1561459957600061422960086000600785815481106141fa576141fa6150e0565b60009182526020808320909101546001600160a01b031683528201929092526040019020548a620f4240613d64565b905060008a838151811061423f5761423f6150e0565b6020026020010151888481518110614259576142596150e0565b602002602001015161426b91906150cd565b905060006142d983600860006007888154811061428a5761428a6150e0565b60009182526020808320909101546001600160a01b031683528201929092526040019020546142b991906150cd565b838b87815181106142cc576142cc6150e0565b6020026020010151613d64565b905061438e600785815481106142f1576142f16150e0565b9060005260206000200160009054906101000a90046001600160a01b03166000805160206152f38339815191526001600160a01b031663588c2f146040518163ffffffff1660e01b8152600401602060405180830381865afa15801561435b573d6000803e3d6000fd5b505050506040513d601f19601f8201168201806040525081019061437f9190615036565b6143898685615169565b612035565b60006000805160206152f38339815191526001600160a01b031663588c2f146040518163ffffffff1660e01b8152600401602060405180830381865afa1580156143dc573d6000803e3d6000fd5b505050506040513d601f19601f820116820180604052508101906144009190615036565b6001600160a01b031663d485d51260078781548110614421576144216150e0565b6000918252602090912001546006546040516001600160e01b031960e085901b16815261446d926001600160a01b0316916000805160206152d3833981519152918891906004016151ab565b6020604051808303816000875af115801561448c573d6000803e3d6000fd5b505050506040513d601f19601f820116820180604052508101906144b09190615110565b905060006144be8386615169565b11156144ef576144ce8285615169565b6144d885836151d4565b6144e29190615201565b6144ec9087615169565b95505b6000805160206152d3833981519152600090815260086020526000805160206153138339815191528054839290614527908490615169565b9091555061453790508483615169565b600860006007888154811061454e5761454e6150e0565b60009182526020808320909101546001600160a01b03168352820192909252604001812080549091906145829084906150cd565b9091555061459290508388615169565b9650505050505b600101614150565b506000805160206152d383398151915260009081526008602052600080516020615313833981519152546145d69083906150cd565b905060005b6007548110156148da578681815181106145f7576145f76150e0565b60200260200101518a8281518110614611576146116150e0565b602002602001015111801561466457506000805160206152d38339815191526001600160a01b03166007828154811061464c5761464c6150e0565b6000918252602090912001546001600160a01b031614155b156148d257600087828151811061467d5761467d6150e0565b60200260200101518b8381518110614697576146976150e0565b60200260200101516146a991906150cd565b905060006146b8848388613d64565b90506147186000805160206152d38339815191526000805160206152f38339815191526001600160a01b031663588c2f146040518163ffffffff1660e01b8152600401602060405180830381865afa158015610626573d6000803e3d6000fd5b60006000805160206152f38339815191526001600160a01b031663588c2f146040518163ffffffff1660e01b8152600401602060405180830381865afa158015614766573d6000803e3d6000fd5b505050506040513d601f19601f8201168201806040525081019061478a9190615036565b6001600160a01b031663d485d5126000805160206152d3833981519152600787815481106147ba576147ba6150e0565b6000918252602090912001546006546040516001600160e01b031960e086901b1681526147f693926001600160a01b03169188916004016151ab565b6020604051808303816000875af1158015614815573d6000803e3d6000fd5b505050506040513d601f19601f820116820180604052508101906148399190615110565b6000805160206152d383398151915260009081526008602052600080516020615313833981519152805492935084929091906148769084906150cd565b92505081905550806008600060078781548110614895576148956150e0565b60009182526020808320909101546001600160a01b03168352820192909252604001812080549091906148c9908490615169565b90915550505050505b6001016145db565b508115614cb6576000805160206152d38339815191526000908152600860205260008051602061531383398151915280548492906149199084906150cd565b9091555050600254604051632e1a7d4d60e01b8152600481018490526001600160a01b0390911690632e1a7d4d90602401600060405180830381600087803b15801561496457600080fd5b505af1158015614978573d6000803e3d6000fd5b505050506000805160206152f38339815191526001600160a01b0316630c17c6296040518163ffffffff1660e01b8152600401602060405180830381865afa1580156149c8573d6000803e3d6000fd5b505050506040513d601f19601f820116820180604052508101906149ec9190615036565b6001600160a01b0316632bb14e1d6040518163ffffffff1660e01b8152600401602060405180830381865afa158015614a29573d6000803e3d6000fd5b505050506040513d601f19601f82011682018060405250810190614a4d9190615110565b8803614b1b576000805160206152f38339815191526001600160a01b031663e00246046040518163ffffffff1660e01b8152600401602060405180830381865afa158015614a9f573d6000803e3d6000fd5b505050506040513d601f19601f82011682018060405250810190614ac39190615036565b6001600160a01b031663d31c83f2836040518263ffffffff1660e01b81526004016000604051808303818588803b158015614afd57600080fd5b505af1158015614b11573d6000803e3d6000fd5b5050505050614cb6565b6000805160206152f38339815191526001600160a01b0316630c17c6296040518163ffffffff1660e01b8152600401602060405180830381865afa158015614b67573d6000803e3d6000fd5b505050506040513d601f19601f82011682018060405250810190614b8b9190615036565b6001600160a01b031663242331a86040518163ffffffff1660e01b8152600401602060405180830381865afa158015614bc8573d6000803e3d6000fd5b505050506040513d601f19601f82011682018060405250810190614bec9190615110565b8803614cb6576000805160206152f38339815191526001600160a01b031663e00246046040518163ffffffff1660e01b8152600401602060405180830381865afa158015614c3e573d6000803e3d6000fd5b505050506040513d601f19601f82011682018060405250810190614c629190615036565b6001600160a01b031663ed2dd19b836040518263ffffffff1660e01b81526004016000604051808303818588803b158015614c9c57600080fd5b505af1158015614cb0573d6000803e3d6000fd5b50505050505b620f424088614cc460095490565b614cce91906151d4565b614cd89190615201565b9998505050505050505050565b828054828255906000526020600020908101928215614d3a579160200282015b82811115614d3a57825182546001600160a01b0319166001600160a01b03909116178255602090920191600190910190614d05565b50614d46929150614d4a565b5090565b5b80821115614d465760008155600101614d4b565b6001600160a01b038116811461160657600080fd5b600060208284031215614d8657600080fd5b81356136aa81614d5f565b600060208284031215614da357600080fd5b5035919050565b60008151808452602080850194506020840160005b83811015614ddb57815187529582019590820190600101614dbf565b509495945050505050565b6020815260006136aa6020830184614daa565b634e487b7160e01b600052604160045260246000fd5b604051601f8201601f1916810167ffffffffffffffff81118282101715614e3857614e38614df9565b604052919050565b600067ffffffffffffffff821115614e5a57614e5a614df9565b5060051b60200190565b600082601f830112614e7557600080fd5b81356020614e8a614e8583614e40565b614e0f565b8083825260208201915060208460051b870101935086841115614eac57600080fd5b602086015b84811015614ec85780358352918301918301614eb1565b509695505050505050565b60008060408385031215614ee657600080fd5b823567ffffffffffffffff80821115614efe57600080fd5b818501915085601f830112614f1257600080fd5b81356020614f22614e8583614e40565b82815260059290921b84018101918181019089841115614f4157600080fd5b948201945b83861015614f68578535614f5981614d5f565b82529482019490820190614f46565b96505086013592505080821115614f7e57600080fd5b50614f8b85828601614e64565b9150509250929050565b60008151808452602080850194506020840160005b83811015614ddb5781516001600160a01b031687529582019590820190600101614faa565b6020815260006136aa6020830184614f95565b60208082526034908201527f4f6e6c792074686520616c6c6f776564206164647265737365732063616e20746040820152733934b3b3b2b9103a3434b990333ab731ba34b7b760611b606082015260800190565b60006020828403121561504857600080fd5b81516136aa81614d5f565b60006020828403121561506557600080fd5b815180151581146136aa57600080fd5b60208082526022908201527f546f6b656e206973206e6f7420617661696c61626c6520666f72206c656e64696040820152616e6760f01b606082015260800190565b634e487b7160e01b600052601160045260246000fd5b8181038181111561114c5761114c6150b7565b634e487b7160e01b600052603260045260246000fd5b6001600160a01b0392831681529116602082015260400190565b60006020828403121561512257600080fd5b5051919050565b6001600160a01b038416815260606020820181905260009061514d90830185614daa565b828103604084015261515f8185614f95565b9695505050505050565b8082018082111561114c5761114c6150b7565b6000825160005b8181101561519d5760208186018101518583015201615183565b506000920191825250919050565b6001600160a01b0394851681529290931660208301526040820152606081019190915260800190565b808202811582820484141761114c5761114c6150b7565b634e487b7160e01b600052601260045260246000fd5b60008261521e57634e487b7160e01b600052601260045260246000fd5b500490565b600062ffffff80831681810361523b5761523b6150b7565b6001019392505050565b60006060828403121561525757600080fd5b6040516060810181811067ffffffffffffffff8211171561527a5761527a614df9565b604052825161ffff8116811461528f57600080fd5b8152602083015162ffffff811681146152a757600080fd5b602082015260408301516001600160801b03811681146152c657600080fd5b6040820152939250505056fe00000000000000000000000082af49447d8a07e3bd95bd0d56f35241523fbab10000000000000000000000005615deb798bb3e4dfa0139dfa1b3d433cc23b72fce09d406285d0d98f8d7856cf5337fcbd8f91b9d4e3f0ab0ea2741da37b2c6fba2646970667358221220f8678fa78cf7d39efc79f0ac00a67179acb83af443ee354e8b959b9e5e1c5a5564736f6c63430008190033","linkReferences":{}},"methodIdentifiers":{"changeDelegatedAddress(address)":"dca30f15","changeMaxSlippage(uint256)":"36bd0068","deposit()":"d0e30db0","getActualDistribution()":"98b6cb44","getAddresses()":"a39fac12","getAmountLendToken(address)":"7e8b217e","getAssets()":"67e4ac2c","getAssetsExtended()":"66774663","getDelegatedAddress()":"4e0ebe63","getLastTimestamp()":"37899770","getMinPercAllowance()":"ce96952c","getSupply()":"6c9c2faf","maxSlippage()":"8c04166f","owner()":"8da5cb5b","rankMe()":"63fd03d1","renounceOwnership()":"715018a6","setMinPercAllowance(uint256)":"989a144c","setPortfolio(address[],uint256[])":"9d9b10cb","supplyLendToken(address)":"1a51e02e","tokenAddressesInit(uint256)":"d60f3fd5","transferOwnership(address)":"f2fde38b","withdraw(uint256)":"2e1a7d4d","withdrawBruteForced()":"70d4d730","withdrawLendToken(address)":"97c75631"},"id":8}