{"abi":[{"type":"constructor","inputs":[{"name":"wedxGroupAddress","type":"address","internalType":"address"}],"stateMutability":"nonpayable"},{"type":"receive","stateMutability":"payable"},{"type":"function","name":"allowance","inputs":[{"name":"owner","type":"address","internalType":"address"},{"name":"spender","type":"address","internalType":"address"}],"outputs":[{"name":"","type":"uint256","internalType":"uint256"}],"stateMutability":"view"},{"type":"function","name":"approve","inputs":[{"name":"spender","type":"address","internalType":"address"},{"name":"value","type":"uint256","internalType":"uint256"}],"outputs":[{"name":"","type":"bool","internalType":"bool"}],"stateMutability":"nonpayable"},{"type":"function","name":"balanceOf","inputs":[{"name":"account","type":"address","internalType":"address"}],"outputs":[{"name":"","type":"uint256","internalType":"uint256"}],"stateMutability":"view"},{"type":"function","name":"decimals","inputs":[],"outputs":[{"name":"","type":"uint8","internalType":"uint8"}],"stateMutability":"view"},{"type":"function","name":"depositGeneralFee","inputs":[],"outputs":[],"stateMutability":"payable"},{"type":"function","name":"depositRewardFee","inputs":[],"outputs":[],"stateMutability":"payable"},{"type":"function","name":"name","inputs":[],"outputs":[{"name":"","type":"string","internalType":"string"}],"stateMutability":"view"},{"type":"function","name":"redeem","inputs":[{"name":"amount","type":"uint256","internalType":"uint256"}],"outputs":[{"name":"","type":"uint256","internalType":"uint256"}],"stateMutability":"nonpayable"},{"type":"function","name":"symbol","inputs":[],"outputs":[{"name":"","type":"string","internalType":"string"}],"stateMutability":"view"},{"type":"function","name":"tokenAddressesInit","inputs":[{"name":"","type":"uint256","internalType":"uint256"}],"outputs":[{"name":"","type":"address","internalType":"address"}],"stateMutability":"view"},{"type":"function","name":"totalSupply","inputs":[],"outputs":[{"name":"","type":"uint256","internalType":"uint256"}],"stateMutability":"view"},{"type":"function","name":"transfer","inputs":[{"name":"to","type":"address","internalType":"address"},{"name":"value","type":"uint256","internalType":"uint256"}],"outputs":[{"name":"","type":"bool","internalType":"bool"}],"stateMutability":"nonpayable"},{"type":"function","name":"transferFrom","inputs":[{"name":"from","type":"address","internalType":"address"},{"name":"to","type":"address","internalType":"address"},{"name":"value","type":"uint256","internalType":"uint256"}],"outputs":[{"name":"","type":"bool","internalType":"bool"}],"stateMutability":"nonpayable"},{"type":"event","name":"Approval","inputs":[{"name":"owner","type":"address","indexed":true,"internalType":"address"},{"name":"spender","type":"address","indexed":true,"internalType":"address"},{"name":"value","type":"uint256","indexed":false,"internalType":"uint256"}],"anonymous":false},{"type":"event","name":"Transfer","inputs":[{"name":"from","type":"address","indexed":true,"internalType":"address"},{"name":"to","type":"address","indexed":true,"internalType":"address"},{"name":"value","type":"uint256","indexed":false,"internalType":"uint256"}],"anonymous":false},{"type":"error","name":"ERC20InsufficientAllowance","inputs":[{"name":"spender","type":"address","internalType":"address"},{"name":"allowance","type":"uint256","internalType":"uint256"},{"name":"needed","type":"uint256","internalType":"uint256"}]},{"type":"error","name":"ERC20InsufficientBalance","inputs":[{"name":"sender","type":"address","internalType":"address"},{"name":"balance","type":"uint256","internalType":"uint256"},{"name":"needed","type":"uint256","internalType":"uint256"}]},{"type":"error","name":"ERC20InvalidApprover","inputs":[{"name":"approver","type":"address","internalType":"address"}]},{"type":"error","name":"ERC20InvalidReceiver","inputs":[{"name":"receiver","type":"address","internalType":"address"}]},{"type":"error","name":"ERC20InvalidSender","inputs":[{"name":"sender","type":"address","internalType":"address"}]},{"type":"error","name":"ERC20InvalidSpender","inputs":[{"name":"spender","type":"address","internalType":"address"}]}],"bytecode":{"object":"0x60a06040527382af49447d8a07e3bd95bd0d56f35241523fbab1608090815261002c9060059060016100e3565b5034801561003957600080fd5b5060405161152c38038061152c8339810160408190526100589161015d565b6040518060400160405280601081526020016f5765446546696e20547265617375727960801b8152506040518060400160405280600481526020016315d1511560e21b81525081600390816100ad919061022e565b5060046100ba828261022e565b5050600680546001600160a01b0319166001600160a01b039390931692909217909155506102ed565b828054828255906000526020600020908101928215610138579160200282015b8281111561013857825182546001600160a01b0319166001600160a01b03909116178255602090920191600190910190610103565b50610144929150610148565b5090565b5b808211156101445760008155600101610149565b60006020828403121561016f57600080fd5b81516001600160a01b038116811461018657600080fd5b9392505050565b634e487b7160e01b600052604160045260246000fd5b600181811c908216806101b757607f821691505b6020821081036101d757634e487b7160e01b600052602260045260246000fd5b50919050565b601f821115610229576000816000526020600020601f850160051c810160208610156102065750805b601f850160051c820191505b8181101561022557828155600101610212565b5050505b505050565b81516001600160401b038111156102475761024761018d565b61025b8161025584546101a3565b846101dd565b602080601f83116001811461029057600084156102785750858301515b600019600386901b1c1916600185901b178555610225565b600085815260208120601f198616915b828110156102bf578886015182559484019460019091019084016102a0565b50858210156102dd5787850151600019600388901b60f8161c191681555b5050505050600190811b01905550565b611230806102fc6000396000f3fe6080604052600436106100c65760003560e01c806395d89b411161007f578063d60f3fd511610059578063d60f3fd51461027a578063db006a75146102b2578063dd62ed3e146102d2578063ed2dd19b1461031857600080fd5b806395d89b411461023d578063a9059cbb14610252578063d31c83f21461027257600080fd5b806306fdde0314610151578063095ea7b31461017c57806318160ddd146101ac57806323b872dd146101cb578063313ce567146101eb57806370a082311461020757600080fd5b3661014c5761014a735615deb798bb3e4dfa0139dfa1b3d433cc23b72f6001600160a01b0316638da5cb5b6040518163ffffffff1660e01b8152600401602060405180830381865afa158015610120573d6000803e3d6000fd5b505050506040513d601f19601f820116820180604052508101906101449190610ef2565b34610320565b005b600080fd5b34801561015d57600080fd5b5061016661035f565b6040516101739190610f16565b60405180910390f35b34801561018857600080fd5b5061019c610197366004610f65565b6103f1565b6040519015158152602001610173565b3480156101b857600080fd5b506002545b604051908152602001610173565b3480156101d757600080fd5b5061019c6101e6366004610f91565b61040b565b3480156101f757600080fd5b5060405160128152602001610173565b34801561021357600080fd5b506101bd610222366004610fd2565b6001600160a01b031660009081526020819052604090205490565b34801561024957600080fd5b5061016661042f565b34801561025e57600080fd5b5061019c61026d366004610f65565b61043e565b61014a61044c565b34801561028657600080fd5b5061029a610295366004610fef565b610a2f565b6040516001600160a01b039091168152602001610173565b3480156102be57600080fd5b506101bd6102cd366004610fef565b610a59565b3480156102de57600080fd5b506101bd6102ed366004611008565b6001600160a01b03918216600090815260016020908152604080832093909416825291909152205490565b61014a610b4f565b6001600160a01b03821661034f5760405163ec442f0560e01b8152600060048201526024015b60405180910390fd5b61035b60008383610ba6565b5050565b60606003805461036e90611041565b80601f016020809104026020016040519081016040528092919081815260200182805461039a90611041565b80156103e75780601f106103bc576101008083540402835291602001916103e7565b820191906000526020600020905b8154815290600101906020018083116103ca57829003601f168201915b5050505050905090565b6000336103ff818585610cd0565b60019150505b92915050565b600033610419858285610ce2565b610424858585610d60565b506001949350505050565b60606004805461036e90611041565b6000336103ff818585610d60565b6000735615deb798bb3e4dfa0139dfa1b3d433cc23b72f6001600160a01b0316630c17c6296040518163ffffffff1660e01b8152600401602060405180830381865afa1580156104a0573d6000803e3d6000fd5b505050506040513d601f19601f820116820180604052508101906104c49190610ef2565b6001600160a01b0316631fdf67556040518163ffffffff1660e01b8152600401600060405180830381865afa158015610501573d6000803e3d6000fd5b505050506040513d6000823e601f3d908101601f191682016040526105299190810190611091565b90506000735615deb798bb3e4dfa0139dfa1b3d433cc23b72f6001600160a01b0316630c17c6296040518163ffffffff1660e01b8152600401602060405180830381865afa15801561057f573d6000803e3d6000fd5b505050506040513d601f19601f820116820180604052508101906105a39190610ef2565b6001600160a01b0316634ef5e7f46040518163ffffffff1660e01b8152600401602060405180830381865afa1580156105e0573d6000803e3d6000fd5b505050506040513d601f19601f820116820180604052508101906106049190611156565b90506000735615deb798bb3e4dfa0139dfa1b3d433cc23b72f6001600160a01b0316630c17c6296040518163ffffffff1660e01b8152600401602060405180830381865afa15801561065a573d6000803e3d6000fd5b505050506040513d601f19601f8201168201806040525081019061067e9190610ef2565b6001600160a01b0316631ef867dd6040518163ffffffff1660e01b8152600401602060405180830381865afa1580156106bb573d6000803e3d6000fd5b505050506040513d601f19601f820116820180604052508101906106df9190610ef2565b90506000735615deb798bb3e4dfa0139dfa1b3d433cc23b72f6001600160a01b0316630c17c6296040518163ffffffff1660e01b8152600401602060405180830381865afa158015610735573d6000803e3d6000fd5b505050506040513d601f19601f820116820180604052508101906107599190610ef2565b6001600160a01b031663c780b0516040518163ffffffff1660e01b8152600401602060405180830381865afa158015610796573d6000803e3d6000fd5b505050506040513d601f19601f820116820180604052508101906107ba9190611156565b90503481158015906107d457506001600160a01b03831615155b1561081f576107fa83620f42406107eb8585611185565b6107f5919061119c565b610320565b620f42406108088383611185565b610812919061119c565b61081c90826111be565b90505b6000841561099c5760005b865181101561099a576000735615deb798bb3e4dfa0139dfa1b3d433cc23b72f6001600160a01b0316630c17c6296040518163ffffffff1660e01b8152600401602060405180830381865afa158015610887573d6000803e3d6000fd5b505050506040513d601f19601f820116820180604052508101906108ab9190610ef2565b6001600160a01b03166308ad90a58984815181106108cb576108cb6111d1565b60200260200101516040518263ffffffff1660e01b81526004016108fe91906001600160a01b0391909116815260200190565b602060405180830381865afa15801561091b573d6000803e3d6000fd5b505050506040513d601f19601f8201168201806040525081019061093f9190611156565b90508015610991576000876109548387611185565b61095e919061119c565b9050610983898481518110610975576109756111d1565b602002602001015182610320565b61098d81856111e7565b9350505b5060010161082a565b505b81811015610a2757610a27735615deb798bb3e4dfa0139dfa1b3d433cc23b72f6001600160a01b0316638da5cb5b6040518163ffffffff1660e01b8152600401602060405180830381865afa1580156109f9573d6000803e3d6000fd5b505050506040513d601f19601f82011682018060405250810190610a1d9190610ef2565b6107f583856111be565b505050505050565b60058181548110610a3f57600080fd5b6000918252602090912001546001600160a01b0316905081565b33600090815260208190526040812054821115610aaf5760405162461bcd60e51b8152602060048201526014602482015273496e73756666696369656e742062616c616e636560601b6044820152606401610346565b6040513390600090829085908381818185875af1925050503d8060008114610af3576040519150601f19603f3d011682016040523d82523d6000602084013e610af8565b606091505b5050905080610b3d5760405162461bcd60e51b815260206004820152601160248201527015da5d1a191c985dd85b0819985a5b1959607a1b6044820152606401610346565b610b473385610dbf565b509192915050565b610ba4735615deb798bb3e4dfa0139dfa1b3d433cc23b72f6001600160a01b0316638da5cb5b6040518163ffffffff1660e01b8152600401602060405180830381865afa158015610120573d6000803e3d6000fd5b565b6001600160a01b038316610bd1578060026000828254610bc691906111e7565b90915550610c439050565b6001600160a01b03831660009081526020819052604090205481811015610c245760405163391434e360e21b81526001600160a01b03851660048201526024810182905260448101839052606401610346565b6001600160a01b03841660009081526020819052604090209082900390555b6001600160a01b038216610c5f57600280548290039055610c7e565b6001600160a01b03821660009081526020819052604090208054820190555b816001600160a01b0316836001600160a01b03167fddf252ad1be2c89b69c2b068fc378daa952ba7f163c4a11628f55a4df523b3ef83604051610cc391815260200190565b60405180910390a3505050565b610cdd8383836001610df5565b505050565b6001600160a01b038381166000908152600160209081526040808320938616835292905220546000198114610d5a5781811015610d4b57604051637dc7a0d960e11b81526001600160a01b03841660048201526024810182905260448101839052606401610346565b610d5a84848484036000610df5565b50505050565b6001600160a01b038316610d8a57604051634b637e8f60e11b815260006004820152602401610346565b6001600160a01b038216610db45760405163ec442f0560e01b815260006004820152602401610346565b610cdd838383610ba6565b6001600160a01b038216610de957604051634b637e8f60e11b815260006004820152602401610346565b61035b82600083610ba6565b6001600160a01b038416610e1f5760405163e602df0560e01b815260006004820152602401610346565b6001600160a01b038316610e4957604051634a1406b160e11b815260006004820152602401610346565b6001600160a01b0380851660009081526001602090815260408083209387168352929052208290558015610d5a57826001600160a01b0316846001600160a01b03167f8c5be1e5ebec7d5bd14f71427d1e84f3dd0314c0f7b2291e5b200ac8c7c3b92584604051610ebc91815260200190565b60405180910390a350505050565b6001600160a01b0381168114610edf57600080fd5b50565b8051610eed81610eca565b919050565b600060208284031215610f0457600080fd5b8151610f0f81610eca565b9392505050565b60006020808352835180602085015260005b81811015610f4457858101830151858201604001528201610f28565b506000604082860101526040601f19601f8301168501019250505092915050565b60008060408385031215610f7857600080fd5b8235610f8381610eca565b946020939093013593505050565b600080600060608486031215610fa657600080fd5b8335610fb181610eca565b92506020840135610fc181610eca565b929592945050506040919091013590565b600060208284031215610fe457600080fd5b8135610f0f81610eca565b60006020828403121561100157600080fd5b5035919050565b6000806040838503121561101b57600080fd5b823561102681610eca565b9150602083013561103681610eca565b809150509250929050565b600181811c9082168061105557607f821691505b60208210810361107557634e487b7160e01b600052602260045260246000fd5b50919050565b634e487b7160e01b600052604160045260246000fd5b600060208083850312156110a457600080fd5b825167ffffffffffffffff808211156110bc57600080fd5b818501915085601f8301126110d057600080fd5b8151818111156110e2576110e261107b565b8060051b604051601f19603f830116810181811085821117156111075761110761107b565b60405291825284820192508381018501918883111561112557600080fd5b938501935b8285101561114a5761113b85610ee2565b8452938501939285019261112a565b98975050505050505050565b60006020828403121561116857600080fd5b5051919050565b634e487b7160e01b600052601160045260246000fd5b80820281158282048414176104055761040561116f565b6000826111b957634e487b7160e01b600052601260045260246000fd5b500490565b818103818111156104055761040561116f565b634e487b7160e01b600052603260045260246000fd5b808201808211156104055761040561116f56fea2646970667358221220b5cd66ae68d373eb10021a258ee5836c58c6c0a1111a03b08e2384e0c4c57a0764736f6c63430008190033","linkReferences":{}},"methodIdentifiers":{"allowance(address,address)":"dd62ed3e","approve(address,uint256)":"095ea7b3","balanceOf(address)":"70a08231","decimals()":"313ce567","depositGeneralFee()":"ed2dd19b","depositRewardFee()":"d31c83f2","name()":"06fdde03","redeem(uint256)":"db006a75","symbol()":"95d89b41","tokenAddressesInit(uint256)":"d60f3fd5","totalSupply()":"18160ddd","transfer(address,uint256)":"a9059cbb","transferFrom(address,address,uint256)":"23b872dd"},"id":1}