{"abi":[{"type":"constructor","inputs":[{"name":"initialOwner","type":"address","internalType":"address"}],"stateMutability":"nonpayable"},{"type":"function","name":"changeDeployerIndexAddress","inputs":[{"name":"newAddress","type":"address","internalType":"address"}],"outputs":[],"stateMutability":"nonpayable"},{"type":"function","name":"changeDeployerProAddress","inputs":[{"name":"newAddress","type":"address","internalType":"address"}],"outputs":[],"stateMutability":"nonpayable"},{"type":"function","name":"changeLenderContractAddress","inputs":[{"name":"newAddress","type":"address","internalType":"address"}],"outputs":[],"stateMutability":"nonpayable"},{"type":"function","name":"changeManagerAddress","inputs":[{"name":"newAddress","type":"address","internalType":"address"}],"outputs":[],"stateMutability":"nonpayable"},{"type":"function","name":"changeRankAddress","inputs":[{"name":"newAddress","type":"address","internalType":"address"}],"outputs":[],"stateMutability":"nonpayable"},{"type":"function","name":"changeSwapContractAddress","inputs":[{"name":"newAddress","type":"address","internalType":"address"}],"outputs":[],"stateMutability":"nonpayable"},{"type":"function","name":"changeTreasuryAddress","inputs":[{"name":"newAddress","type":"address","internalType":"address"}],"outputs":[],"stateMutability":"nonpayable"},{"type":"function","name":"getAssetManagerAddress","inputs":[],"outputs":[{"name":"","type":"address","internalType":"address"}],"stateMutability":"view"},{"type":"function","name":"getDeployerIndexAddress","inputs":[],"outputs":[{"name":"","type":"address","internalType":"address"}],"stateMutability":"view"},{"type":"function","name":"getDeployerProAddress","inputs":[],"outputs":[{"name":"","type":"address","internalType":"address"}],"stateMutability":"view"},{"type":"function","name":"getLenderContractAddress","inputs":[],"outputs":[{"name":"","type":"address","internalType":"address"}],"stateMutability":"view"},{"type":"function","name":"getRankAddress","inputs":[],"outputs":[{"name":"","type":"address","internalType":"address"}],"stateMutability":"view"},{"type":"function","name":"getSwapContractAddress","inputs":[],"outputs":[{"name":"","type":"address","internalType":"address"}],"stateMutability":"view"},{"type":"function","name":"getTreasuryAddress","inputs":[],"outputs":[{"name":"","type":"address","internalType":"address"}],"stateMutability":"view"},{"type":"function","name":"owner","inputs":[],"outputs":[{"name":"","type":"address","internalType":"address"}],"stateMutability":"view"},{"type":"function","name":"renounceOwnership","inputs":[],"outputs":[],"stateMutability":"nonpayable"},{"type":"function","name":"transferOwnership","inputs":[{"name":"newOwner","type":"address","internalType":"address"}],"outputs":[],"stateMutability":"nonpayable"},{"type":"event","name":"OwnershipTransferred","inputs":[{"name":"previousOwner","type":"address","indexed":true,"internalType":"address"},{"name":"newOwner","type":"address","indexed":true,"internalType":"address"}],"anonymous":false},{"type":"error","name":"OwnableInvalidOwner","inputs":[{"name":"owner","type":"address","internalType":"address"}]},{"type":"error","name":"OwnableUnauthorizedAccount","inputs":[{"name":"account","type":"address","internalType":"address"}]}],"bytecode":{"object":"0x608060405234801561001057600080fd5b506040516106e63803806106e683398101604081905261002f916100be565b806001600160a01b03811661005e57604051631e4fbdf760e01b81526000600482015260240160405180910390fd5b6100678161006e565b50506100ee565b600080546001600160a01b038381166001600160a01b0319831681178455604051919092169283917f8be0079c531659141344cd1fd0a4f28419497f9722a3daafe3b4186f6b6457e09190a35050565b6000602082840312156100d057600080fd5b81516001600160a01b03811681146100e757600080fd5b9392505050565b6105e9806100fd6000396000f3fe608060405234801561001057600080fd5b506004361061010b5760003560e01c80638da5cb5b116100a2578063d4c1d9f811610071578063d4c1d9f8146101f7578063daabffe91461020a578063e00246041461021b578063f0cdf2dd1461022c578063f2fde38b1461023f57600080fd5b80638da5cb5b146101ad57806395e6d522146101be578063a6f353f0146101d1578063bb9356c6146101e457600080fd5b80634a06d0b3116100de5780634a06d0b314610172578063588c2f14146101835780635ca8cc7c14610194578063715018a6146101a557600080fd5b80630c17c6291461011057806332a62b0f146101395780633d6bd8bf1461014e57806343b4a53f1461015f575b600080fd5b6004546001600160a01b03165b6040516001600160a01b03909116815260200160405180910390f35b61014c61014736600461055a565b610252565b005b6003546001600160a01b031661011d565b61014c61016d36600461055a565b6102ab565b6002546001600160a01b031661011d565b6006546001600160a01b031661011d565b6005546001600160a01b031661011d565b61014c6102fb565b6000546001600160a01b031661011d565b61014c6101cc36600461055a565b61030f565b61014c6101df36600461055a565b61035f565b61014c6101f236600461055a565b6103af565b61014c61020536600461055a565b6103ff565b6007546001600160a01b031661011d565b6001546001600160a01b031661011d565b61014c61023a36600461055a565b61044f565b61014c61024d36600461055a565b61049f565b61025a6104dd565b6001600160a01b0381166102895760405162461bcd60e51b81526004016102809061058a565b60405180910390fd5b600580546001600160a01b0319166001600160a01b0392909216919091179055565b6102b36104dd565b6001600160a01b0381166102d95760405162461bcd60e51b81526004016102809061058a565b600780546001600160a01b0319166001600160a01b0392909216919091179055565b6103036104dd565b61030d600061050a565b565b6103176104dd565b6001600160a01b03811661033d5760405162461bcd60e51b81526004016102809061058a565b600380546001600160a01b0319166001600160a01b0392909216919091179055565b6103676104dd565b6001600160a01b03811661038d5760405162461bcd60e51b81526004016102809061058a565b600180546001600160a01b0319166001600160a01b0392909216919091179055565b6103b76104dd565b6001600160a01b0381166103dd5760405162461bcd60e51b81526004016102809061058a565b600480546001600160a01b0319166001600160a01b0392909216919091179055565b6104076104dd565b6001600160a01b03811661042d5760405162461bcd60e51b81526004016102809061058a565b600680546001600160a01b0319166001600160a01b0392909216919091179055565b6104576104dd565b6001600160a01b03811661047d5760405162461bcd60e51b81526004016102809061058a565b600280546001600160a01b0319166001600160a01b0392909216919091179055565b6104a76104dd565b6001600160a01b0381166104d157604051631e4fbdf760e01b815260006004820152602401610280565b6104da8161050a565b50565b6000546001600160a01b0316331461030d5760405163118cdaa760e01b8152336004820152602401610280565b600080546001600160a01b038381166001600160a01b0319831681178455604051919092169283917f8be0079c531659141344cd1fd0a4f28419497f9722a3daafe3b4186f6b6457e09190a35050565b60006020828403121561056c57600080fd5b81356001600160a01b038116811461058357600080fd5b9392505050565b6020808252600f908201526e496e76616c6964206164647265737360881b60408201526060019056fea264697066735822122034408f420739066972720547e96b87880e71eb00eba59453e5943fc6562c217a64736f6c63430008190033","linkReferences":{}},"methodIdentifiers":{"changeDeployerIndexAddress(address)":"95e6d522","changeDeployerProAddress(address)":"f0cdf2dd","changeLenderContractAddress(address)":"43b4a53f","changeManagerAddress(address)":"bb9356c6","changeRankAddress(address)":"32a62b0f","changeSwapContractAddress(address)":"d4c1d9f8","changeTreasuryAddress(address)":"a6f353f0","getAssetManagerAddress()":"0c17c629","getDeployerIndexAddress()":"3d6bd8bf","getDeployerProAddress()":"4a06d0b3","getLenderContractAddress()":"daabffe9","getRankAddress()":"5ca8cc7c","getSwapContractAddress()":"588c2f14","getTreasuryAddress()":"e0024604","owner()":"8da5cb5b","renounceOwnership()":"715018a6","transferOwnership(address)":"f2fde38b"},"storageLayout":{"storage":[{"astId":8701,"contract":"contracts/WEDXGroup.sol:WEDXGroup","label":"_owner","offset":0,"slot":"0","type":"t_address"},{"astId":2109,"contract":"contracts/WEDXGroup.sol:WEDXGroup","label":"_treasuryContractAddress","offset":0,"slot":"1","type":"t_address"},{"astId":2111,"contract":"contracts/WEDXGroup.sol:WEDXGroup","label":"_deployerProAddress","offset":0,"slot":"2","type":"t_address"},{"astId":2113,"contract":"contracts/WEDXGroup.sol:WEDXGroup","label":"_deployerIndexAddress","offset":0,"slot":"3","type":"t_address"},{"astId":2115,"contract":"contracts/WEDXGroup.sol:WEDXGroup","label":"_assetManagerAddress","offset":0,"slot":"4","type":"t_address"},{"astId":2117,"contract":"contracts/WEDXGroup.sol:WEDXGroup","label":"_rankAddress","offset":0,"slot":"5","type":"t_address"},{"astId":2119,"contract":"contracts/WEDXGroup.sol:WEDXGroup","label":"_swapContractAddress","offset":0,"slot":"6","type":"t_address"},{"astId":2121,"contract":"contracts/WEDXGroup.sol:WEDXGroup","label":"_lenderContractAddress","offset":0,"slot":"7","type":"t_address"}],"types":{"t_address":{"encoding":"inplace","label":"address","numberOfBytes":"20"}}},"id":5}