{"abi":[{"type":"constructor","inputs":[{"name":"source","type":"address","internalType":"address"}],"stateMutability":"nonpayable"},{"type":"function","name":"collectToken","inputs":[{"name":"tokenAddress","type":"address","internalType":"address"},{"name":"amount","type":"uint256","internalType":"uint256"}],"outputs":[],"stateMutability":"nonpayable"},{"type":"function","name":"getTokenBalance","inputs":[{"name":"tokenAddress","type":"address","internalType":"address"}],"outputs":[{"name":"","type":"uint256","internalType":"uint256"}],"stateMutability":"view"},{"type":"function","name":"lendToken","inputs":[{"name":"tokenAddress","type":"address","internalType":"address"},{"name":"amount","type":"uint256","internalType":"uint256"}],"outputs":[],"stateMutability":"nonpayable"}],"bytecode":{"object":"0x60a060405234801561001057600080fd5b50604051610b5f380380610b5f83398101604081905261002f916100e9565b73a97684ead0e402dc232d5a977953df7ecbab3cdb60808190526040805163026b1d5f60e01b8152905163026b1d5f916004808201926020929091908290030181865afa158015610084573d6000803e3d6000fd5b505050506040513d601f19601f820116820180604052508101906100a891906100e9565b600080546001600160a01b039283166001600160a01b0319918216811790925560018054821690921790915560028054939092169216919091179055610119565b6000602082840312156100fb57600080fd5b81516001600160a01b038116811461011257600080fd5b9392505050565b608051610a2e61013160003960005050610a2e6000f3fe608060405234801561001057600080fd5b50600436106100415760003560e01c8063254703551461004657806326969b5f1461005b5780633aecd0e31461006e575b600080fd5b6100596100543660046106eb565b610093565b005b6100596100693660046106eb565b6102d0565b61008161007c366004610717565b610459565b60405190815260200160405180910390f35b6002546001600160a01b031633146100c65760405162461bcd60e51b81526004016100bd90610734565b60405180910390fd5b6040516370a0823160e01b815230600482015281906001600160a01b038416906370a0823190602401602060405180830381865afa15801561010c573d6000803e3d6000fd5b505050506040513d601f19601f820116820180604052508101906101309190610791565b101561018a5760405162461bcd60e51b8152602060048201526024808201527f4e6f7420656e6f7567682062616c616e636520696e20736d61727420636f6e746044820152631c9858dd60e21b60648201526084016100bd565b60005460405163095ea7b360e01b81526001600160a01b039182166004820152602481018390529083169063095ea7b3906044016020604051808303816000875af11580156101dd573d6000803e3d6000fd5b505050506040513d601f19601f8201168201806040525081019061020191906107aa565b6102595760405162461bcd60e51b815260206004820152602360248201527f5468697320636f6e747261637420686173206e6f7420656e6f75676820746f6b604482015262656e7360e81b60648201526084016100bd565b60015460405163617ba03760e01b81526001600160a01b03848116600483015260248201849052306044830152600060648301529091169063617ba03790608401600060405180830381600087803b1580156102b457600080fd5b505af11580156102c8573d6000803e3d6000fd5b505050505050565b6002546001600160a01b031633146102fa5760405162461bcd60e51b81526004016100bd90610734565b8061030483610459565b10156103695760405162461bcd60e51b815260206004820152602e60248201527f5468657265206973206e6f742073756666696369656e7420746f6b656e73206c60448201526d195b9d081d1bc818dbdb1b1958dd60921b60648201526084016100bd565b600081116103cc5760405162461bcd60e51b815260206004820152602a60248201527f546865726520617265206e6f74206c656e7420746f6b656e7320666f722074686044820152696973206164647265737360b01b60648201526084016100bd565b600154604051631a4ca37b60e21b81526001600160a01b03848116600483015260248201849052306044830152909116906369328dec906064016020604051808303816000875af1158015610425573d6000803e3d6000fd5b505050506040513d601f19601f820116820180604052508101906104499190610791565b506104558233836105d3565b5050565b6001546040516335ea6a7560e01b81526001600160a01b03838116600483015260009283929116906335ea6a75906024016101e060405180830381865afa1580156104a8573d6000803e3d6000fd5b505050506040513d601f19601f820116820180604052508101906104cc91906108a6565b61010001516001600160a01b0316036104e757506000919050565b6001546040516335ea6a7560e01b81526001600160a01b03848116600483015260009216906335ea6a75906024016101e060405180830381865afa158015610533573d6000803e3d6000fd5b505050506040513d601f19601f8201168201806040525081019061055791906108a6565b61010001516040516370a0823160e01b81523060048201529091506001600160a01b038216906370a0823190602401602060405180830381865afa1580156105a3573d6000803e3d6000fd5b505050506040513d601f19601f820116820180604052508101906105c79190610791565b9392505050565b919050565b604080516001600160a01b038481166024830152604480830185905283518084039091018152606490920183526020820180516001600160e01b031663a9059cbb60e01b179052915160009283929087169161062f91906109c9565b6000604051808303816000865af19150503d806000811461066c576040519150601f19603f3d011682016040523d82523d6000602084013e610671565b606091505b509150915081801561069b57508051158061069b57508080602001905181019061069b91906107aa565b6106cc5760405162461bcd60e51b815260206004820152600260248201526114d560f21b60448201526064016100bd565b5050505050565b6001600160a01b03811681146106e857600080fd5b50565b600080604083850312156106fe57600080fd5b8235610709816106d3565b946020939093013593505050565b60006020828403121561072957600080fd5b81356105c7816106d3565b60208082526039908201527f4f6e6c792074686520706172656e7420736d61727420636f6e7472616374732060408201527f63616e207472696767657220746869732066756e6374696f6e00000000000000606082015260800190565b6000602082840312156107a357600080fd5b5051919050565b6000602082840312156107bc57600080fd5b815180151581146105c757600080fd5b6040516101e0810167ffffffffffffffff811182821017156107fe57634e487b7160e01b600052604160045260246000fd5b60405290565b60006020828403121561081657600080fd5b6040516020810181811067ffffffffffffffff8211171561084757634e487b7160e01b600052604160045260246000fd5b6040529151825250919050565b80516fffffffffffffffffffffffffffffffff811681146105ce57600080fd5b805164ffffffffff811681146105ce57600080fd5b805161ffff811681146105ce57600080fd5b80516105ce816106d3565b60006101e082840312156108b957600080fd5b6108c16107cc565b6108cb8484610804565b81526108d960208401610854565b60208201526108ea60408401610854565b60408201526108fb60608401610854565b606082015261090c60808401610854565b608082015261091d60a08401610854565b60a082015261092e60c08401610874565b60c082015261093f60e08401610889565b60e082015261010061095281850161089b565b9082015261012061096484820161089b565b9082015261014061097684820161089b565b9082015261016061098884820161089b565b9082015261018061099a848201610854565b908201526101a06109ac848201610854565b908201526101c06109be848201610854565b908201529392505050565b6000825160005b818110156109ea57602081860181015185830152016109d0565b50600092019182525091905056fea26469706673582212201b33c50e9b0e5ce2b3133c313b76edd559ee0744ec234879d6a6ff3bc7983a6264736f6c63430008190033","linkReferences":{}},"methodIdentifiers":{"collectToken(address,uint256)":"26969b5f","getTokenBalance(address)":"3aecd0e3","lendToken(address,uint256)":"25470355"},"id":12}