{"abi":[{"type":"function","name":"_uniswapPoolFactoryAddress","inputs":[{"name":"","type":"uint256","internalType":"uint256"}],"outputs":[{"name":"","type":"address","internalType":"address"}],"stateMutability":"view"},{"type":"function","name":"_uniswapRouterAddress","inputs":[{"name":"","type":"uint256","internalType":"uint256"}],"outputs":[{"name":"","type":"address","internalType":"address"}],"stateMutability":"view"}],"bytecode":{"object":"0x60c060405273e592427a0aece92de3edee1f18e0157c058615646080908152738a21f6768c1f8075791d08546dadf6daa0be820c60a0526100449060009060026100a1565b5060408051808201909152731f98431c8ad98523631ae4a59f267346ea31f9848152731af415a1eba07a4986a52b6f2e7de7003d82231e602082015261008e9060019060026100a1565b5034801561009b57600080fd5b5061011b565b8280548282559060005260206000209081019282156100f6579160200282015b828111156100f657825182546001600160a01b0319166001600160a01b039091161782556020909201916001909101906100c1565b50610102929150610106565b5090565b5b808211156101025760008155600101610107565b60f7806101296000396000f3fe6080604052348015600f57600080fd5b506004361060325760003560e01c806345849be0146037578063da04a2b3146062575b600080fd5b6046604236600460a9565b6071565b6040516001600160a01b03909116815260200160405180910390f35b6046606d36600460a9565b609a565b60008181548110608057600080fd5b6000918252602090912001546001600160a01b0316905081565b60018181548110608057600080fd5b60006020828403121560ba57600080fd5b503591905056fea26469706673582212204fd7e73aad0d6b4370444121f8126b611f013f71148c6aa0c7ae6dcb2929252b64736f6c63430008190033","linkReferences":{}},"methodIdentifiers":{"_uniswapPoolFactoryAddress(uint256)":"da04a2b3","_uniswapRouterAddress(uint256)":"45849be0"},"storageLayout":{"storage":[{"astId":1874,"contract":"contracts/WEDXConstants.sol:uniV3Constants","label":"_uniswapRouterAddress","offset":0,"slot":"0","type":"t_array(t_address)dyn_storage"},{"astId":1880,"contract":"contracts/WEDXConstants.sol:uniV3Constants","label":"_uniswapPoolFactoryAddress","offset":0,"slot":"1","type":"t_array(t_address)dyn_storage"}],"types":{"t_address":{"encoding":"inplace","label":"address","numberOfBytes":"20"},"t_array(t_address)dyn_storage":{"encoding":"dynamic_array","label":"address[]","numberOfBytes":"32","base":"t_address"}}},"id":2}