{"abi":[{"type":"function","name":"tokenAddressesInit","inputs":[{"name":"","type":"uint256","internalType":"uint256"}],"outputs":[{"name":"","type":"address","internalType":"address"}],"stateMutability":"view"}],"bytecode":{"object":"0x60a06040527382af49447d8a07e3bd95bd0d56f35241523fbab16080908152602a906000906001603b565b50348015603657600080fd5b5060ae565b828054828255906000526020600020908101928215608d579160200282015b82811115608d57825182546001600160a01b0319166001600160a01b03909116178255602090920191600190910190605a565b506097929150609b565b5090565b5b8082111560975760008155600101609c565b60cf806100bc6000396000f3fe6080604052348015600f57600080fd5b506004361060285760003560e01c8063d60f3fd514602d575b600080fd5b603c60383660046081565b6058565b6040516001600160a01b03909116815260200160405180910390f35b60008181548110606757600080fd5b6000918252602090912001546001600160a01b0316905081565b600060208284031215609257600080fd5b503591905056fea2646970667358221220fff93ad55bdba937ecb5ee614c18bed502dc5522482cacad8677c6d17aeec6d264736f6c63430008190033","linkReferences":{}},"methodIdentifiers":{"tokenAddressesInit(uint256)":"d60f3fd5"},"id":2}