{"abi":[{"type":"constructor","inputs":[{"name":"name_","type":"string","internalType":"string"},{"name":"symbol_","type":"string","internalType":"string"},{"name":"decimals_","type":"uint8","internalType":"uint8"}],"stateMutability":"nonpayable"},{"type":"function","name":"allowance","inputs":[{"name":"owner","type":"address","internalType":"address"},{"name":"spender","type":"address","internalType":"address"}],"outputs":[{"name":"","type":"uint256","internalType":"uint256"}],"stateMutability":"view"},{"type":"function","name":"approve","inputs":[{"name":"spender","type":"address","internalType":"address"},{"name":"amount","type":"uint256","internalType":"uint256"}],"outputs":[{"name":"","type":"bool","internalType":"bool"}],"stateMutability":"nonpayable"},{"type":"function","name":"balanceOf","inputs":[{"name":"account","type":"address","internalType":"address"}],"outputs":[{"name":"","type":"uint256","internalType":"uint256"}],"stateMutability":"view"},{"type":"function","name":"decimals","inputs":[],"outputs":[{"name":"","type":"uint8","internalType":"uint8"}],"stateMutability":"view"},{"type":"function","name":"name","inputs":[],"outputs":[{"name":"","type":"string","internalType":"string"}],"stateMutability":"view"},{"type":"function","name":"owner","inputs":[],"outputs":[{"name":"","type":"address","internalType":"address"}],"stateMutability":"view"},{"type":"function","name":"renounceOwnership","inputs":[],"outputs":[],"stateMutability":"nonpayable"},{"type":"function","name":"symbol","inputs":[],"outputs":[{"name":"","type":"string","internalType":"string"}],"stateMutability":"view"},{"type":"function","name":"totalSupply","inputs":[],"outputs":[{"name":"","type":"uint256","internalType":"uint256"}],"stateMutability":"view"},{"type":"function","name":"transfer","inputs":[{"name":"recipient","type":"address","internalType":"address"},{"name":"amount","type":"uint256","internalType":"uint256"}],"outputs":[{"name":"","type":"bool","internalType":"bool"}],"stateMutability":"nonpayable"},{"type":"function","name":"transferFrom","inputs":[{"name":"sender","type":"address","internalType":"address"},{"name":"recipient","type":"address","internalType":"address"},{"name":"amount","type":"uint256","internalType":"uint256"}],"outputs":[{"name":"","type":"bool","internalType":"bool"}],"stateMutability":"nonpayable"},{"type":"function","name":"transferOwnership","inputs":[{"name":"newOwner","type":"address","internalType":"address"}],"outputs":[],"stateMutability":"nonpayable"},{"type":"event","name":"Approval","inputs":[{"name":"owner","type":"address","indexed":true,"internalType":"address"},{"name":"spender","type":"address","indexed":true,"internalType":"address"},{"name":"value","type":"uint256","indexed":false,"internalType":"uint256"}],"anonymous":false},{"type":"event","name":"OwnershipTransferred","inputs":[{"name":"previousOwner","type":"address","indexed":true,"internalType":"address"},{"name":"newOwner","type":"address","indexed":true,"internalType":"address"}],"anonymous":false},{"type":"event","name":"Transfer","inputs":[{"name":"from","type":"address","indexed":true,"internalType":"address"},{"name":"to","type":"address","indexed":true,"internalType":"address"},{"name":"value","type":"uint256","indexed":false,"internalType":"uint256"}],"anonymous":false},{"type":"error","name":"OwnableInvalidOwner","inputs":[{"name":"owner","type":"address","internalType":"address"}]},{"type":"error","name":"OwnableUnauthorizedAccount","inputs":[{"name":"account","type":"address","internalType":"address"}]}],"bytecode":{"object":"0x608060405234801561001057600080fd5b50604051610d34380380610d3483398101604081905261002f91610206565b338061005557604051631e4fbdf760e01b81526000600482015260240160405180910390fd5b61005e816100f8565b50600161006b848261030e565b506002610078838261030e565b506003805460ff191660ff831690811790915561009690600a6104c9565b6100a390620f42406104dc565b600481905533600081815260056020908152604080832085905551938452919290917fddf252ad1be2c89b69c2b068fc378daa952ba7f163c4a11628f55a4df523b3ef910160405180910390a35050506104f3565b600080546001600160a01b038381166001600160a01b0319831681178455604051919092169283917f8be0079c531659141344cd1fd0a4f28419497f9722a3daafe3b4186f6b6457e09190a35050565b634e487b7160e01b600052604160045260246000fd5b600082601f83011261016f57600080fd5b81516001600160401b038082111561018957610189610148565b604051601f8301601f19908116603f011681019082821181831017156101b1576101b1610148565b81604052838152602092508660208588010111156101ce57600080fd5b600091505b838210156101f057858201830151818301840152908201906101d3565b6000602085830101528094505050505092915050565b60008060006060848603121561021b57600080fd5b83516001600160401b038082111561023257600080fd5b61023e8783880161015e565b9450602086015191508082111561025457600080fd5b506102618682870161015e565b925050604084015160ff8116811461027857600080fd5b809150509250925092565b600181811c9082168061029757607f821691505b6020821081036102b757634e487b7160e01b600052602260045260246000fd5b50919050565b601f821115610309576000816000526020600020601f850160051c810160208610156102e65750805b601f850160051c820191505b81811015610305578281556001016102f2565b5050505b505050565b81516001600160401b0381111561032757610327610148565b61033b816103358454610283565b846102bd565b602080601f83116001811461037057600084156103585750858301515b600019600386901b1c1916600185901b178555610305565b600085815260208120601f198616915b8281101561039f57888601518255948401946001909101908401610380565b50858210156103bd5787850151600019600388901b60f8161c191681555b5050505050600190811b01905550565b634e487b7160e01b600052601160045260246000fd5b600181815b8085111561041e578160001904821115610404576104046103cd565b8085161561041157918102915b93841c93908002906103e8565b509250929050565b600082610435575060016104c3565b81610442575060006104c3565b816001811461045857600281146104625761047e565b60019150506104c3565b60ff841115610473576104736103cd565b50506001821b6104c3565b5060208310610133831016604e8410600b84101617156104a1575081810a6104c3565b6104ab83836103e3565b80600019048211156104bf576104bf6103cd565b0290505b92915050565b60006104d58383610426565b9392505050565b80820281158282048414176104c3576104c36103cd565b610832806105026000396000f3fe608060405234801561001057600080fd5b50600436106100b45760003560e01c8063715018a611610071578063715018a61461015d5780638da5cb5b1461016757806395d89b4114610182578063a9059cbb1461018a578063dd62ed3e1461019d578063f2fde38b146101d657600080fd5b806306fdde03146100b9578063095ea7b3146100d757806318160ddd146100fa57806323b872dd1461010c578063313ce5671461011f57806370a0823114610134575b600080fd5b6100c16101e9565b6040516100ce9190610660565b60405180910390f35b6100ea6100e53660046106cb565b61027b565b60405190151581526020016100ce565b6004545b6040519081526020016100ce565b6100ea61011a3660046106f5565b610292565b60035460405160ff90911681526020016100ce565b6100fe610142366004610731565b6001600160a01b031660009081526005602052604090205490565b6101656102e4565b005b6000546040516001600160a01b0390911681526020016100ce565b6100c16102f8565b6100ea6101983660046106cb565b610307565b6100fe6101ab366004610753565b6001600160a01b03918216600090815260066020908152604080832093909416825291909152205490565b6101656101e4366004610731565b610314565b6060600180546101f890610786565b80601f016020809104026020016040519081016040528092919081815260200182805461022490610786565b80156102715780601f1061024657610100808354040283529160200191610271565b820191906000526020600020905b81548152906001019060200180831161025457829003601f168201915b5050505050905090565b6000610288338484610357565b5060015b92915050565b600061029f84848461047c565b6001600160a01b0384166000908152600660209081526040808320338085529252909120546102da9186916102d59086906107d6565b610357565b5060019392505050565b6102ec6105e3565b6102f66000610610565b565b6060600280546101f890610786565b600061028833848461047c565b61031c6105e3565b6001600160a01b03811661034b57604051631e4fbdf760e01b8152600060048201526024015b60405180910390fd5b61035481610610565b50565b6001600160a01b0383166103b95760405162461bcd60e51b8152602060048201526024808201527f45524332303a20617070726f76652066726f6d20746865207a65726f206164646044820152637265737360e01b6064820152608401610342565b6001600160a01b03821661041a5760405162461bcd60e51b815260206004820152602260248201527f45524332303a20617070726f766520746f20746865207a65726f206164647265604482015261737360f01b6064820152608401610342565b6001600160a01b0383811660008181526006602090815260408083209487168084529482529182902085905590518481527f8c5be1e5ebec7d5bd14f71427d1e84f3dd0314c0f7b2291e5b200ac8c7c3b92591015b60405180910390a3505050565b6001600160a01b0383166104e05760405162461bcd60e51b815260206004820152602560248201527f45524332303a207472616e736665722066726f6d20746865207a65726f206164604482015264647265737360d81b6064820152608401610342565b6001600160a01b0382166105425760405162461bcd60e51b815260206004820152602360248201527f45524332303a207472616e7366657220746f20746865207a65726f206164647260448201526265737360e81b6064820152608401610342565b6001600160a01b0383166000908152600560205260408120805483929061056a9084906107d6565b90915550506001600160a01b038216600090815260056020526040812080548392906105979084906107e9565b92505081905550816001600160a01b0316836001600160a01b03167fddf252ad1be2c89b69c2b068fc378daa952ba7f163c4a11628f55a4df523b3ef8360405161046f91815260200190565b6000546001600160a01b031633146102f65760405163118cdaa760e01b8152336004820152602401610342565b600080546001600160a01b038381166001600160a01b0319831681178455604051919092169283917f8be0079c531659141344cd1fd0a4f28419497f9722a3daafe3b4186f6b6457e09190a35050565b60006020808352835180602085015260005b8181101561068e57858101830151858201604001528201610672565b506000604082860101526040601f19601f8301168501019250505092915050565b80356001600160a01b03811681146106c657600080fd5b919050565b600080604083850312156106de57600080fd5b6106e7836106af565b946020939093013593505050565b60008060006060848603121561070a57600080fd5b610713846106af565b9250610721602085016106af565b9150604084013590509250925092565b60006020828403121561074357600080fd5b61074c826106af565b9392505050565b6000806040838503121561076657600080fd5b61076f836106af565b915061077d602084016106af565b90509250929050565b600181811c9082168061079a57607f821691505b6020821081036107ba57634e487b7160e01b600052602260045260246000fd5b50919050565b634e487b7160e01b600052601160045260246000fd5b8181038181111561028c5761028c6107c0565b8082018082111561028c5761028c6107c056fea2646970667358221220c2c6c9451bb8c3695c84923373b796aa21a5ac9df2adac615a69bbb27eb3f79b64736f6c63430008190033","linkReferences":{}},"methodIdentifiers":{"allowance(address,address)":"dd62ed3e","approve(address,uint256)":"095ea7b3","balanceOf(address)":"70a08231","decimals()":"313ce567","name()":"06fdde03","owner()":"8da5cb5b","renounceOwnership()":"715018a6","symbol()":"95d89b41","totalSupply()":"18160ddd","transfer(address,uint256)":"a9059cbb","transferFrom(address,address,uint256)":"23b872dd","transferOwnership(address)":"f2fde38b"},"storageLayout":{"storage":[{"astId":8701,"contract":"test/mocks/MockERC20.sol:MockERC20","label":"_owner","offset":0,"slot":"0","type":"t_address"},{"astId":69037,"contract":"test/mocks/MockERC20.sol:MockERC20","label":"_name","offset":0,"slot":"1","type":"t_string_storage"},{"astId":69039,"contract":"test/mocks/MockERC20.sol:MockERC20","label":"_symbol","offset":0,"slot":"2","type":"t_string_storage"},{"astId":69041,"contract":"test/mocks/MockERC20.sol:MockERC20","label":"_decimals","offset":0,"slot":"3","type":"t_uint8"},{"astId":69043,"contract":"test/mocks/MockERC20.sol:MockERC20","label":"_totalSupply","offset":0,"slot":"4","type":"t_uint256"},{"astId":69047,"contract":"test/mocks/MockERC20.sol:MockERC20","label":"_balances","offset":0,"slot":"5","type":"t_mapping(t_address,t_uint256)"},{"astId":69053,"contract":"test/mocks/MockERC20.sol:MockERC20","label":"_allowances","offset":0,"slot":"6","type":"t_mapping(t_address,t_mapping(t_address,t_uint256))"}],"types":{"t_address":{"encoding":"inplace","label":"address","numberOfBytes":"20"},"t_mapping(t_address,t_mapping(t_address,t_uint256))":{"encoding":"mapping","key":"t_address","label":"mapping(address => mapping(address => uint256))","numberOfBytes":"32","value":"t_mapping(t_address,t_uint256)"},"t_mapping(t_address,t_uint256)":{"encoding":"mapping","key":"t_address","label":"mapping(address => uint256)","numberOfBytes":"32","value":"t_uint256"},"t_string_storage":{"encoding":"bytes","label":"string","numberOfBytes":"32"},"t_uint256":{"encoding":"inplace","label":"uint256","numberOfBytes":"32"},"t_uint8":{"encoding":"inplace","label":"uint8","numberOfBytes":"1"}}},"id":75}