{"abi":[{"type":"function","name":"distroNorm","inputs":[],"outputs":[{"name":"","type":"uint256","internalType":"uint256"}],"stateMutability":"view"}],"bytecode":{"object":"0x60896037600b82828239805160001a607314602a57634e487b7160e01b600052600060045260246000fd5b30600052607381538281f3fe730000000000000000000000000000000000000000301460806040526004361060335760003560e01c8063acdf3166146038575b600080fd5b6041620f424081565b60405190815260200160405180910390f3fea26469706673582212203418d0233417a9c6bf53beee113185a366d9fce01a0becf9eb375e92739f09cf64736f6c63430008190033","linkReferences":{}},"methodIdentifiers":{"distroNorm()":"acdf3166"},"id":14}