{"abi":[{"type":"constructor","inputs":[],"stateMutability":"nonpayable"},{"type":"function","name":"activeProPortfolio","inputs":[{"name":"","type":"address","internalType":"address"}],"outputs":[{"name":"","type":"bool","internalType":"bool"}],"stateMutability":"view"},{"type":"function","name":"createProPortfolio","inputs":[],"outputs":[],"stateMutability":"nonpayable"},{"type":"function","name":"getUserFromProPortfolioAddress","inputs":[{"name":"portfolio","type":"address","internalType":"address"}],"outputs":[{"name":"","type":"address","internalType":"address"}],"stateMutability":"view"},{"type":"function","name":"getUserProPortfolioAddress","inputs":[{"name":"user","type":"address","internalType":"address"}],"outputs":[{"name":"","type":"address","internalType":"address"}],"stateMutability":"view"},{"type":"function","name":"isProPortfolioActive","inputs":[{"name":"portfolioAddress","type":"address","internalType":"address"}],"outputs":[{"name":"","type":"bool","internalType":"bool"}],"stateMutability":"view"},{"type":"function","name":"proPortfolioUser","inputs":[{"name":"","type":"address","internalType":"address"}],"outputs":[{"name":"","type":"address","internalType":"address"}],"stateMutability":"view"},{"type":"function","name":"tokenAddressesInit","inputs":[{"name":"","type":"uint256","internalType":"uint256"}],"outputs":[{"name":"","type":"address","internalType":"address"}],"stateMutability":"view"},{"type":"function","name":"userProPortfolio","inputs":[{"name":"","type":"address","internalType":"address"}],"outputs":[{"name":"","type":"address","internalType":"address"}],"stateMutability":"view"}],"bytecode":{"object":"0x60a06040527382af49447d8a07e3bd95bd0d56f35241523fbab16080908152602a906000906001603b565b50348015603657600080fd5b5060ae565b828054828255906000526020600020908101928215608d579160200282015b82811115608d57825182546001600160a01b0319166001600160a01b03909116178255602090920191600190910190605a565b506097929150609b565b5090565b5b8082111560975760008155600101609c565b615724806100bd6000396000f3fe608060405234801561001057600080fd5b50600436106100885760003560e01c8063b2a32eb21161005b578063b2a32eb214610139578063c140b48114610165578063d60f3fd514610191578063f6b45cfe146101a457600080fd5b80633a5751601461008d578063663873d8146100d35780638ceb73d2146100dd578063b29bc46214610106575b600080fd5b6100b661009b366004610305565b6002602052600090815260409020546001600160a01b031681565b6040516001600160a01b0390911681526020015b60405180910390f35b6100db6101d0565b005b6100b66100eb366004610305565b6001602052600090815260409020546001600160a01b031681565b610129610114366004610305565b60036020526000908152604090205460ff1681565b60405190151581526020016100ca565b610129610147366004610305565b6001600160a01b031660009081526003602052604090205460ff1690565b6100b6610173366004610305565b6001600160a01b039081166000908152600260205260409020541690565b6100b661019f366004610335565b6102ce565b6100b66101b2366004610305565b6001600160a01b039081166000908152600160205260409020541690565b336000908152600160205260409020546001600160a01b03161561023a5760405162461bcd60e51b815260206004820152601c60248201527f5573657220616c726561647920686173206120706f7274666f6c696f00000000604482015260640160405180910390fd5b600033604051610249906102f8565b6001600160a01b039091168152602001604051809103906000f080158015610275573d6000803e3d6000fd5b5033600081815260016020818152604080842080546001600160a01b039097166001600160a01b031997881681179091558452600282528084208054909616909417909455600390935220805460ff1916909117905550565b600081815481106102de57600080fd5b6000918252602090912001546001600160a01b0316905081565b6153a08061034f83390190565b60006020828403121561031757600080fd5b81356001600160a01b038116811461032e57600080fd5b9392505050565b60006020828403121561034757600080fd5b503591905056fe60a06040527382af49447d8a07e3bd95bd0d56f35241523fbab1608090815261002c906000906001610149565b50614e20600455600580546001600160a01b031916905561138860065560008054610059916007916101ae565b50620f424060095534801561006d57600080fd5b506040516153a03803806153a083398101604081905261008c91610203565b80806001600160a01b0381166100bc57604051631e4fbdf760e01b81526000600482015260240160405180910390fd5b6100c5816100f7565b5050600280546001600160a01b0319167382af49447d8a07e3bd95bd0d56f35241523fbab11790555042600355610233565b600180546001600160a01b038381166001600160a01b0319831681179093556040519116919082907f8be0079c531659141344cd1fd0a4f28419497f9722a3daafe3b4186f6b6457e090600090a35050565b82805482825590600052602060002090810192821561019e579160200282015b8281111561019e57825182546001600160a01b0319166001600160a01b03909116178255602090920191600190910190610169565b506101aa9291506101ee565b5090565b82805482825590600052602060002090810192821561019e5760005260206000209182015b8281111561019e5782548255916001019190600101906101d3565b5b808211156101aa57600081556001016101ef565b60006020828403121561021557600080fd5b81516001600160a01b038116811461022c57600080fd5b9392505050565b61515e806102426000396000f3fe60806040526004361061014f5760003560e01c80638c04166f116100b6578063a39fac121161006f578063a39fac1214610367578063ce96952c14610389578063d0e30db01461039e578063d60f3fd5146103a6578063dca30f15146103c6578063f2fde38b146103e657600080fd5b80638c04166f146102be5780638da5cb5b146102d457806397c75631146102f2578063989a144c1461031257806398b6cb44146103325780639d9b10cb1461034757600080fd5b80636677466311610108578063667746631461022857806367e4ac2c1461024a5780636c9c2faf1461025f57806370d4d73014610274578063715018a6146102895780637e8b217e1461029e57600080fd5b80631a51e02e1461015b5780632e1a7d4d1461017d57806336bd00681461019d57806337899770146101bd5780634e0ebe63146101e157806363fd03d11461021357600080fd5b3661015657005b600080fd5b34801561016757600080fd5b5061017b610176366004614b8c565b610406565b005b34801561018957600080fd5b5061017b610198366004614ba9565b610755565b3480156101a957600080fd5b5061017b6101b8366004614ba9565b6109cf565b3480156101c957600080fd5b506003545b6040519081526020015b60405180910390f35b3480156101ed57600080fd5b506005546001600160a01b03165b6040516001600160a01b0390911681526020016101d8565b34801561021f57600080fd5b5061017b610a26565b34801561023457600080fd5b5061023d610b47565b6040516101d89190614bfe565b34801561025657600080fd5b5061023d610e33565b34801561026b57600080fd5b506009546101ce565b34801561028057600080fd5b5061017b610ef0565b34801561029557600080fd5b5061017b61105a565b3480156102aa57600080fd5b506101ce6102b9366004614b8c565b61106c565b3480156102ca57600080fd5b506101ce60065481565b3480156102e057600080fd5b506001546001600160a01b03166101fb565b3480156102fe57600080fd5b5061017b61030d366004614b8c565b611152565b34801561031e57600080fd5b5061017b61032d366004614ba9565b6115a9565b34801561033e57600080fd5b5061023d611609565b34801561035357600080fd5b506101ce610362366004614ceb565b611a83565b34801561037357600080fd5b5061037c611e49565b6040516101d89190614de7565b34801561039557600080fd5b506004546101ce565b6101ce611eab565b3480156103b257600080fd5b506101fb6103c1366004614ba9565b611fa6565b3480156103d257600080fd5b5061017b6103e1366004614b8c565b611fd0565b3480156103f257600080fd5b5061017b610401366004614b8c565b611ffa565b6001546001600160a01b031633148061043e57506005546001600160a01b03163314801561043e57506005546001600160a01b031615155b6104635760405162461bcd60e51b815260040161045a90614dfa565b60405180910390fd5b6001600160a01b0381166000908152600860205260409020546104c85760405162461bcd60e51b815260206004820152601d60248201527f5573657220646f6573206e6f742068617665207468697320746f6b656e000000604482015260640161045a565b6001600160a01b03811660009081526008602090815260409182902054825163daabffe960e01b8152925190926000805160206150e98339815191529263daabffe9926004808401938290030181865afa15801561052a573d6000803e3d6000fd5b505050506040513d601f19601f8201168201806040525081019061054e9190614e4e565b60405163e96da40360e01b81526001600160a01b038481166004830152919091169063e96da40390602401602060405180830381865afa158015610596573d6000803e3d6000fd5b505050506040513d601f19601f820116820180604052508101906105ba9190614e6b565b6105d65760405162461bcd60e51b815260040161045a90614e8d565b610650826000805160206150e98339815191526001600160a01b031663daabffe96040518163ffffffff1660e01b8152600401602060405180830381865afa158015610626573d6000803e3d6000fd5b505050506040513d601f19601f8201168201806040525081019061064a9190614e4e565b83612035565b6000805160206150e98339815191526001600160a01b031663daabffe96040518163ffffffff1660e01b8152600401602060405180830381865afa15801561069c573d6000803e3d6000fd5b505050506040513d601f19601f820116820180604052508101906106c09190614e4e565b604051632547035560e01b81526001600160a01b038481166004830152602482018490529190911690632547035590604401600060405180830381600087803b15801561070c57600080fd5b505af1158015610720573d6000803e3d6000fd5b505050506001600160a01b0382166000908152600860205260408120805483929061074c908490614ee5565b90915550505050565b61075d61212e565b60005b6007548110156108e3576000805160206150e98339815191526001600160a01b031663daabffe96040518163ffffffff1660e01b8152600401602060405180830381865afa1580156107b6573d6000803e3d6000fd5b505050506040513d601f19601f820116820180604052508101906107da9190614e4e565b6001600160a01b031663c489744b600783815481106107fb576107fb614ef8565b6000918252602090912001546040516001600160e01b031960e084901b168152610833916001600160a01b0316903090600401614f0e565b602060405180830381865afa158015610850573d6000803e3d6000fd5b505050506040513d601f19601f820116820180604052508101906108749190614f28565b156108db5760405162461bcd60e51b815260206004820152603160248201527f546f2077697468647261772c20616c6c206c6f616e73206e65656420746f206260448201527019481dda5d1a191c985ddb88199a5c9cdd607a1b606482015260840161045a565b600101610760565b506108ed8161215b565b6000805160206150e98339815191526001600160a01b0316630c17c6296040518163ffffffff1660e01b8152600401602060405180830381865afa158015610939573d6000803e3d6000fd5b505050506040513d601f19601f8201168201806040525081019061095d9190614e4e565b6001600160a01b031663d49674fc33610974611609565b61097c611e49565b6040518463ffffffff1660e01b815260040161099a93929190614f41565b600060405180830381600087803b1580156109b457600080fd5b505af11580156109c8573d6000803e3d6000fd5b5050505050565b6109d761212e565b620f4240811115610a215760405162461bcd60e51b8152602060048201526014602482015273496e76616c6964206d617820736c69707061676560601b604482015260640161045a565b600655565b6001546001600160a01b0316331480610a5e57506005546001600160a01b031633148015610a5e57506005546001600160a01b031615155b610a7a5760405162461bcd60e51b815260040161045a90614dfa565b6000805160206150e98339815191526001600160a01b0316630c17c6296040518163ffffffff1660e01b8152600401602060405180830381865afa158015610ac6573d6000803e3d6000fd5b505050506040513d601f19601f82011682018060405250810190610aea9190614e4e565b60405163f4bd260b60e01b81523360048201526001600160a01b03919091169063f4bd260b90602401600060405180830381600087803b158015610b2d57600080fd5b505af1158015610b41573d6000803e3d6000fd5b50505050565b60075460609060009067ffffffffffffffff811115610b6857610b68614c11565b604051908082528060200260200182016040528015610b91578160200160208202803683370190505b50905060005b600754811015610e2d5760006008600060078481548110610bba57610bba614ef8565b60009182526020808320909101546001600160a01b03168352828101939093526040918201812054825163daabffe960e01b8152925190945090926000805160206150e98339815191529263daabffe992600480830193928290030181865afa158015610c2b573d6000803e3d6000fd5b505050506040513d601f19601f82011682018060405250810190610c4f9190614e4e565b6001600160a01b031663c489744b60078581548110610c7057610c70614ef8565b6000918252602090912001546040516001600160e01b031960e084901b168152610ca8916001600160a01b0316903090600401614f0e565b602060405180830381865afa158015610cc5573d6000803e3d6000fd5b505050506040513d601f19601f82011682018060405250810190610ce99190614f28565b1115610e06576000805160206150e98339815191526001600160a01b031663daabffe96040518163ffffffff1660e01b8152600401602060405180830381865afa158015610d3b573d6000803e3d6000fd5b505050506040513d601f19601f82011682018060405250810190610d5f9190614e4e565b6001600160a01b031663c489744b60078481548110610d8057610d80614ef8565b6000918252602090912001546040516001600160e01b031960e084901b168152610db8916001600160a01b0316903090600401614f0e565b602060405180830381865afa158015610dd5573d6000803e3d6000fd5b505050506040513d601f19601f82011682018060405250810190610df99190614f28565b610e039082614f81565b90505b80838381518110610e1957610e19614ef8565b602090810291909101015250600101610b97565b50919050565b60075460609060009067ffffffffffffffff811115610e5457610e54614c11565b604051908082528060200260200182016040528015610e7d578160200160208202803683370190505b50905060005b600754811015610e2d576008600060078381548110610ea457610ea4614ef8565b60009182526020808320909101546001600160a01b031683528201929092526040019020548251839083908110610edd57610edd614ef8565b6020908102919091010152600101610e83565b610ef861212e565b60005b60075481101561104f5760006000805160206150e98339815191526001600160a01b031663daabffe96040518163ffffffff1660e01b8152600401602060405180830381865afa158015610f53573d6000803e3d6000fd5b505050506040513d601f19601f82011682018060405250810190610f779190614e4e565b6001600160a01b031663c489744b60078481548110610f9857610f98614ef8565b6000918252602090912001546040516001600160e01b031960e084901b168152610fd0916001600160a01b0316903090600401614f0e565b602060405180830381865afa158015610fed573d6000803e3d6000fd5b505050506040513d601f19601f820116820180604052508101906110119190614f28565b1115611047576110476007828154811061102d5761102d614ef8565b6000918252602090912001546001600160a01b0316611152565b600101610efb565b5061105861292b565b565b61106261212e565b6110586000612bec565b60006000805160206150e98339815191526001600160a01b031663daabffe96040518163ffffffff1660e01b8152600401602060405180830381865afa1580156110ba573d6000803e3d6000fd5b505050506040513d601f19601f820116820180604052508101906110de9190614e4e565b6001600160a01b031663c489744b83306040518363ffffffff1660e01b815260040161110b929190614f0e565b602060405180830381865afa158015611128573d6000803e3d6000fd5b505050506040513d601f19601f8201168201806040525081019061114c9190614f28565b92915050565b6001546001600160a01b031633148061118a57506005546001600160a01b03163314801561118a57506005546001600160a01b031615155b6111a65760405162461bcd60e51b815260040161045a90614dfa565b6000805160206150e98339815191526001600160a01b031663daabffe96040518163ffffffff1660e01b8152600401602060405180830381865afa1580156111f2573d6000803e3d6000fd5b505050506040513d601f19601f820116820180604052508101906112169190614e4e565b60405163e96da40360e01b81526001600160a01b038381166004830152919091169063e96da40390602401602060405180830381865afa15801561125e573d6000803e3d6000fd5b505050506040513d601f19601f820116820180604052508101906112829190614e6b565b61129e5760405162461bcd60e51b815260040161045a90614e8d565b60006000805160206150e98339815191526001600160a01b031663daabffe96040518163ffffffff1660e01b8152600401602060405180830381865afa1580156112ec573d6000803e3d6000fd5b505050506040513d601f19601f820116820180604052508101906113109190614e4e565b6001600160a01b031663c489744b83306040518363ffffffff1660e01b815260040161133d929190614f0e565b602060405180830381865afa15801561135a573d6000803e3d6000fd5b505050506040513d601f19601f8201168201806040525081019061137e9190614f28565b116113cb5760405162461bcd60e51b815260206004820152601760248201527f546f6b656e20686173206e6f74206265656e206c656e74000000000000000000604482015260640161045a565b60006000805160206150e98339815191526001600160a01b031663daabffe96040518163ffffffff1660e01b8152600401602060405180830381865afa158015611419573d6000803e3d6000fd5b505050506040513d601f19601f8201168201806040525081019061143d9190614e4e565b6001600160a01b031663c489744b83306040518363ffffffff1660e01b815260040161146a929190614f0e565b602060405180830381865afa158015611487573d6000803e3d6000fd5b505050506040513d601f19601f820116820180604052508101906114ab9190614f28565b90506000805160206150e98339815191526001600160a01b031663daabffe96040518163ffffffff1660e01b8152600401602060405180830381865afa1580156114f9573d6000803e3d6000fd5b505050506040513d601f19601f8201168201806040525081019061151d9190614e4e565b6040516326969b5f60e01b81526001600160a01b0384811660048301526024820184905291909116906326969b5f90604401600060405180830381600087803b15801561156957600080fd5b505af115801561157d573d6000803e3d6000fd5b505050506001600160a01b0382166000908152600860205260408120805483929061074c908490614f81565b6001546001600160a01b03163314806115e157506005546001600160a01b0316331480156115e157506005546001600160a01b031615155b6115fd5760405162461bcd60e51b815260040161045a90614dfa565b61160681600455565b50565b60075460609060009067ffffffffffffffff81111561162a5761162a614c11565b604051908082528060200260200182016040528015611653578160200160208202803683370190505b50905060005b600754811015611a79576000600860006007848154811061167c5761167c614ef8565b60009182526020808320909101546001600160a01b03168352828101939093526040918201812054825163daabffe960e01b8152925190945090926000805160206150e98339815191529263daabffe992600480830193928290030181865afa1580156116ed573d6000803e3d6000fd5b505050506040513d601f19601f820116820180604052508101906117119190614e4e565b6001600160a01b031663c489744b6007858154811061173257611732614ef8565b6000918252602090912001546040516001600160e01b031960e084901b16815261176a916001600160a01b0316903090600401614f0e565b602060405180830381865afa158015611787573d6000803e3d6000fd5b505050506040513d601f19601f820116820180604052508101906117ab9190614f28565b11156118c8576000805160206150e98339815191526001600160a01b031663daabffe96040518163ffffffff1660e01b8152600401602060405180830381865afa1580156117fd573d6000803e3d6000fd5b505050506040513d601f19601f820116820180604052508101906118219190614e4e565b6001600160a01b031663c489744b6007848154811061184257611842614ef8565b6000918252602090912001546040516001600160e01b031960e084901b16815261187a916001600160a01b0316903090600401614f0e565b602060405180830381865afa158015611897573d6000803e3d6000fd5b505050506040513d601f19601f820116820180604052508101906118bb9190614f28565b6118c59082614f81565b90505b6000805160206150c98339815191526001600160a01b0316600783815481106118f3576118f3614ef8565b6000918252602090912001546001600160a01b031614611a50576000805160206150e98339815191526001600160a01b031663588c2f146040518163ffffffff1660e01b8152600401602060405180830381865afa158015611959573d6000803e3d6000fd5b505050506040513d601f19601f8201168201806040525081019061197d9190614e4e565b6001600160a01b03166384be33046007848154811061199e5761199e614ef8565b60009182526020909120015460405160e083901b6001600160e01b03191681526001600160a01b0390911660048201526000805160206150c9833981519152602482015260448101849052606401602060405180830381865afa158015611a09573d6000803e3d6000fd5b505050506040513d601f19601f82011682018060405250810190611a2d9190614f28565b838381518110611a3f57611a3f614ef8565b602002602001018181525050611a70565b80838381518110611a6357611a63614ef8565b6020026020010181815250505b50600101611659565b5061114c81612c3e565b6000611a976001546001600160a01b031690565b6001600160a01b0316336001600160a01b03161480611ad557506005546001600160a01b031633148015611ad557506005546001600160a01b031615155b611af15760405162461bcd60e51b815260040161045a90614dfa565b60005b600754811015611c7c576000805160206150e98339815191526001600160a01b031663daabffe96040518163ffffffff1660e01b8152600401602060405180830381865afa158015611b4a573d6000803e3d6000fd5b505050506040513d601f19601f82011682018060405250810190611b6e9190614e4e565b6001600160a01b031663c489744b60078381548110611b8f57611b8f614ef8565b6000918252602090912001546040516001600160e01b031960e084901b168152611bc7916001600160a01b0316903090600401614f0e565b602060405180830381865afa158015611be4573d6000803e3d6000fd5b505050506040513d601f19601f82011682018060405250810190611c089190614f28565b15611c745760405162461bcd60e51b815260206004820152603660248201527f546f2073657420706f7274666f6c696f2c20616c6c206c6f616e73206e656564604482015275081d1bc81899481dda5d1a191c985ddb88199a5c9cdd60521b606482015260840161045a565b600101611af4565b5060006000805160206150e98339815191526001600160a01b0316630c17c6296040518163ffffffff1660e01b8152600401602060405180830381865afa158015611ccb573d6000803e3d6000fd5b505050506040513d601f19601f82011682018060405250810190611cef9190614e4e565b6001600160a01b031663242331a86040518163ffffffff1660e01b8152600401602060405180830381865afa158015611d2c573d6000803e3d6000fd5b505050506040513d601f19601f82011682018060405250810190611d509190614f28565b90506000611d5f858584612cec565b90506000805160206150e98339815191526001600160a01b0316630c17c6296040518163ffffffff1660e01b8152600401602060405180830381865afa158015611dad573d6000803e3d6000fd5b505050506040513d601f19601f82011682018060405250810190611dd19190614e4e565b6001600160a01b031663d49674fc33611de8611609565b611df0611e49565b6040518463ffffffff1660e01b8152600401611e0e93929190614f41565b600060405180830381600087803b158015611e2857600080fd5b505af1158015611e3c573d6000803e3d6000fd5b5092979650505050505050565b60606007805480602002602001604051908101604052809291908181526020018280548015611ea157602002820191906000526020600020905b81546001600160a01b03168152600190910190602001808311611e83575b5050505050905090565b6000611eb561212e565b6000611ebf6134c9565b90506000805160206150e98339815191526001600160a01b0316630c17c6296040518163ffffffff1660e01b8152600401602060405180830381865afa158015611f0d573d6000803e3d6000fd5b505050506040513d601f19601f82011682018060405250810190611f319190614e4e565b6001600160a01b031663d49674fc33611f48611609565b611f50611e49565b6040518463ffffffff1660e01b8152600401611f6e93929190614f41565b600060405180830381600087803b158015611f8857600080fd5b505af1158015611f9c573d6000803e3d6000fd5b5092935050505090565b60008181548110611fb657600080fd5b6000918252602090912001546001600160a01b0316905081565b611fd861212e565b600580546001600160a01b0319166001600160a01b0392909216919091179055565b61200261212e565b6001600160a01b03811661202c57604051631e4fbdf760e01b81526000600482015260240161045a565b61160681612bec565b604080516001600160a01b038481166024830152604480830185905283518084039091018152606490920183526020820180516001600160e01b031663095ea7b360e01b17905291516000928392908716916120919190614f94565b6000604051808303816000865af19150503d80600081146120ce576040519150601f19603f3d011682016040523d82523d6000602084013e6120d3565b606091505b50915091508180156120fd5750805115806120fd5750808060200190518101906120fd9190614e6b565b6109c85760405162461bcd60e51b8152602060048201526002602482015261534160f01b604482015260640161045a565b6001546001600160a01b031633146110585760405163118cdaa760e01b815233600482015260240161045a565b61216361212e565b600081116121be5760405162461bcd60e51b815260206004820152602260248201527f596f75206d7573742070726f76696465206120706f73697469766520616d6f756044820152611b9d60f21b606482015260840161045a565b60006121c960095490565b90506000811161221b5760405162461bcd60e51b815260206004820152601760248201527f537570706c79207661726961626c65206973207a65726f000000000000000000604482015260640161045a565b6000805b60075481101561252d576000612271600860006007858154811061224557612245614ef8565b60009182526020808320909101546001600160a01b031683528201929092526040019020548686613b7c565b90508015612524576000805160206150c98339815191526001600160a01b0316600783815481106122a4576122a4614ef8565b6000918252602090912001546001600160a01b0316146124c65761233e600783815481106122d4576122d4614ef8565b9060005260206000200160009054906101000a90046001600160a01b03166000805160206150e98339815191526001600160a01b031663588c2f146040518163ffffffff1660e01b8152600401602060405180830381865afa158015610626573d6000803e3d6000fd5b60006000805160206150e98339815191526001600160a01b031663588c2f146040518163ffffffff1660e01b8152600401602060405180830381865afa15801561238c573d6000803e3d6000fd5b505050506040513d601f19601f820116820180604052508101906123b09190614e4e565b6001600160a01b031663d485d512600785815481106123d1576123d1614ef8565b6000918252602090912001546006546040516001600160e01b031960e085901b16815261241d926001600160a01b0316916000805160206150c983398151915291889190600401614fc3565b6020604051808303816000875af115801561243c573d6000803e3d6000fd5b505050506040513d601f19601f820116820180604052508101906124609190614f28565b905081600860006007868154811061247a5761247a614ef8565b60009182526020808320909101546001600160a01b03168352820192909252604001812080549091906124ae908490614ee5565b909155506124be90508185614f81565b935050612524565b6124d08184614f81565b92508060086000600785815481106124ea576124ea614ef8565b60009182526020808320909101546001600160a01b031683528201929092526040018120805490919061251e908490614ee5565b90915550505b5060010161221f565b506002546040516370a0823160e01b815230600482015282916001600160a01b0316906370a0823190602401602060405180830381865afa158015612576573d6000803e3d6000fd5b505050506040513d601f19601f8201168201806040525081019061259a9190614f28565b10156125fb5760405162461bcd60e51b815260206004820152602a60248201527f536d61727420636f6e747261637420646f6573206e6f74206861766520656e6f60448201526975676820746f6b656e7360b01b606482015260840161045a565b801561266057600254604051632e1a7d4d60e01b8152600481018390526001600160a01b0390911690632e1a7d4d90602401600060405180830381600087803b15801561264757600080fd5b505af115801561265b573d6000803e3d6000fd5b505050505b804710156126c25760405162461bcd60e51b815260206004820152602960248201527f536d61727420636f6e747261637420646f6573206e6f74206861766520656e6f6044820152687567682066756e647360b81b606482015260840161045a565b6000620f42406000805160206150e98339815191526001600160a01b0316630c17c6296040518163ffffffff1660e01b8152600401602060405180830381865afa158015612714573d6000803e3d6000fd5b505050506040513d601f19601f820116820180604052508101906127389190614e4e565b6001600160a01b031663a786ab756040518163ffffffff1660e01b8152600401602060405180830381865afa158015612775573d6000803e3d6000fd5b505050506040513d601f19601f820116820180604052508101906127999190614f28565b6127a39084614fec565b6127ad9190615019565b90506000805160206150e98339815191526001600160a01b031663e00246046040518163ffffffff1660e01b8152600401602060405180830381865afa1580156127fb573d6000803e3d6000fd5b505050506040513d601f19601f8201168201806040525081019061281f9190614e4e565b6001600160a01b031663ed2dd19b826040518263ffffffff1660e01b81526004016000604051808303818588803b15801561285957600080fd5b505af115801561286d573d6000803e3d6000fd5b5050505050808261287e9190614ee5565b91506000821180156128905750814710155b15610b41576040513390600090829085908381818185875af1925050503d80600081146128d9576040519150601f19603f3d011682016040523d82523d6000602084013e6128de565b606091505b50509050806129235760405162461bcd60e51b815260206004820152601160248201527015da5d1a191c985dd85b0819985a5b1959607a1b604482015260640161045a565b505050505050565b61293361212e565b60005b6007548110156116065760006007828154811061295557612955614ef8565b6000918252602090912001546040516370a0823160e01b81523060048201526001600160a01b03909116906370a0823190602401602060405180830381865afa1580156129a6573d6000803e3d6000fd5b505050506040513d601f19601f820116820180604052508101906129ca9190614f28565b90508015612be3576000805160206150c98339815191526001600160a01b0316600783815481106129fd576129fd614ef8565b6000918252602090912001546001600160a01b031614612aa057612a4960078381548110612a2d57612a2d614ef8565b6000918252602090912001546001600160a01b03163383613c40565b806008600060078581548110612a6157612a61614ef8565b60009182526020808320909101546001600160a01b0316835282019290925260400181208054909190612a95908490614ee5565b90915550612be39050565b600254604051632e1a7d4d60e01b8152600481018390526001600160a01b0390911690632e1a7d4d90602401600060405180830381600087803b158015612ae657600080fd5b505af1158015612afa573d6000803e3d6000fd5b50505050806008600060078581548110612b1657612b16614ef8565b60009182526020808320909101546001600160a01b0316835282019290925260400181208054909190612b4a908490614ee5565b909155505060405147903390600090829084908381818185875af1925050503d8060008114612b95576040519150601f19603f3d011682016040523d82523d6000602084013e612b9a565b606091505b5050905080612bdf5760405162461bcd60e51b815260206004820152601160248201527015da5d1a191c985dd85b0819985a5b1959607a1b604482015260640161045a565b5050505b50600101612936565b600180546001600160a01b038381166001600160a01b0319831681179093556040519116919082907f8be0079c531659141344cd1fd0a4f28419497f9722a3daafe3b4186f6b6457e090600090a35050565b60606000805b8351811015612c7c57838181518110612c5f57612c5f614ef8565b602002602001015182612c729190614f81565b9150600101612c44565b5080600003612c8c575090919050565b60005b8351811015612ce457612cbf848281518110612cad57612cad614ef8565b6020026020010151620f424084613b7c565b848281518110612cd157612cd1614ef8565b6020908102919091010152600101612c8f565b505090919050565b600083516001612cfc9190614f81565b835114612d8a5760405162461bcd60e51b815260206004820152605060248201527f54686520646973747269627574696f6e206172726179206c656e677468206d7560448201527f737420657175616c20746865206e756d626572206f66206e657720617373657460648201526f1cc80ac81b985d1a5d9948185cdcd95d60821b608482015260a40161045a565b6000805b8451811015612dc657848181518110612da957612da9614ef8565b602002602001015182612dbc9190614f81565b9150600101612d8e565b50620f42408114612e195760405162461bcd60e51b815260206004820152601f60248201527f446973747269627574696f6e206d757374206265206e6f726d616c697a656400604482015260640161045a565b600160005b8651811015612f9157868181518110612e3957612e39614ef8565b60200260200101516001600160a01b03166000805160206150c98339815191526001600160a01b03161480612f7f57506000805160206150e98339815191526001600160a01b031663588c2f146040518163ffffffff1660e01b8152600401602060405180830381865afa158015612eb5573d6000803e3d6000fd5b505050506040513d601f19601f82011682018060405250810190612ed99190614e4e565b6001600160a01b031663a3fcf6f6888381518110612ef957612ef9614ef8565b60200260200101516000805160206150c98339815191526040518363ffffffff1660e01b8152600401612f2d929190614f0e565b6060604051808303816000875af1158015612f4c573d6000803e3d6000fd5b505050506040513d601f19601f82011682018060405250810190612f70919061503b565b604001516001600160801b0316155b15612f8957600091505b600101612e1e565b5080612fdf5760405162461bcd60e51b815260206004820152601d60248201527f41727261797320616e64204665657320617265206e6f742076616c6964000000604482015260640161045a565b600754156133935760005b600754811015613391576130256007828154811061300a5761300a614ef8565b6000918252602090912001546001600160a01b031688613d39565b15801561306d57506000600860006007848154811061304657613046614ef8565b60009182526020808320909101546001600160a01b03168352820192909252604001902054115b80156130b757506000805160206150c98339815191526001600160a01b03166007828154811061309f5761309f614ef8565b6000918252602090912001546001600160a01b031614155b15613389576131a1600782815481106130d2576130d2614ef8565b9060005260206000200160009054906101000a90046001600160a01b03166000805160206150e98339815191526001600160a01b031663588c2f146040518163ffffffff1660e01b8152600401602060405180830381865afa15801561313c573d6000803e3d6000fd5b505050506040513d601f19601f820116820180604052508101906131609190614e4e565b600860006007868154811061317757613177614ef8565b60009182526020808320909101546001600160a01b03168352820192909252604001902054612035565b60006000805160206150e98339815191526001600160a01b031663588c2f146040518163ffffffff1660e01b8152600401602060405180830381865afa1580156131ef573d6000803e3d6000fd5b505050506040513d601f19601f820116820180604052508101906132139190614e4e565b6001600160a01b031663d485d5126007848154811061323457613234614ef8565b9060005260206000200160009054906101000a90046001600160a01b03166000805160206150c9833981519152600860006007888154811061327857613278614ef8565b60009182526020808320909101546001600160a01b0316835282019290925260409081019091205460065491516001600160e01b031960e087901b1681526132c594939290600401614fc3565b6020604051808303816000875af11580156132e4573d6000803e3d6000fd5b505050506040513d601f19601f820116820180604052508101906133089190614f28565b90506000600860006007858154811061332357613323614ef8565b60009182526020808320909101546001600160a01b031683528281019390935260409091018120929092556000805160206150c98339815191528252600890526000805160206151098339815191528054839290613382908490614f81565b9091555050505b600101612fea565b505b85516133a0906001614f81565b67ffffffffffffffff8111156133b8576133b8614c11565b6040519080825280602002602001820160405280156133e1578160200160208202803683370190505b5080516133f691600791602090910190614afd565b5060005b86518110156134615786818151811061341557613415614ef8565b60200260200101516007828154811061343057613430614ef8565b600091825260209091200180546001600160a01b0319166001600160a01b03929092169190911790556001016133fa565b506000805160206150c9833981519152600787518154811061348557613485614ef8565b6000918252602082200180546001600160a01b0319166001600160a01b0393909316929092179091556134b88686613d94565b4260035593505050505b9392505050565b60006134d361212e565b600034116135235760405162461bcd60e51b815260206004820152601a60248201527f4e617469766520617373657473206d7573742062652070616964000000000000604482015260640161045a565b6000620f42406000805160206150e98339815191526001600160a01b0316630c17c6296040518163ffffffff1660e01b8152600401602060405180830381865afa158015613575573d6000803e3d6000fd5b505050506040513d601f19601f820116820180604052508101906135999190614e4e565b6001600160a01b031663a786ab756040518163ffffffff1660e01b8152600401602060405180830381865afa1580156135d6573d6000803e3d6000fd5b505050506040513d601f19601f820116820180604052508101906135fa9190614f28565b6136049034614fec565b61360e9190615019565b90506000805160206150e98339815191526001600160a01b031663e00246046040518163ffffffff1660e01b8152600401602060405180830381865afa15801561365c573d6000803e3d6000fd5b505050506040513d601f19601f820116820180604052508101906136809190614e4e565b6001600160a01b031663ed2dd19b826040518263ffffffff1660e01b81526004016000604051808303818588803b1580156136ba57600080fd5b505af11580156136ce573d6000803e3d6000fd5b5050505050600081346136e19190614ee5565b90506000806136ef60095490565b905060006136fb611609565b90506000805b82518110156137395782818151811061371c5761371c614ef8565b60200260200101518261372f9190614f81565b9150600101613701565b50801580613745575082155b156137da576000805160206150c98339815191526000908152600860205260008051602061510983398151915286905560025460408051630d0e30db60e41b815290518897506001600160a01b039092169263d0e30db0928892600480820193929182900301818588803b1580156137bc57600080fd5b505af11580156137d0573d6000803e3d6000fd5b5050505050613b71565b60006137e4610b47565b905060005b8351811015613b6e57600084828151811061380657613806614ef8565b60200260200101511115613b66576000620f424085838151811061382c5761382c614ef8565b60200260200101518961383f9190614fec565b6138499190615019565b90506000805160206150c98339815191526001600160a01b03166007838154811061387657613876614ef8565b6000918252602090912001546001600160a01b031614613a5e5760006000805160206150e98339815191526001600160a01b031663588c2f146040518163ffffffff1660e01b8152600401602060405180830381865afa1580156138de573d6000803e3d6000fd5b505050506040513d601f19601f820116820180604052508101906139029190614e4e565b6001600160a01b031663e8204d2c836007868154811061392457613924614ef8565b60009182526020909120015460065460405160e085901b6001600160e01b03191681526001600160a01b039092166004830152602482015260440160206040518083038185885af115801561397d573d6000803e3d6000fd5b50505050506040513d601f19601f820116820180604052508101906139a29190614f28565b90506139fa818785815181106139ba576139ba614ef8565b6020026020010151896139cd9190614fec565b620f42408787815181106139e3576139e3614ef8565b60200260200101516139f59190614fec565b613b7c565b613a049089614f81565b9750806008600060078681548110613a1e57613a1e614ef8565b60009182526020808320909101546001600160a01b0316835282019290925260400181208054909190613a52908490614f81565b90915550613b64915050565b600260009054906101000a90046001600160a01b03166001600160a01b031663d0e30db0826040518263ffffffff1660e01b81526004016000604051808303818588803b158015613aae57600080fd5b505af1158015613ac2573d6000803e3d6000fd5b5050505050613b0681868481518110613add57613add614ef8565b602002602001015188613af09190614fec565b620f42408686815181106139e3576139e3614ef8565b613b109088614f81565b9650806008600060078581548110613b2a57613b2a614ef8565b60009182526020808320909101546001600160a01b0316835282019290925260400181208054909190613b5e908490614f81565b90915550505b505b6001016137e9565b50505b509194505050505090565b6000838302816000198587098281108382030391505080600003613bb357838281613ba957613ba9615003565b04925050506134c2565b808411613bd35760405163227bc15360e01b815260040160405180910390fd5b6000848688096000868103871696879004966002600389028118808a02820302808a02820302808a02820302808a02820302808a02820302808a02909103029181900381900460010186841190950394909402919094039290920491909117919091029150509392505050565b604080516001600160a01b038481166024830152604480830185905283518084039091018152606490920183526020820180516001600160e01b031663a9059cbb60e01b1790529151600092839290871691613c9c9190614f94565b6000604051808303816000865af19150503d8060008114613cd9576040519150601f19603f3d011682016040523d82523d6000602084013e613cde565b606091505b5091509150818015613d08575080511580613d08575080806020019051810190613d089190614e6b565b6109c85760405162461bcd60e51b815260206004820152600260248201526114d560f21b604482015260640161045a565b6000805b8251811015613d8a57836001600160a01b0316838281518110613d6257613d62614ef8565b60200260200101516001600160a01b031603613d8257600191505061114c565b600101613d3d565b5060009392505050565b600080613d9f611609565b90506000805b8251811015613ddd57828181518110613dc057613dc0614ef8565b602002602001015182613dd39190614f81565b9150600101613da5565b5080600003613df15760009250505061114c565b6000805b8651811015613eda57868181518110613e1057613e10614ef8565b6020026020010151848281518110613e2a57613e2a614ef8565b60200260200101511115613e8757868181518110613e4a57613e4a614ef8565b6020026020010151848281518110613e6457613e64614ef8565b6020026020010151613e769190614ee5565b613e809083614f81565b9150613ed2565b838181518110613e9957613e99614ef8565b6020026020010151878281518110613eb357613eb3614ef8565b6020026020010151613ec59190614ee5565b613ecf9083614f81565b91505b600101613df5565b50600454613ee9906002614fec565b811015613efc576000935050505061114c565b60008360018551613f0d9190614ee5565b81518110613f1d57613f1d614ef8565b6020908102919091018101516000805160206150c98339815191526000908152600890925260008051602061510983398151915254909250613f639088620f4240613b7c565b905060005b6007548110156143b957888181518110613f8457613f84614ef8565b6020026020010151868281518110613f9e57613f9e614ef8565b6020026020010151118015613ff157506000805160206150c98339815191526001600160a01b031660078281548110613fd957613fd9614ef8565b6000918252602090912001546001600160a01b031614155b156143b1576000614041600860006007858154811061401257614012614ef8565b60009182526020808320909101546001600160a01b031683528201929092526040019020548a620f4240613b7c565b905060008a838151811061405757614057614ef8565b602002602001015188848151811061407157614071614ef8565b60200260200101516140839190614ee5565b905060006140f18360086000600788815481106140a2576140a2614ef8565b60009182526020808320909101546001600160a01b031683528201929092526040019020546140d19190614ee5565b838b87815181106140e4576140e4614ef8565b6020026020010151613b7c565b90506141a66007858154811061410957614109614ef8565b9060005260206000200160009054906101000a90046001600160a01b03166000805160206150e98339815191526001600160a01b031663588c2f146040518163ffffffff1660e01b8152600401602060405180830381865afa158015614173573d6000803e3d6000fd5b505050506040513d601f19601f820116820180604052508101906141979190614e4e565b6141a18685614f81565b612035565b60006000805160206150e98339815191526001600160a01b031663588c2f146040518163ffffffff1660e01b8152600401602060405180830381865afa1580156141f4573d6000803e3d6000fd5b505050506040513d601f19601f820116820180604052508101906142189190614e4e565b6001600160a01b031663d485d5126007878154811061423957614239614ef8565b6000918252602090912001546006546040516001600160e01b031960e085901b168152614285926001600160a01b0316916000805160206150c983398151915291889190600401614fc3565b6020604051808303816000875af11580156142a4573d6000803e3d6000fd5b505050506040513d601f19601f820116820180604052508101906142c89190614f28565b905060006142d68386614f81565b1115614307576142e68285614f81565b6142f08583614fec565b6142fa9190615019565b6143049087614f81565b95505b6000805160206150c983398151915260009081526008602052600080516020615109833981519152805483929061433f908490614f81565b9091555061434f90508483614f81565b600860006007888154811061436657614366614ef8565b60009182526020808320909101546001600160a01b031683528201929092526040018120805490919061439a908490614ee5565b909155506143aa90508388614f81565b9650505050505b600101613f68565b506000805160206150c983398151915260009081526008602052600080516020615109833981519152546143ee908390614ee5565b905060005b6007548110156146f25786818151811061440f5761440f614ef8565b60200260200101518a828151811061442957614429614ef8565b602002602001015111801561447c57506000805160206150c98339815191526001600160a01b03166007828154811061446457614464614ef8565b6000918252602090912001546001600160a01b031614155b156146ea57600087828151811061449557614495614ef8565b60200260200101518b83815181106144af576144af614ef8565b60200260200101516144c19190614ee5565b905060006144d0848388613b7c565b90506145306000805160206150c98339815191526000805160206150e98339815191526001600160a01b031663588c2f146040518163ffffffff1660e01b8152600401602060405180830381865afa158015610626573d6000803e3d6000fd5b60006000805160206150e98339815191526001600160a01b031663588c2f146040518163ffffffff1660e01b8152600401602060405180830381865afa15801561457e573d6000803e3d6000fd5b505050506040513d601f19601f820116820180604052508101906145a29190614e4e565b6001600160a01b031663d485d5126000805160206150c9833981519152600787815481106145d2576145d2614ef8565b6000918252602090912001546006546040516001600160e01b031960e086901b16815261460e93926001600160a01b0316918891600401614fc3565b6020604051808303816000875af115801561462d573d6000803e3d6000fd5b505050506040513d601f19601f820116820180604052508101906146519190614f28565b6000805160206150c9833981519152600090815260086020526000805160206151098339815191528054929350849290919061468e908490614ee5565b925050819055508060086000600787815481106146ad576146ad614ef8565b60009182526020808320909101546001600160a01b03168352820192909252604001812080549091906146e1908490614f81565b90915550505050505b6001016143f3565b508115614ace576000805160206150c9833981519152600090815260086020526000805160206151098339815191528054849290614731908490614ee5565b9091555050600254604051632e1a7d4d60e01b8152600481018490526001600160a01b0390911690632e1a7d4d90602401600060405180830381600087803b15801561477c57600080fd5b505af1158015614790573d6000803e3d6000fd5b505050506000805160206150e98339815191526001600160a01b0316630c17c6296040518163ffffffff1660e01b8152600401602060405180830381865afa1580156147e0573d6000803e3d6000fd5b505050506040513d601f19601f820116820180604052508101906148049190614e4e565b6001600160a01b0316632bb14e1d6040518163ffffffff1660e01b8152600401602060405180830381865afa158015614841573d6000803e3d6000fd5b505050506040513d601f19601f820116820180604052508101906148659190614f28565b8803614933576000805160206150e98339815191526001600160a01b031663e00246046040518163ffffffff1660e01b8152600401602060405180830381865afa1580156148b7573d6000803e3d6000fd5b505050506040513d601f19601f820116820180604052508101906148db9190614e4e565b6001600160a01b031663d31c83f2836040518263ffffffff1660e01b81526004016000604051808303818588803b15801561491557600080fd5b505af1158015614929573d6000803e3d6000fd5b5050505050614ace565b6000805160206150e98339815191526001600160a01b0316630c17c6296040518163ffffffff1660e01b8152600401602060405180830381865afa15801561497f573d6000803e3d6000fd5b505050506040513d601f19601f820116820180604052508101906149a39190614e4e565b6001600160a01b031663242331a86040518163ffffffff1660e01b8152600401602060405180830381865afa1580156149e0573d6000803e3d6000fd5b505050506040513d601f19601f82011682018060405250810190614a049190614f28565b8803614ace576000805160206150e98339815191526001600160a01b031663e00246046040518163ffffffff1660e01b8152600401602060405180830381865afa158015614a56573d6000803e3d6000fd5b505050506040513d601f19601f82011682018060405250810190614a7a9190614e4e565b6001600160a01b031663ed2dd19b836040518263ffffffff1660e01b81526004016000604051808303818588803b158015614ab457600080fd5b505af1158015614ac8573d6000803e3d6000fd5b50505050505b620f424088614adc60095490565b614ae69190614fec565b614af09190615019565b9998505050505050505050565b828054828255906000526020600020908101928215614b52579160200282015b82811115614b5257825182546001600160a01b0319166001600160a01b03909116178255602090920191600190910190614b1d565b50614b5e929150614b62565b5090565b5b80821115614b5e5760008155600101614b63565b6001600160a01b038116811461160657600080fd5b600060208284031215614b9e57600080fd5b81356134c281614b77565b600060208284031215614bbb57600080fd5b5035919050565b60008151808452602080850194506020840160005b83811015614bf357815187529582019590820190600101614bd7565b509495945050505050565b6020815260006134c26020830184614bc2565b634e487b7160e01b600052604160045260246000fd5b604051601f8201601f1916810167ffffffffffffffff81118282101715614c5057614c50614c11565b604052919050565b600067ffffffffffffffff821115614c7257614c72614c11565b5060051b60200190565b600082601f830112614c8d57600080fd5b81356020614ca2614c9d83614c58565b614c27565b8083825260208201915060208460051b870101935086841115614cc457600080fd5b602086015b84811015614ce05780358352918301918301614cc9565b509695505050505050565b60008060408385031215614cfe57600080fd5b823567ffffffffffffffff80821115614d1657600080fd5b818501915085601f830112614d2a57600080fd5b81356020614d3a614c9d83614c58565b82815260059290921b84018101918181019089841115614d5957600080fd5b948201945b83861015614d80578535614d7181614b77565b82529482019490820190614d5e565b96505086013592505080821115614d9657600080fd5b50614da385828601614c7c565b9150509250929050565b60008151808452602080850194506020840160005b83811015614bf35781516001600160a01b031687529582019590820190600101614dc2565b6020815260006134c26020830184614dad565b60208082526034908201527f4f6e6c792074686520616c6c6f776564206164647265737365732063616e20746040820152733934b3b3b2b9103a3434b990333ab731ba34b7b760611b606082015260800190565b600060208284031215614e6057600080fd5b81516134c281614b77565b600060208284031215614e7d57600080fd5b815180151581146134c257600080fd5b60208082526022908201527f546f6b656e206973206e6f7420617661696c61626c6520666f72206c656e64696040820152616e6760f01b606082015260800190565b634e487b7160e01b600052601160045260246000fd5b8181038181111561114c5761114c614ecf565b634e487b7160e01b600052603260045260246000fd5b6001600160a01b0392831681529116602082015260400190565b600060208284031215614f3a57600080fd5b5051919050565b6001600160a01b0384168152606060208201819052600090614f6590830185614bc2565b8281036040840152614f778185614dad565b9695505050505050565b8082018082111561114c5761114c614ecf565b6000825160005b81811015614fb55760208186018101518583015201614f9b565b506000920191825250919050565b6001600160a01b0394851681529290931660208301526040820152606081019190915260800190565b808202811582820484141761114c5761114c614ecf565b634e487b7160e01b600052601260045260246000fd5b60008261503657634e487b7160e01b600052601260045260246000fd5b500490565b60006060828403121561504d57600080fd5b6040516060810181811067ffffffffffffffff8211171561507057615070614c11565b604052825161ffff8116811461508557600080fd5b8152602083015162ffffff8116811461509d57600080fd5b602082015260408301516001600160801b03811681146150bc57600080fd5b6040820152939250505056fe00000000000000000000000082af49447d8a07e3bd95bd0d56f35241523fbab100000000000000000000000064b2079ec8aba8cf1c9827916702bf13c89f9584ce09d406285d0d98f8d7856cf5337fcbd8f91b9d4e3f0ab0ea2741da37b2c6fba2646970667358221220b75a0951d32a0349773e43e0d435d2c708050f5a282bbeb6514419e862aeab7564736f6c63430008190033a2646970667358221220b85bc3cfced2d1100b09a51b31388f98c1965a025f6fb0a88b5d3afb83c2c64064736f6c63430008190033","linkReferences":{}},"methodIdentifiers":{"activeProPortfolio(address)":"b29bc462","createProPortfolio()":"663873d8","getUserFromProPortfolioAddress(address)":"c140b481","getUserProPortfolioAddress(address)":"f6b45cfe","isProPortfolioActive(address)":"b2a32eb2","proPortfolioUser(address)":"3a575160","tokenAddressesInit(uint256)":"d60f3fd5","userProPortfolio(address)":"8ceb73d2"},"id":4}