{"abi":[{"type":"constructor","inputs":[{"name":"_assetManager","type":"address","internalType":"address"},{"name":"_treasury","type":"address","internalType":"address"},{"name":"_swapContract","type":"address","internalType":"address"},{"name":"_lenderContract","type":"address","internalType":"address"}],"stateMutability":"nonpayable"},{"type":"function","name":"assetManager","inputs":[],"outputs":[{"name":"","type":"address","internalType":"address"}],"stateMutability":"view"},{"type":"function","name":"getAssetManagerAddress","inputs":[],"outputs":[{"name":"","type":"address","internalType":"address"}],"stateMutability":"view"},{"type":"function","name":"getLenderContractAddress","inputs":[],"outputs":[{"name":"","type":"address","internalType":"address"}],"stateMutability":"view"},{"type":"function","name":"getSwapContractAddress","inputs":[],"outputs":[{"name":"","type":"address","internalType":"address"}],"stateMutability":"view"},{"type":"function","name":"getTreasuryAddress","inputs":[],"outputs":[{"name":"","type":"address","internalType":"address"}],"stateMutability":"view"},{"type":"function","name":"lenderContract","inputs":[],"outputs":[{"name":"","type":"address","internalType":"address"}],"stateMutability":"view"},{"type":"function","name":"swapContract","inputs":[],"outputs":[{"name":"","type":"address","internalType":"address"}],"stateMutability":"view"},{"type":"function","name":"treasury","inputs":[],"outputs":[{"name":"","type":"address","internalType":"address"}],"stateMutability":"view"}],"bytecode":{"object":"0x608060405234801561001057600080fd5b5060405161026c38038061026c83398101604081905261002f9161009e565b600080546001600160a01b039586166001600160a01b03199182161790915560018054948616948216949094179093556002805492851692841692909217909155600380549190931691161790556100f2565b80516001600160a01b038116811461009957600080fd5b919050565b600080600080608085870312156100b457600080fd5b6100bd85610082565b93506100cb60208601610082565b92506100d960408601610082565b91506100e760608601610082565b905092959194509250565b61016b806101016000396000f3fe608060405234801561001057600080fd5b50600436106100885760003560e01c806394217ad11161005b57806394217ad1146100ed578063c3cd54a214610100578063daabffe914610113578063e00246041461012457600080fd5b80630c17c6291461008d578063588c2f14146100b657806361d027b3146100c75780638ea83031146100da575b600080fd5b6000546001600160a01b03165b6040516001600160a01b03909116815260200160405180910390f35b6002546001600160a01b031661009a565b60015461009a906001600160a01b031681565b60025461009a906001600160a01b031681565b60005461009a906001600160a01b031681565b60035461009a906001600160a01b031681565b6003546001600160a01b031661009a565b6001546001600160a01b031661009a56fea2646970667358221220fa8ef23edb3bb4b11cbaf815d9ee44b10520019078d090d812207ef27790120764736f6c63430008190033","linkReferences":{}},"methodIdentifiers":{"assetManager()":"94217ad1","getAssetManagerAddress()":"0c17c629","getLenderContractAddress()":"daabffe9","getSwapContractAddress()":"588c2f14","getTreasuryAddress()":"e0024604","lenderContract()":"c3cd54a2","swapContract()":"8ea83031","treasury()":"61d027b3"},"storageLayout":{"storage":[{"astId":68907,"contract":"test/mocks/MockContractsIndex.sol:MockWEDXGroup","label":"assetManager","offset":0,"slot":"0","type":"t_address"},{"astId":68909,"contract":"test/mocks/MockContractsIndex.sol:MockWEDXGroup","label":"treasury","offset":0,"slot":"1","type":"t_address"},{"astId":68911,"contract":"test/mocks/MockContractsIndex.sol:MockWEDXGroup","label":"swapContract","offset":0,"slot":"2","type":"t_address"},{"astId":68913,"contract":"test/mocks/MockContractsIndex.sol:MockWEDXGroup","label":"lenderContract","offset":0,"slot":"3","type":"t_address"}],"types":{"t_address":{"encoding":"inplace","label":"address","numberOfBytes":"20"}}},"id":74}