{"abi":[{"type":"function","name":"deposit","inputs":[],"outputs":[],"stateMutability":"payable"},{"type":"function","name":"withdraw","inputs":[{"name":"","type":"uint256","internalType":"uint256"}],"outputs":[],"stateMutability":"nonpayable"}],"bytecode":{"object":"0x6080604052348015600f57600080fd5b50609580601d6000396000f3fe60806040526004361060265760003560e01c80632e1a7d4d14602b578063d0e30db0146045575b600080fd5b348015603657600080fd5b50604560423660046047565b50565b005b600060208284031215605857600080fd5b503591905056fea264697066735822122002502d87e1ccc82d834a41a16a4b1e0c69f4b2731046f9ef3198afcb67d4362064736f6c63430008190033","linkReferences":{}},"methodIdentifiers":{"deposit()":"d0e30db0","withdraw(uint256)":"2e1a7d4d"},"id":61}