{"abi":[{"type":"function","name":"depositWithdrawFee","inputs":[],"outputs":[{"name":"","type":"uint256","internalType":"uint256"}],"stateMutability":"pure"}],"bytecode":{"object":"0x6080604052348015600f57600080fd5b50607780601d6000396000f3fe6080604052348015600f57600080fd5b506004361060285760003560e01c8063a786ab7514602d575b600080fd5b600160405190815260200160405180910390f3fea2646970667358221220b8c101f5cff6dfa560960497947b5bc24ec23e9a4ff51950fc2e45c45570823764736f6c63430008190033","linkReferences":{}},"methodIdentifiers":{"depositWithdrawFee()":"a786ab75"},"id":61}