{"abi":[{"type":"constructor","inputs":[{"name":"_assetManager","type":"address","internalType":"address"},{"name":"_treasury","type":"address","internalType":"address"},{"name":"_swapContract","type":"address","internalType":"address"},{"name":"_lenderContract","type":"address","internalType":"address"}],"stateMutability":"nonpayable"},{"type":"function","name":"assetManager","inputs":[],"outputs":[{"name":"","type":"address","internalType":"address"}],"stateMutability":"view"},{"type":"function","name":"getAssetManagerAddress","inputs":[],"outputs":[{"name":"","type":"address","internalType":"address"}],"stateMutability":"view"},{"type":"function","name":"getLenderContractAddress","inputs":[],"outputs":[{"name":"","type":"address","internalType":"address"}],"stateMutability":"view"},{"type":"function","name":"getSwapContractAddress","inputs":[],"outputs":[{"name":"","type":"address","internalType":"address"}],"stateMutability":"view"},{"type":"function","name":"getTreasuryAddress","inputs":[],"outputs":[{"name":"","type":"address","internalType":"address"}],"stateMutability":"view"},{"type":"function","name":"lenderContract","inputs":[],"outputs":[{"name":"","type":"address","internalType":"address"}],"stateMutability":"view"},{"type":"function","name":"swapContract","inputs":[],"outputs":[{"name":"","type":"address","internalType":"address"}],"stateMutability":"view"},{"type":"function","name":"treasury","inputs":[],"outputs":[{"name":"","type":"address","internalType":"address"}],"stateMutability":"view"}],"bytecode":{"object":"0x608060405234801561001057600080fd5b50604051610563380380610563833981810160405281019061003291906101a1565b836000806101000a81548173ffffffffffffffffffffffffffffffffffffffff021916908373ffffffffffffffffffffffffffffffffffffffff16021790555082600160006101000a81548173ffffffffffffffffffffffffffffffffffffffff021916908373ffffffffffffffffffffffffffffffffffffffff16021790555081600260006101000a81548173ffffffffffffffffffffffffffffffffffffffff021916908373ffffffffffffffffffffffffffffffffffffffff16021790555080600360006101000a81548173ffffffffffffffffffffffffffffffffffffffff021916908373ffffffffffffffffffffffffffffffffffffffff16021790555050505050610208565b600080fd5b600073ffffffffffffffffffffffffffffffffffffffff82169050919050565b600061016e82610143565b9050919050565b61017e81610163565b811461018957600080fd5b50565b60008151905061019b81610175565b92915050565b600080600080608085870312156101bb576101ba61013e565b5b60006101c98782880161018c565b94505060206101da8782880161018c565b93505060406101eb8782880161018c565b92505060606101fc8782880161018c565b91505092959194509250565b61034c806102176000396000f3fe608060405234801561001057600080fd5b50600436106100885760003560e01c806394217ad11161005b57806394217ad114610105578063c3cd54a214610123578063daabffe914610141578063e00246041461015f57610088565b80630c17c6291461008d578063588c2f14146100ab57806361d027b3146100c95780638ea83031146100e7575b600080fd5b61009561017d565b6040516100a291906102fb565b60405180910390f35b6100b36101a6565b6040516100c091906102fb565b60405180910390f35b6100d16101d0565b6040516100de91906102fb565b60405180910390f35b6100ef6101f6565b6040516100fc91906102fb565b60405180910390f35b61010d61021c565b60405161011a91906102fb565b60405180910390f35b61012b610240565b60405161013891906102fb565b60405180910390f35b610149610266565b60405161015691906102fb565b60405180910390f35b610167610290565b60405161017491906102fb565b60405180910390f35b60008060009054906101000a900473ffffffffffffffffffffffffffffffffffffffff16905090565b6000600260009054906101000a900473ffffffffffffffffffffffffffffffffffffffff16905090565b600160009054906101000a900473ffffffffffffffffffffffffffffffffffffffff1681565b600260009054906101000a900473ffffffffffffffffffffffffffffffffffffffff1681565b60008054906101000a900473ffffffffffffffffffffffffffffffffffffffff1681565b600360009054906101000a900473ffffffffffffffffffffffffffffffffffffffff1681565b6000600360009054906101000a900473ffffffffffffffffffffffffffffffffffffffff16905090565b6000600160009054906101000a900473ffffffffffffffffffffffffffffffffffffffff16905090565b600073ffffffffffffffffffffffffffffffffffffffff82169050919050565b60006102e5826102ba565b9050919050565b6102f5816102da565b82525050565b600060208201905061031060008301846102ec565b9291505056fea2646970667358221220f97b7490f82a5c1e0bf6d21cd25b8a34b016a7f296a89e56f8d1ecb03d19cd9e64736f6c63430008190033","linkReferences":{}},"methodIdentifiers":{"assetManager()":"94217ad1","getAssetManagerAddress()":"0c17c629","getLenderContractAddress()":"daabffe9","getSwapContractAddress()":"588c2f14","getTreasuryAddress()":"e0024604","lenderContract()":"c3cd54a2","swapContract()":"8ea83031","treasury()":"61d027b3"},"storageLayout":{"storage":[{"astId":63261,"contract":"test/mocks/MockContractsIndex.sol:MockWEDXGroup","label":"assetManager","offset":0,"slot":"0","type":"t_address"},{"astId":63263,"contract":"test/mocks/MockContractsIndex.sol:MockWEDXGroup","label":"treasury","offset":0,"slot":"1","type":"t_address"},{"astId":63265,"contract":"test/mocks/MockContractsIndex.sol:MockWEDXGroup","label":"swapContract","offset":0,"slot":"2","type":"t_address"},{"astId":63267,"contract":"test/mocks/MockContractsIndex.sol:MockWEDXGroup","label":"lenderContract","offset":0,"slot":"3","type":"t_address"}],"types":{"t_address":{"encoding":"inplace","label":"address","numberOfBytes":"20"}}},"id":67}