{"abi":[{"type":"function","name":"depositGeneralFee","inputs":[],"outputs":[],"stateMutability":"payable"}],"bytecode":{"object":"0x6080604052348015600f57600080fd5b50605980601d6000396000f3fe608060405260043610601c5760003560e01c8063ed2dd19b146021575b600080fd5b00fea2646970667358221220975046c5f3ae7d9408c69b490c207fe89d570c6eccf2fb47eebfcdbd34cd8ecd64736f6c63430008190033","linkReferences":{}},"deployedBytecode":{"object":"0x608060405260043610601c5760003560e01c8063ed2dd19b146021575b600080fd5b00fea2646970667358221220975046c5f3ae7d9408c69b490c207fe89d570c6eccf2fb47eebfcdbd34cd8ecd64736f6c63430008190033","linkReferences":{}},"methodIdentifiers":{"depositGeneralFee()":"ed2dd19b"},"id":61}