{"abi":[{"type":"function","name":"collectToken","inputs":[{"name":"","type":"address","internalType":"address"},{"name":"","type":"uint256","internalType":"uint256"}],"outputs":[],"stateMutability":"nonpayable"},{"type":"function","name":"getTokenBalance","inputs":[{"name":"","type":"address","internalType":"address"},{"name":"","type":"address","internalType":"address"}],"outputs":[{"name":"","type":"uint256","internalType":"uint256"}],"stateMutability":"pure"},{"type":"function","name":"isLoanPossible","inputs":[{"name":"","type":"address","internalType":"address"}],"outputs":[{"name":"","type":"bool","internalType":"bool"}],"stateMutability":"pure"},{"type":"function","name":"lendToken","inputs":[{"name":"","type":"address","internalType":"address"},{"name":"","type":"uint256","internalType":"uint256"}],"outputs":[],"stateMutability":"nonpayable"}],"bytecode":{"object":"0x6080604052348015600f57600080fd5b506101848061001f6000396000f3fe608060405234801561001057600080fd5b506004361061004c5760003560e01c8063254703551461005157806326969b5f14610051578063c489744b14610065578063e96da4031461008f575b600080fd5b61006361005f3660046100cf565b5050565b005b61007c6100733660046100f9565b6103e892915050565b6040519081526020015b60405180910390f35b6100a361009d36600461012c565b50600190565b6040519015158152602001610086565b80356001600160a01b03811681146100ca57600080fd5b919050565b600080604083850312156100e257600080fd5b6100eb836100b3565b946020939093013593505050565b6000806040838503121561010c57600080fd5b610115836100b3565b9150610123602084016100b3565b90509250929050565b60006020828403121561013e57600080fd5b610147826100b3565b939250505056fea2646970667358221220d9c158b53e45c19f5f076d34d2a433ca6c183f30bc7f27ff614e97bcd2aa893264736f6c63430008190033","linkReferences":{}},"methodIdentifiers":{"collectToken(address,uint256)":"26969b5f","getTokenBalance(address,address)":"c489744b","isLoanPossible(address)":"e96da403","lendToken(address,uint256)":"25470355"},"storageLayout":{"storage":[],"types":{}},"id":76}