{"abi":[{"type":"constructor","inputs":[],"stateMutability":"nonpayable"},{"type":"function","name":"changeFees","inputs":[{"name":"newRewardsFee","type":"uint256","internalType":"uint256"},{"name":"newTransactionsFee","type":"uint256","internalType":"uint256"},{"name":"newDepositWithdrawFee","type":"uint256","internalType":"uint256"},{"name":"newRebalanceActorFee","type":"uint256","internalType":"uint256"}],"outputs":[],"stateMutability":"nonpayable"},{"type":"function","name":"changeNPoints","inputs":[{"name":"newNPoint","type":"uint256","internalType":"uint256"}],"outputs":[],"stateMutability":"nonpayable"},{"type":"function","name":"changeRankingListMaxSize","inputs":[{"name":"newSize","type":"uint256","internalType":"uint256"}],"outputs":[],"stateMutability":"nonpayable"},{"type":"function","name":"changeTimeWindow","inputs":[{"name":"newTimeWindow","type":"uint256","internalType":"uint256"}],"outputs":[],"stateMutability":"nonpayable"},{"type":"function","name":"computeRanking","inputs":[{"name":"traderId","type":"address","internalType":"address"}],"outputs":[{"name":"","type":"uint256","internalType":"uint256"}],"stateMutability":"nonpayable"},{"type":"function","name":"depositWithdrawFee","inputs":[],"outputs":[{"name":"","type":"uint256","internalType":"uint256"}],"stateMutability":"view"},{"type":"function","name":"getCurrentTimestamp","inputs":[],"outputs":[{"name":"","type":"uint256","internalType":"uint256"}],"stateMutability":"view"},{"type":"function","name":"getFinalPortfolio","inputs":[],"outputs":[{"name":"","type":"address[]","internalType":"address[]"},{"name":"","type":"uint256[]","internalType":"uint256[]"}],"stateMutability":"view"},{"type":"function","name":"getNPoints","inputs":[],"outputs":[{"name":"","type":"uint256","internalType":"uint256"}],"stateMutability":"view"},{"type":"function","name":"getRankingList","inputs":[],"outputs":[{"name":"","type":"address[]","internalType":"address[]"}],"stateMutability":"view"},{"type":"function","name":"getTraderData","inputs":[{"name":"user","type":"address","internalType":"address"}],"outputs":[{"name":"","type":"tuple","internalType":"struct WEDXManager.trader","components":[{"name":"currentPortfolio","type":"uint256[]","internalType":"uint256[]"},{"name":"currentDistro","type":"uint256[]","internalType":"uint256[]"},{"name":"currentTokenAddresses","type":"address[]","internalType":"address[]"},{"name":"performances","type":"uint256[]","internalType":"uint256[]"},{"name":"timestamps","type":"uint256[]","internalType":"uint256[]"},{"name":"minLiquidity","type":"uint256[]","internalType":"uint256[]"},{"name":"initTimestamp","type":"uint256","internalType":"uint256"}]}],"stateMutability":"view"},{"type":"function","name":"getTraderScore","inputs":[{"name":"user","type":"address","internalType":"address"}],"outputs":[{"name":"","type":"uint256","internalType":"uint256"}],"stateMutability":"view"},{"type":"function","name":"initialBlock","inputs":[],"outputs":[{"name":"","type":"uint256","internalType":"uint256"}],"stateMutability":"view"},{"type":"function","name":"lastTimestamp","inputs":[],"outputs":[{"name":"","type":"uint256","internalType":"uint256"}],"stateMutability":"view"},{"type":"function","name":"maxRanking","inputs":[],"outputs":[{"name":"","type":"uint256","internalType":"uint256"}],"stateMutability":"view"},{"type":"function","name":"minPercIndexAllowance","inputs":[],"outputs":[{"name":"","type":"uint256","internalType":"uint256"}],"stateMutability":"view"},{"type":"function","name":"minRanking","inputs":[],"outputs":[{"name":"","type":"uint256","internalType":"uint256"}],"stateMutability":"view"},{"type":"function","name":"rankingList","inputs":[{"name":"","type":"uint256","internalType":"uint256"}],"outputs":[{"name":"","type":"address","internalType":"address"}],"stateMutability":"view"},{"type":"function","name":"rankingListMaxSize","inputs":[],"outputs":[{"name":"","type":"uint256","internalType":"uint256"}],"stateMutability":"view"},{"type":"function","name":"rebalanceActor","inputs":[],"outputs":[{"name":"","type":"address","internalType":"address"}],"stateMutability":"view"},{"type":"function","name":"rebalanceActorFee","inputs":[],"outputs":[{"name":"","type":"uint256","internalType":"uint256"}],"stateMutability":"view"},{"type":"function","name":"rewardsFee","inputs":[],"outputs":[{"name":"","type":"uint256","internalType":"uint256"}],"stateMutability":"view"},{"type":"function","name":"setFinalWeights","inputs":[],"outputs":[],"stateMutability":"nonpayable"},{"type":"function","name":"setMinPercAllowance","inputs":[{"name":"newPerc","type":"uint256","internalType":"uint256"}],"outputs":[],"stateMutability":"nonpayable"},{"type":"function","name":"setSimilirityPerc","inputs":[{"name":"newPerc","type":"uint256","internalType":"uint256"}],"outputs":[],"stateMutability":"nonpayable"},{"type":"function","name":"similarityPerc","inputs":[],"outputs":[{"name":"","type":"uint256","internalType":"uint256"}],"stateMutability":"view"},{"type":"function","name":"tokenAddressesInit","inputs":[{"name":"","type":"uint256","internalType":"uint256"}],"outputs":[{"name":"","type":"address","internalType":"address"}],"stateMutability":"view"},{"type":"function","name":"totalRankSum","inputs":[],"outputs":[{"name":"","type":"uint256","internalType":"uint256"}],"stateMutability":"view"},{"type":"function","name":"transactionsFee","inputs":[],"outputs":[{"name":"","type":"uint256","internalType":"uint256"}],"stateMutability":"view"},{"type":"function","name":"updateTraderData","inputs":[{"name":"traderId","type":"address","internalType":"address"},{"name":"distro","type":"uint256[]","internalType":"uint256[]"},{"name":"assets","type":"address[]","internalType":"address[]"}],"outputs":[],"stateMutability":"nonpayable"},{"type":"event","name":"TraderUpdate","inputs":[{"name":"from","type":"address","indexed":true,"internalType":"address"},{"name":"timestamp","type":"uint256","indexed":true,"internalType":"uint256"},{"name":"performance","type":"uint256","indexed":true,"internalType":"uint256"}],"anonymous":false},{"type":"error","name":"MathOverflowedMulDiv","inputs":[]}],"bytecode":{"object":"0x60a06040527382af49447d8a07e3bd95bd0d56f35241523fbab1608090815261002c9060009060016100b5565b506000600255600560045562278d00600555600019600655600060075560326008556000600a55614e20600c55620186a0600d55612710600e556101f4600f55611388601055620186a060115534801561008557600080fd5b50600180546001600160a01b0319167382af49447d8a07e3bd95bd0d56f35241523fbab11790554360025561012f565b82805482825590600052602060002090810192821561010a579160200282015b8281111561010a57825182546001600160a01b0319166001600160a01b039091161782556020909201916001909101906100d5565b5061011692915061011a565b5090565b5b80821115610116576000815560010161011b565b61453f8061013e6000396000f3fe608060405234801561001057600080fd5b50600436106101da5760003560e01c80636c9230db11610104578063bc9f248e116100a2578063d60f3fd511610071578063d60f3fd51461039f578063e7fabf7a146103b2578063e85a8d92146103bb578063f4bd260b146103c357600080fd5b8063bc9f248e14610367578063c780b05114610370578063d33c3de814610379578063d49674fc1461038c57600080fd5b8063a3dbb699116100de578063a3dbb69914610322578063a786ab751461032b578063a8155b5b14610334578063baf3c0ae1461035457600080fd5b80636c9230db146102f6578063989a144c146102fc578063a10955c31461030f57600080fd5b80632bb14e1d1161017c578063405ed0ef1161014b578063405ed0ef146102be5780634ef5e7f4146102c7578063650c4226146102d05780636b901135146102e357600080fd5b80632bb14e1d1461028e5780632cb15864146102975780633224da32146102a05780633a950b39146102b657600080fd5b806319d8ac61116101b857806319d8ac611461023c5780631ef867dd146102455780631fdf675514610270578063242331a81461028557600080fd5b806308ad90a5146101df57806314e212461461021e5780631639bad614610233575b600080fd5b61020b6101ed366004613e17565b6001600160a01b031660009081526014602052604090206002015490565b6040519081526020015b60405180910390f35b61023161022c366004613e34565b6103d6565b005b61020b60065481565b61020b60035481565b600b54610258906001600160a01b031681565b6040516001600160a01b039091168152602001610215565b610278610507565b6040516102159190613e92565b61020b600f5481565b61020b600e5481565b61020b60025481565b6102a8610569565b604051610215929190613ed6565b610231610626565b61020b600c5481565b61020b600a5481565b6102316102de366004613f04565b610d88565b6102586102f1366004613e34565b610e9d565b4261020b565b61023161030a366004613e34565b610ec7565b61023161031d366004613e34565b610ff2565b61020b60085481565b61020b60105481565b610347610342366004613e17565b6113b8565b6040516102159190613f36565b610231610362366004613e34565b61163f565b61020b60075481565b61020b60115481565b610231610387366004613e34565b611736565b61023161039a3660046140e0565b6117db565b6102586103ad366004613e34565b612350565b61020b600d5481565b60045461020b565b61020b6103d1366004613e17565b612360565b6000805160206144ea8339815191526001600160a01b0316638da5cb5b6040518163ffffffff1660e01b8152600401602060405180830381865afa158015610422573d6000803e3d6000fd5b505050506040513d601f19601f8201168201806040525081019061044691906141ad565b6001600160a01b0316336001600160a01b03161461047f5760405162461bcd60e51b8152600401610476906141ca565b60405180910390fd5b6002811180156104905750600a8111155b6105025760405162461bcd60e51b815260206004820152603b60248201527f44756520746f20676173206c696d6974732c206e6577506f696e74732061726560448201527f20636f6e73747261696e6564206265747765656e2033202d20313000000000006064820152608401610476565b600455565b6060600980548060200260200160405190810160405280929190818152602001828054801561055f57602002820191906000526020600020905b81546001600160a01b03168152600190910190602001808311610541575b5050505050905090565b60608060166017818054806020026020016040519081016040528092919081815260200182805480156105c557602002820191906000526020600020905b81546001600160a01b031681526001909101906020018083116105a7575b505050505091508080548060200260200160405190810160405280929190818152602001828054801561061757602002820191906000526020600020905b815481526020019060010190808311610603575b50505050509050915091509091565b6009546106755760405162461bcd60e51b815260206004820152601e60248201527f5468657265206973206e6f2072616e6b696e67206f66207472616465727300006044820152606401610476565b61068160166000613cec565b7382af49447d8a07e3bd95bd0d56f35241523fbab1600090815260156020527ff5e5c061c450ff78409f11fcb6c0f6b5e2523de12be80d597b446cc6f1985ef1819055805b600954811015610b0c57600060146000600984815481106106e9576106e9614212565b60009182526020808320909101546001600160a01b031683528201929092526040019020600201541115610b045760005b6001601360006009858154811061073357610733614212565b60009182526020808320909101546001600160a01b03168352820192909252604001902060010154610765919061423e565b811015610970576000601360006009858154811061078557610785614212565b60009182526020808320909101546001600160a01b0316835282019290925260400190206002018054839081106107be576107be614212565b600091825260209182902001546016805460408051828602810186019091528181526001600160a01b03909316945061083993859392919083018282801561082f57602002820191906000526020600020905b81546001600160a01b03168152600190910190602001808311610811575b505050505061315a565b6108965760168054600181019091557fd833147d7dc355ba459fc788f669e58cfaf9dc25ddcd0702e87d69c7b51242890180546001600160a01b0319166001600160a01b0383169081179091556000908152601560205260408120555b60136000600985815481106108ad576108ad614212565b60009182526020808320909101546001600160a01b0316835282019290925260400190206001018054839081106108e6576108e6614212565b9060005260206000200154601460006009868154811061090857610908614212565b60009182526020808320909101546001600160a01b0316835282019290925260400190206002015461093a9190614251565b6001600160a01b03821660009081526015602052604081208054909190610962908490614268565b90915550505060010161071a565b50601360006009838154811061098857610988614212565b60009182526020808320909101546001600160a01b031683528201929092526040018120600980546001928301936013929091869081106109cb576109cb614212565b60009182526020808320909101546001600160a01b031683528201929092526040019020600101546109fd919061423e565b81548110610a0d57610a0d614212565b90600052602060002001546014600060098481548110610a2f57610a2f614212565b60009182526020808320909101546001600160a01b03168352820192909252604001902060020154610a619190614251565b7382af49447d8a07e3bd95bd0d56f35241523fbab1600090815260156020527ff5e5c061c450ff78409f11fcb6c0f6b5e2523de12be80d597b446cc6f1985ef18054909190610ab1908490614268565b925050819055506014600060098381548110610acf57610acf614212565b60009182526020808320909101546001600160a01b03168352820192909252604001902060020154610b019083614268565b91505b6001016106c6565b50600a819055601654610b20906001614268565b67ffffffffffffffff811115610b3857610b38613ffd565b604051908082528060200260200182016040528015610b61578160200160208202803683370190505b508051610b7691601791602090910190613d0d565b507382af49447d8a07e3bd95bd0d56f35241523fbab160005260156020527ff5e5c061c450ff78409f11fcb6c0f6b5e2523de12be80d597b446cc6f1985ef15460178054610bc69060019061423e565b81548110610bd657610bd6614212565b600091825260208220019190915560178054610bf49060019061423e565b81548110610c0457610c04614212565b9060005260206000200154905060005b601654811015610caf576015600060168381548110610c3557610c35614212565b60009182526020808320909101546001600160a01b031683528201929092526040019020546017805483908110610c6e57610c6e614212565b906000526020600020018190555060178181548110610c8f57610c8f614212565b906000526020600020015482610ca59190614268565b9150600101610c14565b5060008111610d005760405162461bcd60e51b815260206004820152601860248201527f4e657720706f7274666f6c696f20697320696e76616c696400000000000000006044820152606401610476565b610d596017805480602002602001604051908101604052809291908181526020018280548015610d4f57602002820191906000526020600020905b815481526020019060010190808311610d3b575b50505050506131b7565b8051610d6d91601791602090910190613d0d565b50504260035550600b80546001600160a01b03191633179055565b6000805160206144ea8339815191526001600160a01b0316638da5cb5b6040518163ffffffff1660e01b8152600401602060405180830381865afa158015610dd4573d6000803e3d6000fd5b505050506040513d601f19601f82011682018060405250810190610df891906141ad565b6001600160a01b0316336001600160a01b031614610e285760405162461bcd60e51b8152600401610476906141ca565b620f424084108015610e3c5750620f424083105b8015610e4a5750620f424082105b610e895760405162461bcd60e51b815260206004820152601060248201526f1199595cc8185c99481a5b9d985b1a5960821b6044820152606401610476565b600e93909355600f91909155601055601155565b60098181548110610ead57600080fd5b6000918252602090912001546001600160a01b0316905081565b6000805160206144ea8339815191526001600160a01b0316638da5cb5b6040518163ffffffff1660e01b8152600401602060405180830381865afa158015610f13573d6000803e3d6000fd5b505050506040513d601f19601f82011682018060405250810190610f3791906141ad565b6001600160a01b0316336001600160a01b031614610f675760405162461bcd60e51b8152600401610476906141ca565b60008111610fed5760405162461bcd60e51b815260206004820152604760248201527f466f722073616665747920726561736f6e732c2077652061766f6964207a657260448201527f6f20746f6c6572616e636520666f7220726562616c616e63696e67206120706f6064820152667274666f6c696f60c81b608482015260a401610476565b600c55565b6000805160206144ea8339815191526001600160a01b0316638da5cb5b6040518163ffffffff1660e01b8152600401602060405180830381865afa15801561103e573d6000803e3d6000fd5b505050506040513d601f19601f8201168201806040525081019061106291906141ad565b6001600160a01b0316336001600160a01b0316146110925760405162461bcd60e51b8152600401610476906141ca565b600081116110f05760405162461bcd60e51b815260206004820152602560248201527f52616e6b696e67206c697374206d757374206265206c6172676572207468616e604482015264207a65726f60d81b6064820152608401610476565b6009548110156113b3576000600980548060200260200160405190810160405280929190818152602001828054801561115257602002820191906000526020600020905b81546001600160a01b03168152600190910190602001808311611134575b5050505050905060005b6001825161116a919061423e565b8110156112e65760005b6001828451611183919061423e565b61118d919061423e565b8110156112dd5760146000846111a4846001614268565b815181106111b4576111b4614212565b60200260200101516001600160a01b03166001600160a01b0316815260200190815260200160002060020154601460008584815181106111f6576111f6614212565b60200260200101516001600160a01b03166001600160a01b031681526020019081526020016000206002015410156112d557600083828151811061123c5761123c614212565b60200260200101519050838260016112549190614268565b8151811061126457611264614212565b602002602001015184838151811061127e5761127e614212565b6001600160a01b039092166020928302919091019091015280846112a3846001614268565b815181106112b3576112b3614212565b60200260200101906001600160a01b031690816001600160a01b031681525050505b600101611174565b5060010161115c565b508167ffffffffffffffff81111561130057611300613ffd565b604051908082528060200260200182016040528015611329578160200160208202803683370190505b50805161133e91600991602090910190613d58565b5060005b828110156113a85781818151811061135c5761135c614212565b60200260200101516009828154811061137757611377614212565b600091825260209091200180546001600160a01b0319166001600160a01b0392909216919091179055600101611342565b506113b161344d565b505b600855565b6113f86040518060e00160405280606081526020016060815260200160608152602001606081526020016060815260200160608152602001600081525090565b6001600160a01b038216600090815260126020908152604091829020825181546101009381028201840190945260e08101848152909391928492849184018282801561146357602002820191906000526020600020905b81548152602001906001019080831161144f575b50505050508152602001600182018054806020026020016040519081016040528092919081815260200182805480156114bb57602002820191906000526020600020905b8154815260200190600101908083116114a7575b505050505081526020016002820180548060200260200160405190810160405280929190818152602001828054801561151d57602002820191906000526020600020905b81546001600160a01b031681526001909101906020018083116114ff575b505050505081526020016003820180548060200260200160405190810160405280929190818152602001828054801561157557602002820191906000526020600020905b815481526020019060010190808311611561575b50505050508152602001600482018054806020026020016040519081016040528092919081815260200182805480156115cd57602002820191906000526020600020905b8154815260200190600101908083116115b9575b505050505081526020016005820180548060200260200160405190810160405280929190818152602001828054801561162557602002820191906000526020600020905b815481526020019060010190808311611611575b505050505081526020016006820154815250509050919050565b6000805160206144ea8339815191526001600160a01b0316638da5cb5b6040518163ffffffff1660e01b8152600401602060405180830381865afa15801561168b573d6000803e3d6000fd5b505050506040513d601f19601f820116820180604052508101906116af91906141ad565b6001600160a01b0316336001600160a01b0316146116df5760405162461bcd60e51b8152600401610476906141ca565b6201518081116117315760405162461bcd60e51b815260206004820152601c60248201527f4d696e696d756d2074696d652077696e646f77206973203120646179000000006044820152606401610476565b600555565b6000805160206144ea8339815191526001600160a01b0316638da5cb5b6040518163ffffffff1660e01b8152600401602060405180830381865afa158015611782573d6000803e3d6000fd5b505050506040513d601f19601f820116820180604052508101906117a691906141ad565b6001600160a01b0316336001600160a01b0316146117d65760405162461bcd60e51b8152600401610476906141ca565b600d55565b826000805160206144ea8339815191526001600160a01b0316634a06d0b36040518163ffffffff1660e01b8152600401602060405180830381865afa158015611828573d6000803e3d6000fd5b505050506040513d601f19601f8201168201806040525081019061184c91906141ad565b604051635951975960e11b81523360048201526001600160a01b03919091169063b2a32eb290602401602060405180830381865afa158015611892573d6000803e3d6000fd5b505050506040513d601f19601f820116820180604052508101906118b6919061427b565b80156119ac5750806001600160a01b03166000805160206144ea8339815191526001600160a01b0316634a06d0b36040518163ffffffff1660e01b8152600401602060405180830381865afa158015611913573d6000803e3d6000fd5b505050506040513d601f19601f8201168201806040525081019061193791906141ad565b60405163c140b48160e01b81523360048201526001600160a01b03919091169063c140b48190602401602060405180830381865afa15801561197d573d6000803e3d6000fd5b505050506040513d601f19601f820116820180604052508101906119a191906141ad565b6001600160a01b0316145b6119c85760405162461bcd60e51b81526004016104769061429d565b6000805b8451811015611a04578481815181106119e7576119e7614212565b6020026020010151826119fa9190614268565b91506001016119cc565b506001600160a01b0385166000908152601260205260408120600301549003611c6c57620f42408103611c6757604080516001808252818301909252600091602080830190803683375050604080516001808252818301909252929350600092915060208083019080368337505060408051600180825281830190925292935060009291506020808301908036833701905050905066038d7ea4c6800083600081518110611ab457611ab4614212565b6020026020010181815250504282600081518110611ad457611ad4614212565b602002602001018181525050611ae986613582565b81600081518110611afc57611afc614212565b6020026020010181815250506040518060e00160405280611b25898966038d7ea4c6800061374b565b815260200188815260200187815260200184815260200183815260200182815260200142815250601260008a6001600160a01b03166001600160a01b031681526020019081526020016000206000820151816000019080519060200190611b8d929190613d0d565b506020828101518051611ba69260018501920190613d0d565b5060408201518051611bc2916002840191602090910190613d58565b5060608201518051611bde916003840191602090910190613d0d565b5060808201518051611bfa916004840191602090910190613d0d565b5060a08201518051611c16916005840191602090910190613d0d565b5060c0820151816006015590505066038d7ea4c6800042896001600160a01b03167f9f25d3dd95256607f9dccf502fc8e3329f200378a3c2464a58b022b1b575c7b760405160405180910390a45050505b612349565b620f424081036121be576001600160a01b03851660009081526012602052604090206004018054611c9f9060019061423e565b81548110611caf57611caf614212565b90600052602060002001544211611d085760405162461bcd60e51b815260206004820181905260248201527f54696d657374616d7020696e76616c6964206f722077616974206c6f6e6765726044820152606401610476565b6001600160a01b03851660009081526012602090815260408083208054825181850281018501909352808352611de293830182828015611d6757602002820191906000526020600020905b815481526020019060010190808311611d53575b5050506001600160a01b038a1660009081526012602090815260409182902060020180548351818402810184019094528084529294509250830182828015611dd857602002820191906000526020600020905b81546001600160a01b03168152600190910190602001808311611dba575b5050505050613a1a565b6001600160a01b0387166000818152601260209081526040822060038101805460018181018355918552838520018690556004820180549182018155845291832042920191909155919052909150600501611e3c85613582565b815460018101835560009283526020808420909101919091556004546001600160a01b0389168352601290915260409091206003015411156120e75760005b600454811015612023576001600160a01b0387166000908152601260205260409020600301611eab826001614268565b81548110611ebb57611ebb614212565b906000526020600020015460126000896001600160a01b03166001600160a01b031681526020019081526020016000206003018281548110611eff57611eff614212565b60009182526020808320909101929092556001600160a01b0389168152601290915260409020600401611f33826001614268565b81548110611f4357611f43614212565b906000526020600020015460126000896001600160a01b03166001600160a01b031681526020019081526020016000206004018281548110611f8757611f87614212565b60009182526020808320909101929092556001600160a01b0389168152601290915260409020600501611fbb826001614268565b81548110611fcb57611fcb614212565b906000526020600020015460126000896001600160a01b03166001600160a01b03168152602001908152602001600020600501828154811061200f5761200f614212565b600091825260209091200155600101611e7b565b506001600160a01b038616600090815260126020526040902060030180548061204e5761204e614314565b6000828152602080822083016000199081018390559092019092556001600160a01b0388168252601290526040902060040180548061208f5761208f614314565b6000828152602080822083016000199081018390559092019092556001600160a01b038816825260129052604090206005018054806120d0576120d0614314565b600190038181906000526020600020016000905590555b6001600160a01b0386166000908152601260209081526040909120855161211692600290920191870190613d58565b5061212285858361374b565b6001600160a01b0387166000908152601260209081526040909120825161214f9391929190910190613d0d565b506001600160a01b0386166000908152601260209081526040909120865161217f92600190920191880190613d0d565b508042876001600160a01b03167f9f25d3dd95256607f9dccf502fc8e3329f200378a3c2464a58b022b1b575c7b760405160405180910390a450612349565b6121fe6040518060e00160405280606081526020016060815260200160608152602001606081526020016060815260200160608152602001600081525090565b61222260405180606001604052806060815260200160608152602001600081525090565b6001600160a01b0387166000908152601260209081526040909120835180518593612251928492910190613d0d565b50602082810151805161226a9260018501920190613d0d565b5060408201518051612286916002840191602090910190613d58565b50606082015180516122a2916003840191602090910190613d0d565b50608082015180516122be916004840191602090910190613d0d565b5060a082015180516122da916005840191602090910190613d0d565b5060c091909101516006909101556001600160a01b0387166000908152601460209081526040909120825180518493612317928492910190613d0d565b5060208281015180516123309260018501920190613d58565b506040820151816002015590505061234661344d565b50505b5050505050565b60008181548110610ead57600080fd5b6000816000805160206144ea8339815191526001600160a01b0316634a06d0b36040518163ffffffff1660e01b8152600401602060405180830381865afa1580156123af573d6000803e3d6000fd5b505050506040513d601f19601f820116820180604052508101906123d391906141ad565b604051635951975960e11b81523360048201526001600160a01b03919091169063b2a32eb290602401602060405180830381865afa158015612419573d6000803e3d6000fd5b505050506040513d601f19601f8201168201806040525081019061243d919061427b565b80156125335750806001600160a01b03166000805160206144ea8339815191526001600160a01b0316634a06d0b36040518163ffffffff1660e01b8152600401602060405180830381865afa15801561249a573d6000803e3d6000fd5b505050506040513d601f19601f820116820180604052508101906124be91906141ad565b60405163c140b48160e01b81523360048201526001600160a01b03919091169063c140b48190602401602060405180830381865afa158015612504573d6000803e3d6000fd5b505050506040513d601f19601f8201168201806040525081019061252891906141ad565b6001600160a01b0316145b61254f5760405162461bcd60e51b81526004016104769061429d565b6000805b60095481101561277057601260006009838154811061257457612574614212565b9060005260206000200160009054906101000a90046001600160a01b03166001600160a01b03166001600160a01b03168152602001908152602001600020600401600160126000600985815481106125ce576125ce614212565b60009182526020808320909101546001600160a01b03168352820192909252604001902060040154612600919061423e565b8154811061261057612610614212565b90600052602060002001546005546126289190614268565b4211806126745750600454601260006009848154811061264a5761264a614212565b60009182526020808320909101546001600160a01b03168352820192909252604001902060040154105b80156126be57506000601460006009848154811061269457612694614212565b60009182526020808320909101546001600160a01b03168352820192909252604001902060020154115b15612768576126e760405180606001604052806060815260200160608152602001600081525090565b8060146000600985815481106126ff576126ff614212565b60009182526020808320909101546001600160a01b03168352828101939093526040909101902082518051919261273b92849290910190613d0d565b5060208281015180516127549260018501920190613d58565b506040820151816002015590505060019250505b600101612553565b508015156001036127835761278361344d565b6004546001600160a01b03851660009081526012602052604090206003015403613094576000805160206144ea8339815191526001600160a01b0316635ca8cc7c6040518163ffffffff1660e01b8152600401602060405180830381865afa1580156127f3573d6000803e3d6000fd5b505050506040513d601f19601f8201168201806040525081019061281791906141ad565b6001600160a01b038581166000908152601260205260409081902090516369cb106d60e11b8152929091169163d39620da9161286491600480830192600381019260059091019101614360565b600060405180830381865afa158015612881573d6000803e3d6000fd5b505050506040513d6000823e601f3d908101601f191682016040526128a991908101906143a3565b6001600160a01b038516600090815260146020908152604090912082516128d69391929190910190613d0d565b5060005b600954811015612e7457846001600160a01b03166009828154811061290157612901614212565b6000918252602090912001546001600160a01b031614612e6c57600060015b6004811015612b61576001600160a01b038716600090815260146020526040812080548390811061295357612953614212565b9060005260206000200154601460006009878154811061297557612975614212565b60009182526020808320909101546001600160a01b0316835282019290925260400190208054849081106129ab576129ab614212565b906000526020600020015411612a585760146000600986815481106129d2576129d2614212565b60009182526020808320909101546001600160a01b031683528201929092526040019020805483908110612a0857612a08614212565b60009182526020808320909101546001600160a01b038b16835260149091526040909120805484908110612a3e57612a3e614212565b9060005260206000200154612a53919061423e565b612aef565b6001600160a01b0388166000908152601460205260409020805483908110612a8257612a82614212565b90600052602060002001546014600060098781548110612aa457612aa4614212565b60009182526020808320909101546001600160a01b031683528201929092526040019020805484908110612ada57612ada614212565b9060005260206000200154612aef919061423e565b600d546001600160a01b038a1660009081526014602052604090208054929350620f42409285908110612b2457612b24614212565b9060005260206000200154612b399190614251565b612b43919061444a565b811015612b585782612b548161446c565b9350505b50600101612920565b5080600303612e6a57612c0060098381548110612b8057612b80614212565b60009182526020808320909101546001600160a01b038a8116845260148352604093849020600101805485518186028101860190965280865291909216939283018282801561082f576020028201919060005260206000209081546001600160a01b0316815260019091019060200180831161081157505050505061315a565b612c72576001600160a01b03861660009081526014602052604090206009805460019092019184908110612c3657612c36614212565b60009182526020808320909101548354600181018555938352912090910180546001600160a01b0319166001600160a01b039092169190911790555b612d0e866014600060098681548110612c8d57612c8d614212565b60009182526020808320909101546001600160a01b0316835282810193909352604091820190206001018054825181850281018501909352808352919290919083018282801561082f576020028201919060005260206000209081546001600160a01b0316815260019091019060200180831161081157505050505061315a565b612e6a576014600060098481548110612d2957612d29614212565b6000918252602080832091909101546001600160a01b0390811684528382019490945260409092018120600190810180549182018155825291812090910180546001600160a01b0319169289169290921790915560098054601492919085908110612d9657612d96614212565b60009182526020808320909101546001600160a01b031683528201929092526040019020600190810154612dc991614268565b6014600060098581548110612de057612de0614212565b60009182526020808320909101546001600160a01b0316835282019290925260400181208054909190612e1557612e15614212565b9060005260206000200154612e2a919061444a565b6014600060098581548110612e4157612e41614212565b60009182526020808320909101546001600160a01b031683528201929092526040019020600201555b505b6001016128da565b506001600160a01b0384166000908152601460205260409020600190810154612e9c91614268565b6001600160a01b03851660009081526014602052604081208054909190612ec557612ec5614212565b9060005260206000200154612eda919061444a565b6001600160a01b038516600090815260146020526040812060020191909155805b600954811015612f4d57856001600160a01b031660098281548110612f2257612f22614212565b6000918252602090912001546001600160a01b031603612f455760019150612f4d565b600101612efb565b506008546009541015612fb557801515600003612fb057600980546001810182556000919091527f6e1540171b6c0c960b71a7020d9f60077f6af931a8bbf590da0223dacf75c7af0180546001600160a01b0319166001600160a01b0387161790555b61308a565b6006546001600160a01b03861660009081526014602052604090206002015410801590612fe0575080155b1561308a5760005b60095481101561308857600654601460006009848154811061300c5761300c614212565b60009182526020808320909101546001600160a01b031683528201929092526040019020600201540361308057856009828154811061304d5761304d614212565b9060005260206000200160006101000a8154816001600160a01b0302191690836001600160a01b03160217905550613088565b600101612fe8565b505b61309261344d565b505b6001600160a01b0384166000908152601260209081526040808320601390925290912081546130c69082908490613dad565b50600182810180546130db9284019190613dad565b50600282810180546130f09284019190613dad565b50600382810180546131059284019190613dad565b506004828101805461311a9284019190613dad565b506005828101805461312f9284019190613dad565b506006918201549101555050506001600160a01b031660009081526014602052604090206002015490565b6000805b82518110156131ab57836001600160a01b031683828151811061318357613183614212565b60200260200101516001600160a01b0316036131a35760019150506131b1565b60010161315e565b50600090505b92915050565b60606000805b83518110156131f5578381815181106131d8576131d8614212565b6020026020010151826131eb9190614268565b91506001016131bd565b5080600003613205575090919050565b60005b835181101561325d5761323884828151811061322657613226614212565b6020026020010151620f424084613c28565b84828151811061324a5761324a614212565b6020908102919091010152600101613208565b506000905080808080613274620f42406002614251565b905060005b87518162ffffff1610156133b957878162ffffff168151811061329e5761329e614212565b6020026020010151866132b19190614268565b955082888262ffffff16815181106132cb576132cb614212565b60200260200101511180156132fe57506000888262ffffff16815181106132f4576132f4614212565b6020026020010151115b1561332d57878162ffffff168151811061331a5761331a614212565b602002602001015192508062ffffff1694505b81888262ffffff168151811061334557613345614212565b602002602001015110801561337857506000888262ffffff168151811061336e5761336e614212565b6020026020010151115b156133a757878162ffffff168151811061339457613394614212565b602002602001015191508062ffffff1693505b806133b181614485565b915050613279565b50620f4240851015613400576133d285620f424061423e565b8784815181106133e4576133e4614212565b602002602001018181516133f89190614268565b905250613442565b620f424085111561344257613418620f42408661423e565b87858151811061342a5761342a614212565b6020026020010181815161343e919061423e565b9052505b505050505090919050565b6000196000805b6009548110156135765782601460006009848154811061347657613476614212565b60009182526020808320909101546001600160a01b0316835282019290925260400190206002015410156134e65760146000600983815481106134bb576134bb614212565b60009182526020808320909101546001600160a01b0316835282019290925260400190206002015492505b8160146000600984815481106134fe576134fe614212565b60009182526020808320909101546001600160a01b03168352820192909252604001902060020154111561356e57601460006009838154811061354357613543614212565b60009182526020808320909101546001600160a01b0316835282019290925260400190206002015491505b600101613454565b50600691909155600755565b6000807382af49447d8a07e3bd95bd0d56f35241523fbab16001600160a01b03166318160ddd6040518163ffffffff1660e01b8152600401602060405180830381865afa1580156135d7573d6000803e3d6000fd5b505050506040513d601f19601f820116820180604052508101906135fb91906144a7565b905060005b6001845161360e919061423e565b8110156137445760006000805160206144ea8339815191526001600160a01b031663588c2f146040518163ffffffff1660e01b8152600401602060405180830381865afa158015613663573d6000803e3d6000fd5b505050506040513d601f19601f8201168201806040525081019061368791906141ad565b6001600160a01b031663ae22ff668684815181106136a7576136a7614212565b60200260200101516040518263ffffffff1660e01b81526004016136da91906001600160a01b0391909116815260200190565b602060405180830381865afa1580156136f7573d6000803e3d6000fd5b505050506040513d601f19601f8201168201806040525081019061371b91906144c0565b905082816001600160801b0316101561373b57806001600160801b031692505b50600101613600565b5092915050565b606082518451146137bc5760405162461bcd60e51b815260206004820152603560248201527f41727261797320646f206e6f7420686176652074686520636f72726563742073604482015274697a657320746f2067657420506f7274666f6c696f60581b6064820152608401610476565b6000845167ffffffffffffffff8111156137d8576137d8613ffd565b604051908082528060200260200182016040528015613801578160200160208202803683370190505b5090506000620f424084876001895161381a919061423e565b8151811061382a5761382a614212565b602002602001015161383c9190614251565b613846919061444a565b905060005b60018751613859919061423e565b8110156139e3576000620f42408689848151811061387957613879614212565b602002602001015161388b9190614251565b613895919061444a565b90506000805160206144ea8339815191526001600160a01b031663588c2f146040518163ffffffff1660e01b8152600401602060405180830381865afa1580156138e3573d6000803e3d6000fd5b505050506040513d601f19601f8201168201806040525081019061390791906141ad565b6001600160a01b03166384be33047382af49447d8a07e3bd95bd0d56f35241523fbab189858151811061393c5761393c614212565b60209081029190910101516040516001600160e01b031960e085901b1681526001600160a01b0392831660048201529116602482015260448101849052606401602060405180830381865afa158015613999573d6000803e3d6000fd5b505050506040513d601f19601f820116820180604052508101906139bd91906144a7565b8483815181106139cf576139cf614212565b60209081029190910101525060010161384b565b508082600184516139f4919061423e565b81518110613a0457613a04614212565b60209081029190910101525090505b9392505050565b60008151835114613a895760405162461bcd60e51b815260206004820152603360248201527f41727261797320646f206e6f7420686176652074686520636f727265637420736044820152721a5e995cc81d1bc819d95d0810d85c1a5d185b606a1b6064820152608401610476565b60008360018551613a9a919061423e565b81518110613aaa57613aaa614212565b6020026020010151905060005b60018551613ac5919061423e565b811015613c20576000805160206144ea8339815191526001600160a01b031663588c2f146040518163ffffffff1660e01b8152600401602060405180830381865afa158015613b18573d6000803e3d6000fd5b505050506040513d601f19601f82011682018060405250810190613b3c91906141ad565b6001600160a01b03166384be3304858381518110613b5c57613b5c614212565b60200260200101517382af49447d8a07e3bd95bd0d56f35241523fbab1888581518110613b8b57613b8b614212565b60209081029190910101516040516001600160e01b031960e086901b1681526001600160a01b0393841660048201529290911660248301526044820152606401602060405180830381865afa158015613be8573d6000803e3d6000fd5b505050506040513d601f19601f82011682018060405250810190613c0c91906144a7565b613c169083614268565b9150600101613ab7565b509392505050565b6000838302816000198587098281108382030391505080600003613c5f57838281613c5557613c55614434565b0492505050613a13565b808411613c7f5760405163227bc15360e01b815260040160405180910390fd5b6000848688096000868103871696879004966002600389028118808a02820302808a02820302808a02820302808a02820302808a02820302808a02909103029181900381900460010186841190950394909402919094039290920491909117919091029150509392505050565b5080546000825590600052602060002090810190613d0a9190613ded565b50565b828054828255906000526020600020908101928215613d48579160200282015b82811115613d48578251825591602001919060010190613d2d565b50613d54929150613ded565b5090565b828054828255906000526020600020908101928215613d48579160200282015b82811115613d4857825182546001600160a01b0319166001600160a01b03909116178255602090920191600190910190613d78565b828054828255906000526020600020908101928215613d485760005260206000209182015b82811115613d48578254825591600101919060010190613dd2565b5b80821115613d545760008155600101613dee565b6001600160a01b0381168114613d0a57600080fd5b600060208284031215613e2957600080fd5b8135613a1381613e02565b600060208284031215613e4657600080fd5b5035919050565b60008151808452602080850194506020840160005b83811015613e875781516001600160a01b031687529582019590820190600101613e62565b509495945050505050565b602081526000613a136020830184613e4d565b60008151808452602080850194506020840160005b83811015613e8757815187529582019590820190600101613eba565b604081526000613ee96040830185613e4d565b8281036020840152613efb8185613ea5565b95945050505050565b60008060008060808587031215613f1a57600080fd5b5050823594602084013594506040840135936060013592509050565b602081526000825160e06020840152613f53610100840182613ea5565b90506020840151601f1980858403016040860152613f718383613ea5565b92506040860151915080858403016060860152613f8e8383613e4d565b92506060860151915080858403016080860152613fab8383613ea5565b925060808601519150808584030160a0860152613fc88383613ea5565b925060a08601519150808584030160c086015250613fe68282613ea5565b91505060c084015160e08401528091505092915050565b634e487b7160e01b600052604160045260246000fd5b604051601f8201601f1916810167ffffffffffffffff8111828210171561403c5761403c613ffd565b604052919050565b600067ffffffffffffffff82111561405e5761405e613ffd565b5060051b60200190565b600082601f83011261407957600080fd5b8135602061408e61408983614044565b614013565b8083825260208201915060208460051b8701019350868411156140b057600080fd5b602086015b848110156140d55780356140c881613e02565b83529183019183016140b5565b509695505050505050565b6000806000606084860312156140f557600080fd5b833561410081613e02565b925060208481013567ffffffffffffffff8082111561411e57600080fd5b818701915087601f83011261413257600080fd5b813561414061408982614044565b81815260059190911b8301840190848101908a83111561415f57600080fd5b938501935b8285101561417d57843582529385019390850190614164565b96505050604087013592508083111561419557600080fd5b50506141a386828701614068565b9150509250925092565b6000602082840312156141bf57600080fd5b8151613a1381613e02565b60208082526028908201527f4f6e6c7920746865206f776e65722063616e2074726967676572207468697320604082015267333ab731ba34b7b760c11b606082015260800190565b634e487b7160e01b600052603260045260246000fd5b634e487b7160e01b600052601160045260246000fd5b818103818111156131b1576131b1614228565b80820281158282048414176131b1576131b1614228565b808201808211156131b1576131b1614228565b60006020828403121561428d57600080fd5b81518015158114613a1357600080fd5b60208082526051908201527f4f6e6c792074686520574544582070726f20736d61727420636f6e747261637460408201527f206f6620746865207265737065637469766520757365722063616e207472696760608201527033b2b9103a3434b990333ab731ba34b7b760791b608082015260a00190565b634e487b7160e01b600052603160045260246000fd5b600081548084526020808501945083600052602060002060005b83811015613e8757815487529582019560019182019101614344565b606081526000614373606083018661432a565b8281036020840152614385818661432a565b90508281036040840152614399818561432a565b9695505050505050565b600060208083850312156143b657600080fd5b825167ffffffffffffffff8111156143cd57600080fd5b8301601f810185136143de57600080fd5b80516143ec61408982614044565b81815260059190911b8201830190838101908783111561440b57600080fd5b928401925b8284101561442957835182529284019290840190614410565b979650505050505050565b634e487b7160e01b600052601260045260246000fd5b60008261446757634e487b7160e01b600052601260045260246000fd5b500490565b60006001820161447e5761447e614228565b5060010190565b600062ffffff80831681810361449d5761449d614228565b6001019392505050565b6000602082840312156144b957600080fd5b5051919050565b6000602082840312156144d257600080fd5b81516001600160801b0381168114613a1357600080fdfe00000000000000000000000064b2079ec8aba8cf1c9827916702bf13c89f9584a264697066735822122050bf36e6662ccb0d999c178c5d23adb8c55d9bcba99898343e7e93ae0579e48364736f6c63430008190033","linkReferences":{}},"methodIdentifiers":{"changeFees(uint256,uint256,uint256,uint256)":"650c4226","changeNPoints(uint256)":"14e21246","changeRankingListMaxSize(uint256)":"a10955c3","changeTimeWindow(uint256)":"baf3c0ae","computeRanking(address)":"f4bd260b","depositWithdrawFee()":"a786ab75","getCurrentTimestamp()":"6c9230db","getFinalPortfolio()":"3224da32","getNPoints()":"e85a8d92","getRankingList()":"1fdf6755","getTraderData(address)":"a8155b5b","getTraderScore(address)":"08ad90a5","initialBlock()":"2cb15864","lastTimestamp()":"19d8ac61","maxRanking()":"bc9f248e","minPercIndexAllowance()":"405ed0ef","minRanking()":"1639bad6","rankingList(uint256)":"6b901135","rankingListMaxSize()":"a3dbb699","rebalanceActor()":"1ef867dd","rebalanceActorFee()":"c780b051","rewardsFee()":"2bb14e1d","setFinalWeights()":"3a950b39","setMinPercAllowance(uint256)":"989a144c","setSimilirityPerc(uint256)":"d33c3de8","similarityPerc()":"e7fabf7a","tokenAddressesInit(uint256)":"d60f3fd5","totalRankSum()":"4ef5e7f4","transactionsFee()":"242331a8","updateTraderData(address,uint256[],address[])":"d49674fc"},"id":7}