{"abi":[{"type":"constructor","inputs":[],"stateMutability":"nonpayable"},{"type":"function","name":"activeIndexPortfolio","inputs":[{"name":"","type":"address","internalType":"address"}],"outputs":[{"name":"","type":"bool","internalType":"bool"}],"stateMutability":"view"},{"type":"function","name":"createIndexPortfolio","inputs":[],"outputs":[],"stateMutability":"nonpayable"},{"type":"function","name":"getUserFromIndexPortfolioAddress","inputs":[{"name":"portfolio","type":"address","internalType":"address"}],"outputs":[{"name":"","type":"address","internalType":"address"}],"stateMutability":"view"},{"type":"function","name":"getUserIndexPortfolioAddress","inputs":[{"name":"user","type":"address","internalType":"address"}],"outputs":[{"name":"","type":"address","internalType":"address"}],"stateMutability":"view"},{"type":"function","name":"indexPortfolioUser","inputs":[{"name":"","type":"address","internalType":"address"}],"outputs":[{"name":"","type":"address","internalType":"address"}],"stateMutability":"view"},{"type":"function","name":"isIndexPortfolioActive","inputs":[{"name":"portfolioAddress","type":"address","internalType":"address"}],"outputs":[{"name":"","type":"bool","internalType":"bool"}],"stateMutability":"view"},{"type":"function","name":"tokenAddressesInit","inputs":[{"name":"","type":"uint256","internalType":"uint256"}],"outputs":[{"name":"","type":"address","internalType":"address"}],"stateMutability":"view"},{"type":"function","name":"userIndexPortfolio","inputs":[{"name":"","type":"address","internalType":"address"}],"outputs":[{"name":"","type":"address","internalType":"address"}],"stateMutability":"view"}],"bytecode":{"object":"0x60a06040527382af49447d8a07e3bd95bd0d56f35241523fbab16080908152602a906000906001603b565b50348015603657600080fd5b5060ae565b828054828255906000526020600020908101928215608d579160200282015b82811115608d57825182546001600160a01b0319166001600160a01b03909116178255602090920191600190910190605a565b506097929150609b565b5090565b5b8082111560975760008155600101609c565b61579d806100bd6000396000f3fe608060405234801561001057600080fd5b50600436106100885760003560e01c8063a4d12c571161005b578063a4d12c571461013c578063bb306e3814610165578063d5c4c52914610191578063d60f3fd5146101bd57600080fd5b8063445540151461008d578063554c219f146100d657806358321c7a146100ff5780639791717214610132575b600080fd5b6100b961009b366004610305565b6001600160a01b039081166000908152600260205260409020541690565b6040516001600160a01b0390911681526020015b60405180910390f35b6100b96100e4366004610305565b6001602052600090815260409020546001600160a01b031681565b61012261010d366004610305565b60036020526000908152604090205460ff1681565b60405190151581526020016100cd565b61013a6101d0565b005b6100b961014a366004610305565b6002602052600090815260409020546001600160a01b031681565b610122610173366004610305565b6001600160a01b031660009081526003602052604090205460ff1690565b6100b961019f366004610305565b6001600160a01b039081166000908152600160205260409020541690565b6100b96101cb366004610335565b6102ce565b336000908152600160205260409020546001600160a01b03161561023a5760405162461bcd60e51b815260206004820152601c60248201527f5573657220616c726561647920686173206120706f7274666f6c696f00000000604482015260640160405180910390fd5b600033604051610249906102f8565b6001600160a01b039091168152602001604051809103906000f080158015610275573d6000803e3d6000fd5b5033600081815260016020818152604080842080546001600160a01b039097166001600160a01b031997881681179091558452600282528084208054909616909417909455600390935220805460ff1916909117905550565b600081815481106102de57600080fd5b6000918252602090912001546001600160a01b0316905081565b6154198061034f83390190565b60006020828403121561031757600080fd5b81356001600160a01b038116811461032e57600080fd5b9392505050565b60006020828403121561034757600080fd5b503591905056fe60a06040527382af49447d8a07e3bd95bd0d56f35241523fbab1608090815261002c906000906001610149565b50614e20600455600580546001600160a01b031916905561138860065560008054610059916007916101ae565b50620f424060095534801561006d57600080fd5b5060405161541938038061541983398101604081905261008c91610203565b80806001600160a01b0381166100bc57604051631e4fbdf760e01b81526000600482015260240160405180910390fd5b6100c5816100f7565b5050600280546001600160a01b0319167382af49447d8a07e3bd95bd0d56f35241523fbab11790555042600355610233565b600180546001600160a01b038381166001600160a01b0319831681179093556040519116919082907f8be0079c531659141344cd1fd0a4f28419497f9722a3daafe3b4186f6b6457e090600090a35050565b82805482825590600052602060002090810192821561019e579160200282015b8281111561019e57825182546001600160a01b0319166001600160a01b03909116178255602090920191600190910190610169565b506101aa9291506101ee565b5090565b82805482825590600052602060002090810192821561019e5760005260206000209182015b8281111561019e5782548255916001019190600101906101d3565b5b808211156101aa57600081556001016101ef565b60006020828403121561021557600080fd5b81516001600160a01b038116811461022c57600080fd5b9392505050565b6151d7806102426000396000f3fe6080604052600436106101235760003560e01c80638c04166f116100a0578063d0e30db011610064578063d0e30db0146102dd578063d60f3fd5146102e5578063dca30f1514610305578063f2fde38b14610325578063ff904dd51461034557600080fd5b80638c04166f1461025d5780638da5cb5b1461027357806398b6cb4414610291578063a39fac12146102a6578063ce96952c146102c857600080fd5b806367e4ac2c116100e757806367e4ac2c146101e95780636c9c2faf146101fe57806370d4d73014610213578063715018a6146102285780637e8b217e1461023d57600080fd5b80632e1a7d4d1461012f57806336bd00681461015157806337899770146101715780634e0ebe631461019557806366774663146101c757600080fd5b3661012a57005b600080fd5b34801561013b57600080fd5b5061014f61014a366004614c76565b61035a565b005b34801561015d57600080fd5b5061014f61016c366004614c76565b6104c6565b34801561017d57600080fd5b506003545b6040519081526020015b60405180910390f35b3480156101a157600080fd5b506005546001600160a01b03165b6040516001600160a01b03909116815260200161018c565b3480156101d357600080fd5b506101dc610522565b60405161018c9190614c8f565b3480156101f557600080fd5b506101dc61080e565b34801561020a57600080fd5b50600954610182565b34801561021f57600080fd5b5061014f6108cb565b34801561023457600080fd5b5061014f610a1b565b34801561024957600080fd5b50610182610258366004614ce8565b610a2d565b34801561026957600080fd5b5061018260065481565b34801561027f57600080fd5b506001546001600160a01b03166101af565b34801561029d57600080fd5b506101dc610b13565b3480156102b257600080fd5b506102bb610f8d565b60405161018c9190614d05565b3480156102d457600080fd5b50610182610fef565b6101826110c7565b3480156102f157600080fd5b506101af610300366004614c76565b611278565b34801561031157600080fd5b5061014f610320366004614ce8565b6112a2565b34801561033157600080fd5b5061014f610340366004614ce8565b6112cc565b34801561035157600080fd5b50610182611307565b61036261184a565b60005b6007548110156104b95760006000805160206151628339815191526001600160a01b031663daabffe96040518163ffffffff1660e01b8152600401602060405180830381865afa1580156103bd573d6000803e3d6000fd5b505050506040513d601f19601f820116820180604052508101906103e19190614d46565b6001600160a01b031663c489744b6007848154811061040257610402614d63565b6000918252602090912001546040516001600160e01b031960e084901b16815261043a916001600160a01b0316903090600401614d79565b602060405180830381865afa158015610457573d6000803e3d6000fd5b505050506040513d601f19601f8201168201806040525081019061047b9190614d93565b11156104b1576104b16007828154811061049757610497614d63565b6000918252602090912001546001600160a01b0316611877565b600101610365565b506104c381611c83565b50565b6104ce61184a565b620f424081111561051d5760405162461bcd60e51b8152602060048201526014602482015273496e76616c6964206d617820736c69707061676560601b60448201526064015b60405180910390fd5b600655565b60075460609060009067ffffffffffffffff81111561054357610543614dac565b60405190808252806020026020018201604052801561056c578160200160208202803683370190505b50905060005b600754811015610808576000600860006007848154811061059557610595614d63565b60009182526020808320909101546001600160a01b03168352828101939093526040918201812054825163daabffe960e01b8152925190945090926000805160206151628339815191529263daabffe992600480830193928290030181865afa158015610606573d6000803e3d6000fd5b505050506040513d601f19601f8201168201806040525081019061062a9190614d46565b6001600160a01b031663c489744b6007858154811061064b5761064b614d63565b6000918252602090912001546040516001600160e01b031960e084901b168152610683916001600160a01b0316903090600401614d79565b602060405180830381865afa1580156106a0573d6000803e3d6000fd5b505050506040513d601f19601f820116820180604052508101906106c49190614d93565b11156107e1576000805160206151628339815191526001600160a01b031663daabffe96040518163ffffffff1660e01b8152600401602060405180830381865afa158015610716573d6000803e3d6000fd5b505050506040513d601f19601f8201168201806040525081019061073a9190614d46565b6001600160a01b031663c489744b6007848154811061075b5761075b614d63565b6000918252602090912001546040516001600160e01b031960e084901b168152610793916001600160a01b0316903090600401614d79565b602060405180830381865afa1580156107b0573d6000803e3d6000fd5b505050506040513d601f19601f820116820180604052508101906107d49190614d93565b6107de9082614dd8565b90505b808383815181106107f4576107f4614d63565b602090810291909101015250600101610572565b50919050565b60075460609060009067ffffffffffffffff81111561082f5761082f614dac565b604051908082528060200260200182016040528015610858578160200160208202803683370190505b50905060005b60075481101561080857600860006007838154811061087f5761087f614d63565b60009182526020808320909101546001600160a01b0316835282019290925260400190205482518390839081106108b8576108b8614d63565b602090810291909101015260010161085e565b6108d361184a565b60005b600754811015610a105760006000805160206151628339815191526001600160a01b031663daabffe96040518163ffffffff1660e01b8152600401602060405180830381865afa15801561092e573d6000803e3d6000fd5b505050506040513d601f19601f820116820180604052508101906109529190614d46565b6001600160a01b031663c489744b6007848154811061097357610973614d63565b6000918252602090912001546040516001600160e01b031960e084901b1681526109ab916001600160a01b0316903090600401614d79565b602060405180830381865afa1580156109c8573d6000803e3d6000fd5b505050506040513d601f19601f820116820180604052508101906109ec9190614d93565b1115610a0857610a086007828154811061049757610497614d63565b6001016108d6565b50610a1961247e565b565b610a2361184a565b610a19600061273f565b60006000805160206151628339815191526001600160a01b031663daabffe96040518163ffffffff1660e01b8152600401602060405180830381865afa158015610a7b573d6000803e3d6000fd5b505050506040513d601f19601f82011682018060405250810190610a9f9190614d46565b6001600160a01b031663c489744b83306040518363ffffffff1660e01b8152600401610acc929190614d79565b602060405180830381865afa158015610ae9573d6000803e3d6000fd5b505050506040513d601f19601f82011682018060405250810190610b0d9190614d93565b92915050565b60075460609060009067ffffffffffffffff811115610b3457610b34614dac565b604051908082528060200260200182016040528015610b5d578160200160208202803683370190505b50905060005b600754811015610f835760006008600060078481548110610b8657610b86614d63565b60009182526020808320909101546001600160a01b03168352828101939093526040918201812054825163daabffe960e01b8152925190945090926000805160206151628339815191529263daabffe992600480830193928290030181865afa158015610bf7573d6000803e3d6000fd5b505050506040513d601f19601f82011682018060405250810190610c1b9190614d46565b6001600160a01b031663c489744b60078581548110610c3c57610c3c614d63565b6000918252602090912001546040516001600160e01b031960e084901b168152610c74916001600160a01b0316903090600401614d79565b602060405180830381865afa158015610c91573d6000803e3d6000fd5b505050506040513d601f19601f82011682018060405250810190610cb59190614d93565b1115610dd2576000805160206151628339815191526001600160a01b031663daabffe96040518163ffffffff1660e01b8152600401602060405180830381865afa158015610d07573d6000803e3d6000fd5b505050506040513d601f19601f82011682018060405250810190610d2b9190614d46565b6001600160a01b031663c489744b60078481548110610d4c57610d4c614d63565b6000918252602090912001546040516001600160e01b031960e084901b168152610d84916001600160a01b0316903090600401614d79565b602060405180830381865afa158015610da1573d6000803e3d6000fd5b505050506040513d601f19601f82011682018060405250810190610dc59190614d93565b610dcf9082614dd8565b90505b6000805160206151428339815191526001600160a01b031660078381548110610dfd57610dfd614d63565b6000918252602090912001546001600160a01b031614610f5a576000805160206151628339815191526001600160a01b031663588c2f146040518163ffffffff1660e01b8152600401602060405180830381865afa158015610e63573d6000803e3d6000fd5b505050506040513d601f19601f82011682018060405250810190610e879190614d46565b6001600160a01b03166384be330460078481548110610ea857610ea8614d63565b60009182526020909120015460405160e083901b6001600160e01b03191681526001600160a01b039091166004820152600080516020615142833981519152602482015260448101849052606401602060405180830381865afa158015610f13573d6000803e3d6000fd5b505050506040513d601f19601f82011682018060405250810190610f379190614d93565b838381518110610f4957610f49614d63565b602002602001018181525050610f7a565b80838381518110610f6d57610f6d614d63565b6020026020010181815250505b50600101610b63565b50610b0d81612791565b60606007805480602002602001604051908101604052809291908181526020018280548015610fe557602002820191906000526020600020905b81546001600160a01b03168152600190910190602001808311610fc7575b5050505050905090565b60006000805160206151628339815191526001600160a01b0316630c17c6296040518163ffffffff1660e01b8152600401602060405180830381865afa15801561103d573d6000803e3d6000fd5b505050506040513d601f19601f820116820180604052508101906110619190614d46565b6001600160a01b031663405ed0ef6040518163ffffffff1660e01b8152600401602060405180830381865afa15801561109e573d6000803e3d6000fd5b505050506040513d601f19601f820116820180604052508101906110c29190614d93565b905090565b60006110d161184a565b60006110db612a27565b905060005b600754811015610808576000805160206151628339815191526001600160a01b031663daabffe96040518163ffffffff1660e01b8152600401602060405180830381865afa158015611136573d6000803e3d6000fd5b505050506040513d601f19601f8201168201806040525081019061115a9190614d46565b6001600160a01b031663e96da4036007838154811061117b5761117b614d63565b60009182526020909120015460405160e083901b6001600160e01b03191681526001600160a01b039091166004820152602401602060405180830381865afa1580156111cb573d6000803e3d6000fd5b505050506040513d601f19601f820116820180604052508101906111ef9190614deb565b1515600114801561123b57506000600860006007848154811061121457611214614d63565b60009182526020808320909101546001600160a01b03168352820192909252604001902054115b15611270576112706007828154811061125657611256614d63565b6000918252602090912001546001600160a01b03166130da565b6001016110e0565b6000818154811061128857600080fd5b6000918252602090912001546001600160a01b0316905081565b6112aa61184a565b600580546001600160a01b0319166001600160a01b0392909216919091179055565b6112d461184a565b6001600160a01b0381166112fe57604051631e4fbdf760e01b815260006004820152602401610514565b6104c38161273f565b600061131b6001546001600160a01b031690565b6001600160a01b0316336001600160a01b0316148061135957506005546001600160a01b03163314801561135957506005546001600160a01b031615155b6113c25760405162461bcd60e51b815260206004820152603460248201527f4f6e6c792074686520616c6c6f776564206164647265737365732063616e20746044820152733934b3b3b2b9103a3434b990333ab731ba34b7b760611b6064820152608401610514565b60005b6007548110156114ff5760006000805160206151628339815191526001600160a01b031663daabffe96040518163ffffffff1660e01b8152600401602060405180830381865afa15801561141d573d6000803e3d6000fd5b505050506040513d601f19601f820116820180604052508101906114419190614d46565b6001600160a01b031663c489744b6007848154811061146257611462614d63565b6000918252602090912001546040516001600160e01b031960e084901b16815261149a916001600160a01b0316903090600401614d79565b602060405180830381865afa1580156114b7573d6000803e3d6000fd5b505050506040513d601f19601f820116820180604052508101906114db9190614d93565b11156114f7576114f76007828154811061049757610497614d63565b6001016113c5565b506000806000805160206151628339815191526001600160a01b0316630c17c6296040518163ffffffff1660e01b8152600401602060405180830381865afa15801561154f573d6000803e3d6000fd5b505050506040513d601f19601f820116820180604052508101906115739190614d46565b6001600160a01b0316633224da326040518163ffffffff1660e01b8152600401600060405180830381865afa1580156115b0573d6000803e3d6000fd5b505050506040513d6000823e601f3d908101601f191682016040526115d89190810190614ed1565b9150915060006000805160206151628339815191526001600160a01b0316630c17c6296040518163ffffffff1660e01b8152600401602060405180830381865afa15801561162a573d6000803e3d6000fd5b505050506040513d601f19601f8201168201806040525081019061164e9190614d46565b6001600160a01b0316632bb14e1d6040518163ffffffff1660e01b8152600401602060405180830381865afa15801561168b573d6000803e3d6000fd5b505050506040513d601f19601f820116820180604052508101906116af9190614d93565b905060006116be848484613399565b905060005b600754811015611841576000805160206151628339815191526001600160a01b031663daabffe96040518163ffffffff1660e01b8152600401602060405180830381865afa158015611719573d6000803e3d6000fd5b505050506040513d601f19601f8201168201806040525081019061173d9190614d46565b6001600160a01b031663e96da4036007838154811061175e5761175e614d63565b60009182526020909120015460405160e083901b6001600160e01b03191681526001600160a01b039091166004820152602401602060405180830381865afa1580156117ae573d6000803e3d6000fd5b505050506040513d601f19601f820116820180604052508101906117d29190614deb565b1515600114801561181e5750600060086000600784815481106117f7576117f7614d63565b60009182526020808320909101546001600160a01b03168352820192909252604001902054115b15611839576118396007828154811061125657611256614d63565b6001016116c3565b50935050505090565b6001546001600160a01b03163314610a195760405163118cdaa760e01b8152336004820152602401610514565b6000805160206151628339815191526001600160a01b031663daabffe96040518163ffffffff1660e01b8152600401602060405180830381865afa1580156118c3573d6000803e3d6000fd5b505050506040513d601f19601f820116820180604052508101906118e79190614d46565b60405163e96da40360e01b81526001600160a01b038381166004830152919091169063e96da40390602401602060405180830381865afa15801561192f573d6000803e3d6000fd5b505050506040513d601f19601f820116820180604052508101906119539190614deb565b61196f5760405162461bcd60e51b815260040161051490614f96565b60006000805160206151628339815191526001600160a01b031663daabffe96040518163ffffffff1660e01b8152600401602060405180830381865afa1580156119bd573d6000803e3d6000fd5b505050506040513d601f19601f820116820180604052508101906119e19190614d46565b6001600160a01b031663c489744b83306040518363ffffffff1660e01b8152600401611a0e929190614d79565b602060405180830381865afa158015611a2b573d6000803e3d6000fd5b505050506040513d601f19601f82011682018060405250810190611a4f9190614d93565b11611a9c5760405162461bcd60e51b815260206004820152601760248201527f546f6b656e20686173206e6f74206265656e206c656e740000000000000000006044820152606401610514565b60006000805160206151628339815191526001600160a01b031663daabffe96040518163ffffffff1660e01b8152600401602060405180830381865afa158015611aea573d6000803e3d6000fd5b505050506040513d601f19601f82011682018060405250810190611b0e9190614d46565b6001600160a01b031663c489744b83306040518363ffffffff1660e01b8152600401611b3b929190614d79565b602060405180830381865afa158015611b58573d6000803e3d6000fd5b505050506040513d601f19601f82011682018060405250810190611b7c9190614d93565b90506000805160206151628339815191526001600160a01b031663daabffe96040518163ffffffff1660e01b8152600401602060405180830381865afa158015611bca573d6000803e3d6000fd5b505050506040513d601f19601f82011682018060405250810190611bee9190614d46565b6040516326969b5f60e01b81526001600160a01b0384811660048301526024820184905291909116906326969b5f90604401600060405180830381600087803b158015611c3a57600080fd5b505af1158015611c4e573d6000803e3d6000fd5b505050506001600160a01b03821660009081526008602052604081208054839290611c7a908490614dd8565b90915550505050565b611c8b61184a565b60008111611ce65760405162461bcd60e51b815260206004820152602260248201527f596f75206d7573742070726f76696465206120706f73697469766520616d6f756044820152611b9d60f21b6064820152608401610514565b6000611cf160095490565b905060008111611d435760405162461bcd60e51b815260206004820152601760248201527f537570706c79207661726961626c65206973207a65726f0000000000000000006044820152606401610514565b6000805b60075481101561207f576000611d996008600060078581548110611d6d57611d6d614d63565b60009182526020808320909101546001600160a01b031683528201929092526040019020548686613b76565b90508015612076576000805160206151428339815191526001600160a01b031660078381548110611dcc57611dcc614d63565b6000918252602090912001546001600160a01b03161461201857611e9060078381548110611dfc57611dfc614d63565b9060005260206000200160009054906101000a90046001600160a01b03166000805160206151628339815191526001600160a01b031663588c2f146040518163ffffffff1660e01b8152600401602060405180830381865afa158015611e66573d6000803e3d6000fd5b505050506040513d601f19601f82011682018060405250810190611e8a9190614d46565b83613c3a565b60006000805160206151628339815191526001600160a01b031663588c2f146040518163ffffffff1660e01b8152600401602060405180830381865afa158015611ede573d6000803e3d6000fd5b505050506040513d601f19601f82011682018060405250810190611f029190614d46565b6001600160a01b031663d485d51260078581548110611f2357611f23614d63565b6000918252602090912001546006546040516001600160e01b031960e085901b168152611f6f926001600160a01b03169160008051602061514283398151915291889190600401614fd8565b6020604051808303816000875af1158015611f8e573d6000803e3d6000fd5b505050506040513d601f19601f82011682018060405250810190611fb29190614d93565b9050816008600060078681548110611fcc57611fcc614d63565b60009182526020808320909101546001600160a01b0316835282019290925260400181208054909190612000908490615001565b9091555061201090508185614dd8565b935050612076565b6120228184614dd8565b925080600860006007858154811061203c5761203c614d63565b60009182526020808320909101546001600160a01b0316835282019290925260400181208054909190612070908490615001565b90915550505b50600101611d47565b506002546040516370a0823160e01b815230600482015282916001600160a01b0316906370a0823190602401602060405180830381865afa1580156120c8573d6000803e3d6000fd5b505050506040513d601f19601f820116820180604052508101906120ec9190614d93565b101561214d5760405162461bcd60e51b815260206004820152602a60248201527f536d61727420636f6e747261637420646f6573206e6f74206861766520656e6f60448201526975676820746f6b656e7360b01b6064820152608401610514565b80156121b257600254604051632e1a7d4d60e01b8152600481018390526001600160a01b0390911690632e1a7d4d90602401600060405180830381600087803b15801561219957600080fd5b505af11580156121ad573d6000803e3d6000fd5b505050505b804710156122145760405162461bcd60e51b815260206004820152602960248201527f536d61727420636f6e747261637420646f6573206e6f74206861766520656e6f6044820152687567682066756e647360b81b6064820152608401610514565b6000620f42406000805160206151628339815191526001600160a01b0316630c17c6296040518163ffffffff1660e01b8152600401602060405180830381865afa158015612266573d6000803e3d6000fd5b505050506040513d601f19601f8201168201806040525081019061228a9190614d46565b6001600160a01b031663a786ab756040518163ffffffff1660e01b8152600401602060405180830381865afa1580156122c7573d6000803e3d6000fd5b505050506040513d601f19601f820116820180604052508101906122eb9190614d93565b6122f59084615014565b6122ff9190615041565b90506000805160206151628339815191526001600160a01b031663e00246046040518163ffffffff1660e01b8152600401602060405180830381865afa15801561234d573d6000803e3d6000fd5b505050506040513d601f19601f820116820180604052508101906123719190614d46565b6001600160a01b031663ed2dd19b826040518263ffffffff1660e01b81526004016000604051808303818588803b1580156123ab57600080fd5b505af11580156123bf573d6000803e3d6000fd5b505050505080826123d09190615001565b91506000821180156123e25750814710155b15612478576040513390600090829085908381818185875af1925050503d806000811461242b576040519150601f19603f3d011682016040523d82523d6000602084013e612430565b606091505b50509050806124755760405162461bcd60e51b815260206004820152601160248201527015da5d1a191c985dd85b0819985a5b1959607a1b6044820152606401610514565b50505b50505050565b61248661184a565b60005b6007548110156104c3576000600782815481106124a8576124a8614d63565b6000918252602090912001546040516370a0823160e01b81523060048201526001600160a01b03909116906370a0823190602401602060405180830381865afa1580156124f9573d6000803e3d6000fd5b505050506040513d601f19601f8201168201806040525081019061251d9190614d93565b90508015612736576000805160206151428339815191526001600160a01b03166007838154811061255057612550614d63565b6000918252602090912001546001600160a01b0316146125f35761259c6007838154811061258057612580614d63565b6000918252602090912001546001600160a01b03163383613d3a565b8060086000600785815481106125b4576125b4614d63565b60009182526020808320909101546001600160a01b03168352820192909252604001812080549091906125e8908490615001565b909155506127369050565b600254604051632e1a7d4d60e01b8152600481018390526001600160a01b0390911690632e1a7d4d90602401600060405180830381600087803b15801561263957600080fd5b505af115801561264d573d6000803e3d6000fd5b5050505080600860006007858154811061266957612669614d63565b60009182526020808320909101546001600160a01b031683528201929092526040018120805490919061269d908490615001565b909155505060405147903390600090829084908381818185875af1925050503d80600081146126e8576040519150601f19603f3d011682016040523d82523d6000602084013e6126ed565b606091505b50509050806127325760405162461bcd60e51b815260206004820152601160248201527015da5d1a191c985dd85b0819985a5b1959607a1b6044820152606401610514565b5050505b50600101612489565b600180546001600160a01b038381166001600160a01b0319831681179093556040519116919082907f8be0079c531659141344cd1fd0a4f28419497f9722a3daafe3b4186f6b6457e090600090a35050565b60606000805b83518110156127cf578381815181106127b2576127b2614d63565b6020026020010151826127c59190614dd8565b9150600101612797565b50806000036127df575090919050565b60005b83518110156128375761281284828151811061280057612800614d63565b6020026020010151620f424084613b76565b84828151811061282457612824614d63565b60209081029190910101526001016127e2565b50600090508080808061284e620f42406002615014565b905060005b87518162ffffff16101561299357878162ffffff168151811061287857612878614d63565b60200260200101518661288b9190614dd8565b955082888262ffffff16815181106128a5576128a5614d63565b60200260200101511180156128d857506000888262ffffff16815181106128ce576128ce614d63565b6020026020010151115b1561290757878162ffffff16815181106128f4576128f4614d63565b602002602001015192508062ffffff1694505b81888262ffffff168151811061291f5761291f614d63565b602002602001015110801561295257506000888262ffffff168151811061294857612948614d63565b6020026020010151115b1561298157878162ffffff168151811061296e5761296e614d63565b602002602001015191508062ffffff1693505b8061298b81615063565b915050612853565b50620f42408510156129da576129ac85620f4240615001565b8784815181106129be576129be614d63565b602002602001018181516129d29190614dd8565b905250612a1c565b620f4240851115612a1c576129f2620f424086615001565b878581518110612a0457612a04614d63565b60200260200101818151612a189190615001565b9052505b505050505090919050565b6000612a3161184a565b60003411612a815760405162461bcd60e51b815260206004820152601a60248201527f4e617469766520617373657473206d75737420626520706169640000000000006044820152606401610514565b6000620f42406000805160206151628339815191526001600160a01b0316630c17c6296040518163ffffffff1660e01b8152600401602060405180830381865afa158015612ad3573d6000803e3d6000fd5b505050506040513d601f19601f82011682018060405250810190612af79190614d46565b6001600160a01b031663a786ab756040518163ffffffff1660e01b8152600401602060405180830381865afa158015612b34573d6000803e3d6000fd5b505050506040513d601f19601f82011682018060405250810190612b589190614d93565b612b629034615014565b612b6c9190615041565b90506000805160206151628339815191526001600160a01b031663e00246046040518163ffffffff1660e01b8152600401602060405180830381865afa158015612bba573d6000803e3d6000fd5b505050506040513d601f19601f82011682018060405250810190612bde9190614d46565b6001600160a01b031663ed2dd19b826040518263ffffffff1660e01b81526004016000604051808303818588803b158015612c1857600080fd5b505af1158015612c2c573d6000803e3d6000fd5b505050505060008134612c3f9190615001565b9050600080612c4d60095490565b90506000612c59610b13565b90506000805b8251811015612c9757828181518110612c7a57612c7a614d63565b602002602001015182612c8d9190614dd8565b9150600101612c5f565b50801580612ca3575082155b15612d38576000805160206151428339815191526000908152600860205260008051602061518283398151915286905560025460408051630d0e30db60e41b815290518897506001600160a01b039092169263d0e30db0928892600480820193929182900301818588803b158015612d1a57600080fd5b505af1158015612d2e573d6000803e3d6000fd5b50505050506130cf565b6000612d42610522565b905060005b83518110156130cc576000848281518110612d6457612d64614d63565b602002602001015111156130c4576000620f4240858381518110612d8a57612d8a614d63565b602002602001015189612d9d9190615014565b612da79190615041565b90506000805160206151428339815191526001600160a01b031660078381548110612dd457612dd4614d63565b6000918252602090912001546001600160a01b031614612fbc5760006000805160206151628339815191526001600160a01b031663588c2f146040518163ffffffff1660e01b8152600401602060405180830381865afa158015612e3c573d6000803e3d6000fd5b505050506040513d601f19601f82011682018060405250810190612e609190614d46565b6001600160a01b031663e8204d2c8360078681548110612e8257612e82614d63565b60009182526020909120015460065460405160e085901b6001600160e01b03191681526001600160a01b039092166004830152602482015260440160206040518083038185885af1158015612edb573d6000803e3d6000fd5b50505050506040513d601f19601f82011682018060405250810190612f009190614d93565b9050612f5881878581518110612f1857612f18614d63565b602002602001015189612f2b9190615014565b620f4240878781518110612f4157612f41614d63565b6020026020010151612f539190615014565b613b76565b612f629089614dd8565b9750806008600060078681548110612f7c57612f7c614d63565b60009182526020808320909101546001600160a01b0316835282019290925260400181208054909190612fb0908490614dd8565b909155506130c2915050565b600260009054906101000a90046001600160a01b03166001600160a01b031663d0e30db0826040518263ffffffff1660e01b81526004016000604051808303818588803b15801561300c57600080fd5b505af1158015613020573d6000803e3d6000fd5b50505050506130648186848151811061303b5761303b614d63565b60200260200101518861304e9190615014565b620f4240868681518110612f4157612f41614d63565b61306e9088614dd8565b965080600860006007858154811061308857613088614d63565b60009182526020808320909101546001600160a01b03168352820192909252604001812080549091906130bc908490614dd8565b90915550505b505b600101612d47565b50505b509194505050505090565b6001600160a01b03811660009081526008602052604090205461313f5760405162461bcd60e51b815260206004820152601d60248201527f5573657220646f6573206e6f742068617665207468697320746f6b656e0000006044820152606401610514565b6001600160a01b03811660009081526008602090815260409182902054825163daabffe960e01b8152925190926000805160206151628339815191529263daabffe9926004808401938290030181865afa1580156131a1573d6000803e3d6000fd5b505050506040513d601f19601f820116820180604052508101906131c59190614d46565b60405163e96da40360e01b81526001600160a01b038481166004830152919091169063e96da40390602401602060405180830381865afa15801561320d573d6000803e3d6000fd5b505050506040513d601f19601f820116820180604052508101906132319190614deb565b61324d5760405162461bcd60e51b815260040161051490614f96565b61329d826000805160206151628339815191526001600160a01b031663daabffe96040518163ffffffff1660e01b8152600401602060405180830381865afa158015611e66573d6000803e3d6000fd5b6000805160206151628339815191526001600160a01b031663daabffe96040518163ffffffff1660e01b8152600401602060405180830381865afa1580156132e9573d6000803e3d6000fd5b505050506040513d601f19601f8201168201806040525081019061330d9190614d46565b604051632547035560e01b81526001600160a01b038481166004830152602482018490529190911690632547035590604401600060405180830381600087803b15801561335957600080fd5b505af115801561336d573d6000803e3d6000fd5b505050506001600160a01b03821660009081526008602052604081208054839290611c7a908490615001565b6000835160016133a99190614dd8565b8351146134375760405162461bcd60e51b815260206004820152605060248201527f54686520646973747269627574696f6e206172726179206c656e677468206d7560448201527f737420657175616c20746865206e756d626572206f66206e657720617373657460648201526f1cc80ac81b985d1a5d9948185cdcd95d60821b608482015260a401610514565b6000805b84518110156134735784818151811061345657613456614d63565b6020026020010151826134699190614dd8565b915060010161343b565b50620f424081146134c65760405162461bcd60e51b815260206004820152601f60248201527f446973747269627574696f6e206d757374206265206e6f726d616c697a6564006044820152606401610514565b600160005b865181101561363e578681815181106134e6576134e6614d63565b60200260200101516001600160a01b03166000805160206151428339815191526001600160a01b0316148061362c57506000805160206151628339815191526001600160a01b031663588c2f146040518163ffffffff1660e01b8152600401602060405180830381865afa158015613562573d6000803e3d6000fd5b505050506040513d601f19601f820116820180604052508101906135869190614d46565b6001600160a01b031663a3fcf6f68883815181106135a6576135a6614d63565b60200260200101516000805160206151428339815191526040518363ffffffff1660e01b81526004016135da929190614d79565b6060604051808303816000875af11580156135f9573d6000803e3d6000fd5b505050506040513d601f19601f8201168201806040525081019061361d9190615085565b604001516001600160801b0316155b1561363657600091505b6001016134cb565b508061368c5760405162461bcd60e51b815260206004820152601d60248201527f41727261797320616e64204665657320617265206e6f742076616c69640000006044820152606401610514565b60075415613a405760005b600754811015613a3e576136d2600782815481106136b7576136b7614d63565b6000918252602090912001546001600160a01b031688613e33565b15801561371a5750600060086000600784815481106136f3576136f3614d63565b60009182526020808320909101546001600160a01b03168352820192909252604001902054115b801561376457506000805160206151428339815191526001600160a01b03166007828154811061374c5761374c614d63565b6000918252602090912001546001600160a01b031614155b15613a365761384e6007828154811061377f5761377f614d63565b9060005260206000200160009054906101000a90046001600160a01b03166000805160206151628339815191526001600160a01b031663588c2f146040518163ffffffff1660e01b8152600401602060405180830381865afa1580156137e9573d6000803e3d6000fd5b505050506040513d601f19601f8201168201806040525081019061380d9190614d46565b600860006007868154811061382457613824614d63565b60009182526020808320909101546001600160a01b03168352820192909252604001902054613c3a565b60006000805160206151628339815191526001600160a01b031663588c2f146040518163ffffffff1660e01b8152600401602060405180830381865afa15801561389c573d6000803e3d6000fd5b505050506040513d601f19601f820116820180604052508101906138c09190614d46565b6001600160a01b031663d485d512600784815481106138e1576138e1614d63565b9060005260206000200160009054906101000a90046001600160a01b0316600080516020615142833981519152600860006007888154811061392557613925614d63565b60009182526020808320909101546001600160a01b0316835282019290925260409081019091205460065491516001600160e01b031960e087901b16815261397294939290600401614fd8565b6020604051808303816000875af1158015613991573d6000803e3d6000fd5b505050506040513d601f19601f820116820180604052508101906139b59190614d93565b9050600060086000600785815481106139d0576139d0614d63565b60009182526020808320909101546001600160a01b031683528281019390935260409091018120929092556000805160206151428339815191528252600890526000805160206151828339815191528054839290613a2f908490614dd8565b9091555050505b600101613697565b505b8551613a4d906001614dd8565b67ffffffffffffffff811115613a6557613a65614dac565b604051908082528060200260200182016040528015613a8e578160200160208202803683370190505b508051613aa391600791602090910190614bfc565b5060005b8651811015613b0e57868181518110613ac257613ac2614d63565b602002602001015160078281548110613add57613add614d63565b600091825260209091200180546001600160a01b0319166001600160a01b0392909216919091179055600101613aa7565b506000805160206151428339815191526007875181548110613b3257613b32614d63565b6000918252602082200180546001600160a01b0319166001600160a01b039390931692909217909155613b658686613e8e565b4260035593505050505b9392505050565b6000838302816000198587098281108382030391505080600003613bad57838281613ba357613ba361502b565b0492505050613b6f565b808411613bcd5760405163227bc15360e01b815260040160405180910390fd5b6000848688096000868103871696879004966002600389028118808a02820302808a02820302808a02820302808a02820302808a02820302808a02909103029181900381900460010186841190950394909402919094039290920491909117919091029150509392505050565b604080516001600160a01b038481166024830152604480830185905283518084039091018152606490920183526020820180516001600160e01b031663095ea7b360e01b1790529151600092839290871691613c969190615112565b6000604051808303816000865af19150503d8060008114613cd3576040519150601f19603f3d011682016040523d82523d6000602084013e613cd8565b606091505b5091509150818015613d02575080511580613d02575080806020019051810190613d029190614deb565b613d335760405162461bcd60e51b8152602060048201526002602482015261534160f01b6044820152606401610514565b5050505050565b604080516001600160a01b038481166024830152604480830185905283518084039091018152606490920183526020820180516001600160e01b031663a9059cbb60e01b1790529151600092839290871691613d969190615112565b6000604051808303816000865af19150503d8060008114613dd3576040519150601f19603f3d011682016040523d82523d6000602084013e613dd8565b606091505b5091509150818015613e02575080511580613e02575080806020019051810190613e029190614deb565b613d335760405162461bcd60e51b815260206004820152600260248201526114d560f21b6044820152606401610514565b6000805b8251811015613e8457836001600160a01b0316838281518110613e5c57613e5c614d63565b60200260200101516001600160a01b031603613e7c576001915050610b0d565b600101613e37565b5060009392505050565b600080613e99610b13565b90506000805b8251811015613ed757828181518110613eba57613eba614d63565b602002602001015182613ecd9190614dd8565b9150600101613e9f565b5080600003613eeb57600092505050610b0d565b6000805b8651811015613fd457868181518110613f0a57613f0a614d63565b6020026020010151848281518110613f2457613f24614d63565b60200260200101511115613f8157868181518110613f4457613f44614d63565b6020026020010151848281518110613f5e57613f5e614d63565b6020026020010151613f709190615001565b613f7a9083614dd8565b9150613fcc565b838181518110613f9357613f93614d63565b6020026020010151878281518110613fad57613fad614d63565b6020026020010151613fbf9190615001565b613fc99083614dd8565b91505b600101613eef565b50613fdd610fef565b613fe8906002615014565b811015613ffb5760009350505050610b0d565b6000836001855161400c9190615001565b8151811061401c5761401c614d63565b60209081029190910181015160008051602061514283398151915260009081526008909252600080516020615182833981519152549092506140629088620f4240613b76565b905060005b6007548110156144b85788818151811061408357614083614d63565b602002602001015186828151811061409d5761409d614d63565b60200260200101511180156140f057506000805160206151428339815191526001600160a01b0316600782815481106140d8576140d8614d63565b6000918252602090912001546001600160a01b031614155b156144b0576000614140600860006007858154811061411157614111614d63565b60009182526020808320909101546001600160a01b031683528201929092526040019020548a620f4240613b76565b905060008a838151811061415657614156614d63565b602002602001015188848151811061417057614170614d63565b60200260200101516141829190615001565b905060006141f08360086000600788815481106141a1576141a1614d63565b60009182526020808320909101546001600160a01b031683528201929092526040019020546141d09190615001565b838b87815181106141e3576141e3614d63565b6020026020010151613b76565b90506142a56007858154811061420857614208614d63565b9060005260206000200160009054906101000a90046001600160a01b03166000805160206151628339815191526001600160a01b031663588c2f146040518163ffffffff1660e01b8152600401602060405180830381865afa158015614272573d6000803e3d6000fd5b505050506040513d601f19601f820116820180604052508101906142969190614d46565b6142a08685614dd8565b613c3a565b60006000805160206151628339815191526001600160a01b031663588c2f146040518163ffffffff1660e01b8152600401602060405180830381865afa1580156142f3573d6000803e3d6000fd5b505050506040513d601f19601f820116820180604052508101906143179190614d46565b6001600160a01b031663d485d5126007878154811061433857614338614d63565b6000918252602090912001546006546040516001600160e01b031960e085901b168152614384926001600160a01b03169160008051602061514283398151915291889190600401614fd8565b6020604051808303816000875af11580156143a3573d6000803e3d6000fd5b505050506040513d601f19601f820116820180604052508101906143c79190614d93565b905060006143d58386614dd8565b1115614406576143e58285614dd8565b6143ef8583615014565b6143f99190615041565b6144039087614dd8565b95505b60008051602061514283398151915260009081526008602052600080516020615182833981519152805483929061443e908490614dd8565b9091555061444e90508483614dd8565b600860006007888154811061446557614465614d63565b60009182526020808320909101546001600160a01b0316835282019290925260400181208054909190614499908490615001565b909155506144a990508388614dd8565b9650505050505b600101614067565b5060008051602061514283398151915260009081526008602052600080516020615182833981519152546144ed908390615001565b905060005b6007548110156147f15786818151811061450e5761450e614d63565b60200260200101518a828151811061452857614528614d63565b602002602001015111801561457b57506000805160206151428339815191526001600160a01b03166007828154811061456357614563614d63565b6000918252602090912001546001600160a01b031614155b156147e957600087828151811061459457614594614d63565b60200260200101518b83815181106145ae576145ae614d63565b60200260200101516145c09190615001565b905060006145cf848388613b76565b905061462f6000805160206151428339815191526000805160206151628339815191526001600160a01b031663588c2f146040518163ffffffff1660e01b8152600401602060405180830381865afa158015611e66573d6000803e3d6000fd5b60006000805160206151628339815191526001600160a01b031663588c2f146040518163ffffffff1660e01b8152600401602060405180830381865afa15801561467d573d6000803e3d6000fd5b505050506040513d601f19601f820116820180604052508101906146a19190614d46565b6001600160a01b031663d485d512600080516020615142833981519152600787815481106146d1576146d1614d63565b6000918252602090912001546006546040516001600160e01b031960e086901b16815261470d93926001600160a01b0316918891600401614fd8565b6020604051808303816000875af115801561472c573d6000803e3d6000fd5b505050506040513d601f19601f820116820180604052508101906147509190614d93565b600080516020615142833981519152600090815260086020526000805160206151828339815191528054929350849290919061478d908490615001565b925050819055508060086000600787815481106147ac576147ac614d63565b60009182526020808320909101546001600160a01b03168352820192909252604001812080549091906147e0908490614dd8565b90915550505050505b6001016144f2565b508115614bcd57600080516020615142833981519152600090815260086020526000805160206151828339815191528054849290614830908490615001565b9091555050600254604051632e1a7d4d60e01b8152600481018490526001600160a01b0390911690632e1a7d4d90602401600060405180830381600087803b15801561487b57600080fd5b505af115801561488f573d6000803e3d6000fd5b505050506000805160206151628339815191526001600160a01b0316630c17c6296040518163ffffffff1660e01b8152600401602060405180830381865afa1580156148df573d6000803e3d6000fd5b505050506040513d601f19601f820116820180604052508101906149039190614d46565b6001600160a01b0316632bb14e1d6040518163ffffffff1660e01b8152600401602060405180830381865afa158015614940573d6000803e3d6000fd5b505050506040513d601f19601f820116820180604052508101906149649190614d93565b8803614a32576000805160206151628339815191526001600160a01b031663e00246046040518163ffffffff1660e01b8152600401602060405180830381865afa1580156149b6573d6000803e3d6000fd5b505050506040513d601f19601f820116820180604052508101906149da9190614d46565b6001600160a01b031663d31c83f2836040518263ffffffff1660e01b81526004016000604051808303818588803b158015614a1457600080fd5b505af1158015614a28573d6000803e3d6000fd5b5050505050614bcd565b6000805160206151628339815191526001600160a01b0316630c17c6296040518163ffffffff1660e01b8152600401602060405180830381865afa158015614a7e573d6000803e3d6000fd5b505050506040513d601f19601f82011682018060405250810190614aa29190614d46565b6001600160a01b031663242331a86040518163ffffffff1660e01b8152600401602060405180830381865afa158015614adf573d6000803e3d6000fd5b505050506040513d601f19601f82011682018060405250810190614b039190614d93565b8803614bcd576000805160206151628339815191526001600160a01b031663e00246046040518163ffffffff1660e01b8152600401602060405180830381865afa158015614b55573d6000803e3d6000fd5b505050506040513d601f19601f82011682018060405250810190614b799190614d46565b6001600160a01b031663ed2dd19b836040518263ffffffff1660e01b81526004016000604051808303818588803b158015614bb357600080fd5b505af1158015614bc7573d6000803e3d6000fd5b50505050505b620f424088614bdb60095490565b614be59190615014565b614bef9190615041565b9998505050505050505050565b828054828255906000526020600020908101928215614c51579160200282015b82811115614c5157825182546001600160a01b0319166001600160a01b03909116178255602090920191600190910190614c1c565b50614c5d929150614c61565b5090565b5b80821115614c5d5760008155600101614c62565b600060208284031215614c8857600080fd5b5035919050565b6020808252825182820181905260009190848201906040850190845b81811015614cc757835183529284019291840191600101614cab565b50909695505050505050565b6001600160a01b03811681146104c357600080fd5b600060208284031215614cfa57600080fd5b8135613b6f81614cd3565b6020808252825182820181905260009190848201906040850190845b81811015614cc75783516001600160a01b031683529284019291840191600101614d21565b600060208284031215614d5857600080fd5b8151613b6f81614cd3565b634e487b7160e01b600052603260045260246000fd5b6001600160a01b0392831681529116602082015260400190565b600060208284031215614da557600080fd5b5051919050565b634e487b7160e01b600052604160045260246000fd5b634e487b7160e01b600052601160045260246000fd5b80820180821115610b0d57610b0d614dc2565b600060208284031215614dfd57600080fd5b81518015158114613b6f57600080fd5b604051601f8201601f1916810167ffffffffffffffff81118282101715614e3657614e36614dac565b604052919050565b600067ffffffffffffffff821115614e5857614e58614dac565b5060051b60200190565b600082601f830112614e7357600080fd5b81516020614e88614e8383614e3e565b614e0d565b8083825260208201915060208460051b870101935086841115614eaa57600080fd5b602086015b84811015614ec65780518352918301918301614eaf565b509695505050505050565b60008060408385031215614ee457600080fd5b825167ffffffffffffffff80821115614efc57600080fd5b818501915085601f830112614f1057600080fd5b81516020614f20614e8383614e3e565b82815260059290921b84018101918181019089841115614f3f57600080fd5b948201945b83861015614f66578551614f5781614cd3565b82529482019490820190614f44565b91880151919650909350505080821115614f7f57600080fd5b50614f8c85828601614e62565b9150509250929050565b60208082526022908201527f546f6b656e206973206e6f7420617661696c61626c6520666f72206c656e64696040820152616e6760f01b606082015260800190565b6001600160a01b0394851681529290931660208301526040820152606081019190915260800190565b81810381811115610b0d57610b0d614dc2565b8082028115828204841417610b0d57610b0d614dc2565b634e487b7160e01b600052601260045260246000fd5b60008261505e57634e487b7160e01b600052601260045260246000fd5b500490565b600062ffffff80831681810361507b5761507b614dc2565b6001019392505050565b60006060828403121561509757600080fd5b6040516060810181811067ffffffffffffffff821117156150ba576150ba614dac565b604052825161ffff811681146150cf57600080fd5b8152602083015162ffffff811681146150e757600080fd5b602082015260408301516001600160801b038116811461510657600080fd5b60408201529392505050565b6000825160005b818110156151335760208186018101518583015201615119565b50600092019182525091905056fe00000000000000000000000082af49447d8a07e3bd95bd0d56f35241523fbab10000000000000000000000005615deb798bb3e4dfa0139dfa1b3d433cc23b72fce09d406285d0d98f8d7856cf5337fcbd8f91b9d4e3f0ab0ea2741da37b2c6fba2646970667358221220b749ba698ec8faeb1e1c33223f5e250de490ff291a5c95c3fe7e9aedbf9826e164736f6c63430008190033a2646970667358221220210b0af3caae7d5e64b4d6d4f26553607defe2a7152e233bde53dc922f06f99064736f6c63430008190033","linkReferences":{}},"methodIdentifiers":{"activeIndexPortfolio(address)":"58321c7a","createIndexPortfolio()":"97917172","getUserFromIndexPortfolioAddress(address)":"44554015","getUserIndexPortfolioAddress(address)":"d5c4c529","indexPortfolioUser(address)":"a4d12c57","isIndexPortfolioActive(address)":"bb306e38","tokenAddressesInit(uint256)":"d60f3fd5","userIndexPortfolio(address)":"554c219f"},"id":3}