{"abi":[{"type":"function","name":"depositWithdrawFee","inputs":[],"outputs":[{"name":"","type":"uint256","internalType":"uint256"}],"stateMutability":"pure"}],"bytecode":{"object":"0x6080604052348015600f57600080fd5b5060b680601d6000396000f3fe6080604052348015600f57600080fd5b506004361060285760003560e01c8063a786ab7514602d575b600080fd5b60336047565b604051603e91906067565b60405180910390f35b60006001905090565b6000819050919050565b6061816050565b82525050565b6000602082019050607a6000830184605a565b9291505056fea2646970667358221220889c6cce256005088bd7c8117cf719b254886bfb3ac02cffe78f67ab19aa55f064736f6c63430008190033","linkReferences":{}},"methodIdentifiers":{"depositWithdrawFee()":"a786ab75"},"storageLayout":{"storage":[],"types":{}},"id":66}