{"abi":[{"type":"function","name":"deposit","inputs":[],"outputs":[],"stateMutability":"payable"},{"type":"function","name":"withdraw","inputs":[{"name":"","type":"uint256","internalType":"uint256"}],"outputs":[],"stateMutability":"nonpayable"}],"bytecode":{"object":"0x6080604052348015600f57600080fd5b5060f08061001e6000396000f3fe60806040526004361060265760003560e01c80632e1a7d4d14602b578063d0e30db014604f575b600080fd5b348015603657600080fd5b50604d6004803603810190604991906092565b6057565b005b6055605a565b005b50565b565b600080fd5b6000819050919050565b6072816061565b8114607c57600080fd5b50565b600081359050608c81606b565b92915050565b60006020828403121560a55760a4605c565b5b600060b184828501607f565b9150509291505056fea2646970667358221220e455c584964213361e13c97577f6573f4f4bb7b9e35c94d4057b7fadd58cc5e864736f6c63430008190033","linkReferences":{}},"methodIdentifiers":{"deposit()":"d0e30db0","withdraw(uint256)":"2e1a7d4d"},"storageLayout":{"storage":[],"types":{}},"id":66}