{"abi":[{"type":"function","name":"depositGeneralFee","inputs":[],"outputs":[],"stateMutability":"payable"}],"bytecode":{"object":"0x6080604052348015600f57600080fd5b50605980601d6000396000f3fe608060405260043610601c5760003560e01c8063ed2dd19b146021575b600080fd5b00fea26469706673582212201be3c44228e62d6b155e2bb8c62251ee9bebf44608bf3610766bf5e2cbb85aeb64736f6c63430008190033","linkReferences":{}},"deployedBytecode":{"object":"0x608060405260043610601c5760003560e01c8063ed2dd19b146021575b600080fd5b00fea26469706673582212201be3c44228e62d6b155e2bb8c62251ee9bebf44608bf3610766bf5e2cbb85aeb64736f6c63430008190033","linkReferences":{}},"methodIdentifiers":{"depositGeneralFee()":"ed2dd19b"},"storageLayout":{"storage":[],"types":{}},"id":73}