{"abi":[{"type":"constructor","inputs":[{"name":"_assetManager","type":"address","internalType":"address"},{"name":"_treasury","type":"address","internalType":"address"},{"name":"_swapContract","type":"address","internalType":"address"}],"stateMutability":"nonpayable"},{"type":"function","name":"assetManager","inputs":[],"outputs":[{"name":"","type":"address","internalType":"address"}],"stateMutability":"view"},{"type":"function","name":"getAssetManagerAddress","inputs":[],"outputs":[{"name":"","type":"address","internalType":"address"}],"stateMutability":"view"},{"type":"function","name":"getSwapContractAddress","inputs":[],"outputs":[{"name":"","type":"address","internalType":"address"}],"stateMutability":"view"},{"type":"function","name":"getTreasuryAddress","inputs":[],"outputs":[{"name":"","type":"address","internalType":"address"}],"stateMutability":"view"},{"type":"function","name":"swapContract","inputs":[],"outputs":[{"name":"","type":"address","internalType":"address"}],"stateMutability":"view"},{"type":"function","name":"treasury","inputs":[],"outputs":[{"name":"","type":"address","internalType":"address"}],"stateMutability":"view"}],"bytecode":{"object":"0x608060405234801561001057600080fd5b5060405161045b38038061045b8339818101604052810190610032919061015f565b826000806101000a81548173ffffffffffffffffffffffffffffffffffffffff021916908373ffffffffffffffffffffffffffffffffffffffff16021790555081600160006101000a81548173ffffffffffffffffffffffffffffffffffffffff021916908373ffffffffffffffffffffffffffffffffffffffff16021790555080600260006101000a81548173ffffffffffffffffffffffffffffffffffffffff021916908373ffffffffffffffffffffffffffffffffffffffff1602179055505050506101b2565b600080fd5b600073ffffffffffffffffffffffffffffffffffffffff82169050919050565b600061012c82610101565b9050919050565b61013c81610121565b811461014757600080fd5b50565b60008151905061015981610133565b92915050565b600080600060608486031215610178576101776100fc565b5b60006101868682870161014a565b93505060206101978682870161014a565b92505060406101a88682870161014a565b9150509250925092565b61029a806101c16000396000f3fe608060405234801561001057600080fd5b50600436106100625760003560e01c80630c17c62914610067578063588c2f141461008557806361d027b3146100a35780638ea83031146100c157806394217ad1146100df578063e0024604146100fd575b600080fd5b61006f61011b565b60405161007c9190610249565b60405180910390f35b61008d610144565b60405161009a9190610249565b60405180910390f35b6100ab61016e565b6040516100b89190610249565b60405180910390f35b6100c9610194565b6040516100d69190610249565b60405180910390f35b6100e76101ba565b6040516100f49190610249565b60405180910390f35b6101056101de565b6040516101129190610249565b60405180910390f35b60008060009054906101000a900473ffffffffffffffffffffffffffffffffffffffff16905090565b6000600260009054906101000a900473ffffffffffffffffffffffffffffffffffffffff16905090565b600160009054906101000a900473ffffffffffffffffffffffffffffffffffffffff1681565b600260009054906101000a900473ffffffffffffffffffffffffffffffffffffffff1681565b60008054906101000a900473ffffffffffffffffffffffffffffffffffffffff1681565b6000600160009054906101000a900473ffffffffffffffffffffffffffffffffffffffff16905090565b600073ffffffffffffffffffffffffffffffffffffffff82169050919050565b600061023382610208565b9050919050565b61024381610228565b82525050565b600060208201905061025e600083018461023a565b9291505056fea2646970667358221220abb26fb466d7ce0cf0c182ad808cb6aae3f513bf9f89ea335460a27f9cccbfbb64736f6c63430008190033","linkReferences":{}},"methodIdentifiers":{"assetManager()":"94217ad1","getAssetManagerAddress()":"0c17c629","getSwapContractAddress()":"588c2f14","getTreasuryAddress()":"e0024604","swapContract()":"8ea83031","treasury()":"61d027b3"},"storageLayout":{"storage":[{"astId":63181,"contract":"test/mocks/MockContracts.sol:MockWEDXGroup","label":"assetManager","offset":0,"slot":"0","type":"t_address"},{"astId":63183,"contract":"test/mocks/MockContracts.sol:MockWEDXGroup","label":"treasury","offset":0,"slot":"1","type":"t_address"},{"astId":63185,"contract":"test/mocks/MockContracts.sol:MockWEDXGroup","label":"swapContract","offset":0,"slot":"2","type":"t_address"}],"types":{"t_address":{"encoding":"inplace","label":"address","numberOfBytes":"20"}}},"id":66}