{"abi":[{"type":"constructor","inputs":[{"name":"_assetManager","type":"address","internalType":"address"},{"name":"_treasury","type":"address","internalType":"address"},{"name":"_swapContract","type":"address","internalType":"address"}],"stateMutability":"nonpayable"},{"type":"function","name":"assetManager","inputs":[],"outputs":[{"name":"","type":"address","internalType":"address"}],"stateMutability":"view"},{"type":"function","name":"getAssetManagerAddress","inputs":[],"outputs":[{"name":"","type":"address","internalType":"address"}],"stateMutability":"view"},{"type":"function","name":"getSwapContractAddress","inputs":[],"outputs":[{"name":"","type":"address","internalType":"address"}],"stateMutability":"view"},{"type":"function","name":"getTreasuryAddress","inputs":[],"outputs":[{"name":"","type":"address","internalType":"address"}],"stateMutability":"view"},{"type":"function","name":"swapContract","inputs":[],"outputs":[{"name":"","type":"address","internalType":"address"}],"stateMutability":"view"},{"type":"function","name":"treasury","inputs":[],"outputs":[{"name":"","type":"address","internalType":"address"}],"stateMutability":"view"}],"bytecode":{"object":"0x6080604052348015600f57600080fd5b506040516101e73803806101e7833981016040819052602c916088565b600080546001600160a01b039485166001600160a01b03199182161790915560018054938516938216939093179092556002805491909316911617905560c4565b80516001600160a01b0381168114608357600080fd5b919050565b600080600060608486031215609c57600080fd5b60a384606d565b925060af60208501606d565b915060bb60408501606d565b90509250925092565b610114806100d36000396000f3fe6080604052348015600f57600080fd5b5060043610605a5760003560e01c80630c17c62914605f578063588c2f1414608857806361d027b31460985780638ea830311460aa57806394217ad11460bc578063e00246041460ce575b600080fd5b6000546001600160a01b03165b6040516001600160a01b03909116815260200160405180910390f35b6002546001600160a01b0316606c565b600154606c906001600160a01b031681565b600254606c906001600160a01b031681565b600054606c906001600160a01b031681565b6001546001600160a01b0316606c56fea2646970667358221220b6dfea4e7f6703cebb6f05a13b4ea1138b063b3bfbdd2969c28aef667b2a81b964736f6c63430008190033","linkReferences":{}},"methodIdentifiers":{"assetManager()":"94217ad1","getAssetManagerAddress()":"0c17c629","getSwapContractAddress()":"588c2f14","getTreasuryAddress()":"e0024604","swapContract()":"8ea83031","treasury()":"61d027b3"},"storageLayout":{"storage":[{"astId":71508,"contract":"test/mocks/MockContracts.sol:MockWEDXGroup","label":"assetManager","offset":0,"slot":"0","type":"t_address"},{"astId":71510,"contract":"test/mocks/MockContracts.sol:MockWEDXGroup","label":"treasury","offset":0,"slot":"1","type":"t_address"},{"astId":71512,"contract":"test/mocks/MockContracts.sol:MockWEDXGroup","label":"swapContract","offset":0,"slot":"2","type":"t_address"}],"types":{"t_address":{"encoding":"inplace","label":"address","numberOfBytes":"20"}}},"id":75}