{"abi":[{"type":"constructor","inputs":[],"stateMutability":"nonpayable"},{"type":"function","name":"collectToken","inputs":[{"name":"tokenAddress","type":"address","internalType":"address"},{"name":"amount","type":"uint256","internalType":"uint256"}],"outputs":[],"stateMutability":"nonpayable"},{"type":"function","name":"getTokenBalance","inputs":[{"name":"tokenAddress","type":"address","internalType":"address"},{"name":"account","type":"address","internalType":"address"}],"outputs":[{"name":"","type":"uint256","internalType":"uint256"}],"stateMutability":"view"},{"type":"function","name":"isLoanPossible","inputs":[{"name":"tokenAddress","type":"address","internalType":"address"}],"outputs":[{"name":"","type":"bool","internalType":"bool"}],"stateMutability":"view"},{"type":"function","name":"lendToken","inputs":[{"name":"tokenAddress","type":"address","internalType":"address"},{"name":"amount","type":"uint256","internalType":"uint256"}],"outputs":[],"stateMutability":"nonpayable"}],"bytecode":{"object":"0x60a060405234801561001057600080fd5b5073a97684ead0e402dc232d5a977953df7ecbab3cdb60808190526040805163026b1d5f60e01b8152905163026b1d5f916004808201926020929091908290030181865afa158015610066573d6000803e3d6000fd5b505050506040513d601f19601f8201168201806040525081019061008a91906100ba565b600080546001600160a01b03929092166001600160a01b03199283168117909155600180549092161790556100ea565b6000602082840312156100cc57600080fd5b81516001600160a01b03811681146100e357600080fd5b9392505050565b608051611727610102600039600050506117276000f3fe608060405234801561001057600080fd5b506004361061004c5760003560e01c8063254703551461005157806326969b5f14610066578063c489744b14610079578063e96da4031461009f575b600080fd5b61006461005f36600461089d565b6100c2565b005b61006461007436600461089d565b6102c5565b61008c6100873660046108c9565b61047d565b6040519081526020015b60405180910390f35b6100b26100ad366004610902565b61052b565b6040519015158152602001610096565b604051636eb1769f60e11b815233600482015230602482015281906001600160a01b0384169063dd62ed3e90604401602060405180830381865afa15801561010e573d6000803e3d6000fd5b505050506040513d601f19601f820116820180604052508101906101329190610926565b10156101945760405162461bcd60e51b815260206004820152602660248201527f4e6f7420656e6f75676820616c6c6f77616e636520746f20736d61727420636f6044820152651b9d1c9858dd60d21b60648201526084015b60405180910390fd5b336000908152600260205260409020546001600160a01b031661021c576000306040516101c090610878565b6001600160a01b039091168152602001604051809103906000f0801580156101ec573d6000803e3d6000fd5b5033600090815260026020526040902080546001600160a01b0319166001600160a01b0392909216919091179055505b61022882333084610676565b3360009081526002602052604090205461024d9083906001600160a01b031683610778565b3360009081526002602052604090819020549051632547035560e01b81526001600160a01b0384811660048301526024820184905290911690632547035590604401600060405180830381600087803b1580156102a957600080fd5b505af11580156102bd573d6000803e3d6000fd5b505050505050565b336000908152600260205260409020546001600160a01b03166103365760405162461bcd60e51b8152602060048201526024808201527f5573657220646f65736e27742068617665206120636f6e7472616374207769746044820152636820757360e01b606482015260840161018b565b33600090815260026020526040908190205490516326969b5f60e01b81526001600160a01b03848116600483015260248201849052909116906326969b5f90604401600060405180830381600087803b15801561039257600080fd5b505af11580156103a6573d6000803e3d6000fd5b50506040516370a0823160e01b81523060048201528392506001600160a01b03851691506370a0823190602401602060405180830381865afa1580156103f0573d6000803e3d6000fd5b505050506040513d601f19601f820116820180604052508101906104149190610926565b101561046e5760405162461bcd60e51b8152602060048201526024808201527f4e6f7420656e6f7567682062616c616e636520696e20736d61727420636f6e746044820152631c9858dd60e21b606482015260840161018b565b610479823383610778565b5050565b6001600160a01b038181166000908152600260205260408120549091166104a657506000610525565b3360009081526002602052604090819020549051633aecd0e360e01b81526001600160a01b03858116600483015290911690633aecd0e390602401602060405180830381865afa1580156104fe573d6000803e3d6000fd5b505050506040513d601f19601f820116820180604052508101906105229190610926565b90505b92915050565b6001546040516335ea6a7560e01b81526001600160a01b03838116600483015260009283929116906335ea6a75906024016101e060405180830381865afa15801561057a573d6000803e3d6000fd5b505050506040513d601f19601f8201168201806040525081019061059e9190610a1e565b51516001546040516335ea6a7560e01b81526001600160a01b038681166004830152929350670100000000000000841615159267020000000000000085161515926710000000000000008616151592600092909116906335ea6a75906024016101e060405180830381865afa15801561061b573d6000803e3d6000fd5b505050506040513d601f19601f8201168201806040525081019061063f9190610a1e565b61010001516001600160a01b0316141580156106585750825b8015610662575081155b801561066c575080155b9695505050505050565b604080516001600160a01b0385811660248301528481166044830152606480830185905283518084039091018152608490920183526020820180516001600160e01b03166323b872dd60e01b17905291516000928392908816916106da9190610b41565b6000604051808303816000865af19150503d8060008114610717576040519150601f19603f3d011682016040523d82523d6000602084013e61071c565b606091505b50915091508180156107465750805115806107465750808060200190518101906107469190610b70565b6102bd5760405162461bcd60e51b815260206004820152600360248201526229aa2360e91b604482015260640161018b565b604080516001600160a01b038481166024830152604480830185905283518084039091018152606490920183526020820180516001600160e01b031663a9059cbb60e01b17905291516000928392908716916107d49190610b41565b6000604051808303816000865af19150503d8060008114610811576040519150601f19603f3d011682016040523d82523d6000602084013e610816565b606091505b50915091508180156108405750805115806108405750808060200190518101906108409190610b70565b6108715760405162461bcd60e51b815260206004820152600260248201526114d560f21b604482015260640161018b565b5050505050565b610b5f80610b9383390190565b6001600160a01b038116811461089a57600080fd5b50565b600080604083850312156108b057600080fd5b82356108bb81610885565b946020939093013593505050565b600080604083850312156108dc57600080fd5b82356108e781610885565b915060208301356108f781610885565b809150509250929050565b60006020828403121561091457600080fd5b813561091f81610885565b9392505050565b60006020828403121561093857600080fd5b5051919050565b6040516101e0810167ffffffffffffffff8111828210171561097157634e487b7160e01b600052604160045260246000fd5b60405290565b60006020828403121561098957600080fd5b6040516020810181811067ffffffffffffffff821117156109ba57634e487b7160e01b600052604160045260246000fd5b6040529151825250919050565b80516fffffffffffffffffffffffffffffffff811681146109e757600080fd5b919050565b805164ffffffffff811681146109e757600080fd5b805161ffff811681146109e757600080fd5b80516109e781610885565b60006101e08284031215610a3157600080fd5b610a3961093f565b610a438484610977565b8152610a51602084016109c7565b6020820152610a62604084016109c7565b6040820152610a73606084016109c7565b6060820152610a84608084016109c7565b6080820152610a9560a084016109c7565b60a0820152610aa660c084016109ec565b60c0820152610ab760e08401610a01565b60e0820152610100610aca818501610a13565b90820152610120610adc848201610a13565b90820152610140610aee848201610a13565b90820152610160610b00848201610a13565b90820152610180610b128482016109c7565b908201526101a0610b248482016109c7565b908201526101c0610b368482016109c7565b908201529392505050565b6000825160005b81811015610b625760208186018101518583015201610b48565b506000920191825250919050565b600060208284031215610b8257600080fd5b8151801515811461091f57600080fdfe60a060405234801561001057600080fd5b50604051610b5f380380610b5f83398101604081905261002f916100e9565b73a97684ead0e402dc232d5a977953df7ecbab3cdb60808190526040805163026b1d5f60e01b8152905163026b1d5f916004808201926020929091908290030181865afa158015610084573d6000803e3d6000fd5b505050506040513d601f19601f820116820180604052508101906100a891906100e9565b600080546001600160a01b039283166001600160a01b0319918216811790925560018054821690921790915560028054939092169216919091179055610119565b6000602082840312156100fb57600080fd5b81516001600160a01b038116811461011257600080fd5b9392505050565b608051610a2e61013160003960005050610a2e6000f3fe608060405234801561001057600080fd5b50600436106100415760003560e01c8063254703551461004657806326969b5f1461005b5780633aecd0e31461006e575b600080fd5b6100596100543660046106eb565b610093565b005b6100596100693660046106eb565b6102d0565b61008161007c366004610717565b610459565b60405190815260200160405180910390f35b6002546001600160a01b031633146100c65760405162461bcd60e51b81526004016100bd90610734565b60405180910390fd5b6040516370a0823160e01b815230600482015281906001600160a01b038416906370a0823190602401602060405180830381865afa15801561010c573d6000803e3d6000fd5b505050506040513d601f19601f820116820180604052508101906101309190610791565b101561018a5760405162461bcd60e51b8152602060048201526024808201527f4e6f7420656e6f7567682062616c616e636520696e20736d61727420636f6e746044820152631c9858dd60e21b60648201526084016100bd565b60005460405163095ea7b360e01b81526001600160a01b039182166004820152602481018390529083169063095ea7b3906044016020604051808303816000875af11580156101dd573d6000803e3d6000fd5b505050506040513d601f19601f8201168201806040525081019061020191906107aa565b6102595760405162461bcd60e51b815260206004820152602360248201527f5468697320636f6e747261637420686173206e6f7420656e6f75676820746f6b604482015262656e7360e81b60648201526084016100bd565b60015460405163617ba03760e01b81526001600160a01b03848116600483015260248201849052306044830152600060648301529091169063617ba03790608401600060405180830381600087803b1580156102b457600080fd5b505af11580156102c8573d6000803e3d6000fd5b505050505050565b6002546001600160a01b031633146102fa5760405162461bcd60e51b81526004016100bd90610734565b8061030483610459565b10156103695760405162461bcd60e51b815260206004820152602e60248201527f5468657265206973206e6f742073756666696369656e7420746f6b656e73206c60448201526d195b9d081d1bc818dbdb1b1958dd60921b60648201526084016100bd565b600081116103cc5760405162461bcd60e51b815260206004820152602a60248201527f546865726520617265206e6f74206c656e7420746f6b656e7320666f722074686044820152696973206164647265737360b01b60648201526084016100bd565b600154604051631a4ca37b60e21b81526001600160a01b03848116600483015260248201849052306044830152909116906369328dec906064016020604051808303816000875af1158015610425573d6000803e3d6000fd5b505050506040513d601f19601f820116820180604052508101906104499190610791565b506104558233836105d3565b5050565b6001546040516335ea6a7560e01b81526001600160a01b03838116600483015260009283929116906335ea6a75906024016101e060405180830381865afa1580156104a8573d6000803e3d6000fd5b505050506040513d601f19601f820116820180604052508101906104cc91906108a6565b61010001516001600160a01b0316036104e757506000919050565b6001546040516335ea6a7560e01b81526001600160a01b03848116600483015260009216906335ea6a75906024016101e060405180830381865afa158015610533573d6000803e3d6000fd5b505050506040513d601f19601f8201168201806040525081019061055791906108a6565b61010001516040516370a0823160e01b81523060048201529091506001600160a01b038216906370a0823190602401602060405180830381865afa1580156105a3573d6000803e3d6000fd5b505050506040513d601f19601f820116820180604052508101906105c79190610791565b9392505050565b919050565b604080516001600160a01b038481166024830152604480830185905283518084039091018152606490920183526020820180516001600160e01b031663a9059cbb60e01b179052915160009283929087169161062f91906109c9565b6000604051808303816000865af19150503d806000811461066c576040519150601f19603f3d011682016040523d82523d6000602084013e610671565b606091505b509150915081801561069b57508051158061069b57508080602001905181019061069b91906107aa565b6106cc5760405162461bcd60e51b815260206004820152600260248201526114d560f21b60448201526064016100bd565b5050505050565b6001600160a01b03811681146106e857600080fd5b50565b600080604083850312156106fe57600080fd5b8235610709816106d3565b946020939093013593505050565b60006020828403121561072957600080fd5b81356105c7816106d3565b60208082526039908201527f4f6e6c792074686520706172656e7420736d61727420636f6e7472616374732060408201527f63616e207472696767657220746869732066756e6374696f6e00000000000000606082015260800190565b6000602082840312156107a357600080fd5b5051919050565b6000602082840312156107bc57600080fd5b815180151581146105c757600080fd5b6040516101e0810167ffffffffffffffff811182821017156107fe57634e487b7160e01b600052604160045260246000fd5b60405290565b60006020828403121561081657600080fd5b6040516020810181811067ffffffffffffffff8211171561084757634e487b7160e01b600052604160045260246000fd5b6040529151825250919050565b80516fffffffffffffffffffffffffffffffff811681146105ce57600080fd5b805164ffffffffff811681146105ce57600080fd5b805161ffff811681146105ce57600080fd5b80516105ce816106d3565b60006101e082840312156108b957600080fd5b6108c16107cc565b6108cb8484610804565b81526108d960208401610854565b60208201526108ea60408401610854565b60408201526108fb60608401610854565b606082015261090c60808401610854565b608082015261091d60a08401610854565b60a082015261092e60c08401610874565b60c082015261093f60e08401610889565b60e082015261010061095281850161089b565b9082015261012061096484820161089b565b9082015261014061097684820161089b565b9082015261016061098884820161089b565b9082015261018061099a848201610854565b908201526101a06109ac848201610854565b908201526101c06109be848201610854565b908201529392505050565b6000825160005b818110156109ea57602081860181015185830152016109d0565b50600092019182525091905056fea26469706673582212201b33c50e9b0e5ce2b3133c313b76edd559ee0744ec234879d6a6ff3bc7983a6264736f6c63430008190033a264697066735822122099131fb5c5e7e79209acfba0a979b37c5180ad1f290b1d3fdab248f76666c88a64736f6c63430008190033","linkReferences":{}},"methodIdentifiers":{"collectToken(address,uint256)":"26969b5f","getTokenBalance(address,address)":"c489744b","isLoanPossible(address)":"e96da403","lendToken(address,uint256)":"25470355"},"id":11}