{"abi":[{"type":"constructor","inputs":[{"name":"initialOwner","type":"address","internalType":"address"}],"stateMutability":"nonpayable"},{"type":"receive","stateMutability":"payable"},{"type":"function","name":"changeDelegatedAddress","inputs":[{"name":"newAddress","type":"address","internalType":"address"}],"outputs":[],"stateMutability":"nonpayable"},{"type":"function","name":"changeMaxSlippage","inputs":[{"name":"newValue","type":"uint256","internalType":"uint256"}],"outputs":[],"stateMutability":"nonpayable"},{"type":"function","name":"deposit","inputs":[],"outputs":[{"name":"","type":"uint256","internalType":"uint256"}],"stateMutability":"payable"},{"type":"function","name":"getActualDistribution","inputs":[],"outputs":[{"name":"","type":"uint256[]","internalType":"uint256[]"}],"stateMutability":"view"},{"type":"function","name":"getAddresses","inputs":[],"outputs":[{"name":"","type":"address[]","internalType":"address[]"}],"stateMutability":"view"},{"type":"function","name":"getAmountLendToken","inputs":[{"name":"tokenAddress","type":"address","internalType":"address"}],"outputs":[{"name":"","type":"uint256","internalType":"uint256"}],"stateMutability":"view"},{"type":"function","name":"getAssets","inputs":[],"outputs":[{"name":"","type":"uint256[]","internalType":"uint256[]"}],"stateMutability":"view"},{"type":"function","name":"getAssetsExtended","inputs":[],"outputs":[{"name":"","type":"uint256[]","internalType":"uint256[]"}],"stateMutability":"view"},{"type":"function","name":"getDelegatedAddress","inputs":[],"outputs":[{"name":"","type":"address","internalType":"address"}],"stateMutability":"view"},{"type":"function","name":"getLastTimestamp","inputs":[],"outputs":[{"name":"","type":"uint256","internalType":"uint256"}],"stateMutability":"view"},{"type":"function","name":"getMinPercAllowance","inputs":[],"outputs":[{"name":"","type":"uint256","internalType":"uint256"}],"stateMutability":"view"},{"type":"function","name":"getSupply","inputs":[],"outputs":[{"name":"","type":"uint256","internalType":"uint256"}],"stateMutability":"view"},{"type":"function","name":"maxSlippage","inputs":[],"outputs":[{"name":"","type":"uint256","internalType":"uint256"}],"stateMutability":"view"},{"type":"function","name":"owner","inputs":[],"outputs":[{"name":"","type":"address","internalType":"address"}],"stateMutability":"view"},{"type":"function","name":"renounceOwnership","inputs":[],"outputs":[],"stateMutability":"nonpayable"},{"type":"function","name":"setPortfolio","inputs":[],"outputs":[{"name":"","type":"uint256","internalType":"uint256"}],"stateMutability":"nonpayable"},{"type":"function","name":"tokenAddressesInit","inputs":[{"name":"","type":"uint256","internalType":"uint256"}],"outputs":[{"name":"","type":"address","internalType":"address"}],"stateMutability":"view"},{"type":"function","name":"transferOwnership","inputs":[{"name":"newOwner","type":"address","internalType":"address"}],"outputs":[],"stateMutability":"nonpayable"},{"type":"function","name":"withdraw","inputs":[{"name":"amount","type":"uint256","internalType":"uint256"}],"outputs":[],"stateMutability":"nonpayable"},{"type":"function","name":"withdrawBruteForced","inputs":[],"outputs":[],"stateMutability":"nonpayable"},{"type":"event","name":"OwnershipTransferred","inputs":[{"name":"previousOwner","type":"address","indexed":true,"internalType":"address"},{"name":"newOwner","type":"address","indexed":true,"internalType":"address"}],"anonymous":false},{"type":"error","name":"MathOverflowedMulDiv","inputs":[]},{"type":"error","name":"OwnableInvalidOwner","inputs":[{"name":"owner","type":"address","internalType":"address"}]},{"type":"error","name":"OwnableUnauthorizedAccount","inputs":[{"name":"account","type":"address","internalType":"address"}]}],"bytecode":{"object":"0x60a06040527382af49447d8a07e3bd95bd0d56f35241523fbab1608090815261002c906000906001610149565b50614e20600455600580546001600160a01b031916905561138860065560008054610059916007916101ae565b50620f424060095534801561006d57600080fd5b5060405161520f38038061520f83398101604081905261008c91610203565b80806001600160a01b0381166100bc57604051631e4fbdf760e01b81526000600482015260240160405180910390fd5b6100c5816100f7565b5050600280546001600160a01b0319167382af49447d8a07e3bd95bd0d56f35241523fbab11790555042600355610233565b600180546001600160a01b038381166001600160a01b0319831681179093556040519116919082907f8be0079c531659141344cd1fd0a4f28419497f9722a3daafe3b4186f6b6457e090600090a35050565b82805482825590600052602060002090810192821561019e579160200282015b8281111561019e57825182546001600160a01b0319166001600160a01b03909116178255602090920191600190910190610169565b506101aa9291506101ee565b5090565b82805482825590600052602060002090810192821561019e5760005260206000209182015b8281111561019e5782548255916001019190600101906101d3565b5b808211156101aa57600081556001016101ef565b60006020828403121561021557600080fd5b81516001600160a01b038116811461022c57600080fd5b9392505050565b614fcd806102426000396000f3fe6080604052600436106101235760003560e01c80638c04166f116100a0578063d0e30db011610064578063d0e30db0146102dd578063d60f3fd5146102e5578063dca30f1514610305578063f2fde38b14610325578063ff904dd51461034557600080fd5b80638c04166f1461025d5780638da5cb5b1461027357806398b6cb4414610291578063a39fac12146102a6578063ce96952c146102c857600080fd5b806367e4ac2c116100e757806367e4ac2c146101e95780636c9c2faf146101fe57806370d4d73014610213578063715018a6146102285780637e8b217e1461023d57600080fd5b80632e1a7d4d1461012f57806336bd00681461015157806337899770146101715780634e0ebe631461019557806366774663146101c757600080fd5b3661012a57005b600080fd5b34801561013b57600080fd5b5061014f61014a366004614a8e565b61035a565b005b34801561015d57600080fd5b5061014f61016c366004614a8e565b6104c6565b34801561017d57600080fd5b506003545b6040519081526020015b60405180910390f35b3480156101a157600080fd5b506005546001600160a01b03165b6040516001600160a01b03909116815260200161018c565b3480156101d357600080fd5b506101dc610522565b60405161018c9190614aa7565b3480156101f557600080fd5b506101dc61080e565b34801561020a57600080fd5b50600954610182565b34801561021f57600080fd5b5061014f6108cb565b34801561023457600080fd5b5061014f610a1b565b34801561024957600080fd5b50610182610258366004614b00565b610a2d565b34801561026957600080fd5b5061018260065481565b34801561027f57600080fd5b506001546001600160a01b03166101af565b34801561029d57600080fd5b506101dc610b13565b3480156102b257600080fd5b506102bb610f8d565b60405161018c9190614b1d565b3480156102d457600080fd5b50610182610fef565b6101826110c7565b3480156102f157600080fd5b506101af610300366004614a8e565b611278565b34801561031157600080fd5b5061014f610320366004614b00565b6112a2565b34801561033157600080fd5b5061014f610340366004614b00565b6112cc565b34801561035157600080fd5b50610182611307565b61036261184a565b60005b6007548110156104b9576000600080516020614f588339815191526001600160a01b031663daabffe96040518163ffffffff1660e01b8152600401602060405180830381865afa1580156103bd573d6000803e3d6000fd5b505050506040513d601f19601f820116820180604052508101906103e19190614b5e565b6001600160a01b031663c489744b6007848154811061040257610402614b7b565b6000918252602090912001546040516001600160e01b031960e084901b16815261043a916001600160a01b0316903090600401614b91565b602060405180830381865afa158015610457573d6000803e3d6000fd5b505050506040513d601f19601f8201168201806040525081019061047b9190614bab565b11156104b1576104b16007828154811061049757610497614b7b565b6000918252602090912001546001600160a01b0316611877565b600101610365565b506104c381611c83565b50565b6104ce61184a565b620f424081111561051d5760405162461bcd60e51b8152602060048201526014602482015273496e76616c6964206d617820736c69707061676560601b60448201526064015b60405180910390fd5b600655565b60075460609060009067ffffffffffffffff81111561054357610543614bc4565b60405190808252806020026020018201604052801561056c578160200160208202803683370190505b50905060005b600754811015610808576000600860006007848154811061059557610595614b7b565b60009182526020808320909101546001600160a01b03168352828101939093526040918201812054825163daabffe960e01b815292519094509092600080516020614f588339815191529263daabffe992600480830193928290030181865afa158015610606573d6000803e3d6000fd5b505050506040513d601f19601f8201168201806040525081019061062a9190614b5e565b6001600160a01b031663c489744b6007858154811061064b5761064b614b7b565b6000918252602090912001546040516001600160e01b031960e084901b168152610683916001600160a01b0316903090600401614b91565b602060405180830381865afa1580156106a0573d6000803e3d6000fd5b505050506040513d601f19601f820116820180604052508101906106c49190614bab565b11156107e157600080516020614f588339815191526001600160a01b031663daabffe96040518163ffffffff1660e01b8152600401602060405180830381865afa158015610716573d6000803e3d6000fd5b505050506040513d601f19601f8201168201806040525081019061073a9190614b5e565b6001600160a01b031663c489744b6007848154811061075b5761075b614b7b565b6000918252602090912001546040516001600160e01b031960e084901b168152610793916001600160a01b0316903090600401614b91565b602060405180830381865afa1580156107b0573d6000803e3d6000fd5b505050506040513d601f19601f820116820180604052508101906107d49190614bab565b6107de9082614bf0565b90505b808383815181106107f4576107f4614b7b565b602090810291909101015250600101610572565b50919050565b60075460609060009067ffffffffffffffff81111561082f5761082f614bc4565b604051908082528060200260200182016040528015610858578160200160208202803683370190505b50905060005b60075481101561080857600860006007838154811061087f5761087f614b7b565b60009182526020808320909101546001600160a01b0316835282019290925260400190205482518390839081106108b8576108b8614b7b565b602090810291909101015260010161085e565b6108d361184a565b60005b600754811015610a10576000600080516020614f588339815191526001600160a01b031663daabffe96040518163ffffffff1660e01b8152600401602060405180830381865afa15801561092e573d6000803e3d6000fd5b505050506040513d601f19601f820116820180604052508101906109529190614b5e565b6001600160a01b031663c489744b6007848154811061097357610973614b7b565b6000918252602090912001546040516001600160e01b031960e084901b1681526109ab916001600160a01b0316903090600401614b91565b602060405180830381865afa1580156109c8573d6000803e3d6000fd5b505050506040513d601f19601f820116820180604052508101906109ec9190614bab565b1115610a0857610a086007828154811061049757610497614b7b565b6001016108d6565b50610a1961247e565b565b610a2361184a565b610a19600061273f565b6000600080516020614f588339815191526001600160a01b031663daabffe96040518163ffffffff1660e01b8152600401602060405180830381865afa158015610a7b573d6000803e3d6000fd5b505050506040513d601f19601f82011682018060405250810190610a9f9190614b5e565b6001600160a01b031663c489744b83306040518363ffffffff1660e01b8152600401610acc929190614b91565b602060405180830381865afa158015610ae9573d6000803e3d6000fd5b505050506040513d601f19601f82011682018060405250810190610b0d9190614bab565b92915050565b60075460609060009067ffffffffffffffff811115610b3457610b34614bc4565b604051908082528060200260200182016040528015610b5d578160200160208202803683370190505b50905060005b600754811015610f835760006008600060078481548110610b8657610b86614b7b565b60009182526020808320909101546001600160a01b03168352828101939093526040918201812054825163daabffe960e01b815292519094509092600080516020614f588339815191529263daabffe992600480830193928290030181865afa158015610bf7573d6000803e3d6000fd5b505050506040513d601f19601f82011682018060405250810190610c1b9190614b5e565b6001600160a01b031663c489744b60078581548110610c3c57610c3c614b7b565b6000918252602090912001546040516001600160e01b031960e084901b168152610c74916001600160a01b0316903090600401614b91565b602060405180830381865afa158015610c91573d6000803e3d6000fd5b505050506040513d601f19601f82011682018060405250810190610cb59190614bab565b1115610dd257600080516020614f588339815191526001600160a01b031663daabffe96040518163ffffffff1660e01b8152600401602060405180830381865afa158015610d07573d6000803e3d6000fd5b505050506040513d601f19601f82011682018060405250810190610d2b9190614b5e565b6001600160a01b031663c489744b60078481548110610d4c57610d4c614b7b565b6000918252602090912001546040516001600160e01b031960e084901b168152610d84916001600160a01b0316903090600401614b91565b602060405180830381865afa158015610da1573d6000803e3d6000fd5b505050506040513d601f19601f82011682018060405250810190610dc59190614bab565b610dcf9082614bf0565b90505b600080516020614f388339815191526001600160a01b031660078381548110610dfd57610dfd614b7b565b6000918252602090912001546001600160a01b031614610f5a57600080516020614f588339815191526001600160a01b031663588c2f146040518163ffffffff1660e01b8152600401602060405180830381865afa158015610e63573d6000803e3d6000fd5b505050506040513d601f19601f82011682018060405250810190610e879190614b5e565b6001600160a01b03166384be330460078481548110610ea857610ea8614b7b565b60009182526020909120015460405160e083901b6001600160e01b03191681526001600160a01b039091166004820152600080516020614f38833981519152602482015260448101849052606401602060405180830381865afa158015610f13573d6000803e3d6000fd5b505050506040513d601f19601f82011682018060405250810190610f379190614bab565b838381518110610f4957610f49614b7b565b602002602001018181525050610f7a565b80838381518110610f6d57610f6d614b7b565b6020026020010181815250505b50600101610b63565b50610b0d81612791565b60606007805480602002602001604051908101604052809291908181526020018280548015610fe557602002820191906000526020600020905b81546001600160a01b03168152600190910190602001808311610fc7575b5050505050905090565b6000600080516020614f588339815191526001600160a01b0316630c17c6296040518163ffffffff1660e01b8152600401602060405180830381865afa15801561103d573d6000803e3d6000fd5b505050506040513d601f19601f820116820180604052508101906110619190614b5e565b6001600160a01b031663405ed0ef6040518163ffffffff1660e01b8152600401602060405180830381865afa15801561109e573d6000803e3d6000fd5b505050506040513d601f19601f820116820180604052508101906110c29190614bab565b905090565b60006110d161184a565b60006110db61283f565b905060005b60075481101561080857600080516020614f588339815191526001600160a01b031663daabffe96040518163ffffffff1660e01b8152600401602060405180830381865afa158015611136573d6000803e3d6000fd5b505050506040513d601f19601f8201168201806040525081019061115a9190614b5e565b6001600160a01b031663e96da4036007838154811061117b5761117b614b7b565b60009182526020909120015460405160e083901b6001600160e01b03191681526001600160a01b039091166004820152602401602060405180830381865afa1580156111cb573d6000803e3d6000fd5b505050506040513d601f19601f820116820180604052508101906111ef9190614c03565b1515600114801561123b57506000600860006007848154811061121457611214614b7b565b60009182526020808320909101546001600160a01b03168352820192909252604001902054115b15611270576112706007828154811061125657611256614b7b565b6000918252602090912001546001600160a01b0316612ef2565b6001016110e0565b6000818154811061128857600080fd5b6000918252602090912001546001600160a01b0316905081565b6112aa61184a565b600580546001600160a01b0319166001600160a01b0392909216919091179055565b6112d461184a565b6001600160a01b0381166112fe57604051631e4fbdf760e01b815260006004820152602401610514565b6104c38161273f565b600061131b6001546001600160a01b031690565b6001600160a01b0316336001600160a01b0316148061135957506005546001600160a01b03163314801561135957506005546001600160a01b031615155b6113c25760405162461bcd60e51b815260206004820152603460248201527f4f6e6c792074686520616c6c6f776564206164647265737365732063616e20746044820152733934b3b3b2b9103a3434b990333ab731ba34b7b760611b6064820152608401610514565b60005b6007548110156114ff576000600080516020614f588339815191526001600160a01b031663daabffe96040518163ffffffff1660e01b8152600401602060405180830381865afa15801561141d573d6000803e3d6000fd5b505050506040513d601f19601f820116820180604052508101906114419190614b5e565b6001600160a01b031663c489744b6007848154811061146257611462614b7b565b6000918252602090912001546040516001600160e01b031960e084901b16815261149a916001600160a01b0316903090600401614b91565b602060405180830381865afa1580156114b7573d6000803e3d6000fd5b505050506040513d601f19601f820116820180604052508101906114db9190614bab565b11156114f7576114f76007828154811061049757610497614b7b565b6001016113c5565b50600080600080516020614f588339815191526001600160a01b0316630c17c6296040518163ffffffff1660e01b8152600401602060405180830381865afa15801561154f573d6000803e3d6000fd5b505050506040513d601f19601f820116820180604052508101906115739190614b5e565b6001600160a01b0316633224da326040518163ffffffff1660e01b8152600401600060405180830381865afa1580156115b0573d6000803e3d6000fd5b505050506040513d6000823e601f3d908101601f191682016040526115d89190810190614ce9565b915091506000600080516020614f588339815191526001600160a01b0316630c17c6296040518163ffffffff1660e01b8152600401602060405180830381865afa15801561162a573d6000803e3d6000fd5b505050506040513d601f19601f8201168201806040525081019061164e9190614b5e565b6001600160a01b0316632bb14e1d6040518163ffffffff1660e01b8152600401602060405180830381865afa15801561168b573d6000803e3d6000fd5b505050506040513d601f19601f820116820180604052508101906116af9190614bab565b905060006116be8484846131b1565b905060005b60075481101561184157600080516020614f588339815191526001600160a01b031663daabffe96040518163ffffffff1660e01b8152600401602060405180830381865afa158015611719573d6000803e3d6000fd5b505050506040513d601f19601f8201168201806040525081019061173d9190614b5e565b6001600160a01b031663e96da4036007838154811061175e5761175e614b7b565b60009182526020909120015460405160e083901b6001600160e01b03191681526001600160a01b039091166004820152602401602060405180830381865afa1580156117ae573d6000803e3d6000fd5b505050506040513d601f19601f820116820180604052508101906117d29190614c03565b1515600114801561181e5750600060086000600784815481106117f7576117f7614b7b565b60009182526020808320909101546001600160a01b03168352820192909252604001902054115b15611839576118396007828154811061125657611256614b7b565b6001016116c3565b50935050505090565b6001546001600160a01b03163314610a195760405163118cdaa760e01b8152336004820152602401610514565b600080516020614f588339815191526001600160a01b031663daabffe96040518163ffffffff1660e01b8152600401602060405180830381865afa1580156118c3573d6000803e3d6000fd5b505050506040513d601f19601f820116820180604052508101906118e79190614b5e565b60405163e96da40360e01b81526001600160a01b038381166004830152919091169063e96da40390602401602060405180830381865afa15801561192f573d6000803e3d6000fd5b505050506040513d601f19601f820116820180604052508101906119539190614c03565b61196f5760405162461bcd60e51b815260040161051490614dae565b6000600080516020614f588339815191526001600160a01b031663daabffe96040518163ffffffff1660e01b8152600401602060405180830381865afa1580156119bd573d6000803e3d6000fd5b505050506040513d601f19601f820116820180604052508101906119e19190614b5e565b6001600160a01b031663c489744b83306040518363ffffffff1660e01b8152600401611a0e929190614b91565b602060405180830381865afa158015611a2b573d6000803e3d6000fd5b505050506040513d601f19601f82011682018060405250810190611a4f9190614bab565b11611a9c5760405162461bcd60e51b815260206004820152601760248201527f546f6b656e20686173206e6f74206265656e206c656e740000000000000000006044820152606401610514565b6000600080516020614f588339815191526001600160a01b031663daabffe96040518163ffffffff1660e01b8152600401602060405180830381865afa158015611aea573d6000803e3d6000fd5b505050506040513d601f19601f82011682018060405250810190611b0e9190614b5e565b6001600160a01b031663c489744b83306040518363ffffffff1660e01b8152600401611b3b929190614b91565b602060405180830381865afa158015611b58573d6000803e3d6000fd5b505050506040513d601f19601f82011682018060405250810190611b7c9190614bab565b9050600080516020614f588339815191526001600160a01b031663daabffe96040518163ffffffff1660e01b8152600401602060405180830381865afa158015611bca573d6000803e3d6000fd5b505050506040513d601f19601f82011682018060405250810190611bee9190614b5e565b6040516326969b5f60e01b81526001600160a01b0384811660048301526024820184905291909116906326969b5f90604401600060405180830381600087803b158015611c3a57600080fd5b505af1158015611c4e573d6000803e3d6000fd5b505050506001600160a01b03821660009081526008602052604081208054839290611c7a908490614bf0565b90915550505050565b611c8b61184a565b60008111611ce65760405162461bcd60e51b815260206004820152602260248201527f596f75206d7573742070726f76696465206120706f73697469766520616d6f756044820152611b9d60f21b6064820152608401610514565b6000611cf160095490565b905060008111611d435760405162461bcd60e51b815260206004820152601760248201527f537570706c79207661726961626c65206973207a65726f0000000000000000006044820152606401610514565b6000805b60075481101561207f576000611d996008600060078581548110611d6d57611d6d614b7b565b60009182526020808320909101546001600160a01b03168352820192909252604001902054868661398e565b9050801561207657600080516020614f388339815191526001600160a01b031660078381548110611dcc57611dcc614b7b565b6000918252602090912001546001600160a01b03161461201857611e9060078381548110611dfc57611dfc614b7b565b9060005260206000200160009054906101000a90046001600160a01b0316600080516020614f588339815191526001600160a01b031663588c2f146040518163ffffffff1660e01b8152600401602060405180830381865afa158015611e66573d6000803e3d6000fd5b505050506040513d601f19601f82011682018060405250810190611e8a9190614b5e565b83613a52565b6000600080516020614f588339815191526001600160a01b031663588c2f146040518163ffffffff1660e01b8152600401602060405180830381865afa158015611ede573d6000803e3d6000fd5b505050506040513d601f19601f82011682018060405250810190611f029190614b5e565b6001600160a01b031663d485d51260078581548110611f2357611f23614b7b565b6000918252602090912001546006546040516001600160e01b031960e085901b168152611f6f926001600160a01b031691600080516020614f3883398151915291889190600401614df0565b6020604051808303816000875af1158015611f8e573d6000803e3d6000fd5b505050506040513d601f19601f82011682018060405250810190611fb29190614bab565b9050816008600060078681548110611fcc57611fcc614b7b565b60009182526020808320909101546001600160a01b0316835282019290925260400181208054909190612000908490614e19565b9091555061201090508185614bf0565b935050612076565b6120228184614bf0565b925080600860006007858154811061203c5761203c614b7b565b60009182526020808320909101546001600160a01b0316835282019290925260400181208054909190612070908490614e19565b90915550505b50600101611d47565b506002546040516370a0823160e01b815230600482015282916001600160a01b0316906370a0823190602401602060405180830381865afa1580156120c8573d6000803e3d6000fd5b505050506040513d601f19601f820116820180604052508101906120ec9190614bab565b101561214d5760405162461bcd60e51b815260206004820152602a60248201527f536d61727420636f6e747261637420646f6573206e6f74206861766520656e6f60448201526975676820746f6b656e7360b01b6064820152608401610514565b80156121b257600254604051632e1a7d4d60e01b8152600481018390526001600160a01b0390911690632e1a7d4d90602401600060405180830381600087803b15801561219957600080fd5b505af11580156121ad573d6000803e3d6000fd5b505050505b804710156122145760405162461bcd60e51b815260206004820152602960248201527f536d61727420636f6e747261637420646f6573206e6f74206861766520656e6f6044820152687567682066756e647360b81b6064820152608401610514565b6000620f4240600080516020614f588339815191526001600160a01b0316630c17c6296040518163ffffffff1660e01b8152600401602060405180830381865afa158015612266573d6000803e3d6000fd5b505050506040513d601f19601f8201168201806040525081019061228a9190614b5e565b6001600160a01b031663a786ab756040518163ffffffff1660e01b8152600401602060405180830381865afa1580156122c7573d6000803e3d6000fd5b505050506040513d601f19601f820116820180604052508101906122eb9190614bab565b6122f59084614e2c565b6122ff9190614e59565b9050600080516020614f588339815191526001600160a01b031663e00246046040518163ffffffff1660e01b8152600401602060405180830381865afa15801561234d573d6000803e3d6000fd5b505050506040513d601f19601f820116820180604052508101906123719190614b5e565b6001600160a01b031663ed2dd19b826040518263ffffffff1660e01b81526004016000604051808303818588803b1580156123ab57600080fd5b505af11580156123bf573d6000803e3d6000fd5b505050505080826123d09190614e19565b91506000821180156123e25750814710155b15612478576040513390600090829085908381818185875af1925050503d806000811461242b576040519150601f19603f3d011682016040523d82523d6000602084013e612430565b606091505b50509050806124755760405162461bcd60e51b815260206004820152601160248201527015da5d1a191c985dd85b0819985a5b1959607a1b6044820152606401610514565b50505b50505050565b61248661184a565b60005b6007548110156104c3576000600782815481106124a8576124a8614b7b565b6000918252602090912001546040516370a0823160e01b81523060048201526001600160a01b03909116906370a0823190602401602060405180830381865afa1580156124f9573d6000803e3d6000fd5b505050506040513d601f19601f8201168201806040525081019061251d9190614bab565b9050801561273657600080516020614f388339815191526001600160a01b03166007838154811061255057612550614b7b565b6000918252602090912001546001600160a01b0316146125f35761259c6007838154811061258057612580614b7b565b6000918252602090912001546001600160a01b03163383613b52565b8060086000600785815481106125b4576125b4614b7b565b60009182526020808320909101546001600160a01b03168352820192909252604001812080549091906125e8908490614e19565b909155506127369050565b600254604051632e1a7d4d60e01b8152600481018390526001600160a01b0390911690632e1a7d4d90602401600060405180830381600087803b15801561263957600080fd5b505af115801561264d573d6000803e3d6000fd5b5050505080600860006007858154811061266957612669614b7b565b60009182526020808320909101546001600160a01b031683528201929092526040018120805490919061269d908490614e19565b909155505060405147903390600090829084908381818185875af1925050503d80600081146126e8576040519150601f19603f3d011682016040523d82523d6000602084013e6126ed565b606091505b50509050806127325760405162461bcd60e51b815260206004820152601160248201527015da5d1a191c985dd85b0819985a5b1959607a1b6044820152606401610514565b5050505b50600101612489565b600180546001600160a01b038381166001600160a01b0319831681179093556040519116919082907f8be0079c531659141344cd1fd0a4f28419497f9722a3daafe3b4186f6b6457e090600090a35050565b60606000805b83518110156127cf578381815181106127b2576127b2614b7b565b6020026020010151826127c59190614bf0565b9150600101612797565b50806000036127df575090919050565b60005b83518110156128375761281284828151811061280057612800614b7b565b6020026020010151620f42408461398e565b84828151811061282457612824614b7b565b60209081029190910101526001016127e2565b505090919050565b600061284961184a565b600034116128995760405162461bcd60e51b815260206004820152601a60248201527f4e617469766520617373657473206d75737420626520706169640000000000006044820152606401610514565b6000620f4240600080516020614f588339815191526001600160a01b0316630c17c6296040518163ffffffff1660e01b8152600401602060405180830381865afa1580156128eb573d6000803e3d6000fd5b505050506040513d601f19601f8201168201806040525081019061290f9190614b5e565b6001600160a01b031663a786ab756040518163ffffffff1660e01b8152600401602060405180830381865afa15801561294c573d6000803e3d6000fd5b505050506040513d601f19601f820116820180604052508101906129709190614bab565b61297a9034614e2c565b6129849190614e59565b9050600080516020614f588339815191526001600160a01b031663e00246046040518163ffffffff1660e01b8152600401602060405180830381865afa1580156129d2573d6000803e3d6000fd5b505050506040513d601f19601f820116820180604052508101906129f69190614b5e565b6001600160a01b031663ed2dd19b826040518263ffffffff1660e01b81526004016000604051808303818588803b158015612a3057600080fd5b505af1158015612a44573d6000803e3d6000fd5b505050505060008134612a579190614e19565b9050600080612a6560095490565b90506000612a71610b13565b90506000805b8251811015612aaf57828181518110612a9257612a92614b7b565b602002602001015182612aa59190614bf0565b9150600101612a77565b50801580612abb575082155b15612b5057600080516020614f3883398151915260009081526008602052600080516020614f7883398151915286905560025460408051630d0e30db60e41b815290518897506001600160a01b039092169263d0e30db0928892600480820193929182900301818588803b158015612b3257600080fd5b505af1158015612b46573d6000803e3d6000fd5b5050505050612ee7565b6000612b5a610522565b905060005b8351811015612ee4576000848281518110612b7c57612b7c614b7b565b60200260200101511115612edc576000620f4240858381518110612ba257612ba2614b7b565b602002602001015189612bb59190614e2c565b612bbf9190614e59565b9050600080516020614f388339815191526001600160a01b031660078381548110612bec57612bec614b7b565b6000918252602090912001546001600160a01b031614612dd4576000600080516020614f588339815191526001600160a01b031663588c2f146040518163ffffffff1660e01b8152600401602060405180830381865afa158015612c54573d6000803e3d6000fd5b505050506040513d601f19601f82011682018060405250810190612c789190614b5e565b6001600160a01b031663e8204d2c8360078681548110612c9a57612c9a614b7b565b60009182526020909120015460065460405160e085901b6001600160e01b03191681526001600160a01b039092166004830152602482015260440160206040518083038185885af1158015612cf3573d6000803e3d6000fd5b50505050506040513d601f19601f82011682018060405250810190612d189190614bab565b9050612d7081878581518110612d3057612d30614b7b565b602002602001015189612d439190614e2c565b620f4240878781518110612d5957612d59614b7b565b6020026020010151612d6b9190614e2c565b61398e565b612d7a9089614bf0565b9750806008600060078681548110612d9457612d94614b7b565b60009182526020808320909101546001600160a01b0316835282019290925260400181208054909190612dc8908490614bf0565b90915550612eda915050565b600260009054906101000a90046001600160a01b03166001600160a01b031663d0e30db0826040518263ffffffff1660e01b81526004016000604051808303818588803b158015612e2457600080fd5b505af1158015612e38573d6000803e3d6000fd5b5050505050612e7c81868481518110612e5357612e53614b7b565b602002602001015188612e669190614e2c565b620f4240868681518110612d5957612d59614b7b565b612e869088614bf0565b9650806008600060078581548110612ea057612ea0614b7b565b60009182526020808320909101546001600160a01b0316835282019290925260400181208054909190612ed4908490614bf0565b90915550505b505b600101612b5f565b50505b509194505050505090565b6001600160a01b038116600090815260086020526040902054612f575760405162461bcd60e51b815260206004820152601d60248201527f5573657220646f6573206e6f742068617665207468697320746f6b656e0000006044820152606401610514565b6001600160a01b03811660009081526008602090815260409182902054825163daabffe960e01b815292519092600080516020614f588339815191529263daabffe9926004808401938290030181865afa158015612fb9573d6000803e3d6000fd5b505050506040513d601f19601f82011682018060405250810190612fdd9190614b5e565b60405163e96da40360e01b81526001600160a01b038481166004830152919091169063e96da40390602401602060405180830381865afa158015613025573d6000803e3d6000fd5b505050506040513d601f19601f820116820180604052508101906130499190614c03565b6130655760405162461bcd60e51b815260040161051490614dae565b6130b582600080516020614f588339815191526001600160a01b031663daabffe96040518163ffffffff1660e01b8152600401602060405180830381865afa158015611e66573d6000803e3d6000fd5b600080516020614f588339815191526001600160a01b031663daabffe96040518163ffffffff1660e01b8152600401602060405180830381865afa158015613101573d6000803e3d6000fd5b505050506040513d601f19601f820116820180604052508101906131259190614b5e565b604051632547035560e01b81526001600160a01b038481166004830152602482018490529190911690632547035590604401600060405180830381600087803b15801561317157600080fd5b505af1158015613185573d6000803e3d6000fd5b505050506001600160a01b03821660009081526008602052604081208054839290611c7a908490614e19565b6000835160016131c19190614bf0565b83511461324f5760405162461bcd60e51b815260206004820152605060248201527f54686520646973747269627574696f6e206172726179206c656e677468206d7560448201527f737420657175616c20746865206e756d626572206f66206e657720617373657460648201526f1cc80ac81b985d1a5d9948185cdcd95d60821b608482015260a401610514565b6000805b845181101561328b5784818151811061326e5761326e614b7b565b6020026020010151826132819190614bf0565b9150600101613253565b50620f424081146132de5760405162461bcd60e51b815260206004820152601f60248201527f446973747269627574696f6e206d757374206265206e6f726d616c697a6564006044820152606401610514565b600160005b8651811015613456578681815181106132fe576132fe614b7b565b60200260200101516001600160a01b0316600080516020614f388339815191526001600160a01b031614806134445750600080516020614f588339815191526001600160a01b031663588c2f146040518163ffffffff1660e01b8152600401602060405180830381865afa15801561337a573d6000803e3d6000fd5b505050506040513d601f19601f8201168201806040525081019061339e9190614b5e565b6001600160a01b031663a3fcf6f68883815181106133be576133be614b7b565b6020026020010151600080516020614f388339815191526040518363ffffffff1660e01b81526004016133f2929190614b91565b6060604051808303816000875af1158015613411573d6000803e3d6000fd5b505050506040513d601f19601f820116820180604052508101906134359190614e7b565b604001516001600160801b0316155b1561344e57600091505b6001016132e3565b50806134a45760405162461bcd60e51b815260206004820152601d60248201527f41727261797320616e64204665657320617265206e6f742076616c69640000006044820152606401610514565b600754156138585760005b600754811015613856576134ea600782815481106134cf576134cf614b7b565b6000918252602090912001546001600160a01b031688613c4b565b15801561353257506000600860006007848154811061350b5761350b614b7b565b60009182526020808320909101546001600160a01b03168352820192909252604001902054115b801561357c5750600080516020614f388339815191526001600160a01b03166007828154811061356457613564614b7b565b6000918252602090912001546001600160a01b031614155b1561384e576136666007828154811061359757613597614b7b565b9060005260206000200160009054906101000a90046001600160a01b0316600080516020614f588339815191526001600160a01b031663588c2f146040518163ffffffff1660e01b8152600401602060405180830381865afa158015613601573d6000803e3d6000fd5b505050506040513d601f19601f820116820180604052508101906136259190614b5e565b600860006007868154811061363c5761363c614b7b565b60009182526020808320909101546001600160a01b03168352820192909252604001902054613a52565b6000600080516020614f588339815191526001600160a01b031663588c2f146040518163ffffffff1660e01b8152600401602060405180830381865afa1580156136b4573d6000803e3d6000fd5b505050506040513d601f19601f820116820180604052508101906136d89190614b5e565b6001600160a01b031663d485d512600784815481106136f9576136f9614b7b565b9060005260206000200160009054906101000a90046001600160a01b0316600080516020614f38833981519152600860006007888154811061373d5761373d614b7b565b60009182526020808320909101546001600160a01b0316835282019290925260409081019091205460065491516001600160e01b031960e087901b16815261378a94939290600401614df0565b6020604051808303816000875af11580156137a9573d6000803e3d6000fd5b505050506040513d601f19601f820116820180604052508101906137cd9190614bab565b9050600060086000600785815481106137e8576137e8614b7b565b60009182526020808320909101546001600160a01b03168352828101939093526040909101812092909255600080516020614f38833981519152825260089052600080516020614f788339815191528054839290613847908490614bf0565b9091555050505b6001016134af565b505b8551613865906001614bf0565b67ffffffffffffffff81111561387d5761387d614bc4565b6040519080825280602002602001820160405280156138a6578160200160208202803683370190505b5080516138bb91600791602090910190614a14565b5060005b8651811015613926578681815181106138da576138da614b7b565b6020026020010151600782815481106138f5576138f5614b7b565b600091825260209091200180546001600160a01b0319166001600160a01b03929092169190911790556001016138bf565b50600080516020614f38833981519152600787518154811061394a5761394a614b7b565b6000918252602082200180546001600160a01b0319166001600160a01b03939093169290921790915561397d8686613ca6565b4260035593505050505b9392505050565b60008383028160001985870982811083820303915050806000036139c5578382816139bb576139bb614e43565b0492505050613987565b8084116139e55760405163227bc15360e01b815260040160405180910390fd5b6000848688096000868103871696879004966002600389028118808a02820302808a02820302808a02820302808a02820302808a02820302808a02909103029181900381900460010186841190950394909402919094039290920491909117919091029150509392505050565b604080516001600160a01b038481166024830152604480830185905283518084039091018152606490920183526020820180516001600160e01b031663095ea7b360e01b1790529151600092839290871691613aae9190614f08565b6000604051808303816000865af19150503d8060008114613aeb576040519150601f19603f3d011682016040523d82523d6000602084013e613af0565b606091505b5091509150818015613b1a575080511580613b1a575080806020019051810190613b1a9190614c03565b613b4b5760405162461bcd60e51b8152602060048201526002602482015261534160f01b6044820152606401610514565b5050505050565b604080516001600160a01b038481166024830152604480830185905283518084039091018152606490920183526020820180516001600160e01b031663a9059cbb60e01b1790529151600092839290871691613bae9190614f08565b6000604051808303816000865af19150503d8060008114613beb576040519150601f19603f3d011682016040523d82523d6000602084013e613bf0565b606091505b5091509150818015613c1a575080511580613c1a575080806020019051810190613c1a9190614c03565b613b4b5760405162461bcd60e51b815260206004820152600260248201526114d560f21b6044820152606401610514565b6000805b8251811015613c9c57836001600160a01b0316838281518110613c7457613c74614b7b565b60200260200101516001600160a01b031603613c94576001915050610b0d565b600101613c4f565b5060009392505050565b600080613cb1610b13565b90506000805b8251811015613cef57828181518110613cd257613cd2614b7b565b602002602001015182613ce59190614bf0565b9150600101613cb7565b5080600003613d0357600092505050610b0d565b6000805b8651811015613dec57868181518110613d2257613d22614b7b565b6020026020010151848281518110613d3c57613d3c614b7b565b60200260200101511115613d9957868181518110613d5c57613d5c614b7b565b6020026020010151848281518110613d7657613d76614b7b565b6020026020010151613d889190614e19565b613d929083614bf0565b9150613de4565b838181518110613dab57613dab614b7b565b6020026020010151878281518110613dc557613dc5614b7b565b6020026020010151613dd79190614e19565b613de19083614bf0565b91505b600101613d07565b50613df5610fef565b613e00906002614e2c565b811015613e135760009350505050610b0d565b60008360018551613e249190614e19565b81518110613e3457613e34614b7b565b602090810291909101810151600080516020614f3883398151915260009081526008909252600080516020614f7883398151915254909250613e7a9088620f424061398e565b905060005b6007548110156142d057888181518110613e9b57613e9b614b7b565b6020026020010151868281518110613eb557613eb5614b7b565b6020026020010151118015613f085750600080516020614f388339815191526001600160a01b031660078281548110613ef057613ef0614b7b565b6000918252602090912001546001600160a01b031614155b156142c8576000613f586008600060078581548110613f2957613f29614b7b565b60009182526020808320909101546001600160a01b031683528201929092526040019020548a620f424061398e565b905060008a8381518110613f6e57613f6e614b7b565b6020026020010151888481518110613f8857613f88614b7b565b6020026020010151613f9a9190614e19565b90506000614008836008600060078881548110613fb957613fb9614b7b565b60009182526020808320909101546001600160a01b03168352820192909252604001902054613fe89190614e19565b838b8781518110613ffb57613ffb614b7b565b602002602001015161398e565b90506140bd6007858154811061402057614020614b7b565b9060005260206000200160009054906101000a90046001600160a01b0316600080516020614f588339815191526001600160a01b031663588c2f146040518163ffffffff1660e01b8152600401602060405180830381865afa15801561408a573d6000803e3d6000fd5b505050506040513d601f19601f820116820180604052508101906140ae9190614b5e565b6140b88685614bf0565b613a52565b6000600080516020614f588339815191526001600160a01b031663588c2f146040518163ffffffff1660e01b8152600401602060405180830381865afa15801561410b573d6000803e3d6000fd5b505050506040513d601f19601f8201168201806040525081019061412f9190614b5e565b6001600160a01b031663d485d5126007878154811061415057614150614b7b565b6000918252602090912001546006546040516001600160e01b031960e085901b16815261419c926001600160a01b031691600080516020614f3883398151915291889190600401614df0565b6020604051808303816000875af11580156141bb573d6000803e3d6000fd5b505050506040513d601f19601f820116820180604052508101906141df9190614bab565b905060006141ed8386614bf0565b111561421e576141fd8285614bf0565b6142078583614e2c565b6142119190614e59565b61421b9087614bf0565b95505b600080516020614f3883398151915260009081526008602052600080516020614f788339815191528054839290614256908490614bf0565b9091555061426690508483614bf0565b600860006007888154811061427d5761427d614b7b565b60009182526020808320909101546001600160a01b03168352820192909252604001812080549091906142b1908490614e19565b909155506142c190508388614bf0565b9650505050505b600101613e7f565b50600080516020614f3883398151915260009081526008602052600080516020614f7883398151915254614305908390614e19565b905060005b6007548110156146095786818151811061432657614326614b7b565b60200260200101518a828151811061434057614340614b7b565b60200260200101511180156143935750600080516020614f388339815191526001600160a01b03166007828154811061437b5761437b614b7b565b6000918252602090912001546001600160a01b031614155b156146015760008782815181106143ac576143ac614b7b565b60200260200101518b83815181106143c6576143c6614b7b565b60200260200101516143d89190614e19565b905060006143e784838861398e565b9050614447600080516020614f38833981519152600080516020614f588339815191526001600160a01b031663588c2f146040518163ffffffff1660e01b8152600401602060405180830381865afa158015611e66573d6000803e3d6000fd5b6000600080516020614f588339815191526001600160a01b031663588c2f146040518163ffffffff1660e01b8152600401602060405180830381865afa158015614495573d6000803e3d6000fd5b505050506040513d601f19601f820116820180604052508101906144b99190614b5e565b6001600160a01b031663d485d512600080516020614f38833981519152600787815481106144e9576144e9614b7b565b6000918252602090912001546006546040516001600160e01b031960e086901b16815261452593926001600160a01b0316918891600401614df0565b6020604051808303816000875af1158015614544573d6000803e3d6000fd5b505050506040513d601f19601f820116820180604052508101906145689190614bab565b600080516020614f3883398151915260009081526008602052600080516020614f78833981519152805492935084929091906145a5908490614e19565b925050819055508060086000600787815481106145c4576145c4614b7b565b60009182526020808320909101546001600160a01b03168352820192909252604001812080549091906145f8908490614bf0565b90915550505050505b60010161430a565b5081156149e557600080516020614f3883398151915260009081526008602052600080516020614f788339815191528054849290614648908490614e19565b9091555050600254604051632e1a7d4d60e01b8152600481018490526001600160a01b0390911690632e1a7d4d90602401600060405180830381600087803b15801561469357600080fd5b505af11580156146a7573d6000803e3d6000fd5b50505050600080516020614f588339815191526001600160a01b0316630c17c6296040518163ffffffff1660e01b8152600401602060405180830381865afa1580156146f7573d6000803e3d6000fd5b505050506040513d601f19601f8201168201806040525081019061471b9190614b5e565b6001600160a01b0316632bb14e1d6040518163ffffffff1660e01b8152600401602060405180830381865afa158015614758573d6000803e3d6000fd5b505050506040513d601f19601f8201168201806040525081019061477c9190614bab565b880361484a57600080516020614f588339815191526001600160a01b031663e00246046040518163ffffffff1660e01b8152600401602060405180830381865afa1580156147ce573d6000803e3d6000fd5b505050506040513d601f19601f820116820180604052508101906147f29190614b5e565b6001600160a01b031663d31c83f2836040518263ffffffff1660e01b81526004016000604051808303818588803b15801561482c57600080fd5b505af1158015614840573d6000803e3d6000fd5b50505050506149e5565b600080516020614f588339815191526001600160a01b0316630c17c6296040518163ffffffff1660e01b8152600401602060405180830381865afa158015614896573d6000803e3d6000fd5b505050506040513d601f19601f820116820180604052508101906148ba9190614b5e565b6001600160a01b031663242331a86040518163ffffffff1660e01b8152600401602060405180830381865afa1580156148f7573d6000803e3d6000fd5b505050506040513d601f19601f8201168201806040525081019061491b9190614bab565b88036149e557600080516020614f588339815191526001600160a01b031663e00246046040518163ffffffff1660e01b8152600401602060405180830381865afa15801561496d573d6000803e3d6000fd5b505050506040513d601f19601f820116820180604052508101906149919190614b5e565b6001600160a01b031663ed2dd19b836040518263ffffffff1660e01b81526004016000604051808303818588803b1580156149cb57600080fd5b505af11580156149df573d6000803e3d6000fd5b50505050505b620f4240886149f360095490565b6149fd9190614e2c565b614a079190614e59565b9998505050505050505050565b828054828255906000526020600020908101928215614a69579160200282015b82811115614a6957825182546001600160a01b0319166001600160a01b03909116178255602090920191600190910190614a34565b50614a75929150614a79565b5090565b5b80821115614a755760008155600101614a7a565b600060208284031215614aa057600080fd5b5035919050565b6020808252825182820181905260009190848201906040850190845b81811015614adf57835183529284019291840191600101614ac3565b50909695505050505050565b6001600160a01b03811681146104c357600080fd5b600060208284031215614b1257600080fd5b813561398781614aeb565b6020808252825182820181905260009190848201906040850190845b81811015614adf5783516001600160a01b031683529284019291840191600101614b39565b600060208284031215614b7057600080fd5b815161398781614aeb565b634e487b7160e01b600052603260045260246000fd5b6001600160a01b0392831681529116602082015260400190565b600060208284031215614bbd57600080fd5b5051919050565b634e487b7160e01b600052604160045260246000fd5b634e487b7160e01b600052601160045260246000fd5b80820180821115610b0d57610b0d614bda565b600060208284031215614c1557600080fd5b8151801515811461398757600080fd5b604051601f8201601f1916810167ffffffffffffffff81118282101715614c4e57614c4e614bc4565b604052919050565b600067ffffffffffffffff821115614c7057614c70614bc4565b5060051b60200190565b600082601f830112614c8b57600080fd5b81516020614ca0614c9b83614c56565b614c25565b8083825260208201915060208460051b870101935086841115614cc257600080fd5b602086015b84811015614cde5780518352918301918301614cc7565b509695505050505050565b60008060408385031215614cfc57600080fd5b825167ffffffffffffffff80821115614d1457600080fd5b818501915085601f830112614d2857600080fd5b81516020614d38614c9b83614c56565b82815260059290921b84018101918181019089841115614d5757600080fd5b948201945b83861015614d7e578551614d6f81614aeb565b82529482019490820190614d5c565b91880151919650909350505080821115614d9757600080fd5b50614da485828601614c7a565b9150509250929050565b60208082526022908201527f546f6b656e206973206e6f7420617661696c61626c6520666f72206c656e64696040820152616e6760f01b606082015260800190565b6001600160a01b0394851681529290931660208301526040820152606081019190915260800190565b81810381811115610b0d57610b0d614bda565b8082028115828204841417610b0d57610b0d614bda565b634e487b7160e01b600052601260045260246000fd5b600082614e7657634e487b7160e01b600052601260045260246000fd5b500490565b600060608284031215614e8d57600080fd5b6040516060810181811067ffffffffffffffff82111715614eb057614eb0614bc4565b604052825161ffff81168114614ec557600080fd5b8152602083015162ffffff81168114614edd57600080fd5b602082015260408301516001600160801b0381168114614efc57600080fd5b60408201529392505050565b6000825160005b81811015614f295760208186018101518583015201614f0f565b50600092019182525091905056fe00000000000000000000000082af49447d8a07e3bd95bd0d56f35241523fbab100000000000000000000000064b2079ec8aba8cf1c9827916702bf13c89f9584ce09d406285d0d98f8d7856cf5337fcbd8f91b9d4e3f0ab0ea2741da37b2c6fba264697066735822122096ef01892d90a2413fdeba0991050330c837ff5f85d11e90d4c8095303387d0664736f6c63430008190033","linkReferences":{}},"methodIdentifiers":{"changeDelegatedAddress(address)":"dca30f15","changeMaxSlippage(uint256)":"36bd0068","deposit()":"d0e30db0","getActualDistribution()":"98b6cb44","getAddresses()":"a39fac12","getAmountLendToken(address)":"7e8b217e","getAssets()":"67e4ac2c","getAssetsExtended()":"66774663","getDelegatedAddress()":"4e0ebe63","getLastTimestamp()":"37899770","getMinPercAllowance()":"ce96952c","getSupply()":"6c9c2faf","maxSlippage()":"8c04166f","owner()":"8da5cb5b","renounceOwnership()":"715018a6","setPortfolio()":"ff904dd5","tokenAddressesInit(uint256)":"d60f3fd5","transferOwnership(address)":"f2fde38b","withdraw(uint256)":"2e1a7d4d","withdrawBruteForced()":"70d4d730"},"id":6}