{"abi":[{"type":"constructor","inputs":[],"stateMutability":"nonpayable"},{"type":"function","name":"getRanking","inputs":[{"name":"timeSeries","type":"uint256[]","internalType":"uint256[]"},{"name":"performanceSeries","type":"uint256[]","internalType":"uint256[]"},{"name":"liquiditySeries","type":"uint256[]","internalType":"uint256[]"}],"outputs":[{"name":"","type":"uint256[]","internalType":"uint256[]"}],"stateMutability":"pure"}],"bytecode":{"object":"0x6080604052348015600f57600080fd5b50610b0a8061001f6000396000f3fe608060405234801561001057600080fd5b506004361061002b5760003560e01c8063d39620da14610030575b600080fd5b61004361003e366004610857565b610059565b60405161005091906108df565b60405180910390f35b825182516060919081146100c45760405162461bcd60e51b815260206004820152602760248201527f54696d6520616e6420646174612073686f756c642068617665207468652073616044820152666d652073697a6560c81b60648201526084015b60405180910390fd5b825181146101305760405162461bcd60e51b815260206004820152603360248201527f54696d6520616e64206c6971756964697479207365726965732073686f756c646044820152722068617665207468652073616d652073697a6560681b60648201526084016100bb565b6000808561013f600185610939565b8151811061014f5761014f61094c565b6020026020010151905060008660008151811061016e5761016e61094c565b602002602001015190506000886001866101889190610939565b815181106101985761019861094c565b602002602001015190506000896000815181106101b7576101b761094c565b60200260200101519050600080896000815181106101d7576101d761094c565b6020026020010151905060005b888110156102e35760008c82815181106102005761020061094c565b6020026020010151905060008e838151811061021e5761021e61094c565b6020026020010151905060008887896102379190610962565b6102418985610962565b61024b8c8e610962565b6102559190610989565b61025f91906109cf565b61026991906109fd565b6102739084610962565b9050600081121561028c5761028781610a25565b61028e565b805b61029890876109fd565b9550848e85815181106102ad576102ad61094c565b602002602001015110156102d8578d84815181106102cd576102cd61094c565b602002602001015194505b5050506001016101e4565b506102ef600289610939565b6102f990836109cf565b915061033a6040518060400160405280601981526020017f46696e616c207369676d6120696e20636f6e7472616374733a0000000000000081525083610593565b60008213156103e8576103e860008382610354898b610962565b61035e9190610989565b61036891906109cf565b9050600061037e6103798789610962565b6105dc565b9050600261038b856105dc565b6103ac6103988580610989565b6103a28780610989565b6103799190610a41565b6103b68486610989565b6103c091906109cf565b6103ca90846109fd565b6103d49190610a54565b6103de9190610a6b565b99505050506103ed565b600096505b60408051600480825260a082019092526000916020820160808036833701905050905060008c6000815181106104255761042561094c565b60200260200101518d60018c61043b9190610939565b8151811061044b5761044b61094c565b6020026020010151116104a6578c61046460018c610939565b815181106104745761047461094c565b60200260200101518d60008151811061048f5761048f61094c565b60200260200101516104a19190610939565b6104f1565b8c6000815181106104b9576104b961094c565b60200260200101518d60018c6104cf9190610939565b815181106104df576104df61094c565b60200260200101516104f19190610939565b905060008911610502576001610504565b885b826000815181106105175761051761094c565b60200260200101818152505080826001815181106105375761053761094c565b60200260200101818152505083826002815181106105575761055761094c565b60200260200101818152505082826003815181106105775761057761094c565b6020908102919091010152509c9b505050505050505050505050565b6105d882826040516024016105a9929190610a7f565b60408051601f198184030181529190526020810180516001600160e01b0316631e53134760e11b1790526106cb565b5050565b6000816000036105ee57506000919050565b600060016105fb846106d7565b901c6001901b90506001818481610614576106146109b9565b048201901c9050600181848161062c5761062c6109b9565b048201901c90506001818481610644576106446109b9565b048201901c9050600181848161065c5761065c6109b9565b048201901c90506001818481610674576106746109b9565b048201901c9050600181848161068c5761068c6109b9565b048201901c905060018184816106a4576106a46109b9565b048201901c90506106c4818285816106be576106be6109b9565b0461076c565b9392505050565b6106d481610782565b50565b600080608083901c156106ec57608092831c92015b604083901c156106fe57604092831c92015b602083901c1561071057602092831c92015b601083901c1561072257601092831c92015b600883901c1561073457600892831c92015b600483901c1561074657600492831c92015b600283901c1561075857600292831c92015b600183901c15610766576001015b92915050565b600081831061077b57816106c4565b5090919050565b80516a636f6e736f6c652e6c6f67602083016000808483855afa5050505050565b634e487b7160e01b600052604160045260246000fd5b600082601f8301126107ca57600080fd5b8135602067ffffffffffffffff808311156107e7576107e76107a3565b8260051b604051601f19603f8301168101818110848211171561080c5761080c6107a3565b604052938452602081870181019490810192508785111561082c57600080fd5b6020870191505b8482101561084c57813583529183019190830190610833565b979650505050505050565b60008060006060848603121561086c57600080fd5b833567ffffffffffffffff8082111561088457600080fd5b610890878388016107b9565b945060208601359150808211156108a657600080fd5b6108b2878388016107b9565b935060408601359150808211156108c857600080fd5b506108d5868287016107b9565b9150509250925092565b6020808252825182820181905260009190848201906040850190845b81811015610917578351835292840192918401916001016108fb565b50909695505050505050565b634e487b7160e01b600052601160045260246000fd5b8181038181111561076657610766610923565b634e487b7160e01b600052603260045260246000fd5b818103600083128015838313168383128216171561098257610982610923565b5092915050565b80820260008212600160ff1b841416156109a5576109a5610923565b818105831482151761076657610766610923565b634e487b7160e01b600052601260045260246000fd5b6000826109de576109de6109b9565b600160ff1b8214600019841416156109f8576109f8610923565b500590565b8082018281126000831280158216821582161715610a1d57610a1d610923565b505092915050565b6000600160ff1b8201610a3a57610a3a610923565b5060000390565b8082018082111561076657610766610923565b808202811582820484141761076657610766610923565b600082610a7a57610a7a6109b9565b500490565b604081526000835180604084015260005b81811015610aad5760208187018101516060868401015201610a90565b506000606082850101526060601f19601f830116840101915050826020830152939250505056fea26469706673582212202d068f87a9d5d9bf7828a65660dd50b34b7158cce545b342c0585106752aad2864736f6c63430008190033","linkReferences":{}},"methodIdentifiers":{"getRanking(uint256[],uint256[],uint256[])":"d39620da"},"storageLayout":{"storage":[],"types":{}},"id":9}