{"abi":[{"type":"constructor","inputs":[],"stateMutability":"nonpayable"},{"type":"function","name":"getRanking","inputs":[{"name":"timeSeries","type":"uint256[]","internalType":"uint256[]"},{"name":"performanceSeries","type":"uint256[]","internalType":"uint256[]"},{"name":"liquiditySeries","type":"uint256[]","internalType":"uint256[]"}],"outputs":[{"name":"","type":"uint256[]","internalType":"uint256[]"}],"stateMutability":"pure"}],"bytecode":{"object":"0x6080604052348015600f57600080fd5b50610a008061001f6000396000f3fe608060405234801561001057600080fd5b506004361061002b5760003560e01c8063d39620da14610030575b600080fd5b61004361003e3660046107a2565b610059565b604051610050919061082a565b60405180910390f35b825182516060919081146100c45760405162461bcd60e51b815260206004820152602760248201527f54696d6520616e6420646174612073686f756c642068617665207468652073616044820152666d652073697a6560c81b60648201526084015b60405180910390fd5b825181146101305760405162461bcd60e51b815260206004820152603360248201527f54696d6520616e64206c6971756964697479207365726965732073686f756c646044820152722068617665207468652073616d652073697a6560681b60648201526084016100bb565b6000808561013f600185610884565b8151811061014f5761014f610897565b6020026020010151905060008660008151811061016e5761016e610897565b602002602001015190506000886001866101889190610884565b8151811061019857610198610897565b602002602001015190506000896000815181106101b7576101b7610897565b60200260200101519050600080896000815181106101d7576101d7610897565b6020026020010151905060005b888110156102e35760008c828151811061020057610200610897565b6020026020010151905060008e838151811061021e5761021e610897565b60200260200101519050600088878961023791906108ad565b61024189856108ad565b61024b8c8e6108ad565b61025591906108d4565b61025f919061091a565b6102699190610948565b61027390846108ad565b9050600081121561028c5761028781610970565b61028e565b805b6102989087610948565b9550848e85815181106102ad576102ad610897565b602002602001015110156102d8578d84815181106102cd576102cd610897565b602002602001015194505b5050506001016101e4565b506102ef600289610884565b6102f9908361091a565b915060008213156103a9576103e860008382610315898b6108ad565b61031f91906108d4565b610329919061091a565b9050600061033f61033a87896108ad565b610554565b9050600261034c85610554565b61036d61035985806108d4565b61036387806108d4565b61033a919061098c565b61037784866108d4565b610381919061091a565b61038b9084610948565b610395919061099f565b61039f91906109b6565b99505050506103ae565b600096505b60408051600480825260a082019092526000916020820160808036833701905050905060008c6000815181106103e6576103e6610897565b60200260200101518d60018c6103fc9190610884565b8151811061040c5761040c610897565b602002602001015111610467578c61042560018c610884565b8151811061043557610435610897565b60200260200101518d60008151811061045057610450610897565b60200260200101516104629190610884565b6104b2565b8c60008151811061047a5761047a610897565b60200260200101518d60018c6104909190610884565b815181106104a0576104a0610897565b60200260200101516104b29190610884565b9050600089116104c35760016104c5565b885b826000815181106104d8576104d8610897565b60200260200101818152505080826001815181106104f8576104f8610897565b602002602001018181525050838260028151811061051857610518610897565b602002602001018181525050828260038151811061053857610538610897565b6020908102919091010152509c9b505050505050505050505050565b60008160000361056657506000919050565b6000600161057384610643565b901c6001901b9050600181848161058c5761058c610904565b048201901c905060018184816105a4576105a4610904565b048201901c905060018184816105bc576105bc610904565b048201901c905060018184816105d4576105d4610904565b048201901c905060018184816105ec576105ec610904565b048201901c9050600181848161060457610604610904565b048201901c9050600181848161061c5761061c610904565b048201901c905061063c8182858161063657610636610904565b046106d8565b9392505050565b600080608083901c1561065857608092831c92015b604083901c1561066a57604092831c92015b602083901c1561067c57602092831c92015b601083901c1561068e57601092831c92015b600883901c156106a057600892831c92015b600483901c156106b257600492831c92015b600283901c156106c457600292831c92015b600183901c156106d2576001015b92915050565b60008183106106e7578161063c565b5090919050565b634e487b7160e01b600052604160045260246000fd5b600082601f83011261071557600080fd5b8135602067ffffffffffffffff80831115610732576107326106ee565b8260051b604051601f19603f83011681018181108482111715610757576107576106ee565b604052938452602081870181019490810192508785111561077757600080fd5b6020870191505b848210156107975781358352918301919083019061077e565b979650505050505050565b6000806000606084860312156107b757600080fd5b833567ffffffffffffffff808211156107cf57600080fd5b6107db87838801610704565b945060208601359150808211156107f157600080fd5b6107fd87838801610704565b9350604086013591508082111561081357600080fd5b5061082086828701610704565b9150509250925092565b6020808252825182820181905260009190848201906040850190845b8181101561086257835183529284019291840191600101610846565b50909695505050505050565b634e487b7160e01b600052601160045260246000fd5b818103818111156106d2576106d261086e565b634e487b7160e01b600052603260045260246000fd5b81810360008312801583831316838312821617156108cd576108cd61086e565b5092915050565b80820260008212600160ff1b841416156108f0576108f061086e565b81810583148215176106d2576106d261086e565b634e487b7160e01b600052601260045260246000fd5b60008261092957610929610904565b600160ff1b8214600019841416156109435761094361086e565b500590565b80820182811260008312801582168215821617156109685761096861086e565b505092915050565b6000600160ff1b82016109855761098561086e565b5060000390565b808201808211156106d2576106d261086e565b80820281158282048414176106d2576106d261086e565b6000826109c5576109c5610904565b50049056fea264697066735822122056577867f0307afbf1066f1ca45923faf594998bb7da883137cf66beb7cec65d64736f6c63430008190033","linkReferences":{}},"methodIdentifiers":{"getRanking(uint256[],uint256[],uint256[])":"d39620da"},"id":9}